{
  "address": "0xb1FCD849d958Ee80404d109FFff911c963f12d77",
  "abi": [
    {
      "inputs": [],
      "stateMutability": "nonpayable",
      "type": "constructor"
    },
    {
      "inputs": [],
      "name": "AccessControlBadConfirmation",
      "type": "error"
    },
    {
      "inputs": [
        {
          "internalType": "address",
          "name": "account",
          "type": "address"
        },
        {
          "internalType": "bytes32",
          "name": "neededRole",
          "type": "bytes32"
        }
      ],
      "name": "AccessControlUnauthorizedAccount",
      "type": "error"
    },
    {
      "inputs": [],
      "name": "InvalidInitialization",
      "type": "error"
    },
    {
      "inputs": [],
      "name": "NotInitializing",
      "type": "error"
    },
    {
      "anonymous": false,
      "inputs": [],
      "name": "EIP712DomainChanged",
      "type": "event"
    },
    {
      "anonymous": false,
      "inputs": [
        {
          "indexed": false,
          "internalType": "uint64",
          "name": "version",
          "type": "uint64"
        }
      ],
      "name": "Initialized",
      "type": "event"
    },
    {
      "anonymous": false,
      "inputs": [
        {
          "indexed": false,
          "internalType": "address",
          "name": "recipient",
          "type": "address"
        },
        {
          "indexed": false,
          "internalType": "uint256",
          "name": "tokenId",
          "type": "uint256"
        },
        {
          "indexed": false,
          "internalType": "address",
          "name": "ipId",
          "type": "address"
        }
      ],
      "name": "NFTMinted",
      "type": "event"
    },
    {
      "anonymous": false,
      "inputs": [
        {
          "indexed": true,
          "internalType": "bytes32",
          "name": "role",
          "type": "bytes32"
        },
        {
          "indexed": true,
          "internalType": "bytes32",
          "name": "previousAdminRole",
          "type": "bytes32"
        },
        {
          "indexed": true,
          "internalType": "bytes32",
          "name": "newAdminRole",
          "type": "bytes32"
        }
      ],
      "name": "RoleAdminChanged",
      "type": "event"
    },
    {
      "anonymous": false,
      "inputs": [
        {
          "indexed": true,
          "internalType": "bytes32",
          "name": "role",
          "type": "bytes32"
        },
        {
          "indexed": true,
          "internalType": "address",
          "name": "account",
          "type": "address"
        },
        {
          "indexed": true,
          "internalType": "address",
          "name": "sender",
          "type": "address"
        }
      ],
      "name": "RoleGranted",
      "type": "event"
    },
    {
      "anonymous": false,
      "inputs": [
        {
          "indexed": true,
          "internalType": "bytes32",
          "name": "role",
          "type": "bytes32"
        },
        {
          "indexed": true,
          "internalType": "address",
          "name": "account",
          "type": "address"
        },
        {
          "indexed": true,
          "internalType": "address",
          "name": "sender",
          "type": "address"
        }
      ],
      "name": "RoleRevoked",
      "type": "event"
    },
    {
      "inputs": [],
      "name": "CORE_METADATA_MODULE",
      "outputs": [
        {
          "internalType": "address",
          "name": "",
          "type": "address"
        }
      ],
      "stateMutability": "view",
      "type": "function"
    },
    {
      "inputs": [],
      "name": "DEFAULT_ADMIN_ROLE",
      "outputs": [
        {
          "internalType": "bytes32",
          "name": "",
          "type": "bytes32"
        }
      ],
      "stateMutability": "view",
      "type": "function"
    },
    {
      "inputs": [],
      "name": "DEFAULT_LICENSE_TERMS_ID",
      "outputs": [
        {
          "internalType": "uint256",
          "name": "",
          "type": "uint256"
        }
      ],
      "stateMutability": "view",
      "type": "function"
    },
    {
      "inputs": [],
      "name": "IP_ASSET_REGISTRY",
      "outputs": [
        {
          "internalType": "address",
          "name": "",
          "type": "address"
        }
      ],
      "stateMutability": "view",
      "type": "function"
    },
    {
      "inputs": [],
      "name": "LICENSING_MODULE",
      "outputs": [
        {
          "internalType": "address",
          "name": "",
          "type": "address"
        }
      ],
      "stateMutability": "view",
      "type": "function"
    },
    {
      "inputs": [],
      "name": "MULTIROUND_CONTRACT",
      "outputs": [
        {
          "internalType": "address",
          "name": "",
          "type": "address"
        }
      ],
      "stateMutability": "view",
      "type": "function"
    },
    {
      "inputs": [],
      "name": "NFT_CONTRACT",
      "outputs": [
        {
          "internalType": "address",
          "name": "",
          "type": "address"
        }
      ],
      "stateMutability": "view",
      "type": "function"
    },
    {
      "inputs": [],
      "name": "OWNER_ROLE",
      "outputs": [
        {
          "internalType": "bytes32",
          "name": "",
          "type": "bytes32"
        }
      ],
      "stateMutability": "view",
      "type": "function"
    },
    {
      "inputs": [],
      "name": "PIL_TEMPLATE",
      "outputs": [
        {
          "internalType": "address",
          "name": "",
          "type": "address"
        }
      ],
      "stateMutability": "view",
      "type": "function"
    },
    {
      "inputs": [],
      "name": "eip712Domain",
      "outputs": [
        {
          "internalType": "bytes1",
          "name": "fields",
          "type": "bytes1"
        },
        {
          "internalType": "string",
          "name": "name",
          "type": "string"
        },
        {
          "internalType": "string",
          "name": "version",
          "type": "string"
        },
        {
          "internalType": "uint256",
          "name": "chainId",
          "type": "uint256"
        },
        {
          "internalType": "address",
          "name": "verifyingContract",
          "type": "address"
        },
        {
          "internalType": "bytes32",
          "name": "salt",
          "type": "bytes32"
        },
        {
          "internalType": "uint256[]",
          "name": "extensions",
          "type": "uint256[]"
        }
      ],
      "stateMutability": "view",
      "type": "function"
    },
    {
      "inputs": [
        {
          "internalType": "bool",
          "name": "isTest_",
          "type": "bool"
        }
      ],
      "name": "enableTestMode",
      "outputs": [],
      "stateMutability": "nonpayable",
      "type": "function"
    },
    {
      "inputs": [
        {
          "internalType": "bytes32",
          "name": "role",
          "type": "bytes32"
        }
      ],
      "name": "getRoleAdmin",
      "outputs": [
        {
          "internalType": "bytes32",
          "name": "",
          "type": "bytes32"
        }
      ],
      "stateMutability": "view",
      "type": "function"
    },
    {
      "inputs": [
        {
          "internalType": "bytes32",
          "name": "role",
          "type": "bytes32"
        },
        {
          "internalType": "address",
          "name": "account",
          "type": "address"
        }
      ],
      "name": "grantRole",
      "outputs": [],
      "stateMutability": "nonpayable",
      "type": "function"
    },
    {
      "inputs": [
        {
          "internalType": "bytes32",
          "name": "role",
          "type": "bytes32"
        },
        {
          "internalType": "address",
          "name": "account",
          "type": "address"
        }
      ],
      "name": "hasRole",
      "outputs": [
        {
          "internalType": "bool",
          "name": "",
          "type": "bool"
        }
      ],
      "stateMutability": "view",
      "type": "function"
    },
    {
      "inputs": [
        {
          "internalType": "address",
          "name": "defaultAdmin",
          "type": "address"
        },
        {
          "internalType": "address",
          "name": "owner",
          "type": "address"
        },
        {
          "internalType": "address",
          "name": "nftContract",
          "type": "address"
        },
        {
          "internalType": "address",
          "name": "multiRoundContract",
          "type": "address"
        },
        {
          "components": [
            {
              "components": [
                {
                  "internalType": "address",
                  "name": "contractAddress",
                  "type": "address"
                },
                {
                  "internalType": "uint256",
                  "name": "tokenId",
                  "type": "uint256"
                },
                {
                  "internalType": "address",
                  "name": "ipId",
                  "type": "address"
                }
              ],
              "internalType": "struct IMimbokuMultiround.RootNFT",
              "name": "rootNFT",
              "type": "tuple"
            },
            {
              "internalType": "uint256",
              "name": "defaultLicenseTermsId",
              "type": "uint256"
            },
            {
              "internalType": "address",
              "name": "pilTemplate",
              "type": "address"
            },
            {
              "internalType": "address",
              "name": "ipAssetRegistry",
              "type": "address"
            },
            {
              "internalType": "address",
              "name": "coreMetadataModule",
              "type": "address"
            },
            {
              "internalType": "address",
              "name": "licenseModule",
              "type": "address"
            },
            {
              "internalType": "string",
              "name": "ipMetadataURI",
              "type": "string"
            },
            {
              "internalType": "bytes32",
              "name": "ipMetadataHash",
              "type": "bytes32"
            }
          ],
          "internalType": "struct IMimbokuMultiround.IPMetadata",
          "name": "ipMetadata",
          "type": "tuple"
        }
      ],
      "name": "initialize",
      "outputs": [],
      "stateMutability": "nonpayable",
      "type": "function"
    },
    {
      "inputs": [],
      "name": "ipMetadataHash",
      "outputs": [
        {
          "internalType": "bytes32",
          "name": "",
          "type": "bytes32"
        }
      ],
      "stateMutability": "view",
      "type": "function"
    },
    {
      "inputs": [],
      "name": "ipMetadataURI",
      "outputs": [
        {
          "internalType": "string",
          "name": "",
          "type": "string"
        }
      ],
      "stateMutability": "view",
      "type": "function"
    },
    {
      "inputs": [],
      "name": "isTest",
      "outputs": [
        {
          "internalType": "bool",
          "name": "",
          "type": "bool"
        }
      ],
      "stateMutability": "view",
      "type": "function"
    },
    {
      "inputs": [],
      "name": "lastMintedTokenId",
      "outputs": [
        {
          "internalType": "uint256",
          "name": "",
          "type": "uint256"
        }
      ],
      "stateMutability": "view",
      "type": "function"
    },
    {
      "inputs": [],
      "name": "maxSupply",
      "outputs": [
        {
          "internalType": "uint256",
          "name": "",
          "type": "uint256"
        }
      ],
      "stateMutability": "view",
      "type": "function"
    },
    {
      "inputs": [
        {
          "internalType": "string",
          "name": "stage",
          "type": "string"
        },
        {
          "internalType": "bytes",
          "name": "signature",
          "type": "bytes"
        },
        {
          "internalType": "bytes32[]",
          "name": "proof",
          "type": "bytes32[]"
        },
        {
          "components": [
            {
              "internalType": "uint256",
              "name": "amount",
              "type": "uint256"
            },
            {
              "internalType": "uint256",
              "name": "tokenId",
              "type": "uint256"
            },
            {
              "internalType": "uint256",
              "name": "nonce",
              "type": "uint256"
            },
            {
              "internalType": "uint256",
              "name": "expiry",
              "type": "uint256"
            },
            {
              "internalType": "address",
              "name": "to",
              "type": "address"
            }
          ],
          "internalType": "struct IOKXMultiMint.MintParams",
          "name": "mintparams",
          "type": "tuple"
        }
      ],
      "name": "mint",
      "outputs": [],
      "stateMutability": "payable",
      "type": "function"
    },
    {
      "inputs": [
        {
          "internalType": "address",
          "name": "to",
          "type": "address"
        },
        {
          "internalType": "string",
          "name": "stage",
          "type": "string"
        }
      ],
      "name": "mintRecord",
      "outputs": [
        {
          "internalType": "uint256",
          "name": "",
          "type": "uint256"
        }
      ],
      "stateMutability": "view",
      "type": "function"
    },
    {
      "inputs": [
        {
          "internalType": "address",
          "name": "to",
          "type": "address"
        },
        {
          "internalType": "uint256",
          "name": "tokenId_",
          "type": "uint256"
        }
      ],
      "name": "preMint",
      "outputs": [
        {
          "internalType": "address",
          "name": "ipId",
          "type": "address"
        }
      ],
      "stateMutability": "nonpayable",
      "type": "function"
    },
    {
      "inputs": [],
      "name": "preMintedCount",
      "outputs": [
        {
          "internalType": "uint256",
          "name": "",
          "type": "uint256"
        }
      ],
      "stateMutability": "view",
      "type": "function"
    },
    {
      "inputs": [
        {
          "internalType": "bytes32",
          "name": "role",
          "type": "bytes32"
        },
        {
          "internalType": "address",
          "name": "callerConfirmation",
          "type": "address"
        }
      ],
      "name": "renounceRole",
      "outputs": [],
      "stateMutability": "nonpayable",
      "type": "function"
    },
    {
      "inputs": [
        {
          "internalType": "bytes32",
          "name": "role",
          "type": "bytes32"
        },
        {
          "internalType": "address",
          "name": "account",
          "type": "address"
        }
      ],
      "name": "revokeRole",
      "outputs": [],
      "stateMutability": "nonpayable",
      "type": "function"
    },
    {
      "inputs": [],
      "name": "rootNFT",
      "outputs": [
        {
          "internalType": "address",
          "name": "contractAddress",
          "type": "address"
        },
        {
          "internalType": "uint256",
          "name": "tokenId",
          "type": "uint256"
        },
        {
          "internalType": "address",
          "name": "ipId",
          "type": "address"
        }
      ],
      "stateMutability": "view",
      "type": "function"
    },
    {
      "inputs": [
        {
          "internalType": "address",
          "name": "signer",
          "type": "address"
        },
        {
          "internalType": "bool",
          "name": "status",
          "type": "bool"
        }
      ],
      "name": "setActiveSigner",
      "outputs": [],
      "stateMutability": "nonpayable",
      "type": "function"
    },
    {
      "inputs": [
        {
          "internalType": "address",
          "name": "nftContract",
          "type": "address"
        },
        {
          "internalType": "address",
          "name": "multiRoundContract",
          "type": "address"
        }
      ],
      "name": "setContracts",
      "outputs": [],
      "stateMutability": "nonpayable",
      "type": "function"
    },
    {
      "inputs": [
        {
          "internalType": "uint256",
          "name": "newMaxSupply",
          "type": "uint256"
        }
      ],
      "name": "setMaxsupply",
      "outputs": [],
      "stateMutability": "nonpayable",
      "type": "function"
    },
    {
      "inputs": [
        {
          "internalType": "uint256",
          "name": "count",
          "type": "uint256"
        }
      ],
      "name": "setPreMintedCount",
      "outputs": [],
      "stateMutability": "nonpayable",
      "type": "function"
    },
    {
      "inputs": [
        {
          "internalType": "address",
          "name": "signer_",
          "type": "address"
        }
      ],
      "name": "setSigner",
      "outputs": [],
      "stateMutability": "nonpayable",
      "type": "function"
    },
    {
      "inputs": [
        {
          "internalType": "string",
          "name": "stage",
          "type": "string"
        },
        {
          "internalType": "bool",
          "name": "enableSig",
          "type": "bool"
        }
      ],
      "name": "setStageEnableSig",
      "outputs": [],
      "stateMutability": "nonpayable",
      "type": "function"
    },
    {
      "inputs": [
        {
          "internalType": "string",
          "name": "stage",
          "type": "string"
        },
        {
          "internalType": "uint32",
          "name": "maxSupply_",
          "type": "uint32"
        }
      ],
      "name": "setStageMaxSupply",
      "outputs": [],
      "stateMutability": "nonpayable",
      "type": "function"
    },
    {
      "inputs": [
        {
          "components": [
            {
              "internalType": "bool",
              "name": "enableSig",
              "type": "bool"
            },
            {
              "internalType": "uint8",
              "name": "limitationForAddress",
              "type": "uint8"
            },
            {
              "internalType": "uint32",
              "name": "maxSupplyForStage",
              "type": "uint32"
            },
            {
              "internalType": "uint64",
              "name": "startTime",
              "type": "uint64"
            },
            {
              "internalType": "uint64",
              "name": "endTime",
              "type": "uint64"
            },
            {
              "internalType": "uint256",
              "name": "price",
              "type": "uint256"
            },
            {
              "internalType": "address",
              "name": "paymentToken",
              "type": "address"
            },
            {
              "internalType": "address",
              "name": "payeeAddress",
              "type": "address"
            },
            {
              "internalType": "bytes32",
              "name": "allowListMerkleRoot",
              "type": "bytes32"
            },
            {
              "internalType": "string",
              "name": "stage",
              "type": "string"
            },
            {
              "internalType": "enum IOKXMultiMint.MintType",
              "name": "mintType",
              "type": "uint8"
            }
          ],
          "internalType": "struct IOKXMultiMint.StageMintInfo",
          "name": "stageMintInfo",
          "type": "tuple"
        }
      ],
      "name": "setStageMintInfo",
      "outputs": [],
      "stateMutability": "nonpayable",
      "type": "function"
    },
    {
      "inputs": [
        {
          "internalType": "string",
          "name": "stage",
          "type": "string"
        },
        {
          "internalType": "uint8",
          "name": "mintLimitationPerAddress",
          "type": "uint8"
        }
      ],
      "name": "setStageMintLimitationPerAddress",
      "outputs": [],
      "stateMutability": "nonpayable",
      "type": "function"
    },
    {
      "inputs": [
        {
          "internalType": "string",
          "name": "stage",
          "type": "string"
        },
        {
          "internalType": "uint64",
          "name": "startTime",
          "type": "uint64"
        },
        {
          "internalType": "uint64",
          "name": "endTime",
          "type": "uint64"
        }
      ],
      "name": "setStageMintTime",
      "outputs": [],
      "stateMutability": "nonpayable",
      "type": "function"
    },
    {
      "inputs": [
        {
          "internalType": "string",
          "name": "stage",
          "type": "string"
        },
        {
          "internalType": "address",
          "name": "payeeAddress",
          "type": "address"
        },
        {
          "internalType": "address",
          "name": "paymentToken",
          "type": "address"
        },
        {
          "internalType": "uint256",
          "name": "price",
          "type": "uint256"
        }
      ],
      "name": "setStagePayment",
      "outputs": [],
      "stateMutability": "nonpayable",
      "type": "function"
    },
    {
      "inputs": [
        {
          "internalType": "bool",
          "name": "isTransferRestricted_",
          "type": "bool"
        },
        {
          "internalType": "uint64",
          "name": "startTime",
          "type": "uint64"
        },
        {
          "internalType": "uint64",
          "name": "endTime",
          "type": "uint64"
        }
      ],
      "name": "setTransferRestrict",
      "outputs": [],
      "stateMutability": "nonpayable",
      "type": "function"
    },
    {
      "inputs": [
        {
          "internalType": "string",
          "name": "stage_",
          "type": "string"
        }
      ],
      "name": "stageToMint",
      "outputs": [
        {
          "internalType": "bool",
          "name": "enableSig",
          "type": "bool"
        },
        {
          "internalType": "uint8",
          "name": "limitationForAddress",
          "type": "uint8"
        },
        {
          "internalType": "uint32",
          "name": "maxSupplyForStage",
          "type": "uint32"
        },
        {
          "internalType": "uint64",
          "name": "startTime",
          "type": "uint64"
        },
        {
          "internalType": "uint64",
          "name": "endTime",
          "type": "uint64"
        },
        {
          "internalType": "uint256",
          "name": "price",
          "type": "uint256"
        },
        {
          "internalType": "address",
          "name": "paymentToken",
          "type": "address"
        },
        {
          "internalType": "address",
          "name": "payeeAddress",
          "type": "address"
        },
        {
          "internalType": "bytes32",
          "name": "allowListMerkleRoot",
          "type": "bytes32"
        },
        {
          "internalType": "string",
          "name": "stage",
          "type": "string"
        },
        {
          "internalType": "enum IOKXMultiMint.MintType",
          "name": "mintType",
          "type": "uint8"
        }
      ],
      "stateMutability": "view",
      "type": "function"
    },
    {
      "inputs": [
        {
          "internalType": "string",
          "name": "stage",
          "type": "string"
        }
      ],
      "name": "stageToTotalSupply",
      "outputs": [
        {
          "internalType": "uint256",
          "name": "",
          "type": "uint256"
        }
      ],
      "stateMutability": "view",
      "type": "function"
    },
    {
      "inputs": [
        {
          "internalType": "bytes4",
          "name": "interfaceId",
          "type": "bytes4"
        }
      ],
      "name": "supportsInterface",
      "outputs": [
        {
          "internalType": "bool",
          "name": "",
          "type": "bool"
        }
      ],
      "stateMutability": "view",
      "type": "function"
    },
    {
      "inputs": [],
      "name": "totalSupply",
      "outputs": [
        {
          "internalType": "uint256",
          "name": "",
          "type": "uint256"
        }
      ],
      "stateMutability": "view",
      "type": "function"
    }
  ],
  "transactionHash": "0x51565249047786a50904b6c3f44956ce896cd7fe1c554ab0589322a129cfd777",
  "args": [],
  "numDeployments": 1,
  "solcInputHash": "9d392f79ae3a83f303a3766cea3c5cfd",
  "bytecode": "0x608060405234801561001057600080fd5b5061001f61002460201b60201c565b61018e565b600061003461012860201b60201c565b90508060000160089054906101000a900460ff161561007f576040517ff92ee8a900000000000000000000000000000000000000000000000000000000815260040160405180910390fd5b67ffffffffffffffff80168160000160009054906101000a900467ffffffffffffffff1667ffffffffffffffff16146101255767ffffffffffffffff8160000160006101000a81548167ffffffffffffffff021916908367ffffffffffffffff1602179055507fc7f505b2f371ae2175ee4913f4499e1f2633a7b5936321eed1cdaeb6115181d267ffffffffffffffff60405161011c9190610173565b60405180910390a15b50565b60007ff0c57e16840df040f15088dc2f81fe391c3923bec73e23a9662efc9c229c6a00905090565b600067ffffffffffffffff82169050919050565b61016d81610150565b82525050565b60006020820190506101886000830184610164565b92915050565b615e908061019d6000396000f3fe60806040526004361061025c5760003560e01c806384b0196e11610144578063aa4daf24116100b6578063d547741f1161007a578063d547741f146108fd578063d5abeb0114610926578063d8952a4914610951578063e32e2bbc1461097a578063e58378bb146109a3578063ec97120d146109ce5761025c565b8063aa4daf241461083d578063b67f21be14610859578063bbfc685514610882578063ce617ce5146108ab578063d4aa8d6f146108d45761025c565b806391d148541161010857806391d14854146107195780639381a345146107565780639fe78f7914610781578063a217fddf146107be578063a5f5a4a8146107e9578063a95feefe146108125761025c565b806384b0196e1461063e5780638d897a341461066f5780638e7d25a8146106985780639035e5a6146106c557806391cf204a146106f05761025c565b80632f2ff15d116101dd5780634fb5656a116101a15780634fb5656a1461054257806362f428221461056b5780636508b10a1461059457806365165aa5146105bf5780636c19e783146105ea5780637f586604146106135761025c565b80632f2ff15d1461045357806336568abe1461047c57806341c782c5146104a55780634b6d9411146104d05780634d73cbd5146104fb5761025c565b806318160ddd1161022457806318160ddd1461035a5780631fda9a0214610385578063248a9ca3146103b057806328c1a4f5146103ed578063290c292d146104165761025c565b806301ffc9a7146102615780630f9f6cbd1461029e5780630fbe291a146102c957806312c4ce8814610306578063149835a014610331575b600080fd5b34801561026d57600080fd5b506102886004803603810190610283919061371d565b6109f9565b6040516102959190613765565b60405180910390f35b3480156102aa57600080fd5b506102b3610a73565b6040516102c09190613810565b60405180910390f35b3480156102d557600080fd5b506102f060048036038101906102eb91906139c5565b610b01565b6040516102fd9190613a3a565b60405180910390f35b34801561031257600080fd5b5061031b610ba9565b6040516103289190613a64565b60405180910390f35b34801561033d57600080fd5b5061035860048036038101906103539190613aab565b610bcf565b005b34801561036657600080fd5b5061036f610c85565b60405161037c9190613a3a565b60405180910390f35b34801561039157600080fd5b5061039a610d1d565b6040516103a79190613a64565b60405180910390f35b3480156103bc57600080fd5b506103d760048036038101906103d29190613b0e565b610d41565b6040516103e49190613b4a565b60405180910390f35b3480156103f957600080fd5b50610414600480360381019061040f9190613b91565b610d6f565b005b34801561042257600080fd5b5061043d60048036038101906104389190613bd1565b610e2d565b60405161044a9190613a64565b60405180910390f35b34801561045f57600080fd5b5061047a60048036038101906104759190613c11565b610ff5565b005b34801561048857600080fd5b506104a3600480360381019061049e9190613c11565b611017565b005b3480156104b157600080fd5b506104ba611092565b6040516104c79190613a64565b60405180910390f35b3480156104dc57600080fd5b506104e56110b8565b6040516104f29190613a3a565b60405180910390f35b34801561050757600080fd5b50610522600480360381019061051d9190613c51565b6110be565b6040516105399b9a99989796959493929190613d6f565b60405180910390f35b34801561054e57600080fd5b5061056960048036038101906105649190613e81565b6111d4565b005b34801561057757600080fd5b50610592600480360381019061058d9190613f2e565b61129b565b005b3480156105a057600080fd5b506105a961146b565b6040516105b69190613a3a565b60405180910390f35b3480156105cb57600080fd5b506105d4611471565b6040516105e19190613a64565b60405180910390f35b3480156105f657600080fd5b50610611600480360381019061060c9190613f77565b611497565b005b34801561061f57600080fd5b50610628611555565b6040516106359190613a64565b60405180910390f35b34801561064a57600080fd5b5061065361157b565b604051610666979695949392919061409d565b60405180910390f35b34801561067b57600080fd5b5061069660048036038101906106919190614121565b61168d565b005b3480156106a457600080fd5b506106ad6116b8565b6040516106bc9392919061414e565b60405180910390f35b3480156106d157600080fd5b506106da611710565b6040516106e79190613a64565b60405180910390f35b3480156106fc57600080fd5b50610717600480360381019061071291906141b1565b611736565b005b34801561072557600080fd5b50610740600480360381019061073b9190613c11565b6117f7565b60405161074d9190613765565b60405180910390f35b34801561076257600080fd5b5061076b611870565b6040516107789190613765565b60405180910390f35b34801561078d57600080fd5b506107a860048036038101906107a39190613c51565b611883565b6040516107b59190613a3a565b60405180910390f35b3480156107ca57600080fd5b506107d3611928565b6040516107e09190613b4a565b60405180910390f35b3480156107f557600080fd5b50610810600480360381019061080b9190614204565b61192f565b005b34801561081e57600080fd5b506108276119f0565b6040516108349190613b4a565b60405180910390f35b6108576004803603810190610852919061432f565b6119f6565b005b34801561086557600080fd5b50610880600480360381019061087b9190614425565b611e39565b005b34801561088e57600080fd5b506108a960048036038101906108a491906144a5565b611efa565b005b3480156108b757600080fd5b506108d260048036038101906108cd9190613aab565b612353565b005b3480156108e057600080fd5b506108fb60048036038101906108f6919061453c565b6124de565b005b34801561090957600080fd5b50610924600480360381019061091f9190613c11565b6125a2565b005b34801561093257600080fd5b5061093b6125c4565b6040516109489190613a3a565b60405180910390f35b34801561095d57600080fd5b50610978600480360381019061097391906145b0565b61265c565b005b34801561098657600080fd5b506109a1600480360381019061099c919061461c565b6126ef565b005b3480156109af57600080fd5b506109b8612986565b6040516109c59190613b4a565b60405180910390f35b3480156109da57600080fd5b506109e36129aa565b6040516109f09190613a3a565b60405180910390f35b60007f7965db0b000000000000000000000000000000000000000000000000000000007bffffffffffffffffffffffffffffffffffffffffffffffffffffffff1916827bffffffffffffffffffffffffffffffffffffffffffffffffffffffff19161480610a6c5750610a6b826129b0565b5b9050919050565b600a8054610a80906146ab565b80601f0160208091040260200160405190810160405280929190818152602001828054610aac906146ab565b8015610af95780601f10610ace57610100808354040283529160200191610af9565b820191906000526020600020905b815481529060010190602001808311610adc57829003601f168201915b505050505081565b6000600160009054906101000a900473ffffffffffffffffffffffffffffffffffffffff1673ffffffffffffffffffffffffffffffffffffffff16630fbe291a84846040518363ffffffff1660e01b8152600401610b609291906146dc565b602060405180830381865afa158015610b7d573d6000803e3d6000fd5b505050506040513d601f19601f82011682018060405250810190610ba19190614721565b905092915050565b600360009054906101000a900473ffffffffffffffffffffffffffffffffffffffff1681565b7fb19546dff01e856fb3f010c267a7b1c60363cf8a4664e21cc89c26224620214e610bf981612a1a565b610c0282612a2e565b600c6000610c109190613626565b8167ffffffffffffffff811115610c2a57610c2961389a565b5b604051908082528060200260200182016040528015610c585781602001602082028036833780820191505090505b50600c9080519060200190610c6e929190613647565b5081600d81905550610c81600e54612abe565b5050565b6000600160009054906101000a900473ffffffffffffffffffffffffffffffffffffffff1673ffffffffffffffffffffffffffffffffffffffff166318160ddd6040518163ffffffff1660e01b8152600401602060405180830381865afa158015610cf4573d6000803e3d6000fd5b505050506040513d601f19601f82011682018060405250810190610d189190614721565b905090565b60008054906101000a900473ffffffffffffffffffffffffffffffffffffffff1681565b600080610d4c612b28565b905080600001600084815260200190815260200160002060010154915050919050565b7fb19546dff01e856fb3f010c267a7b1c60363cf8a4664e21cc89c26224620214e610d9981612a1a565b600160009054906101000a900473ffffffffffffffffffffffffffffffffffffffff1673ffffffffffffffffffffffffffffffffffffffff166328c1a4f584846040518363ffffffff1660e01b8152600401610df692919061474e565b600060405180830381600087803b158015610e1057600080fd5b505af1158015610e24573d6000803e3d6000fd5b50505050505050565b60008060001b610e3c81612a1a565b60008314158015610e4f5750600e548311155b610e8e576040517f08c379a0000000000000000000000000000000000000000000000000000000008152600401610e85906147c3565b60405180910390fd5b600160009054906101000a900473ffffffffffffffffffffffffffffffffffffffff1673ffffffffffffffffffffffffffffffffffffffff166317d13a2b6040518163ffffffff1660e01b8152600401600060405180830381600087803b158015610ef857600080fd5b505af1158015610f0c573d6000803e3d6000fd5b505050506000610f1b84612b50565b809450819250505060008054906101000a900473ffffffffffffffffffffffffffffffffffffffff1673ffffffffffffffffffffffffffffffffffffffff166323b872dd3087876040518463ffffffff1660e01b8152600401610f80939291906147e3565b600060405180830381600087803b158015610f9a57600080fd5b505af1158015610fae573d6000803e3d6000fd5b505050507f89a2c92e65780856b461f06435fffd0fb445240ba3cfee7e8f18e01dca40c073858585604051610fe59392919061414e565b60405180910390a1505092915050565b610ffe82610d41565b61100781612a1a565b6110118383612dae565b50505050565b61101f612eaf565b73ffffffffffffffffffffffffffffffffffffffff168173ffffffffffffffffffffffffffffffffffffffff1614611083576040517f6697b23200000000000000000000000000000000000000000000000000000000815260040160405180910390fd5b61108d8282612eb7565b505050565b600460009054906101000a900473ffffffffffffffffffffffffffffffffffffffff1681565b600e5481565b60008060008060008060008060006060600080600160009054906101000a900473ffffffffffffffffffffffffffffffffffffffff1673ffffffffffffffffffffffffffffffffffffffff16634d73cbd58e6040518263ffffffff1660e01b815260040161112c9190613810565b600060405180830381865afa158015611149573d6000803e3d6000fd5b505050506040513d6000823e3d601f19601f820116820180604052508101906111729190614a5f565b9050806000015181602001518260400151836060015184608001518560a001518660c001518760e001518861010001518961012001518a61014001519b509b509b509b509b509b509b509b509b509b509b505091939597999b90929496989a50565b7fb19546dff01e856fb3f010c267a7b1c60363cf8a4664e21cc89c26224620214e6111fe81612a1a565b600160009054906101000a900473ffffffffffffffffffffffffffffffffffffffff1673ffffffffffffffffffffffffffffffffffffffff16634fb5656a87878787876040518663ffffffff1660e01b8152600401611261959493929190614ad5565b600060405180830381600087803b15801561127b57600080fd5b505af115801561128f573d6000803e3d6000fd5b50505050505050505050565b7fb19546dff01e856fb3f010c267a7b1c60363cf8a4664e21cc89c26224620214e6112c581612a1a565b600160009054906101000a900473ffffffffffffffffffffffffffffffffffffffff1673ffffffffffffffffffffffffffffffffffffffff166362f42822836040518263ffffffff1660e01b81526004016113209190614e52565b600060405180830381600087803b15801561133a57600080fd5b505af115801561134e573d6000803e3d6000fd5b505050506000600160009054906101000a900473ffffffffffffffffffffffffffffffffffffffff1673ffffffffffffffffffffffffffffffffffffffff1663d5abeb016040518163ffffffff1660e01b8152600401602060405180830381865afa1580156113c1573d6000803e3d6000fd5b505050506040513d601f19601f820116820180604052508101906113e59190614721565b9050600c60006113f59190613626565b8067ffffffffffffffff81111561140f5761140e61389a565b5b60405190808252806020026020018201604052801561143d5781602001602082028036833780820191505090505b50600c9080519060200190611453929190613647565b5080600d81905550611466600e54612abe565b505050565b600f5481565b600660009054906101000a900473ffffffffffffffffffffffffffffffffffffffff1681565b7fb19546dff01e856fb3f010c267a7b1c60363cf8a4664e21cc89c26224620214e6114c181612a1a565b600160009054906101000a900473ffffffffffffffffffffffffffffffffffffffff1673ffffffffffffffffffffffffffffffffffffffff166328c1a4f58360016040518363ffffffff1660e01b815260040161151f92919061474e565b600060405180830381600087803b15801561153957600080fd5b505af115801561154d573d6000803e3d6000fd5b505050505050565b600560009054906101000a900473ffffffffffffffffffffffffffffffffffffffff1681565b6000606080600080600060606000611591612fb9565b90506000801b81600001541480156115af57506000801b8160010154145b6115ee576040517f08c379a00000000000000000000000000000000000000000000000000000000081526004016115e590614ec0565b60405180910390fd5b6115f6612fe1565b6115fe613082565b46306000801b600067ffffffffffffffff81111561161f5761161e61389a565b5b60405190808252806020026020018201604052801561164d5781602001602082028036833780820191505090505b507f0f0000000000000000000000000000000000000000000000000000000000000095949392919097509750975097509750975097505090919293949596565b6000801b61169a81612a1a565b81601060006101000a81548160ff0219169083151502179055505050565b60078060000160009054906101000a900473ffffffffffffffffffffffffffffffffffffffff16908060010154908060020160009054906101000a900473ffffffffffffffffffffffffffffffffffffffff16905083565b600160009054906101000a900473ffffffffffffffffffffffffffffffffffffffff1681565b7fb19546dff01e856fb3f010c267a7b1c60363cf8a4664e21cc89c26224620214e61176081612a1a565b600160009054906101000a900473ffffffffffffffffffffffffffffffffffffffff1673ffffffffffffffffffffffffffffffffffffffff16634899cf0b8585856040518463ffffffff1660e01b81526004016117bf93929190614ee0565b600060405180830381600087803b1580156117d957600080fd5b505af11580156117ed573d6000803e3d6000fd5b5050505050505050565b600080611802612b28565b905080600001600085815260200190815260200160002060000160008473ffffffffffffffffffffffffffffffffffffffff1673ffffffffffffffffffffffffffffffffffffffff16815260200190815260200160002060009054906101000a900460ff1691505092915050565b601060009054906101000a900460ff1681565b6000600160009054906101000a900473ffffffffffffffffffffffffffffffffffffffff1673ffffffffffffffffffffffffffffffffffffffff16639fe78f79836040518263ffffffff1660e01b81526004016118e09190613810565b602060405180830381865afa1580156118fd573d6000803e3d6000fd5b505050506040513d601f19601f820116820180604052508101906119219190614721565b9050919050565b6000801b81565b7fb19546dff01e856fb3f010c267a7b1c60363cf8a4664e21cc89c26224620214e61195981612a1a565b600160009054906101000a900473ffffffffffffffffffffffffffffffffffffffff1673ffffffffffffffffffffffffffffffffffffffff1663a5f5a4a88585856040518463ffffffff1660e01b81526004016119b893929190614f17565b600060405180830381600087803b1580156119d257600080fd5b505af11580156119e6573d6000803e3d6000fd5b5050505050505050565b600b5481565b6000600160009054906101000a900473ffffffffffffffffffffffffffffffffffffffff1673ffffffffffffffffffffffffffffffffffffffff1663832f9f54898987878b8b896040518863ffffffff1660e01b8152600401611a5f9796959493929190615092565b6020604051808303816000875af1158015611a7e573d6000803e3d6000fd5b505050506040513d601f19601f82011682018060405250810190611aa29190614721565b90506000600160009054906101000a900473ffffffffffffffffffffffffffffffffffffffff1673ffffffffffffffffffffffffffffffffffffffff16634d73cbd58a8a6040518363ffffffff1660e01b8152600401611b039291906150f3565b600060405180830381865afa158015611b20573d6000803e3d6000fd5b505050506040513d6000823e3d601f19601f82011682018060405250810190611b499190614a5f565b905060008160c00151905060008260e00151905060008360a00151905060008114611d0857600073ffffffffffffffffffffffffffffffffffffffff168373ffffffffffffffffffffffffffffffffffffffff1614611c71578273ffffffffffffffffffffffffffffffffffffffff166323b872dd33848885611bcc9190615146565b6040518463ffffffff1660e01b8152600401611bea939291906147e3565b6020604051808303816000875af1158015611c09573d6000803e3d6000fd5b505050506040513d601f19601f82011682018060405250810190611c2d9190615188565b611c6c576040517f08c379a0000000000000000000000000000000000000000000000000000000008152600401611c6390615201565b60405180910390fd5b611d07565b8481611c7d9190615146565b341015611cbf576040517f08c379a0000000000000000000000000000000000000000000000000000000008152600401611cb69061526d565b60405180910390fd5b8173ffffffffffffffffffffffffffffffffffffffff166108fc349081150290604051600060405180830381858888f19350505050158015611d05573d6000803e3d6000fd5b505b5b60005b85811015611e2a57600080611d206000612b50565b809250819350505060008054906101000a900473ffffffffffffffffffffffffffffffffffffffff1673ffffffffffffffffffffffffffffffffffffffff166323b872dd308b6080016020810190611d789190613f77565b856040518463ffffffff1660e01b8152600401611d97939291906147e3565b600060405180830381600087803b158015611db157600080fd5b505af1158015611dc5573d6000803e3d6000fd5b5050505081600f819055507f89a2c92e65780856b461f06435fffd0fb445240ba3cfee7e8f18e01dca40c073896080016020810190611e049190613f77565b8383604051611e159392919061414e565b60405180910390a15050806001019050611d0b565b50505050505050505050505050565b7fb19546dff01e856fb3f010c267a7b1c60363cf8a4664e21cc89c26224620214e611e6381612a1a565b600160009054906101000a900473ffffffffffffffffffffffffffffffffffffffff1673ffffffffffffffffffffffffffffffffffffffff1663b67f21be8585856040518463ffffffff1660e01b8152600401611ec29392919061528d565b600060405180830381600087803b158015611edc57600080fd5b505af1158015611ef0573d6000803e3d6000fd5b5050505050505050565b6000611f04613123565b905060008160000160089054906101000a900460ff1615905060008260000160009054906101000a900467ffffffffffffffff1690506000808267ffffffffffffffff16148015611f525750825b9050600060018367ffffffffffffffff16148015611f87575060003073ffffffffffffffffffffffffffffffffffffffff163b145b905081158015611f95575080155b15611fcc576040517ff92ee8a900000000000000000000000000000000000000000000000000000000815260040160405180910390fd5b60018560000160006101000a81548167ffffffffffffffff021916908367ffffffffffffffff160217905550831561201c5760018560000160086101000a81548160ff0219169083151502179055505b6120906040518060400160405280600781526020017f4f4b584d696e74000000000000000000000000000000000000000000000000008152506040518060400160405280600381526020017f312e30000000000000000000000000000000000000000000000000000000000081525061314b565b612098613161565b6120a56000801b8b612dae565b506120d07fb19546dff01e856fb3f010c267a7b1c60363cf8a4664e21cc89c26224620214e8a612dae565b50876000806101000a81548173ffffffffffffffffffffffffffffffffffffffff021916908373ffffffffffffffffffffffffffffffffffffffff16021790555086600160006101000a81548173ffffffffffffffffffffffffffffffffffffffff021916908373ffffffffffffffffffffffffffffffffffffffff160217905550856000016007818161216491906154a3565b90505085606001356002819055508560800160208101906121859190613f77565b600360006101000a81548173ffffffffffffffffffffffffffffffffffffffff021916908373ffffffffffffffffffffffffffffffffffffffff1602179055508560a00160208101906121d89190613f77565b600460006101000a81548173ffffffffffffffffffffffffffffffffffffffff021916908373ffffffffffffffffffffffffffffffffffffffff1602179055508560c001602081019061222b9190613f77565b600560006101000a81548173ffffffffffffffffffffffffffffffffffffffff021916908373ffffffffffffffffffffffffffffffffffffffff1602179055508560e001602081019061227e9190613f77565b600660006101000a81548173ffffffffffffffffffffffffffffffffffffffff021916908373ffffffffffffffffffffffffffffffffffffffff160217905550858061010001906122cf91906154c0565b600a91826122de9291906156a4565b50856101200135600b8190555083156123475760008560000160086101000a81548160ff0219169083151502179055507fc7f505b2f371ae2175ee4913f4499e1f2633a7b5936321eed1cdaeb6115181d2600160405161233e91906157af565b60405180910390a15b50505050505050505050565b7fb19546dff01e856fb3f010c267a7b1c60363cf8a4664e21cc89c26224620214e61237d81612a1a565b6000600160009054906101000a900473ffffffffffffffffffffffffffffffffffffffff1673ffffffffffffffffffffffffffffffffffffffff1663d5abeb016040518163ffffffff1660e01b8152600401602060405180830381865afa1580156123ec573d6000803e3d6000fd5b505050506040513d601f19601f820116820180604052508101906124109190614721565b9050600e548161242091906157ca565b9050828161242e91906157fe565b905061243981612a2e565b600160009054906101000a900473ffffffffffffffffffffffffffffffffffffffff1673ffffffffffffffffffffffffffffffffffffffff1663d5abeb016040518163ffffffff1660e01b8152600401602060405180830381865afa1580156124a6573d6000803e3d6000fd5b505050506040513d601f19601f820116820180604052508101906124ca9190614721565b600d819055506124d983612abe565b505050565b7fb19546dff01e856fb3f010c267a7b1c60363cf8a4664e21cc89c26224620214e61250881612a1a565b600160009054906101000a900473ffffffffffffffffffffffffffffffffffffffff1673ffffffffffffffffffffffffffffffffffffffff1663d4aa8d6f868686866040518563ffffffff1660e01b81526004016125699493929190615832565b600060405180830381600087803b15801561258357600080fd5b505af1158015612597573d6000803e3d6000fd5b505050505050505050565b6125ab82610d41565b6125b481612a1a565b6125be8383612eb7565b50505050565b6000600160009054906101000a900473ffffffffffffffffffffffffffffffffffffffff1673ffffffffffffffffffffffffffffffffffffffff1663d5abeb016040518163ffffffff1660e01b8152600401602060405180830381865afa158015612633573d6000803e3d6000fd5b505050506040513d601f19601f820116820180604052508101906126579190614721565b905090565b6000801b61266981612a1a565b826000806101000a81548173ffffffffffffffffffffffffffffffffffffffff021916908373ffffffffffffffffffffffffffffffffffffffff16021790555081600160006101000a81548173ffffffffffffffffffffffffffffffffffffffff021916908373ffffffffffffffffffffffffffffffffffffffff160217905550505050565b7fb19546dff01e856fb3f010c267a7b1c60363cf8a4664e21cc89c26224620214e61271981612a1a565b6000600160009054906101000a900473ffffffffffffffffffffffffffffffffffffffff1673ffffffffffffffffffffffffffffffffffffffff1663d5abeb016040518163ffffffff1660e01b8152600401602060405180830381865afa158015612788573d6000803e3d6000fd5b505050506040513d601f19601f820116820180604052508101906127ac9190614721565b9050600160009054906101000a900473ffffffffffffffffffffffffffffffffffffffff1673ffffffffffffffffffffffffffffffffffffffff1663e32e2bbc8686866040518463ffffffff1660e01b815260040161280d93929190615872565b600060405180830381600087803b15801561282757600080fd5b505af115801561283b573d6000803e3d6000fd5b505050506000600160009054906101000a900473ffffffffffffffffffffffffffffffffffffffff1673ffffffffffffffffffffffffffffffffffffffff1663d5abeb016040518163ffffffff1660e01b8152600401602060405180830381865afa1580156128ae573d6000803e3d6000fd5b505050506040513d601f19601f820116820180604052508101906128d29190614721565b905081816128e091906157ca565b90508363ffffffff16816128f491906157fe565b90506128ff81612a2e565b600c600061290d9190613626565b8067ffffffffffffffff8111156129275761292661389a565b5b6040519080825280602002602001820160405280156129555781602001602082028036833780820191505090505b50600c908051906020019061296b929190613647565b5080600d8190555061297e600e54612abe565b505050505050565b7fb19546dff01e856fb3f010c267a7b1c60363cf8a4664e21cc89c26224620214e81565b60025481565b60007f01ffc9a7000000000000000000000000000000000000000000000000000000007bffffffffffffffffffffffffffffffffffffffffffffffffffffffff1916827bffffffffffffffffffffffffffffffffffffffffffffffffffffffff1916149050919050565b612a2b81612a26612eaf565b61316b565b50565b600160009054906101000a900473ffffffffffffffffffffffffffffffffffffffff1673ffffffffffffffffffffffffffffffffffffffff16636f8b44b0826040518263ffffffff1660e01b8152600401612a899190613a3a565b600060405180830381600087803b158015612aa357600080fd5b505af1158015612ab7573d6000803e3d6000fd5b5050505050565b80600e8190555060005b81811015612b0b5780600d54612ade91906157ca565b600c8281548110612af257612af16158a4565b5b9060005260206000200181905550806001019050612ac8565b5080600d6000828254612b1e91906157ca565b9250508190555050565b60007f02dd7bc7dec4dceedda775e58dd541e08a116c6c53815c0bd028192f7b626800905090565b60008060008314612b6357829150612b6e565b612b6b6131bc565b91505b60008054906101000a900473ffffffffffffffffffffffffffffffffffffffff1673ffffffffffffffffffffffffffffffffffffffff1663a144819430846040518363ffffffff1660e01b8152600401612bc99291906158d3565b600060405180830381600087803b158015612be357600080fd5b505af1158015612bf7573d6000803e3d6000fd5b505050506000600167ffffffffffffffff811115612c1857612c1761389a565b5b604051908082528060200260200182016040528015612c465781602001602082028036833780820191505090505b5090506000600167ffffffffffffffff811115612c6657612c6561389a565b5b604051908082528060200260200182016040528015612c945781602001602082028036833780820191505090505b509050600760020160009054906101000a900473ffffffffffffffffffffffffffffffffffffffff1682600081518110612cd157612cd06158a4565b5b602002602001019073ffffffffffffffffffffffffffffffffffffffff16908173ffffffffffffffffffffffffffffffffffffffff168152505060025481600081518110612d2257612d216158a4565b5b602002602001018181525050601060009054906101000a900460ff16612d9857612d4e84600b54613301565b9250612d938383600360009054906101000a900473ffffffffffffffffffffffffffffffffffffffff16846040518060200160405280600081525060008060006134d2565b612da6565b836000935093505050612da9565b50505b915091565b600080612db9612b28565b9050612dc584846117f7565b612ea357600181600001600086815260200190815260200160002060000160008573ffffffffffffffffffffffffffffffffffffffff1673ffffffffffffffffffffffffffffffffffffffff16815260200190815260200160002060006101000a81548160ff021916908315150217905550612e3f612eaf565b73ffffffffffffffffffffffffffffffffffffffff168373ffffffffffffffffffffffffffffffffffffffff16857f2f8788117e7eff1d82e926ec794901d17c78024a50270940304540a733656f0d60405160405180910390a46001915050612ea9565b60009150505b92915050565b600033905090565b600080612ec2612b28565b9050612ece84846117f7565b15612fad57600081600001600086815260200190815260200160002060000160008573ffffffffffffffffffffffffffffffffffffffff1673ffffffffffffffffffffffffffffffffffffffff16815260200190815260200160002060006101000a81548160ff021916908315150217905550612f49612eaf565b73ffffffffffffffffffffffffffffffffffffffff168373ffffffffffffffffffffffffffffffffffffffff16857ff6391f5c32d9c69d2a47ea670b442974b53935d1edc7fd64eb21e047a839171b60405160405180910390a46001915050612fb3565b60009150505b92915050565b60007fa16a46d94261c7517cc8ff89f61c0ce93598e3c849801011dee649a6a557d100905090565b60606000612fed612fb9565b9050806002018054612ffe906146ab565b80601f016020809104026020016040519081016040528092919081815260200182805461302a906146ab565b80156130775780601f1061304c57610100808354040283529160200191613077565b820191906000526020600020905b81548152906001019060200180831161305a57829003601f168201915b505050505091505090565b6060600061308e612fb9565b905080600301805461309f906146ab565b80601f01602080910402602001604051908101604052809291908181526020018280546130cb906146ab565b80156131185780601f106130ed57610100808354040283529160200191613118565b820191906000526020600020905b8154815290600101906020018083116130fb57829003601f168201915b505050505091505090565b60007ff0c57e16840df040f15088dc2f81fe391c3923bec73e23a9662efc9c229c6a00905090565b613153613571565b61315d82826135b1565b5050565b613169613571565b565b61317582826117f7565b6131b85780826040517fe2517d3f0000000000000000000000000000000000000000000000000000000081526004016131af9291906158fc565b60405180910390fd5b5050565b600080600d544244336040516020016131d79392919061598e565b6040516020818303038152906040528051906020012060001c6131fa91906159fa565b9050600080600c8381548110613213576132126158a4565b5b90600052602060002001541461324757600c8281548110613237576132366158a4565b5b9060005260206000200154613255565b60018261325491906157fe565b5b90506000600c6001600d5461326a91906157ca565b8154811061327b5761327a6158a4565b5b9060005260206000200154146132bd57600c6001600d5461329c91906157ca565b815481106132ad576132ac6158a4565b5b90600052602060002001546132c1565b600d545b600c83815481106132d5576132d46158a4565b5b9060005260206000200181905550600d600081546132f290615a2b565b91905081905550809250505090565b6000600460009054906101000a900473ffffffffffffffffffffffffffffffffffffffff1673ffffffffffffffffffffffffffffffffffffffff1663fca247ac4660008054906101000a900473ffffffffffffffffffffffffffffffffffffffff16866040518463ffffffff1660e01b815260040161338293929190615a54565b6020604051808303816000875af11580156133a1573d6000803e3d6000fd5b505050506040513d601f19601f820116820180604052508101906133c59190615a8b565b90507fc5d2460186f7233c927e7db2dcc703c0e500b653ca82273b7bfad8045d85a470600a6040516020016133fa9190615b46565b6040516020818303038152906040528051906020012014158061342257506000801b600b5414155b8061343057506000801b8214155b156134cc57600560009054906101000a900473ffffffffffffffffffffffffffffffffffffffff1673ffffffffffffffffffffffffffffffffffffffff1663b76520c682600a600b54866040518563ffffffff1660e01b81526004016134999493929190615be1565b600060405180830381600087803b1580156134b357600080fd5b505af11580156134c7573d6000803e3d6000fd5b505050505b92915050565b600660009054906101000a900473ffffffffffffffffffffffffffffffffffffffff1673ffffffffffffffffffffffffffffffffffffffff166371f6bea78989888a896040518663ffffffff1660e01b8152600401613535959493929190615d20565b600060405180830381600087803b15801561354f57600080fd5b505af1158015613563573d6000803e3d6000fd5b505050505050505050505050565b613579613606565b6135af576040517fd7e6bcf800000000000000000000000000000000000000000000000000000000815260040160405180910390fd5b565b6135b9613571565b60006135c3612fb9565b9050828160020190816135d69190615d88565b50818160030190816135e89190615d88565b506000801b81600001819055506000801b8160010181905550505050565b6000613610613123565b60000160089054906101000a900460ff16905090565b50805460008255906000526020600020908101906136449190613694565b50565b828054828255906000526020600020908101928215613683579160200282015b82811115613682578251825591602001919060010190613667565b5b5090506136909190613694565b5090565b5b808211156136ad576000816000905550600101613695565b5090565b6000604051905090565b600080fd5b600080fd5b60007fffffffff0000000000000000000000000000000000000000000000000000000082169050919050565b6136fa816136c5565b811461370557600080fd5b50565b600081359050613717816136f1565b92915050565b600060208284031215613733576137326136bb565b5b600061374184828501613708565b91505092915050565b60008115159050919050565b61375f8161374a565b82525050565b600060208201905061377a6000830184613756565b92915050565b600081519050919050565b600082825260208201905092915050565b60005b838110156137ba57808201518184015260208101905061379f565b60008484015250505050565b6000601f19601f8301169050919050565b60006137e282613780565b6137ec818561378b565b93506137fc81856020860161379c565b613805816137c6565b840191505092915050565b6000602082019050818103600083015261382a81846137d7565b905092915050565b600073ffffffffffffffffffffffffffffffffffffffff82169050919050565b600061385d82613832565b9050919050565b61386d81613852565b811461387857600080fd5b50565b60008135905061388a81613864565b92915050565b600080fd5b600080fd5b7f4e487b7100000000000000000000000000000000000000000000000000000000600052604160045260246000fd5b6138d2826137c6565b810181811067ffffffffffffffff821117156138f1576138f061389a565b5b80604052505050565b60006139046136b1565b905061391082826138c9565b919050565b600067ffffffffffffffff8211156139305761392f61389a565b5b613939826137c6565b9050602081019050919050565b82818337600083830152505050565b600061396861396384613915565b6138fa565b90508281526020810184848401111561398457613983613895565b5b61398f848285613946565b509392505050565b600082601f8301126139ac576139ab613890565b5b81356139bc848260208601613955565b91505092915050565b600080604083850312156139dc576139db6136bb565b5b60006139ea8582860161387b565b925050602083013567ffffffffffffffff811115613a0b57613a0a6136c0565b5b613a1785828601613997565b9150509250929050565b6000819050919050565b613a3481613a21565b82525050565b6000602082019050613a4f6000830184613a2b565b92915050565b613a5e81613852565b82525050565b6000602082019050613a796000830184613a55565b92915050565b613a8881613a21565b8114613a9357600080fd5b50565b600081359050613aa581613a7f565b92915050565b600060208284031215613ac157613ac06136bb565b5b6000613acf84828501613a96565b91505092915050565b6000819050919050565b613aeb81613ad8565b8114613af657600080fd5b50565b600081359050613b0881613ae2565b92915050565b600060208284031215613b2457613b236136bb565b5b6000613b3284828501613af9565b91505092915050565b613b4481613ad8565b82525050565b6000602082019050613b5f6000830184613b3b565b92915050565b613b6e8161374a565b8114613b7957600080fd5b50565b600081359050613b8b81613b65565b92915050565b60008060408385031215613ba857613ba76136bb565b5b6000613bb68582860161387b565b9250506020613bc785828601613b7c565b9150509250929050565b60008060408385031215613be857613be76136bb565b5b6000613bf68582860161387b565b9250506020613c0785828601613a96565b9150509250929050565b60008060408385031215613c2857613c276136bb565b5b6000613c3685828601613af9565b9250506020613c478582860161387b565b9150509250929050565b600060208284031215613c6757613c666136bb565b5b600082013567ffffffffffffffff811115613c8557613c846136c0565b5b613c9184828501613997565b91505092915050565b600060ff82169050919050565b613cb081613c9a565b82525050565b600063ffffffff82169050919050565b613ccf81613cb6565b82525050565b600067ffffffffffffffff82169050919050565b613cf281613cd5565b82525050565b7f4e487b7100000000000000000000000000000000000000000000000000000000600052602160045260246000fd5b60028110613d3857613d37613cf8565b5b50565b6000819050613d4982613d27565b919050565b6000613d5982613d3b565b9050919050565b613d6981613d4e565b82525050565b600061016082019050613d85600083018e613756565b613d92602083018d613ca7565b613d9f604083018c613cc6565b613dac606083018b613ce9565b613db9608083018a613ce9565b613dc660a0830189613a2b565b613dd360c0830188613a55565b613de060e0830187613a55565b613dee610100830186613b3b565b818103610120830152613e0181856137d7565b9050613e11610140830184613d60565b9c9b505050505050505050505050565b600080fd5b600080fd5b60008083601f840112613e4157613e40613890565b5b8235905067ffffffffffffffff811115613e5e57613e5d613e21565b5b602083019150836001820283011115613e7a57613e79613e26565b5b9250929050565b600080600080600060808688031215613e9d57613e9c6136bb565b5b600086013567ffffffffffffffff811115613ebb57613eba6136c0565b5b613ec788828901613e2b565b95509550506020613eda8882890161387b565b9350506040613eeb8882890161387b565b9250506060613efc88828901613a96565b9150509295509295909350565b600080fd5b60006101608284031215613f2557613f24613f09565b5b81905092915050565b600060208284031215613f4457613f436136bb565b5b600082013567ffffffffffffffff811115613f6257613f616136c0565b5b613f6e84828501613f0e565b91505092915050565b600060208284031215613f8d57613f8c6136bb565b5b6000613f9b8482850161387b565b91505092915050565b60007fff0000000000000000000000000000000000000000000000000000000000000082169050919050565b613fd981613fa4565b82525050565b600081519050919050565b600082825260208201905092915050565b6000819050602082019050919050565b61401481613a21565b82525050565b6000614026838361400b565b60208301905092915050565b6000602082019050919050565b600061404a82613fdf565b6140548185613fea565b935061405f83613ffb565b8060005b83811015614090578151614077888261401a565b975061408283614032565b925050600181019050614063565b5085935050505092915050565b600060e0820190506140b2600083018a613fd0565b81810360208301526140c481896137d7565b905081810360408301526140d881886137d7565b90506140e76060830187613a2b565b6140f46080830186613a55565b61410160a0830185613b3b565b81810360c0830152614113818461403f565b905098975050505050505050565b600060208284031215614137576141366136bb565b5b600061414584828501613b7c565b91505092915050565b60006060820190506141636000830186613a55565b6141706020830185613a2b565b61417d6040830184613a55565b949350505050565b61418e81613cd5565b811461419957600080fd5b50565b6000813590506141ab81614185565b92915050565b6000806000606084860312156141ca576141c96136bb565b5b60006141d886828701613b7c565b93505060206141e98682870161419c565b92505060406141fa8682870161419c565b9150509250925092565b60008060006040848603121561421d5761421c6136bb565b5b600084013567ffffffffffffffff81111561423b5761423a6136c0565b5b61424786828701613e2b565b9350935050602061425a86828701613b7c565b9150509250925092565b60008083601f84011261427a57614279613890565b5b8235905067ffffffffffffffff81111561429757614296613e21565b5b6020830191508360018202830111156142b3576142b2613e26565b5b9250929050565b60008083601f8401126142d0576142cf613890565b5b8235905067ffffffffffffffff8111156142ed576142ec613e21565b5b60208301915083602082028301111561430957614308613e26565b5b9250929050565b600060a0828403121561432657614325613f09565b5b81905092915050565b6000806000806000806000610100888a03121561434f5761434e6136bb565b5b600088013567ffffffffffffffff81111561436d5761436c6136c0565b5b6143798a828b01613e2b565b9750975050602088013567ffffffffffffffff81111561439c5761439b6136c0565b5b6143a88a828b01614264565b9550955050604088013567ffffffffffffffff8111156143cb576143ca6136c0565b5b6143d78a828b016142ba565b935093505060606143ea8a828b01614310565b91505092959891949750929550565b61440281613c9a565b811461440d57600080fd5b50565b60008135905061441f816143f9565b92915050565b60008060006040848603121561443e5761443d6136bb565b5b600084013567ffffffffffffffff81111561445c5761445b6136c0565b5b61446886828701613e2b565b9350935050602061447b86828701614410565b9150509250925092565b6000610140828403121561449c5761449b613f09565b5b81905092915050565b600080600080600060a086880312156144c1576144c06136bb565b5b60006144cf8882890161387b565b95505060206144e08882890161387b565b94505060406144f18882890161387b565b93505060606145028882890161387b565b925050608086013567ffffffffffffffff811115614523576145226136c0565b5b61452f88828901614485565b9150509295509295909350565b60008060008060608587031215614556576145556136bb565b5b600085013567ffffffffffffffff811115614574576145736136c0565b5b61458087828801613e2b565b945094505060206145938782880161419c565b92505060406145a48782880161419c565b91505092959194509250565b600080604083850312156145c7576145c66136bb565b5b60006145d58582860161387b565b92505060206145e68582860161387b565b9150509250929050565b6145f981613cb6565b811461460457600080fd5b50565b600081359050614616816145f0565b92915050565b600080600060408486031215614635576146346136bb565b5b600084013567ffffffffffffffff811115614653576146526136c0565b5b61465f86828701613e2b565b9350935050602061467286828701614607565b9150509250925092565b7f4e487b7100000000000000000000000000000000000000000000000000000000600052602260045260246000fd5b600060028204905060018216806146c357607f821691505b6020821081036146d6576146d561467c565b5b50919050565b60006040820190506146f16000830185613a55565b818103602083015261470381846137d7565b90509392505050565b60008151905061471b81613a7f565b92915050565b600060208284031215614737576147366136bb565b5b60006147458482850161470c565b91505092915050565b60006040820190506147636000830185613a55565b6147706020830184613756565b9392505050565b7f496e76616c696420746f6b656e20494400000000000000000000000000000000600082015250565b60006147ad60108361378b565b91506147b882614777565b602082019050919050565b600060208201905081810360008301526147dc816147a0565b9050919050565b60006060820190506147f86000830186613a55565b6148056020830185613a55565b6148126040830184613a2b565b949350505050565b600080fd5b600080fd5b60008151905061483381613b65565b92915050565b600081519050614848816143f9565b92915050565b60008151905061485d816145f0565b92915050565b60008151905061487281614185565b92915050565b60008151905061488781613864565b92915050565b60008151905061489c81613ae2565b92915050565b60006148b56148b084613915565b6138fa565b9050828152602081018484840111156148d1576148d0613895565b5b6148dc84828561379c565b509392505050565b600082601f8301126148f9576148f8613890565b5b81516149098482602086016148a2565b91505092915050565b6002811061491f57600080fd5b50565b60008151905061493181614912565b92915050565b6000610160828403121561494e5761494d61481a565b5b6149596101606138fa565b9050600061496984828501614824565b600083015250602061497d84828501614839565b60208301525060406149918482850161484e565b60408301525060606149a584828501614863565b60608301525060806149b984828501614863565b60808301525060a06149cd8482850161470c565b60a08301525060c06149e184828501614878565b60c08301525060e06149f584828501614878565b60e083015250610100614a0a8482850161488d565b6101008301525061012082015167ffffffffffffffff811115614a3057614a2f61481f565b5b614a3c848285016148e4565b61012083015250610140614a5284828501614922565b6101408301525092915050565b600060208284031215614a7557614a746136bb565b5b600082015167ffffffffffffffff811115614a9357614a926136c0565b5b614a9f84828501614937565b91505092915050565b6000614ab4838561378b565b9350614ac1838584613946565b614aca836137c6565b840190509392505050565b60006080820190508181036000830152614af0818789614aa8565b9050614aff6020830186613a55565b614b0c6040830185613a55565b614b196060830184613a2b565b9695505050505050565b6000614b326020840184613b7c565b905092915050565b614b438161374a565b82525050565b6000614b586020840184614410565b905092915050565b614b6981613c9a565b82525050565b6000614b7e6020840184614607565b905092915050565b614b8f81613cb6565b82525050565b6000614ba4602084018461419c565b905092915050565b614bb581613cd5565b82525050565b6000614bca6020840184613a96565b905092915050565b6000614be1602084018461387b565b905092915050565b614bf281613852565b82525050565b6000614c076020840184613af9565b905092915050565b614c1881613ad8565b82525050565b600080fd5b600080fd5b600080fd5b60008083356001602003843603038112614c4a57614c49614c28565b5b83810192508235915060208301925067ffffffffffffffff821115614c7257614c71614c1e565b5b600182023603831315614c8857614c87614c23565b5b509250929050565b600082825260208201905092915050565b6000614cad8385614c90565b9350614cba838584613946565b614cc3836137c6565b840190509392505050565b600081359050614cdd81614912565b92915050565b6000614cf26020840184614cce565b905092915050565b614d0381613d4e565b82525050565b60006101608301614d1d6000840184614b23565b614d2a6000860182614b3a565b50614d386020840184614b49565b614d456020860182614b60565b50614d536040840184614b6f565b614d606040860182614b86565b50614d6e6060840184614b95565b614d7b6060860182614bac565b50614d896080840184614b95565b614d966080860182614bac565b50614da460a0840184614bbb565b614db160a086018261400b565b50614dbf60c0840184614bd2565b614dcc60c0860182614be9565b50614dda60e0840184614bd2565b614de760e0860182614be9565b50614df6610100840184614bf8565b614e04610100860182614c0f565b50614e13610120840184614c2d565b858303610120870152614e27838284614ca1565b92505050614e39610140840184614ce3565b614e47610140860182614cfa565b508091505092915050565b60006020820190508181036000830152614e6c8184614d09565b905092915050565b7f4549503731323a20556e696e697469616c697a65640000000000000000000000600082015250565b6000614eaa60158361378b565b9150614eb582614e74565b602082019050919050565b60006020820190508181036000830152614ed981614e9d565b9050919050565b6000606082019050614ef56000830186613756565b614f026020830185613ce9565b614f0f6040830184613ce9565b949350505050565b60006040820190508181036000830152614f32818587614aa8565b9050614f416020830184613756565b949350505050565b600082825260208201905092915050565b600080fd5b82818337505050565b6000614f748385614f49565b93507f07ffffffffffffffffffffffffffffffffffffffffffffffffffffffffffffff831115614fa757614fa6614f5a565b5b602083029250614fb8838584614f5f565b82840190509392505050565b600082825260208201905092915050565b6000614fe18385614fc4565b9350614fee838584613946565b614ff7836137c6565b840190509392505050565b60a082016150136000830183614bbb565b615020600085018261400b565b5061502e6020830183614bbb565b61503b602085018261400b565b506150496040830183614bbb565b615056604085018261400b565b506150646060830183614bbb565b615071606085018261400b565b5061507f6080830183614bd2565b61508c6080850182614be9565b50505050565b60006101008201905081810360008301526150ae81898b614aa8565b905081810360208301526150c3818789614f68565b905081810360408301526150d8818587614fd5565b90506150e76060830184615002565b98975050505050505050565b6000602082019050818103600083015261510e818486614aa8565b90509392505050565b7f4e487b7100000000000000000000000000000000000000000000000000000000600052601160045260246000fd5b600061515182613a21565b915061515c83613a21565b925082820261516a81613a21565b9150828204841483151761518157615180615117565b5b5092915050565b60006020828403121561519e5761519d6136bb565b5b60006151ac84828501614824565b91505092915050565b7f5472616e73666572204552433230206661696c65640000000000000000000000600082015250565b60006151eb60158361378b565b91506151f6826151b5565b602082019050919050565b6000602082019050818103600083015261521a816151de565b9050919050565b7f496e636f7272656374206e6174697665207061796d656e7420616d6f756e7400600082015250565b6000615257601f8361378b565b915061526282615221565b602082019050919050565b600060208201905081810360008301526152868161524a565b9050919050565b600060408201905081810360008301526152a8818587614aa8565b90506152b76020830184613ca7565b949350505050565b600081356152cc81613864565b80915050919050565b60008160001b9050919050565b600073ffffffffffffffffffffffffffffffffffffffff615302846152d5565b9350801983169250808416831791505092915050565b6000819050919050565b600061533d61533861533384613832565b615318565b613832565b9050919050565b600061534f82615322565b9050919050565b600061536182615344565b9050919050565b6000819050919050565b61537b82615356565b61538e61538782615368565b83546152e2565b8255505050565b600081356153a281613a7f565b80915050919050565b60007fffffffffffffffffffffffffffffffffffffffffffffffffffffffffffffffff6153d7846152d5565b9350801983169250808416831791505092915050565b60006154086154036153fe84613a21565b615318565b613a21565b9050919050565b6000819050919050565b615422826153ed565b61543561542e8261540f565b83546153ab565b8255505050565b60008101600083018061544e816152bf565b905061545a8184615372565b50505060018101602083018061546f81615395565b905061547b8184615419565b505050600281016040830180615490816152bf565b905061549c8184615372565b5050505050565b6154ad828261543c565b5050565b600080fd5b600080fd5b600080fd5b600080833560016020038436030381126154dd576154dc6154b1565b5b80840192508235915067ffffffffffffffff8211156154ff576154fe6154b6565b5b60208301925060018202360383131561551b5761551a6154bb565b5b509250929050565b600082905092915050565b60008190508160005260206000209050919050565b60006020601f8301049050919050565b600082821b905092915050565b6000600883026155907fffffffffffffffffffffffffffffffffffffffffffffffffffffffffffffffff82615553565b61559a8683615553565b95508019841693508086168417925050509392505050565b6155bb836153ed565b6155cf6155c78261540f565b848454615560565b825550505050565b600090565b6155e46155d7565b6155ef8184846155b2565b505050565b5b81811015615613576156086000826155dc565b6001810190506155f5565b5050565b601f821115615658576156298161552e565b61563284615543565b81016020851015615641578190505b61565561564d85615543565b8301826155f4565b50505b505050565b600082821c905092915050565b600061567b6000198460080261565d565b1980831691505092915050565b6000615694838361566a565b9150826002028217905092915050565b6156ae8383615523565b67ffffffffffffffff8111156156c7576156c661389a565b5b6156d182546146ab565b6156dc828285615617565b6000601f83116001811461570b57600084156156f9578287013590505b6157038582615688565b86555061576b565b601f1984166157198661552e565b60005b828110156157415784890135825560018201915060208501945060208101905061571c565b8683101561575e578489013561575a601f89168261566a565b8355505b6001600288020188555050505b50505050505050565b6000819050919050565b600061579961579461578f84615774565b615318565b613cd5565b9050919050565b6157a98161577e565b82525050565b60006020820190506157c460008301846157a0565b92915050565b60006157d582613a21565b91506157e083613a21565b92508282039050818111156157f8576157f7615117565b5b92915050565b600061580982613a21565b915061581483613a21565b925082820190508082111561582c5761582b615117565b5b92915050565b6000606082019050818103600083015261584d818688614aa8565b905061585c6020830185613ce9565b6158696040830184613ce9565b95945050505050565b6000604082019050818103600083015261588d818587614aa8565b905061589c6020830184613cc6565b949350505050565b7f4e487b7100000000000000000000000000000000000000000000000000000000600052603260045260246000fd5b60006040820190506158e86000830185613a55565b6158f56020830184613a2b565b9392505050565b60006040820190506159116000830185613a55565b61591e6020830184613b3b565b9392505050565b6000819050919050565b61594061593b82613a21565b615925565b82525050565b60008160601b9050919050565b600061595e82615946565b9050919050565b600061597082615953565b9050919050565b61598861598382613852565b615965565b82525050565b600061599a828661592f565b6020820191506159aa828561592f565b6020820191506159ba8284615977565b601482019150819050949350505050565b7f4e487b7100000000000000000000000000000000000000000000000000000000600052601260045260246000fd5b6000615a0582613a21565b9150615a1083613a21565b925082615a2057615a1f6159cb565b5b828206905092915050565b6000615a3682613a21565b915060008203615a4957615a48615117565b5b600182039050919050565b6000606082019050615a696000830186613a2b565b615a766020830185613a55565b615a836040830184613a2b565b949350505050565b600060208284031215615aa157615aa06136bb565b5b6000615aaf84828501614878565b91505092915050565b600081905092915050565b60008154615ad0816146ab565b615ada8186615ab8565b94506001821660008114615af55760018114615b0a57615b3d565b60ff1983168652811515820286019350615b3d565b615b138561552e565b60005b83811015615b3557815481890152600182019150602081019050615b16565b838801955050505b50505092915050565b6000615b528284615ac3565b915081905092915050565b60008154615b6a816146ab565b615b74818661378b565b94506001821660008114615b8f5760018114615ba557615bd8565b60ff198316865281151560200286019350615bd8565b615bae8561552e565b60005b83811015615bd057815481890152600182019150602081019050615bb1565b808801955050505b50505092915050565b6000608082019050615bf66000830187613a55565b8181036020830152615c088186615b5d565b9050615c176040830185613b3b565b615c246060830184613b3b565b95945050505050565b600081519050919050565b600082825260208201905092915050565b6000819050602082019050919050565b6000615c658383614be9565b60208301905092915050565b6000602082019050919050565b6000615c8982615c2d565b615c938185615c38565b9350615c9e83615c49565b8060005b83811015615ccf578151615cb68882615c59565b9750615cc183615c71565b925050600181019050615ca2565b5085935050505092915050565b600081519050919050565b6000615cf282615cdc565b615cfc8185614fc4565b9350615d0c81856020860161379c565b615d15816137c6565b840191505092915050565b600060a082019050615d356000830188613a55565b8181036020830152615d478187615c7e565b90508181036040830152615d5b818661403f565b9050615d6a6060830185613a55565b8181036080830152615d7c8184615ce7565b90509695505050505050565b615d9182613780565b67ffffffffffffffff811115615daa57615da961389a565b5b615db482546146ab565b615dbf828285615617565b600060209050601f831160018114615df25760008415615de0578287015190505b615dea8582615688565b865550615e52565b601f198416615e008661552e565b60005b82811015615e2857848901518255600182019150602085019450602081019050615e03565b86831015615e455784890151615e41601f89168261566a565b8355505b6001600288020188555050505b50505050505056fea2646970667358221220f063356b278ca019ad19d8a0bb572fdf4cf27897bf37b77d41e07a1fa2e0cef864736f6c634300081a0033",
  "devdoc": {
    "errors": {
      "AccessControlBadConfirmation()": [
        {
          "details": "The caller of a function is not the expected one. NOTE: Don't confuse with {AccessControlUnauthorizedAccount}."
        }
      ],
      "AccessControlUnauthorizedAccount(address,bytes32)": [
        {
          "details": "The `account` is missing a role."
        }
      ],
      "InvalidInitialization()": [
        {
          "details": "The contract is already initialized."
        }
      ],
      "NotInitializing()": [
        {
          "details": "The contract is not initializing."
        }
      ]
    },
    "events": {
      "EIP712DomainChanged()": {
        "details": "MAY be emitted to signal that the domain could have changed."
      },
      "Initialized(uint64)": {
        "details": "Triggered when the contract has been initialized or reinitialized."
      },
      "NFTMinted(address,uint256,address)": {
        "params": {
          "ipId": "The ID of the NFT IP.",
          "recipient": "The address of the recipient of the NFT.",
          "tokenId": "The token ID of the minted NFT."
        }
      },
      "RoleAdminChanged(bytes32,bytes32,bytes32)": {
        "details": "Emitted when `newAdminRole` is set as ``role``'s admin role, replacing `previousAdminRole` `DEFAULT_ADMIN_ROLE` is the starting admin for all roles, despite {RoleAdminChanged} not being emitted signaling this."
      },
      "RoleGranted(bytes32,address,address)": {
        "details": "Emitted when `account` is granted `role`. `sender` is the account that originated the contract call. This account bears the admin role (for the granted role). Expected in cases where the role was granted using the internal {AccessControl-_grantRole}."
      },
      "RoleRevoked(bytes32,address,address)": {
        "details": "Emitted when `account` is revoked `role`. `sender` is the account that originated the contract call:   - if using `revokeRole`, it is the admin role bearer   - if using `renounceRole`, it is the role bearer (i.e. `account`)"
      }
    },
    "kind": "dev",
    "methods": {
      "constructor": {
        "custom:oz-upgrades-unsafe-allow": "constructor"
      },
      "eip712Domain()": {
        "details": "See {IERC-5267}."
      },
      "enableTestMode(bool)": {
        "params": {
          "isTest_": "Whether to enable the test mode."
        }
      },
      "getRoleAdmin(bytes32)": {
        "details": "Returns the admin role that controls `role`. See {grantRole} and {revokeRole}. To change a role's admin, use {_setRoleAdmin}."
      },
      "grantRole(bytes32,address)": {
        "details": "Grants `role` to `account`. If `account` had not been already granted `role`, emits a {RoleGranted} event. Requirements: - the caller must have ``role``'s admin role. May emit a {RoleGranted} event."
      },
      "hasRole(bytes32,address)": {
        "details": "Returns `true` if `account` has been granted `role`."
      },
      "mint(string,bytes,bytes32[],(uint256,uint256,uint256,uint256,address))": {
        "params": {
          "mintparams": "The mint parameter signer sign the caller's address (msg.sender) for this `mint` function.",
          "proof": "The proof for the leaf of the allowlist in a stage if mint type is Allowlist.",
          "signature": "The signature from the whitelist signer. This signautre is genreated by having the whitelist",
          "stage": "Identification of the stage"
        }
      },
      "mintRecord(address,string)": {
        "params": {
          "stage": "The stage name",
          "to": "Inquiry address"
        }
      },
      "preMint(address,uint256)": {
        "params": {
          "to": "The recipient of the minted NFT.",
          "tokenId_": "The token ID of the minted NFT."
        }
      },
      "renounceRole(bytes32,address)": {
        "details": "Revokes `role` from the calling account. Roles are often managed via {grantRole} and {revokeRole}: this function's purpose is to provide a mechanism for accounts to lose their privileges if they are compromised (such as when a trusted device is misplaced). If the calling account had been revoked `role`, emits a {RoleRevoked} event. Requirements: - the caller must be `callerConfirmation`. May emit a {RoleRevoked} event."
      },
      "revokeRole(bytes32,address)": {
        "details": "Revokes `role` from `account`. If `account` had been granted `role`, emits a {RoleRevoked} event. Requirements: - the caller must have ``role``'s admin role. May emit a {RoleRevoked} event."
      },
      "setActiveSigner(address,bool)": {
        "params": {
          "signer": "Signer address.",
          "status": "Effective status."
        }
      },
      "setContracts(address,address)": {
        "params": {
          "multiRoundContract": "The new MultiRound contract address.",
          "nftContract": "The new NFT contract address."
        }
      },
      "setMaxsupply(uint256)": {
        "params": {
          "newMaxSupply": "The new maximum number of nfts that can be minted."
        }
      },
      "setPreMintedCount(uint256)": {
        "params": {
          "count": "The number of pre-minted NFTs"
        }
      },
      "setSigner(address)": {
        "params": {
          "signer_": "The new whitelist signer address."
        }
      },
      "setStageEnableSig(string,bool)": {
        "params": {
          "enableSig": "Whether to enable (true, false).",
          "stage": "Round identification."
        }
      },
      "setStageMaxSupply(string,uint32)": {
        "params": {
          "maxSupply_": "nft maximum supply.",
          "stage": "Round identification."
        }
      },
      "setStageMintInfo((bool,uint8,uint32,uint64,uint64,uint256,address,address,bytes32,string,uint8))": {
        "params": {
          "stageMintInfo": "The mint information for the stage."
        }
      },
      "setStageMintLimitationPerAddress(string,uint8)": {
        "params": {
          "mintLimitationPerAddress": "Single address mint limit.",
          "stage": "Round identification."
        }
      },
      "setStageMintTime(string,uint64,uint64)": {
        "params": {
          "endTime": "The end time of the stage.",
          "stage": "Round identification.",
          "startTime": "The start time of the stage."
        }
      },
      "setStagePayment(string,address,address,uint256)": {
        "params": {
          "payeeAddress": "Payment address.",
          "paymentToken": "Token contract address for payment (if 0, it is a native token).",
          "price": "Single nft price.",
          "stage": "Round identification."
        }
      },
      "setTransferRestrict(bool,uint64,uint64)": {
        "params": {
          "endTime": "End time.",
          "isTransferRestricted_": "Whether to restrict transfer.",
          "startTime": "Start time."
        }
      },
      "stageToMint(string)": {
        "params": {
          "stage_": "The stage name"
        }
      },
      "stageToTotalSupply(string)": {
        "params": {
          "stage": "The stage name"
        }
      },
      "supportsInterface(bytes4)": {
        "details": "See {IERC165-supportsInterface}."
      }
    },
    "stateVariables": {
      "isTest": {
        "details": "This flag is false by default. It should be set to true only when testing.This flag will disable the IP registration and derivative creation."
      }
    },
    "version": 1
  },
  "userdoc": {
    "events": {
      "NFTMinted(address,uint256,address)": {
        "notice": "Emitted when a NFT is minted."
      }
    },
    "kind": "user",
    "methods": {
      "CORE_METADATA_MODULE()": {
        "notice": "The Core Metadata Module contract address."
      },
      "DEFAULT_LICENSE_TERMS_ID()": {
        "notice": "The default license terms ID."
      },
      "IP_ASSET_REGISTRY()": {
        "notice": "The IP Asset Registry contract address."
      },
      "LICENSING_MODULE()": {
        "notice": "The Licensing Module contract address."
      },
      "MULTIROUND_CONTRACT()": {
        "notice": "We need a MultiRound contract to manage rounds"
      },
      "NFT_CONTRACT()": {
        "notice": "We need a NFT contract to mint NFTs"
      },
      "PIL_TEMPLATE()": {
        "notice": "Story Proof-of-Creativity PILicense Template address."
      },
      "enableTestMode(bool)": {
        "notice": "Enable the test mode."
      },
      "ipMetadataURI()": {
        "notice": "IP information"
      },
      "isTest()": {
        "notice": "This flag is used for testing purposes due to the IP workflows contracts deployment."
      },
      "lastMintedTokenId()": {
        "notice": "Last minted token ID"
      },
      "maxSupply()": {
        "notice": "Query the maximum number of nfts that can be minted"
      },
      "mint(string,bytes,bytes32[],(uint256,uint256,uint256,uint256,address))": {
        "notice": "Mints a NFT for the given recipient, registers it as an IP,         and makes it a derivative of the organization IP."
      },
      "mintRecord(address,string)": {
        "notice": "Query the quantity that has been minted at a certain stage at a certain address"
      },
      "preMint(address,uint256)": {
        "notice": "Pre-Mints a NFT with specified tokenID for the given recipient, registers it as an IP,         and makes it a derivative of the organization IP."
      },
      "preMintedCount()": {
        "notice": "Number of pre-minted NFTs"
      },
      "rootNFT()": {
        "notice": "Root NFT"
      },
      "setActiveSigner(address,bool)": {
        "notice": "Set a valid signer address.     If the address has been configured, it is a modify function.abi     If the address has not been configured, then it is and add function to configure the address."
      },
      "setContracts(address,address)": {
        "notice": "Updates the MULTIROUND_CONTRACT and the NFT_CONTRACT addresses."
      },
      "setMaxsupply(uint256)": {
        "notice": "Configure or update the maximum number of nfts that can be minted."
      },
      "setPreMintedCount(uint256)": {
        "notice": "Set number of pre-minted NFTs"
      },
      "setSigner(address)": {
        "notice": "Updates the whitelist signer."
      },
      "setStageEnableSig(string,bool)": {
        "notice": "Set whether server level signing is enabled for a specific round according to the stage"
      },
      "setStageMaxSupply(string,uint32)": {
        "notice": "According to the stage, set the maximum nft supply for a specific round."
      },
      "setStageMintInfo((bool,uint8,uint32,uint64,uint64,uint256,address,address,bytes32,string,uint8))": {
        "notice": "Configure or update the information of a certain round according to the stage"
      },
      "setStageMintLimitationPerAddress(string,uint8)": {
        "notice": "Set the upper limit of the number of mints per address for a specific round according to the stage"
      },
      "setStageMintTime(string,uint64,uint64)": {
        "notice": "Configure or update the mint time for a specific stage."
      },
      "setStagePayment(string,address,address,uint256)": {
        "notice": "Set payment information for a specific round based on the stage"
      },
      "setTransferRestrict(bool,uint64,uint64)": {
        "notice": "Set whether to restrict transfer, if configured to true, transfer is not allowed.     Otherwise, transfer is allowed."
      },
      "stageToMint(string)": {
        "notice": "Query configuration information for a specific stage"
      },
      "stageToTotalSupply(string)": {
        "notice": "Query the total number of minted under the current stage"
      },
      "totalSupply()": {
        "notice": "Query the total mint quantity"
      }
    },
    "version": 1
  },
  "storageLayout": {
    "storage": [
      {
        "astId": 6516,
        "contract": "contracts/MimbokuMultiround.sol:MimbokuMultiround",
        "label": "NFT_CONTRACT",
        "offset": 0,
        "slot": "0",
        "type": "t_address"
      },
      {
        "astId": 6519,
        "contract": "contracts/MimbokuMultiround.sol:MimbokuMultiround",
        "label": "MULTIROUND_CONTRACT",
        "offset": 0,
        "slot": "1",
        "type": "t_address"
      },
      {
        "astId": 6522,
        "contract": "contracts/MimbokuMultiround.sol:MimbokuMultiround",
        "label": "DEFAULT_LICENSE_TERMS_ID",
        "offset": 0,
        "slot": "2",
        "type": "t_uint256"
      },
      {
        "astId": 6525,
        "contract": "contracts/MimbokuMultiround.sol:MimbokuMultiround",
        "label": "PIL_TEMPLATE",
        "offset": 0,
        "slot": "3",
        "type": "t_address"
      },
      {
        "astId": 6528,
        "contract": "contracts/MimbokuMultiround.sol:MimbokuMultiround",
        "label": "IP_ASSET_REGISTRY",
        "offset": 0,
        "slot": "4",
        "type": "t_address"
      },
      {
        "astId": 6531,
        "contract": "contracts/MimbokuMultiround.sol:MimbokuMultiround",
        "label": "CORE_METADATA_MODULE",
        "offset": 0,
        "slot": "5",
        "type": "t_address"
      },
      {
        "astId": 6534,
        "contract": "contracts/MimbokuMultiround.sol:MimbokuMultiround",
        "label": "LICENSING_MODULE",
        "offset": 0,
        "slot": "6",
        "type": "t_address"
      },
      {
        "astId": 6538,
        "contract": "contracts/MimbokuMultiround.sol:MimbokuMultiround",
        "label": "rootNFT",
        "offset": 0,
        "slot": "7",
        "type": "t_struct(RootNFT)7684_storage"
      },
      {
        "astId": 6541,
        "contract": "contracts/MimbokuMultiround.sol:MimbokuMultiround",
        "label": "ipMetadataURI",
        "offset": 0,
        "slot": "10",
        "type": "t_string_storage"
      },
      {
        "astId": 6543,
        "contract": "contracts/MimbokuMultiround.sol:MimbokuMultiround",
        "label": "ipMetadataHash",
        "offset": 0,
        "slot": "11",
        "type": "t_bytes32"
      },
      {
        "astId": 6547,
        "contract": "contracts/MimbokuMultiround.sol:MimbokuMultiround",
        "label": "remainingTokenIds",
        "offset": 0,
        "slot": "12",
        "type": "t_array(t_uint256)dyn_storage"
      },
      {
        "astId": 6550,
        "contract": "contracts/MimbokuMultiround.sol:MimbokuMultiround",
        "label": "remainingTokenIdCount",
        "offset": 0,
        "slot": "13",
        "type": "t_uint256"
      },
      {
        "astId": 6553,
        "contract": "contracts/MimbokuMultiround.sol:MimbokuMultiround",
        "label": "preMintedCount",
        "offset": 0,
        "slot": "14",
        "type": "t_uint256"
      },
      {
        "astId": 6556,
        "contract": "contracts/MimbokuMultiround.sol:MimbokuMultiround",
        "label": "lastMintedTokenId",
        "offset": 0,
        "slot": "15",
        "type": "t_uint256"
      },
      {
        "astId": 6559,
        "contract": "contracts/MimbokuMultiround.sol:MimbokuMultiround",
        "label": "isTest",
        "offset": 0,
        "slot": "16",
        "type": "t_bool"
      }
    ],
    "types": {
      "t_address": {
        "encoding": "inplace",
        "label": "address",
        "numberOfBytes": "20"
      },
      "t_array(t_uint256)dyn_storage": {
        "base": "t_uint256",
        "encoding": "dynamic_array",
        "label": "uint256[]",
        "numberOfBytes": "32"
      },
      "t_bool": {
        "encoding": "inplace",
        "label": "bool",
        "numberOfBytes": "1"
      },
      "t_bytes32": {
        "encoding": "inplace",
        "label": "bytes32",
        "numberOfBytes": "32"
      },
      "t_string_storage": {
        "encoding": "bytes",
        "label": "string",
        "numberOfBytes": "32"
      },
      "t_struct(RootNFT)7684_storage": {
        "encoding": "inplace",
        "label": "struct IMimbokuMultiround.RootNFT",
        "members": [
          {
            "astId": 7679,
            "contract": "contracts/MimbokuMultiround.sol:MimbokuMultiround",
            "label": "contractAddress",
            "offset": 0,
            "slot": "0",
            "type": "t_address"
          },
          {
            "astId": 7681,
            "contract": "contracts/MimbokuMultiround.sol:MimbokuMultiround",
            "label": "tokenId",
            "offset": 0,
            "slot": "1",
            "type": "t_uint256"
          },
          {
            "astId": 7683,
            "contract": "contracts/MimbokuMultiround.sol:MimbokuMultiround",
            "label": "ipId",
            "offset": 0,
            "slot": "2",
            "type": "t_address"
          }
        ],
        "numberOfBytes": "96"
      },
      "t_uint256": {
        "encoding": "inplace",
        "label": "uint256",
        "numberOfBytes": "32"
      }
    }
  }
}