{
  "address": "0xCFb17Ca7B1eC5EF4FB987b092947C18dADf01ED6",
  "abi": [
    {
      "inputs": [],
      "stateMutability": "nonpayable",
      "type": "constructor"
    },
    {
      "inputs": [],
      "name": "AccessControlBadConfirmation",
      "type": "error"
    },
    {
      "inputs": [
        {
          "internalType": "address",
          "name": "account",
          "type": "address"
        },
        {
          "internalType": "bytes32",
          "name": "neededRole",
          "type": "bytes32"
        }
      ],
      "name": "AccessControlUnauthorizedAccount",
      "type": "error"
    },
    {
      "inputs": [],
      "name": "InvalidInitialization",
      "type": "error"
    },
    {
      "inputs": [],
      "name": "NotInitializing",
      "type": "error"
    },
    {
      "anonymous": false,
      "inputs": [],
      "name": "EIP712DomainChanged",
      "type": "event"
    },
    {
      "anonymous": false,
      "inputs": [
        {
          "indexed": false,
          "internalType": "uint64",
          "name": "version",
          "type": "uint64"
        }
      ],
      "name": "Initialized",
      "type": "event"
    },
    {
      "anonymous": false,
      "inputs": [
        {
          "indexed": false,
          "internalType": "address",
          "name": "recipient",
          "type": "address"
        },
        {
          "indexed": false,
          "internalType": "uint256",
          "name": "tokenId",
          "type": "uint256"
        },
        {
          "indexed": false,
          "internalType": "address",
          "name": "ipId",
          "type": "address"
        }
      ],
      "name": "NFTMinted",
      "type": "event"
    },
    {
      "anonymous": false,
      "inputs": [
        {
          "indexed": true,
          "internalType": "bytes32",
          "name": "role",
          "type": "bytes32"
        },
        {
          "indexed": true,
          "internalType": "bytes32",
          "name": "previousAdminRole",
          "type": "bytes32"
        },
        {
          "indexed": true,
          "internalType": "bytes32",
          "name": "newAdminRole",
          "type": "bytes32"
        }
      ],
      "name": "RoleAdminChanged",
      "type": "event"
    },
    {
      "anonymous": false,
      "inputs": [
        {
          "indexed": true,
          "internalType": "bytes32",
          "name": "role",
          "type": "bytes32"
        },
        {
          "indexed": true,
          "internalType": "address",
          "name": "account",
          "type": "address"
        },
        {
          "indexed": true,
          "internalType": "address",
          "name": "sender",
          "type": "address"
        }
      ],
      "name": "RoleGranted",
      "type": "event"
    },
    {
      "anonymous": false,
      "inputs": [
        {
          "indexed": true,
          "internalType": "bytes32",
          "name": "role",
          "type": "bytes32"
        },
        {
          "indexed": true,
          "internalType": "address",
          "name": "account",
          "type": "address"
        },
        {
          "indexed": true,
          "internalType": "address",
          "name": "sender",
          "type": "address"
        }
      ],
      "name": "RoleRevoked",
      "type": "event"
    },
    {
      "inputs": [],
      "name": "CORE_METADATA_MODULE",
      "outputs": [
        {
          "internalType": "address",
          "name": "",
          "type": "address"
        }
      ],
      "stateMutability": "view",
      "type": "function"
    },
    {
      "inputs": [],
      "name": "DEFAULT_ADMIN_ROLE",
      "outputs": [
        {
          "internalType": "bytes32",
          "name": "",
          "type": "bytes32"
        }
      ],
      "stateMutability": "view",
      "type": "function"
    },
    {
      "inputs": [],
      "name": "DEFAULT_LICENSE_TERMS_ID",
      "outputs": [
        {
          "internalType": "uint256",
          "name": "",
          "type": "uint256"
        }
      ],
      "stateMutability": "view",
      "type": "function"
    },
    {
      "inputs": [],
      "name": "IP_ASSET_REGISTRY",
      "outputs": [
        {
          "internalType": "address",
          "name": "",
          "type": "address"
        }
      ],
      "stateMutability": "view",
      "type": "function"
    },
    {
      "inputs": [],
      "name": "LICENSING_MODULE",
      "outputs": [
        {
          "internalType": "address",
          "name": "",
          "type": "address"
        }
      ],
      "stateMutability": "view",
      "type": "function"
    },
    {
      "inputs": [],
      "name": "MULTIROUND_CONTRACT",
      "outputs": [
        {
          "internalType": "address",
          "name": "",
          "type": "address"
        }
      ],
      "stateMutability": "view",
      "type": "function"
    },
    {
      "inputs": [],
      "name": "NFT_CONTRACT",
      "outputs": [
        {
          "internalType": "address",
          "name": "",
          "type": "address"
        }
      ],
      "stateMutability": "view",
      "type": "function"
    },
    {
      "inputs": [],
      "name": "OWNER_ROLE",
      "outputs": [
        {
          "internalType": "bytes32",
          "name": "",
          "type": "bytes32"
        }
      ],
      "stateMutability": "view",
      "type": "function"
    },
    {
      "inputs": [],
      "name": "PIL_TEMPLATE",
      "outputs": [
        {
          "internalType": "address",
          "name": "",
          "type": "address"
        }
      ],
      "stateMutability": "view",
      "type": "function"
    },
    {
      "inputs": [],
      "name": "eip712Domain",
      "outputs": [
        {
          "internalType": "bytes1",
          "name": "fields",
          "type": "bytes1"
        },
        {
          "internalType": "string",
          "name": "name",
          "type": "string"
        },
        {
          "internalType": "string",
          "name": "version",
          "type": "string"
        },
        {
          "internalType": "uint256",
          "name": "chainId",
          "type": "uint256"
        },
        {
          "internalType": "address",
          "name": "verifyingContract",
          "type": "address"
        },
        {
          "internalType": "bytes32",
          "name": "salt",
          "type": "bytes32"
        },
        {
          "internalType": "uint256[]",
          "name": "extensions",
          "type": "uint256[]"
        }
      ],
      "stateMutability": "view",
      "type": "function"
    },
    {
      "inputs": [
        {
          "internalType": "bytes32",
          "name": "role",
          "type": "bytes32"
        }
      ],
      "name": "getRoleAdmin",
      "outputs": [
        {
          "internalType": "bytes32",
          "name": "",
          "type": "bytes32"
        }
      ],
      "stateMutability": "view",
      "type": "function"
    },
    {
      "inputs": [
        {
          "internalType": "bytes32",
          "name": "role",
          "type": "bytes32"
        },
        {
          "internalType": "address",
          "name": "account",
          "type": "address"
        }
      ],
      "name": "grantRole",
      "outputs": [],
      "stateMutability": "nonpayable",
      "type": "function"
    },
    {
      "inputs": [
        {
          "internalType": "bytes32",
          "name": "role",
          "type": "bytes32"
        },
        {
          "internalType": "address",
          "name": "account",
          "type": "address"
        }
      ],
      "name": "hasRole",
      "outputs": [
        {
          "internalType": "bool",
          "name": "",
          "type": "bool"
        }
      ],
      "stateMutability": "view",
      "type": "function"
    },
    {
      "inputs": [
        {
          "internalType": "address",
          "name": "defaultAdmin",
          "type": "address"
        },
        {
          "internalType": "address",
          "name": "owner",
          "type": "address"
        },
        {
          "internalType": "address",
          "name": "nftContract",
          "type": "address"
        },
        {
          "internalType": "address",
          "name": "multiRoundContract",
          "type": "address"
        },
        {
          "components": [
            {
              "components": [
                {
                  "internalType": "address",
                  "name": "contractAddress",
                  "type": "address"
                },
                {
                  "internalType": "uint256",
                  "name": "tokenId",
                  "type": "uint256"
                },
                {
                  "internalType": "address",
                  "name": "ipId",
                  "type": "address"
                }
              ],
              "internalType": "struct IMimbokuMultiround.RootNFT",
              "name": "rootNFT",
              "type": "tuple"
            },
            {
              "internalType": "uint256",
              "name": "defaultLicenseTermsId",
              "type": "uint256"
            },
            {
              "internalType": "address",
              "name": "pilTemplate",
              "type": "address"
            },
            {
              "internalType": "address",
              "name": "ipAssetRegistry",
              "type": "address"
            },
            {
              "internalType": "address",
              "name": "coreMetadataModule",
              "type": "address"
            },
            {
              "internalType": "address",
              "name": "licenseModule",
              "type": "address"
            },
            {
              "internalType": "string",
              "name": "ipMetadataURI",
              "type": "string"
            },
            {
              "internalType": "bytes32",
              "name": "ipMetadataHash",
              "type": "bytes32"
            }
          ],
          "internalType": "struct IMimbokuMultiround.IPMetadata",
          "name": "ipMetadata",
          "type": "tuple"
        }
      ],
      "name": "initialize",
      "outputs": [],
      "stateMutability": "nonpayable",
      "type": "function"
    },
    {
      "inputs": [],
      "name": "ipMetadataHash",
      "outputs": [
        {
          "internalType": "bytes32",
          "name": "",
          "type": "bytes32"
        }
      ],
      "stateMutability": "view",
      "type": "function"
    },
    {
      "inputs": [],
      "name": "ipMetadataURI",
      "outputs": [
        {
          "internalType": "string",
          "name": "",
          "type": "string"
        }
      ],
      "stateMutability": "view",
      "type": "function"
    },
    {
      "inputs": [
        {
          "internalType": "string",
          "name": "stage",
          "type": "string"
        },
        {
          "internalType": "bytes",
          "name": "signature",
          "type": "bytes"
        },
        {
          "internalType": "bytes32[]",
          "name": "proof",
          "type": "bytes32[]"
        },
        {
          "components": [
            {
              "internalType": "uint256",
              "name": "amount",
              "type": "uint256"
            },
            {
              "internalType": "uint256",
              "name": "tokenId",
              "type": "uint256"
            },
            {
              "internalType": "uint256",
              "name": "nonce",
              "type": "uint256"
            },
            {
              "internalType": "uint256",
              "name": "expiry",
              "type": "uint256"
            },
            {
              "internalType": "address",
              "name": "to",
              "type": "address"
            }
          ],
          "internalType": "struct IOKXMultiMint.MintParams",
          "name": "mintparams",
          "type": "tuple"
        }
      ],
      "name": "mint",
      "outputs": [
        {
          "internalType": "uint256",
          "name": "tokenId",
          "type": "uint256"
        },
        {
          "internalType": "address",
          "name": "ipId",
          "type": "address"
        }
      ],
      "stateMutability": "payable",
      "type": "function"
    },
    {
      "inputs": [
        {
          "internalType": "address",
          "name": "to",
          "type": "address"
        },
        {
          "internalType": "string",
          "name": "stage",
          "type": "string"
        }
      ],
      "name": "mintRecord",
      "outputs": [
        {
          "internalType": "uint256",
          "name": "",
          "type": "uint256"
        }
      ],
      "stateMutability": "view",
      "type": "function"
    },
    {
      "inputs": [
        {
          "internalType": "bytes32",
          "name": "role",
          "type": "bytes32"
        },
        {
          "internalType": "address",
          "name": "callerConfirmation",
          "type": "address"
        }
      ],
      "name": "renounceRole",
      "outputs": [],
      "stateMutability": "nonpayable",
      "type": "function"
    },
    {
      "inputs": [
        {
          "internalType": "bytes32",
          "name": "role",
          "type": "bytes32"
        },
        {
          "internalType": "address",
          "name": "account",
          "type": "address"
        }
      ],
      "name": "revokeRole",
      "outputs": [],
      "stateMutability": "nonpayable",
      "type": "function"
    },
    {
      "inputs": [],
      "name": "rootNFT",
      "outputs": [
        {
          "internalType": "address",
          "name": "contractAddress",
          "type": "address"
        },
        {
          "internalType": "uint256",
          "name": "tokenId",
          "type": "uint256"
        },
        {
          "internalType": "address",
          "name": "ipId",
          "type": "address"
        }
      ],
      "stateMutability": "view",
      "type": "function"
    },
    {
      "inputs": [
        {
          "internalType": "address",
          "name": "signer",
          "type": "address"
        },
        {
          "internalType": "bool",
          "name": "status",
          "type": "bool"
        }
      ],
      "name": "setActiveSigner",
      "outputs": [],
      "stateMutability": "nonpayable",
      "type": "function"
    },
    {
      "inputs": [
        {
          "internalType": "address",
          "name": "nftContract",
          "type": "address"
        },
        {
          "internalType": "address",
          "name": "multiRoundContract",
          "type": "address"
        }
      ],
      "name": "setContracts",
      "outputs": [],
      "stateMutability": "nonpayable",
      "type": "function"
    },
    {
      "inputs": [
        {
          "internalType": "uint256",
          "name": "newMaxSupply",
          "type": "uint256"
        }
      ],
      "name": "setMaxSupply",
      "outputs": [],
      "stateMutability": "nonpayable",
      "type": "function"
    },
    {
      "inputs": [
        {
          "internalType": "address",
          "name": "signer_",
          "type": "address"
        }
      ],
      "name": "setSigner",
      "outputs": [],
      "stateMutability": "nonpayable",
      "type": "function"
    },
    {
      "inputs": [
        {
          "internalType": "string",
          "name": "stage",
          "type": "string"
        },
        {
          "internalType": "bool",
          "name": "enableSig",
          "type": "bool"
        }
      ],
      "name": "setStageEnableSig",
      "outputs": [],
      "stateMutability": "nonpayable",
      "type": "function"
    },
    {
      "inputs": [
        {
          "internalType": "string",
          "name": "stage",
          "type": "string"
        },
        {
          "internalType": "uint32",
          "name": "maxSupply",
          "type": "uint32"
        }
      ],
      "name": "setStageMaxSupply",
      "outputs": [],
      "stateMutability": "nonpayable",
      "type": "function"
    },
    {
      "inputs": [
        {
          "components": [
            {
              "internalType": "bool",
              "name": "enableSig",
              "type": "bool"
            },
            {
              "internalType": "uint8",
              "name": "limitationForAddress",
              "type": "uint8"
            },
            {
              "internalType": "uint32",
              "name": "maxSupplyForStage",
              "type": "uint32"
            },
            {
              "internalType": "uint64",
              "name": "startTime",
              "type": "uint64"
            },
            {
              "internalType": "uint64",
              "name": "endTime",
              "type": "uint64"
            },
            {
              "internalType": "uint256",
              "name": "price",
              "type": "uint256"
            },
            {
              "internalType": "address",
              "name": "paymentToken",
              "type": "address"
            },
            {
              "internalType": "address",
              "name": "payeeAddress",
              "type": "address"
            },
            {
              "internalType": "bytes32",
              "name": "allowListMerkleRoot",
              "type": "bytes32"
            },
            {
              "internalType": "string",
              "name": "stage",
              "type": "string"
            },
            {
              "internalType": "enum IOKXMultiMint.MintType",
              "name": "mintType",
              "type": "uint8"
            }
          ],
          "internalType": "struct IOKXMultiMint.StageMintInfo",
          "name": "stageMintInfo",
          "type": "tuple"
        }
      ],
      "name": "setStageMintInfo",
      "outputs": [],
      "stateMutability": "nonpayable",
      "type": "function"
    },
    {
      "inputs": [
        {
          "internalType": "string",
          "name": "stage",
          "type": "string"
        },
        {
          "internalType": "uint8",
          "name": "mintLimitationPerAddress",
          "type": "uint8"
        }
      ],
      "name": "setStageMintLimitationPerAddress",
      "outputs": [],
      "stateMutability": "nonpayable",
      "type": "function"
    },
    {
      "inputs": [
        {
          "internalType": "string",
          "name": "stage",
          "type": "string"
        },
        {
          "internalType": "uint64",
          "name": "startTime",
          "type": "uint64"
        },
        {
          "internalType": "uint64",
          "name": "endTime",
          "type": "uint64"
        }
      ],
      "name": "setStageMintTime",
      "outputs": [],
      "stateMutability": "nonpayable",
      "type": "function"
    },
    {
      "inputs": [
        {
          "internalType": "string",
          "name": "stage",
          "type": "string"
        },
        {
          "internalType": "address",
          "name": "payeeAddress",
          "type": "address"
        },
        {
          "internalType": "address",
          "name": "paymentToken",
          "type": "address"
        },
        {
          "internalType": "uint64",
          "name": "price",
          "type": "uint64"
        }
      ],
      "name": "setStagePayment",
      "outputs": [],
      "stateMutability": "nonpayable",
      "type": "function"
    },
    {
      "inputs": [
        {
          "internalType": "bool",
          "name": "isTransferRestricted_",
          "type": "bool"
        },
        {
          "internalType": "uint64",
          "name": "startTime",
          "type": "uint64"
        },
        {
          "internalType": "uint64",
          "name": "endTime",
          "type": "uint64"
        }
      ],
      "name": "setTransferRestricted",
      "outputs": [],
      "stateMutability": "nonpayable",
      "type": "function"
    },
    {
      "inputs": [
        {
          "internalType": "string",
          "name": "stage",
          "type": "string"
        }
      ],
      "name": "stageToMint",
      "outputs": [
        {
          "components": [
            {
              "internalType": "bool",
              "name": "enableSig",
              "type": "bool"
            },
            {
              "internalType": "uint8",
              "name": "limitationForAddress",
              "type": "uint8"
            },
            {
              "internalType": "uint32",
              "name": "maxSupplyForStage",
              "type": "uint32"
            },
            {
              "internalType": "uint64",
              "name": "startTime",
              "type": "uint64"
            },
            {
              "internalType": "uint64",
              "name": "endTime",
              "type": "uint64"
            },
            {
              "internalType": "uint256",
              "name": "price",
              "type": "uint256"
            },
            {
              "internalType": "address",
              "name": "paymentToken",
              "type": "address"
            },
            {
              "internalType": "address",
              "name": "payeeAddress",
              "type": "address"
            },
            {
              "internalType": "bytes32",
              "name": "allowListMerkleRoot",
              "type": "bytes32"
            },
            {
              "internalType": "string",
              "name": "stage",
              "type": "string"
            },
            {
              "internalType": "enum IOKXMultiMint.MintType",
              "name": "mintType",
              "type": "uint8"
            }
          ],
          "internalType": "struct IOKXMultiMint.StageMintInfo",
          "name": "",
          "type": "tuple"
        }
      ],
      "stateMutability": "view",
      "type": "function"
    },
    {
      "inputs": [
        {
          "internalType": "string",
          "name": "stage",
          "type": "string"
        }
      ],
      "name": "stageToTotalSupply",
      "outputs": [
        {
          "internalType": "uint256",
          "name": "",
          "type": "uint256"
        }
      ],
      "stateMutability": "view",
      "type": "function"
    },
    {
      "inputs": [
        {
          "internalType": "bytes4",
          "name": "interfaceId",
          "type": "bytes4"
        }
      ],
      "name": "supportsInterface",
      "outputs": [
        {
          "internalType": "bool",
          "name": "",
          "type": "bool"
        }
      ],
      "stateMutability": "view",
      "type": "function"
    },
    {
      "inputs": [],
      "name": "totalSupply",
      "outputs": [
        {
          "internalType": "uint256",
          "name": "",
          "type": "uint256"
        }
      ],
      "stateMutability": "view",
      "type": "function"
    }
  ],
  "transactionHash": "0xa4c03d18dc19b0042c601b0b75657d1a32ad69fd3cc999b1fabc94a6846e49a1",
  "args": [],
  "numDeployments": 1,
  "solcInputHash": "630eddfeba827aca2a1ce6c42c9dc865",
  "bytecode": "0x608060405234801561001057600080fd5b5061001f61002460201b60201c565b61018e565b600061003461012860201b60201c565b90508060000160089054906101000a900460ff161561007f576040517ff92ee8a900000000000000000000000000000000000000000000000000000000815260040160405180910390fd5b67ffffffffffffffff80168160000160009054906101000a900467ffffffffffffffff1667ffffffffffffffff16146101255767ffffffffffffffff8160000160006101000a81548167ffffffffffffffff021916908367ffffffffffffffff1602179055507fc7f505b2f371ae2175ee4913f4499e1f2633a7b5936321eed1cdaeb6115181d267ffffffffffffffff60405161011c9190610173565b60405180910390a15b50565b60007ff0c57e16840df040f15088dc2f81fe391c3923bec73e23a9662efc9c229c6a00905090565b600067ffffffffffffffff82169050919050565b61016d81610150565b82525050565b60006020820190506101886000830184610164565b92915050565b6156c98061019d6000396000f3fe60806040526004361061020f5760003560e01c80637f58660411610118578063aa4daf24116100a0578063d547741f1161006f578063d547741f146107ab578063d8952a49146107d4578063e32e2bbc146107fd578063e58378bb14610826578063ec97120d146108515761020f565b8063aa4daf24146106ff578063b67f21be14610730578063bbfc685514610759578063d4aa8d6f146107825761020f565b806391d14854116100e757806391d14854146106065780639fe78f7914610643578063a217fddf14610680578063a5f5a4a8146106ab578063a95feefe146106d45761020f565b80637f5866041461055257806384b0196e1461057d5780638e7d25a8146105ae5780639035e5a6146105db5761020f565b806336568abe1161019b5780635a9baebd1161016a5780635a9baebd1461048357806362f42822146104ac57806365165aa5146104d55780636c19e783146105005780636f8b44b0146105295761020f565b806336568abe146103c957806341c782c5146103f25780634899cf0b1461041d5780634d73cbd5146104465761020f565b806318160ddd116101e257806318160ddd146102e45780631fda9a021461030f578063248a9ca31461033a57806328c1a4f5146103775780632f2ff15d146103a05761020f565b806301ffc9a7146102145780630f9f6cbd146102515780630fbe291a1461027c57806312c4ce88146102b9575b600080fd5b34801561022057600080fd5b5061023b60048036038101906102369190612f21565b61087c565b6040516102489190612f69565b60405180910390f35b34801561025d57600080fd5b506102666108f6565b6040516102739190613014565b60405180910390f35b34801561028857600080fd5b506102a3600480360381019061029e91906131c9565b610984565b6040516102b0919061323e565b60405180910390f35b3480156102c557600080fd5b506102ce610a2c565b6040516102db9190613268565b60405180910390f35b3480156102f057600080fd5b506102f9610a52565b604051610306919061323e565b60405180910390f35b34801561031b57600080fd5b50610324610aea565b6040516103319190613268565b60405180910390f35b34801561034657600080fd5b50610361600480360381019061035c91906132b9565b610b0e565b60405161036e91906132f5565b60405180910390f35b34801561038357600080fd5b5061039e6004803603810190610399919061333c565b610b3c565b005b3480156103ac57600080fd5b506103c760048036038101906103c2919061337c565b610bfa565b005b3480156103d557600080fd5b506103f060048036038101906103eb919061337c565b610c1c565b005b3480156103fe57600080fd5b50610407610c97565b6040516104149190613268565b60405180910390f35b34801561042957600080fd5b50610444600480360381019061043f91906133fc565b610cbd565b005b34801561045257600080fd5b5061046d6004803603810190610468919061344f565b610d7e565b60405161047a91906136ce565b60405180910390f35b34801561048f57600080fd5b506104aa60048036038101906104a59190613750565b610e2e565b005b3480156104b857600080fd5b506104d360048036038101906104ce91906137fd565b610ef5565b005b3480156104e157600080fd5b506104ea6110ba565b6040516104f79190613268565b60405180910390f35b34801561050c57600080fd5b5061052760048036038101906105229190613846565b6110e0565b005b34801561053557600080fd5b50610550600480360381019061054b919061389f565b61119e565b005b34801561055e57600080fd5b506105676112cd565b6040516105749190613268565b60405180910390f35b34801561058957600080fd5b506105926112f3565b6040516105a597969594939291906139b6565b60405180910390f35b3480156105ba57600080fd5b506105c3611405565b6040516105d293929190613a3a565b60405180910390f35b3480156105e757600080fd5b506105f061145d565b6040516105fd9190613268565b60405180910390f35b34801561061257600080fd5b5061062d6004803603810190610628919061337c565b611483565b60405161063a9190612f69565b60405180910390f35b34801561064f57600080fd5b5061066a6004803603810190610665919061344f565b6114fc565b604051610677919061323e565b60405180910390f35b34801561068c57600080fd5b506106956115a1565b6040516106a291906132f5565b60405180910390f35b3480156106b757600080fd5b506106d260048036038101906106cd9190613a71565b6115a8565b005b3480156106e057600080fd5b506106e9611669565b6040516106f691906132f5565b60405180910390f35b61071960048036038101906107149190613b9c565b61166f565b604051610727929190613c66565b60405180910390f35b34801561073c57600080fd5b5061075760048036038101906107529190613cbb565b611aaa565b005b34801561076557600080fd5b50610780600480360381019061077b9190613d3b565b611b6b565b005b34801561078e57600080fd5b506107a960048036038101906107a49190613dd2565b611fc4565b005b3480156107b757600080fd5b506107d260048036038101906107cd919061337c565b612088565b005b3480156107e057600080fd5b506107fb60048036038101906107f69190613e46565b6120aa565b005b34801561080957600080fd5b50610824600480360381019061081f9190613eb2565b61213d565b005b34801561083257600080fd5b5061083b6121fe565b60405161084891906132f5565b60405180910390f35b34801561085d57600080fd5b50610866612222565b604051610873919061323e565b60405180910390f35b60007f7965db0b000000000000000000000000000000000000000000000000000000007bffffffffffffffffffffffffffffffffffffffffffffffffffffffff1916827bffffffffffffffffffffffffffffffffffffffffffffffffffffffff191614806108ef57506108ee82612228565b5b9050919050565b600a805461090390613f41565b80601f016020809104026020016040519081016040528092919081815260200182805461092f90613f41565b801561097c5780601f106109515761010080835404028352916020019161097c565b820191906000526020600020905b81548152906001019060200180831161095f57829003601f168201915b505050505081565b6000600160009054906101000a900473ffffffffffffffffffffffffffffffffffffffff1673ffffffffffffffffffffffffffffffffffffffff16630fbe291a84846040518363ffffffff1660e01b81526004016109e3929190613f72565b602060405180830381865afa158015610a00573d6000803e3d6000fd5b505050506040513d601f19601f82011682018060405250810190610a249190613fb7565b905092915050565b600360009054906101000a900473ffffffffffffffffffffffffffffffffffffffff1681565b6000600160009054906101000a900473ffffffffffffffffffffffffffffffffffffffff1673ffffffffffffffffffffffffffffffffffffffff166318160ddd6040518163ffffffff1660e01b8152600401602060405180830381865afa158015610ac1573d6000803e3d6000fd5b505050506040513d601f19601f82011682018060405250810190610ae59190613fb7565b905090565b60008054906101000a900473ffffffffffffffffffffffffffffffffffffffff1681565b600080610b19612292565b905080600001600084815260200190815260200160002060010154915050919050565b7fb19546dff01e856fb3f010c267a7b1c60363cf8a4664e21cc89c26224620214e610b66816122ba565b600160009054906101000a900473ffffffffffffffffffffffffffffffffffffffff1673ffffffffffffffffffffffffffffffffffffffff166328c1a4f584846040518363ffffffff1660e01b8152600401610bc3929190613fe4565b600060405180830381600087803b158015610bdd57600080fd5b505af1158015610bf1573d6000803e3d6000fd5b50505050505050565b610c0382610b0e565b610c0c816122ba565b610c1683836122ce565b50505050565b610c246123cf565b73ffffffffffffffffffffffffffffffffffffffff168173ffffffffffffffffffffffffffffffffffffffff1614610c88576040517f6697b23200000000000000000000000000000000000000000000000000000000815260040160405180910390fd5b610c9282826123d7565b505050565b600460009054906101000a900473ffffffffffffffffffffffffffffffffffffffff1681565b7fb19546dff01e856fb3f010c267a7b1c60363cf8a4664e21cc89c26224620214e610ce7816122ba565b600160009054906101000a900473ffffffffffffffffffffffffffffffffffffffff1673ffffffffffffffffffffffffffffffffffffffff16634899cf0b8585856040518463ffffffff1660e01b8152600401610d469392919061401c565b600060405180830381600087803b158015610d6057600080fd5b505af1158015610d74573d6000803e3d6000fd5b5050505050505050565b610d86612d70565b600160009054906101000a900473ffffffffffffffffffffffffffffffffffffffff1673ffffffffffffffffffffffffffffffffffffffff16634d73cbd5836040518263ffffffff1660e01b8152600401610de19190613014565b600060405180830381865afa158015610dfe573d6000803e3d6000fd5b505050506040513d6000823e3d601f19601f82011682018060405250810190610e279190614298565b9050919050565b7fb19546dff01e856fb3f010c267a7b1c60363cf8a4664e21cc89c26224620214e610e58816122ba565b600160009054906101000a900473ffffffffffffffffffffffffffffffffffffffff1673ffffffffffffffffffffffffffffffffffffffff16634fb5656a87878787876040518663ffffffff1660e01b8152600401610ebb959493929190614349565b600060405180830381600087803b158015610ed557600080fd5b505af1158015610ee9573d6000803e3d6000fd5b50505050505050505050565b7fb19546dff01e856fb3f010c267a7b1c60363cf8a4664e21cc89c26224620214e610f1f816122ba565b600160009054906101000a900473ffffffffffffffffffffffffffffffffffffffff1673ffffffffffffffffffffffffffffffffffffffff166362f42822836040518263ffffffff1660e01b8152600401610f7a919061464c565b600060405180830381600087803b158015610f9457600080fd5b505af1158015610fa8573d6000803e3d6000fd5b505050506000600160009054906101000a900473ffffffffffffffffffffffffffffffffffffffff1673ffffffffffffffffffffffffffffffffffffffff1663d5abeb016040518163ffffffff1660e01b8152600401602060405180830381865afa15801561101b573d6000803e3d6000fd5b505050506040513d601f19601f8201168201806040525081019061103f9190613fb7565b9050600c600061104f9190612e2a565b8067ffffffffffffffff8111156110695761106861309e565b5b6040519080825280602002602001820160405280156110975781602001602082028036833780820191505090505b50600c90805190602001906110ad929190612e4b565b5080600d81905550505050565b600660009054906101000a900473ffffffffffffffffffffffffffffffffffffffff1681565b7fb19546dff01e856fb3f010c267a7b1c60363cf8a4664e21cc89c26224620214e61110a816122ba565b600160009054906101000a900473ffffffffffffffffffffffffffffffffffffffff1673ffffffffffffffffffffffffffffffffffffffff166328c1a4f58360016040518363ffffffff1660e01b8152600401611168929190613fe4565b600060405180830381600087803b15801561118257600080fd5b505af1158015611196573d6000803e3d6000fd5b505050505050565b7fb19546dff01e856fb3f010c267a7b1c60363cf8a4664e21cc89c26224620214e6111c8816122ba565b600160009054906101000a900473ffffffffffffffffffffffffffffffffffffffff1673ffffffffffffffffffffffffffffffffffffffff16636f8b44b0836040518263ffffffff1660e01b8152600401611223919061323e565b600060405180830381600087803b15801561123d57600080fd5b505af1158015611251573d6000803e3d6000fd5b50505050600c60006112639190612e2a565b8167ffffffffffffffff81111561127d5761127c61309e565b5b6040519080825280602002602001820160405280156112ab5781602001602082028036833780820191505090505b50600c90805190602001906112c1929190612e4b565b5081600d819055505050565b600560009054906101000a900473ffffffffffffffffffffffffffffffffffffffff1681565b60006060806000806000606060006113096124d9565b90506000801b816000015414801561132757506000801b8160010154145b611366576040517f08c379a000000000000000000000000000000000000000000000000000000000815260040161135d906146ba565b60405180910390fd5b61136e612501565b6113766125a2565b46306000801b600067ffffffffffffffff8111156113975761139661309e565b5b6040519080825280602002602001820160405280156113c55781602001602082028036833780820191505090505b507f0f0000000000000000000000000000000000000000000000000000000000000095949392919097509750975097509750975097505090919293949596565b60078060000160009054906101000a900473ffffffffffffffffffffffffffffffffffffffff16908060010154908060020160009054906101000a900473ffffffffffffffffffffffffffffffffffffffff16905083565b600160009054906101000a900473ffffffffffffffffffffffffffffffffffffffff1681565b60008061148e612292565b905080600001600085815260200190815260200160002060000160008473ffffffffffffffffffffffffffffffffffffffff1673ffffffffffffffffffffffffffffffffffffffff16815260200190815260200160002060009054906101000a900460ff1691505092915050565b6000600160009054906101000a900473ffffffffffffffffffffffffffffffffffffffff1673ffffffffffffffffffffffffffffffffffffffff16639fe78f79836040518263ffffffff1660e01b81526004016115599190613014565b602060405180830381865afa158015611576573d6000803e3d6000fd5b505050506040513d601f19601f8201168201806040525081019061159a9190613fb7565b9050919050565b6000801b81565b7fb19546dff01e856fb3f010c267a7b1c60363cf8a4664e21cc89c26224620214e6115d2816122ba565b600160009054906101000a900473ffffffffffffffffffffffffffffffffffffffff1673ffffffffffffffffffffffffffffffffffffffff1663a5f5a4a88585856040518463ffffffff1660e01b8152600401611631939291906146da565b600060405180830381600087803b15801561164b57600080fd5b505af115801561165f573d6000803e3d6000fd5b5050505050505050565b600b5481565b6000806000600160009054906101000a900473ffffffffffffffffffffffffffffffffffffffff1673ffffffffffffffffffffffffffffffffffffffff1663832f9f548b8b89898d8d8b6040518863ffffffff1660e01b81526004016116db9796959493929190614855565b6020604051808303816000875af11580156116fa573d6000803e3d6000fd5b505050506040513d601f19601f8201168201806040525081019061171e9190613fb7565b90506000600160009054906101000a900473ffffffffffffffffffffffffffffffffffffffff1673ffffffffffffffffffffffffffffffffffffffff16634d73cbd58c8c6040518363ffffffff1660e01b815260040161177f9291906148b6565b600060405180830381865afa15801561179c573d6000803e3d6000fd5b505050506040513d6000823e3d601f19601f820116820180604052508101906117c59190614298565b905060008160c00151905060008260e00151905060008360a0015190506000811461198457600073ffffffffffffffffffffffffffffffffffffffff168373ffffffffffffffffffffffffffffffffffffffff16146118ed578273ffffffffffffffffffffffffffffffffffffffff166323b872dd338488856118489190614909565b6040518463ffffffff1660e01b81526004016118669392919061494b565b6020604051808303816000875af1158015611885573d6000803e3d6000fd5b505050506040513d601f19601f820116820180604052508101906118a99190614982565b6118e8576040517f08c379a00000000000000000000000000000000000000000000000000000000081526004016118df906149fb565b60405180910390fd5b611983565b84816118f99190614909565b34101561193b576040517f08c379a000000000000000000000000000000000000000000000000000000000815260040161193290614a67565b60405180910390fd5b8173ffffffffffffffffffffffffffffffffffffffff166108fc349081150290604051600060405180830381858888f19350505050158015611981573d6000803e3d6000fd5b505b5b60005b85811015611a4b57611997612643565b809850819950505060008054906101000a900473ffffffffffffffffffffffffffffffffffffffff1673ffffffffffffffffffffffffffffffffffffffff166323b872dd308b60800160208101906119ef9190613846565b8b6040518463ffffffff1660e01b8152600401611a0e9392919061494b565b600060405180830381600087803b158015611a2857600080fd5b505af1158015611a3c573d6000803e3d6000fd5b50505050806001019050611987565b507f89a2c92e65780856b461f06435fffd0fb445240ba3cfee7e8f18e01dca40c073886080016020810190611a809190613846565b8888604051611a9193929190613a3a565b60405180910390a1505050505097509795505050505050565b7fb19546dff01e856fb3f010c267a7b1c60363cf8a4664e21cc89c26224620214e611ad4816122ba565b600160009054906101000a900473ffffffffffffffffffffffffffffffffffffffff1673ffffffffffffffffffffffffffffffffffffffff1663b67f21be8585856040518463ffffffff1660e01b8152600401611b3393929190614a96565b600060405180830381600087803b158015611b4d57600080fd5b505af1158015611b61573d6000803e3d6000fd5b5050505050505050565b6000611b75612867565b905060008160000160089054906101000a900460ff1615905060008260000160009054906101000a900467ffffffffffffffff1690506000808267ffffffffffffffff16148015611bc35750825b9050600060018367ffffffffffffffff16148015611bf8575060003073ffffffffffffffffffffffffffffffffffffffff163b145b905081158015611c06575080155b15611c3d576040517ff92ee8a900000000000000000000000000000000000000000000000000000000815260040160405180910390fd5b60018560000160006101000a81548167ffffffffffffffff021916908367ffffffffffffffff1602179055508315611c8d5760018560000160086101000a81548160ff0219169083151502179055505b611d016040518060400160405280600781526020017f4f4b584d696e74000000000000000000000000000000000000000000000000008152506040518060400160405280600381526020017f312e30000000000000000000000000000000000000000000000000000000000081525061288f565b611d096128a5565b611d166000801b8b6122ce565b50611d417fb19546dff01e856fb3f010c267a7b1c60363cf8a4664e21cc89c26224620214e8a6122ce565b50876000806101000a81548173ffffffffffffffffffffffffffffffffffffffff021916908373ffffffffffffffffffffffffffffffffffffffff16021790555086600160006101000a81548173ffffffffffffffffffffffffffffffffffffffff021916908373ffffffffffffffffffffffffffffffffffffffff1602179055508560000160078181611dd59190614ca2565b9050508560600135600281905550856080016020810190611df69190613846565b600360006101000a81548173ffffffffffffffffffffffffffffffffffffffff021916908373ffffffffffffffffffffffffffffffffffffffff1602179055508560a0016020810190611e499190613846565b600460006101000a81548173ffffffffffffffffffffffffffffffffffffffff021916908373ffffffffffffffffffffffffffffffffffffffff1602179055508560c0016020810190611e9c9190613846565b600560006101000a81548173ffffffffffffffffffffffffffffffffffffffff021916908373ffffffffffffffffffffffffffffffffffffffff1602179055508560e0016020810190611eef9190613846565b600660006101000a81548173ffffffffffffffffffffffffffffffffffffffff021916908373ffffffffffffffffffffffffffffffffffffffff16021790555085806101000190611f409190614cbf565b600a9182611f4f929190614ea3565b50856101200135600b819055508315611fb85760008560000160086101000a81548160ff0219169083151502179055507fc7f505b2f371ae2175ee4913f4499e1f2633a7b5936321eed1cdaeb6115181d26001604051611faf9190614fae565b60405180910390a15b50505050505050505050565b7fb19546dff01e856fb3f010c267a7b1c60363cf8a4664e21cc89c26224620214e611fee816122ba565b600160009054906101000a900473ffffffffffffffffffffffffffffffffffffffff1673ffffffffffffffffffffffffffffffffffffffff1663d4aa8d6f868686866040518563ffffffff1660e01b815260040161204f9493929190614fc9565b600060405180830381600087803b15801561206957600080fd5b505af115801561207d573d6000803e3d6000fd5b505050505050505050565b61209182610b0e565b61209a816122ba565b6120a483836123d7565b50505050565b6000801b6120b7816122ba565b826000806101000a81548173ffffffffffffffffffffffffffffffffffffffff021916908373ffffffffffffffffffffffffffffffffffffffff16021790555081600160006101000a81548173ffffffffffffffffffffffffffffffffffffffff021916908373ffffffffffffffffffffffffffffffffffffffff160217905550505050565b7fb19546dff01e856fb3f010c267a7b1c60363cf8a4664e21cc89c26224620214e612167816122ba565b600160009054906101000a900473ffffffffffffffffffffffffffffffffffffffff1673ffffffffffffffffffffffffffffffffffffffff1663e32e2bbc8585856040518463ffffffff1660e01b81526004016121c693929190615018565b600060405180830381600087803b1580156121e057600080fd5b505af11580156121f4573d6000803e3d6000fd5b5050505050505050565b7fb19546dff01e856fb3f010c267a7b1c60363cf8a4664e21cc89c26224620214e81565b60025481565b60007f01ffc9a7000000000000000000000000000000000000000000000000000000007bffffffffffffffffffffffffffffffffffffffffffffffffffffffff1916827bffffffffffffffffffffffffffffffffffffffffffffffffffffffff1916149050919050565b60007f02dd7bc7dec4dceedda775e58dd541e08a116c6c53815c0bd028192f7b626800905090565b6122cb816122c66123cf565b6128af565b50565b6000806122d9612292565b90506122e58484611483565b6123c357600181600001600086815260200190815260200160002060000160008573ffffffffffffffffffffffffffffffffffffffff1673ffffffffffffffffffffffffffffffffffffffff16815260200190815260200160002060006101000a81548160ff02191690831515021790555061235f6123cf565b73ffffffffffffffffffffffffffffffffffffffff168373ffffffffffffffffffffffffffffffffffffffff16857f2f8788117e7eff1d82e926ec794901d17c78024a50270940304540a733656f0d60405160405180910390a460019150506123c9565b60009150505b92915050565b600033905090565b6000806123e2612292565b90506123ee8484611483565b156124cd57600081600001600086815260200190815260200160002060000160008573ffffffffffffffffffffffffffffffffffffffff1673ffffffffffffffffffffffffffffffffffffffff16815260200190815260200160002060006101000a81548160ff0219169083151502179055506124696123cf565b73ffffffffffffffffffffffffffffffffffffffff168373ffffffffffffffffffffffffffffffffffffffff16857ff6391f5c32d9c69d2a47ea670b442974b53935d1edc7fd64eb21e047a839171b60405160405180910390a460019150506124d3565b60009150505b92915050565b60007fa16a46d94261c7517cc8ff89f61c0ce93598e3c849801011dee649a6a557d100905090565b6060600061250d6124d9565b905080600201805461251e90613f41565b80601f016020809104026020016040519081016040528092919081815260200182805461254a90613f41565b80156125975780601f1061256c57610100808354040283529160200191612597565b820191906000526020600020905b81548152906001019060200180831161257a57829003601f168201915b505050505091505090565b606060006125ae6124d9565b90508060030180546125bf90613f41565b80601f01602080910402602001604051908101604052809291908181526020018280546125eb90613f41565b80156126385780601f1061260d57610100808354040283529160200191612638565b820191906000526020600020905b81548152906001019060200180831161261b57829003601f168201915b505050505091505090565b60008061264e612900565b915060008054906101000a900473ffffffffffffffffffffffffffffffffffffffff1673ffffffffffffffffffffffffffffffffffffffff1663a144819430846040518363ffffffff1660e01b81526004016126ab92919061504a565b600060405180830381600087803b1580156126c557600080fd5b505af11580156126d9573d6000803e3d6000fd5b505050506000600167ffffffffffffffff8111156126fa576126f961309e565b5b6040519080825280602002602001820160405280156127285781602001602082028036833780820191505090505b5090506000600167ffffffffffffffff8111156127485761274761309e565b5b6040519080825280602002602001820160405280156127765781602001602082028036833780820191505090505b509050600760020160009054906101000a900473ffffffffffffffffffffffffffffffffffffffff16826000815181106127b3576127b2615073565b5b602002602001019073ffffffffffffffffffffffffffffffffffffffff16908173ffffffffffffffffffffffffffffffffffffffff16815250506002548160008151811061280457612803615073565b5b60200260200101818152505061281c84600b54612a45565b92506128618383600360009054906101000a900473ffffffffffffffffffffffffffffffffffffffff1684604051806020016040528060008152506000806000612c16565b50509091565b60007ff0c57e16840df040f15088dc2f81fe391c3923bec73e23a9662efc9c229c6a00905090565b612897612cbb565b6128a18282612cfb565b5050565b6128ad612cbb565b565b6128b98282611483565b6128fc5780826040517fe2517d3f0000000000000000000000000000000000000000000000000000000081526004016128f39291906150a2565b60405180910390fd5b5050565b600080600d5442443360405160200161291b93929190615134565b6040516020818303038152906040528051906020012060001c61293e91906151a0565b9050600080600c838154811061295757612956615073565b5b90600052602060002001541461298b57600c828154811061297b5761297a615073565b5b9060005260206000200154612999565b60018261299891906151d1565b5b90506000600c6001600d546129ae9190615205565b815481106129bf576129be615073565b5b906000526020600020015414612a0157600c6001600d546129e09190615205565b815481106129f1576129f0615073565b5b9060005260206000200154612a05565b600d545b600c8381548110612a1957612a18615073565b5b9060005260206000200181905550600d60008154612a3690615239565b91905081905550809250505090565b6000600460009054906101000a900473ffffffffffffffffffffffffffffffffffffffff1673ffffffffffffffffffffffffffffffffffffffff1663fca247ac4660008054906101000a900473ffffffffffffffffffffffffffffffffffffffff16866040518463ffffffff1660e01b8152600401612ac693929190615262565b6020604051808303816000875af1158015612ae5573d6000803e3d6000fd5b505050506040513d601f19601f82011682018060405250810190612b099190615299565b90507fc5d2460186f7233c927e7db2dcc703c0e500b653ca82273b7bfad8045d85a470600a604051602001612b3e9190615354565b60405160208183030381529060405280519060200120141580612b6657506000801b600b5414155b80612b7457506000801b8214155b15612c1057600560009054906101000a900473ffffffffffffffffffffffffffffffffffffffff1673ffffffffffffffffffffffffffffffffffffffff1663b76520c682600a600b54866040518563ffffffff1660e01b8152600401612bdd94939291906153ef565b600060405180830381600087803b158015612bf757600080fd5b505af1158015612c0b573d6000803e3d6000fd5b505050505b92915050565b600660009054906101000a900473ffffffffffffffffffffffffffffffffffffffff1673ffffffffffffffffffffffffffffffffffffffff16634a4d56c58989888a898989896040518963ffffffff1660e01b8152600401612c7f98979695949392919061552e565b600060405180830381600087803b158015612c9957600080fd5b505af1158015612cad573d6000803e3d6000fd5b505050505050505050505050565b612cc3612d50565b612cf9576040517fd7e6bcf800000000000000000000000000000000000000000000000000000000815260040160405180910390fd5b565b612d03612cbb565b6000612d0d6124d9565b905082816002019081612d2091906155c1565b5081816003019081612d3291906155c1565b506000801b81600001819055506000801b8160010181905550505050565b6000612d5a612867565b60000160089054906101000a900460ff16905090565b604051806101600160405280600015158152602001600060ff168152602001600063ffffffff168152602001600067ffffffffffffffff168152602001600067ffffffffffffffff16815260200160008152602001600073ffffffffffffffffffffffffffffffffffffffff168152602001600073ffffffffffffffffffffffffffffffffffffffff168152602001600080191681526020016060815260200160006001811115612e2457612e23613568565b5b81525090565b5080546000825590600052602060002090810190612e489190612e98565b50565b828054828255906000526020600020908101928215612e87579160200282015b82811115612e86578251825591602001919060010190612e6b565b5b509050612e949190612e98565b5090565b5b80821115612eb1576000816000905550600101612e99565b5090565b6000604051905090565b600080fd5b600080fd5b60007fffffffff0000000000000000000000000000000000000000000000000000000082169050919050565b612efe81612ec9565b8114612f0957600080fd5b50565b600081359050612f1b81612ef5565b92915050565b600060208284031215612f3757612f36612ebf565b5b6000612f4584828501612f0c565b91505092915050565b60008115159050919050565b612f6381612f4e565b82525050565b6000602082019050612f7e6000830184612f5a565b92915050565b600081519050919050565b600082825260208201905092915050565b60005b83811015612fbe578082015181840152602081019050612fa3565b60008484015250505050565b6000601f19601f8301169050919050565b6000612fe682612f84565b612ff08185612f8f565b9350613000818560208601612fa0565b61300981612fca565b840191505092915050565b6000602082019050818103600083015261302e8184612fdb565b905092915050565b600073ffffffffffffffffffffffffffffffffffffffff82169050919050565b600061306182613036565b9050919050565b61307181613056565b811461307c57600080fd5b50565b60008135905061308e81613068565b92915050565b600080fd5b600080fd5b7f4e487b7100000000000000000000000000000000000000000000000000000000600052604160045260246000fd5b6130d682612fca565b810181811067ffffffffffffffff821117156130f5576130f461309e565b5b80604052505050565b6000613108612eb5565b905061311482826130cd565b919050565b600067ffffffffffffffff8211156131345761313361309e565b5b61313d82612fca565b9050602081019050919050565b82818337600083830152505050565b600061316c61316784613119565b6130fe565b90508281526020810184848401111561318857613187613099565b5b61319384828561314a565b509392505050565b600082601f8301126131b0576131af613094565b5b81356131c0848260208601613159565b91505092915050565b600080604083850312156131e0576131df612ebf565b5b60006131ee8582860161307f565b925050602083013567ffffffffffffffff81111561320f5761320e612ec4565b5b61321b8582860161319b565b9150509250929050565b6000819050919050565b61323881613225565b82525050565b6000602082019050613253600083018461322f565b92915050565b61326281613056565b82525050565b600060208201905061327d6000830184613259565b92915050565b6000819050919050565b61329681613283565b81146132a157600080fd5b50565b6000813590506132b38161328d565b92915050565b6000602082840312156132cf576132ce612ebf565b5b60006132dd848285016132a4565b91505092915050565b6132ef81613283565b82525050565b600060208201905061330a60008301846132e6565b92915050565b61331981612f4e565b811461332457600080fd5b50565b60008135905061333681613310565b92915050565b6000806040838503121561335357613352612ebf565b5b60006133618582860161307f565b925050602061337285828601613327565b9150509250929050565b6000806040838503121561339357613392612ebf565b5b60006133a1858286016132a4565b92505060206133b28582860161307f565b9150509250929050565b600067ffffffffffffffff82169050919050565b6133d9816133bc565b81146133e457600080fd5b50565b6000813590506133f6816133d0565b92915050565b60008060006060848603121561341557613414612ebf565b5b600061342386828701613327565b9350506020613434868287016133e7565b9250506040613445868287016133e7565b9150509250925092565b60006020828403121561346557613464612ebf565b5b600082013567ffffffffffffffff81111561348357613482612ec4565b5b61348f8482850161319b565b91505092915050565b6134a181612f4e565b82525050565b600060ff82169050919050565b6134bd816134a7565b82525050565b600063ffffffff82169050919050565b6134dc816134c3565b82525050565b6134eb816133bc565b82525050565b6134fa81613225565b82525050565b61350981613056565b82525050565b61351881613283565b82525050565b600082825260208201905092915050565b600061353a82612f84565b613544818561351e565b9350613554818560208601612fa0565b61355d81612fca565b840191505092915050565b7f4e487b7100000000000000000000000000000000000000000000000000000000600052602160045260246000fd5b600281106135a8576135a7613568565b5b50565b60008190506135b982613597565b919050565b60006135c9826135ab565b9050919050565b6135d9816135be565b82525050565b6000610160830160008301516135f86000860182613498565b50602083015161360b60208601826134b4565b50604083015161361e60408601826134d3565b50606083015161363160608601826134e2565b50608083015161364460808601826134e2565b5060a083015161365760a08601826134f1565b5060c083015161366a60c0860182613500565b5060e083015161367d60e0860182613500565b5061010083015161369261010086018261350f565b506101208301518482036101208601526136ac828261352f565b9150506101408301516136c36101408601826135d0565b508091505092915050565b600060208201905081810360008301526136e881846135df565b905092915050565b600080fd5b600080fd5b60008083601f8401126137105761370f613094565b5b8235905067ffffffffffffffff81111561372d5761372c6136f0565b5b602083019150836001820283011115613749576137486136f5565b5b9250929050565b60008060008060006080868803121561376c5761376b612ebf565b5b600086013567ffffffffffffffff81111561378a57613789612ec4565b5b613796888289016136fa565b955095505060206137a98882890161307f565b93505060406137ba8882890161307f565b92505060606137cb888289016133e7565b9150509295509295909350565b600080fd5b600061016082840312156137f4576137f36137d8565b5b81905092915050565b60006020828403121561381357613812612ebf565b5b600082013567ffffffffffffffff81111561383157613830612ec4565b5b61383d848285016137dd565b91505092915050565b60006020828403121561385c5761385b612ebf565b5b600061386a8482850161307f565b91505092915050565b61387c81613225565b811461388757600080fd5b50565b60008135905061389981613873565b92915050565b6000602082840312156138b5576138b4612ebf565b5b60006138c38482850161388a565b91505092915050565b60007fff0000000000000000000000000000000000000000000000000000000000000082169050919050565b613901816138cc565b82525050565b600081519050919050565b600082825260208201905092915050565b6000819050602082019050919050565b600061393f83836134f1565b60208301905092915050565b6000602082019050919050565b600061396382613907565b61396d8185613912565b935061397883613923565b8060005b838110156139a95781516139908882613933565b975061399b8361394b565b92505060018101905061397c565b5085935050505092915050565b600060e0820190506139cb600083018a6138f8565b81810360208301526139dd8189612fdb565b905081810360408301526139f18188612fdb565b9050613a00606083018761322f565b613a0d6080830186613259565b613a1a60a08301856132e6565b81810360c0830152613a2c8184613958565b905098975050505050505050565b6000606082019050613a4f6000830186613259565b613a5c602083018561322f565b613a696040830184613259565b949350505050565b600080600060408486031215613a8a57613a89612ebf565b5b600084013567ffffffffffffffff811115613aa857613aa7612ec4565b5b613ab4868287016136fa565b93509350506020613ac786828701613327565b9150509250925092565b60008083601f840112613ae757613ae6613094565b5b8235905067ffffffffffffffff811115613b0457613b036136f0565b5b602083019150836001820283011115613b2057613b1f6136f5565b5b9250929050565b60008083601f840112613b3d57613b3c613094565b5b8235905067ffffffffffffffff811115613b5a57613b596136f0565b5b602083019150836020820283011115613b7657613b756136f5565b5b9250929050565b600060a08284031215613b9357613b926137d8565b5b81905092915050565b6000806000806000806000610100888a031215613bbc57613bbb612ebf565b5b600088013567ffffffffffffffff811115613bda57613bd9612ec4565b5b613be68a828b016136fa565b9750975050602088013567ffffffffffffffff811115613c0957613c08612ec4565b5b613c158a828b01613ad1565b9550955050604088013567ffffffffffffffff811115613c3857613c37612ec4565b5b613c448a828b01613b27565b93509350506060613c578a828b01613b7d565b91505092959891949750929550565b6000604082019050613c7b600083018561322f565b613c886020830184613259565b9392505050565b613c98816134a7565b8114613ca357600080fd5b50565b600081359050613cb581613c8f565b92915050565b600080600060408486031215613cd457613cd3612ebf565b5b600084013567ffffffffffffffff811115613cf257613cf1612ec4565b5b613cfe868287016136fa565b93509350506020613d1186828701613ca6565b9150509250925092565b60006101408284031215613d3257613d316137d8565b5b81905092915050565b600080600080600060a08688031215613d5757613d56612ebf565b5b6000613d658882890161307f565b9550506020613d768882890161307f565b9450506040613d878882890161307f565b9350506060613d988882890161307f565b925050608086013567ffffffffffffffff811115613db957613db8612ec4565b5b613dc588828901613d1b565b9150509295509295909350565b60008060008060608587031215613dec57613deb612ebf565b5b600085013567ffffffffffffffff811115613e0a57613e09612ec4565b5b613e16878288016136fa565b94509450506020613e29878288016133e7565b9250506040613e3a878288016133e7565b91505092959194509250565b60008060408385031215613e5d57613e5c612ebf565b5b6000613e6b8582860161307f565b9250506020613e7c8582860161307f565b9150509250929050565b613e8f816134c3565b8114613e9a57600080fd5b50565b600081359050613eac81613e86565b92915050565b600080600060408486031215613ecb57613eca612ebf565b5b600084013567ffffffffffffffff811115613ee957613ee8612ec4565b5b613ef5868287016136fa565b93509350506020613f0886828701613e9d565b9150509250925092565b7f4e487b7100000000000000000000000000000000000000000000000000000000600052602260045260246000fd5b60006002820490506001821680613f5957607f821691505b602082108103613f6c57613f6b613f12565b5b50919050565b6000604082019050613f876000830185613259565b8181036020830152613f998184612fdb565b90509392505050565b600081519050613fb181613873565b92915050565b600060208284031215613fcd57613fcc612ebf565b5b6000613fdb84828501613fa2565b91505092915050565b6000604082019050613ff96000830185613259565b6140066020830184612f5a565b9392505050565b614016816133bc565b82525050565b60006060820190506140316000830186612f5a565b61403e602083018561400d565b61404b604083018461400d565b949350505050565b600080fd5b600080fd5b60008151905061406c81613310565b92915050565b60008151905061408181613c8f565b92915050565b60008151905061409681613e86565b92915050565b6000815190506140ab816133d0565b92915050565b6000815190506140c081613068565b92915050565b6000815190506140d58161328d565b92915050565b60006140ee6140e984613119565b6130fe565b90508281526020810184848401111561410a57614109613099565b5b614115848285612fa0565b509392505050565b600082601f83011261413257614131613094565b5b81516141428482602086016140db565b91505092915050565b6002811061415857600080fd5b50565b60008151905061416a8161414b565b92915050565b6000610160828403121561418757614186614053565b5b6141926101606130fe565b905060006141a28482850161405d565b60008301525060206141b684828501614072565b60208301525060406141ca84828501614087565b60408301525060606141de8482850161409c565b60608301525060806141f28482850161409c565b60808301525060a061420684828501613fa2565b60a08301525060c061421a848285016140b1565b60c08301525060e061422e848285016140b1565b60e083015250610100614243848285016140c6565b6101008301525061012082015167ffffffffffffffff81111561426957614268614058565b5b6142758482850161411d565b6101208301525061014061428b8482850161415b565b6101408301525092915050565b6000602082840312156142ae576142ad612ebf565b5b600082015167ffffffffffffffff8111156142cc576142cb612ec4565b5b6142d884828501614170565b91505092915050565b60006142ed8385612f8f565b93506142fa83858461314a565b61430383612fca565b840190509392505050565b6000819050919050565b600061433361432e614329846133bc565b61430e565b613225565b9050919050565b61434381614318565b82525050565b600060808201905081810360008301526143648187896142e1565b90506143736020830186613259565b6143806040830185613259565b61438d606083018461433a565b9695505050505050565b60006143a66020840184613327565b905092915050565b60006143bd6020840184613ca6565b905092915050565b60006143d46020840184613e9d565b905092915050565b60006143eb60208401846133e7565b905092915050565b6000614402602084018461388a565b905092915050565b6000614419602084018461307f565b905092915050565b600061443060208401846132a4565b905092915050565b600080fd5b600080fd5b600080fd5b6000808335600160200384360303811261446457614463614442565b5b83810192508235915060208301925067ffffffffffffffff82111561448c5761448b614438565b5b6001820236038313156144a2576144a161443d565b5b509250929050565b60006144b6838561351e565b93506144c383858461314a565b6144cc83612fca565b840190509392505050565b6000813590506144e68161414b565b92915050565b60006144fb60208401846144d7565b905092915050565b600061016083016145176000840184614397565b6145246000860182613498565b5061453260208401846143ae565b61453f60208601826134b4565b5061454d60408401846143c5565b61455a60408601826134d3565b5061456860608401846143dc565b61457560608601826134e2565b5061458360808401846143dc565b61459060808601826134e2565b5061459e60a08401846143f3565b6145ab60a08601826134f1565b506145b960c084018461440a565b6145c660c0860182613500565b506145d460e084018461440a565b6145e160e0860182613500565b506145f0610100840184614421565b6145fe61010086018261350f565b5061460d610120840184614447565b8583036101208701526146218382846144aa565b925050506146336101408401846144ec565b6146416101408601826135d0565b508091505092915050565b600060208201905081810360008301526146668184614503565b905092915050565b7f4549503731323a20556e696e697469616c697a65640000000000000000000000600082015250565b60006146a4601583612f8f565b91506146af8261466e565b602082019050919050565b600060208201905081810360008301526146d381614697565b9050919050565b600060408201905081810360008301526146f58185876142e1565b90506147046020830184612f5a565b949350505050565b600082825260208201905092915050565b600080fd5b82818337505050565b6000614737838561470c565b93507f07ffffffffffffffffffffffffffffffffffffffffffffffffffffffffffffff83111561476a5761476961471d565b5b60208302925061477b838584614722565b82840190509392505050565b600082825260208201905092915050565b60006147a48385614787565b93506147b183858461314a565b6147ba83612fca565b840190509392505050565b60a082016147d660008301836143f3565b6147e360008501826134f1565b506147f160208301836143f3565b6147fe60208501826134f1565b5061480c60408301836143f3565b61481960408501826134f1565b5061482760608301836143f3565b61483460608501826134f1565b50614842608083018361440a565b61484f6080850182613500565b50505050565b600061010082019050818103600083015261487181898b6142e1565b9050818103602083015261488681878961472b565b9050818103604083015261489b818587614798565b90506148aa60608301846147c5565b98975050505050505050565b600060208201905081810360008301526148d18184866142e1565b90509392505050565b7f4e487b7100000000000000000000000000000000000000000000000000000000600052601160045260246000fd5b600061491482613225565b915061491f83613225565b925082820261492d81613225565b91508282048414831517614944576149436148da565b5b5092915050565b60006060820190506149606000830186613259565b61496d6020830185613259565b61497a604083018461322f565b949350505050565b60006020828403121561499857614997612ebf565b5b60006149a68482850161405d565b91505092915050565b7f5472616e73666572204552433230206661696c65640000000000000000000000600082015250565b60006149e5601583612f8f565b91506149f0826149af565b602082019050919050565b60006020820190508181036000830152614a14816149d8565b9050919050565b7f496e636f7272656374206e6174697665207061796d656e7420616d6f756e7400600082015250565b6000614a51601f83612f8f565b9150614a5c82614a1b565b602082019050919050565b60006020820190508181036000830152614a8081614a44565b9050919050565b614a90816134a7565b82525050565b60006040820190508181036000830152614ab18185876142e1565b9050614ac06020830184614a87565b949350505050565b60008135614ad581613068565b80915050919050565b60008160001b9050919050565b600073ffffffffffffffffffffffffffffffffffffffff614b0b84614ade565b9350801983169250808416831791505092915050565b6000614b3c614b37614b3284613036565b61430e565b613036565b9050919050565b6000614b4e82614b21565b9050919050565b6000614b6082614b43565b9050919050565b6000819050919050565b614b7a82614b55565b614b8d614b8682614b67565b8354614aeb565b8255505050565b60008135614ba181613873565b80915050919050565b60007fffffffffffffffffffffffffffffffffffffffffffffffffffffffffffffffff614bd684614ade565b9350801983169250808416831791505092915050565b6000614c07614c02614bfd84613225565b61430e565b613225565b9050919050565b6000819050919050565b614c2182614bec565b614c34614c2d82614c0e565b8354614baa565b8255505050565b600081016000830180614c4d81614ac8565b9050614c598184614b71565b505050600181016020830180614c6e81614b94565b9050614c7a8184614c18565b505050600281016040830180614c8f81614ac8565b9050614c9b8184614b71565b5050505050565b614cac8282614c3b565b5050565b600080fd5b600080fd5b600080fd5b60008083356001602003843603038112614cdc57614cdb614cb0565b5b80840192508235915067ffffffffffffffff821115614cfe57614cfd614cb5565b5b602083019250600182023603831315614d1a57614d19614cba565b5b509250929050565b600082905092915050565b60008190508160005260206000209050919050565b60006020601f8301049050919050565b600082821b905092915050565b600060088302614d8f7fffffffffffffffffffffffffffffffffffffffffffffffffffffffffffffffff82614d52565b614d998683614d52565b95508019841693508086168417925050509392505050565b614dba83614bec565b614dce614dc682614c0e565b848454614d5f565b825550505050565b600090565b614de3614dd6565b614dee818484614db1565b505050565b5b81811015614e1257614e07600082614ddb565b600181019050614df4565b5050565b601f821115614e5757614e2881614d2d565b614e3184614d42565b81016020851015614e40578190505b614e54614e4c85614d42565b830182614df3565b50505b505050565b600082821c905092915050565b6000614e7a60001984600802614e5c565b1980831691505092915050565b6000614e938383614e69565b9150826002028217905092915050565b614ead8383614d22565b67ffffffffffffffff811115614ec657614ec561309e565b5b614ed08254613f41565b614edb828285614e16565b6000601f831160018114614f0a5760008415614ef8578287013590505b614f028582614e87565b865550614f6a565b601f198416614f1886614d2d565b60005b82811015614f4057848901358255600182019150602085019450602081019050614f1b565b86831015614f5d5784890135614f59601f891682614e69565b8355505b6001600288020188555050505b50505050505050565b6000819050919050565b6000614f98614f93614f8e84614f73565b61430e565b6133bc565b9050919050565b614fa881614f7d565b82525050565b6000602082019050614fc36000830184614f9f565b92915050565b60006060820190508181036000830152614fe48186886142e1565b9050614ff3602083018561400d565b615000604083018461400d565b95945050505050565b615012816134c3565b82525050565b600060408201905081810360008301526150338185876142e1565b90506150426020830184615009565b949350505050565b600060408201905061505f6000830185613259565b61506c602083018461322f565b9392505050565b7f4e487b7100000000000000000000000000000000000000000000000000000000600052603260045260246000fd5b60006040820190506150b76000830185613259565b6150c460208301846132e6565b9392505050565b6000819050919050565b6150e66150e182613225565b6150cb565b82525050565b60008160601b9050919050565b6000615104826150ec565b9050919050565b6000615116826150f9565b9050919050565b61512e61512982613056565b61510b565b82525050565b600061514082866150d5565b60208201915061515082856150d5565b602082019150615160828461511d565b601482019150819050949350505050565b7f4e487b7100000000000000000000000000000000000000000000000000000000600052601260045260246000fd5b60006151ab82613225565b91506151b683613225565b9250826151c6576151c5615171565b5b828206905092915050565b60006151dc82613225565b91506151e783613225565b92508282019050808211156151ff576151fe6148da565b5b92915050565b600061521082613225565b915061521b83613225565b9250828203905081811115615233576152326148da565b5b92915050565b600061524482613225565b915060008203615257576152566148da565b5b600182039050919050565b6000606082019050615277600083018661322f565b6152846020830185613259565b615291604083018461322f565b949350505050565b6000602082840312156152af576152ae612ebf565b5b60006152bd848285016140b1565b91505092915050565b600081905092915050565b600081546152de81613f41565b6152e881866152c6565b9450600182166000811461530357600181146153185761534b565b60ff198316865281151582028601935061534b565b61532185614d2d565b60005b8381101561534357815481890152600182019150602081019050615324565b838801955050505b50505092915050565b600061536082846152d1565b915081905092915050565b6000815461537881613f41565b6153828186612f8f565b9450600182166000811461539d57600181146153b3576153e6565b60ff1983168652811515602002860193506153e6565b6153bc85614d2d565b60005b838110156153de578154818901526001820191506020810190506153bf565b808801955050505b50505092915050565b60006080820190506154046000830187613259565b8181036020830152615416818661536b565b905061542560408301856132e6565b61543260608301846132e6565b95945050505050565b600081519050919050565b600082825260208201905092915050565b6000819050602082019050919050565b60006154738383613500565b60208301905092915050565b6000602082019050919050565b60006154978261543b565b6154a18185615446565b93506154ac83615457565b8060005b838110156154dd5781516154c48882615467565b97506154cf8361547f565b9250506001810190506154b0565b5085935050505092915050565b600081519050919050565b6000615500826154ea565b61550a8185614787565b935061551a818560208601612fa0565b61552381612fca565b840191505092915050565b600061010082019050615544600083018b613259565b8181036020830152615556818a61548c565b9050818103604083015261556a8189613958565b90506155796060830188613259565b818103608083015261558b81876154f5565b905061559a60a083018661322f565b6155a760c0830185615009565b6155b460e0830184615009565b9998505050505050505050565b6155ca82612f84565b67ffffffffffffffff8111156155e3576155e261309e565b5b6155ed8254613f41565b6155f8828285614e16565b600060209050601f83116001811461562b5760008415615619578287015190505b6156238582614e87565b86555061568b565b601f19841661563986614d2d565b60005b828110156156615784890151825560018201915060208501945060208101905061563c565b8683101561567e578489015161567a601f891682614e69565b8355505b6001600288020188555050505b50505050505056fea264697066735822122049fd566d23d4236c0fb5dde885a8d7b5e01ef98dacd3a1087510508c9da7c4b664736f6c634300081a0033",
  "devdoc": {
    "errors": {
      "AccessControlBadConfirmation()": [
        {
          "details": "The caller of a function is not the expected one. NOTE: Don't confuse with {AccessControlUnauthorizedAccount}."
        }
      ],
      "AccessControlUnauthorizedAccount(address,bytes32)": [
        {
          "details": "The `account` is missing a role."
        }
      ],
      "InvalidInitialization()": [
        {
          "details": "The contract is already initialized."
        }
      ],
      "NotInitializing()": [
        {
          "details": "The contract is not initializing."
        }
      ]
    },
    "events": {
      "EIP712DomainChanged()": {
        "details": "MAY be emitted to signal that the domain could have changed."
      },
      "Initialized(uint64)": {
        "details": "Triggered when the contract has been initialized or reinitialized."
      },
      "NFTMinted(address,uint256,address)": {
        "params": {
          "ipId": "The ID of the NFT IP.",
          "recipient": "The address of the recipient of the NFT.",
          "tokenId": "The token ID of the minted NFT."
        }
      },
      "RoleAdminChanged(bytes32,bytes32,bytes32)": {
        "details": "Emitted when `newAdminRole` is set as ``role``'s admin role, replacing `previousAdminRole` `DEFAULT_ADMIN_ROLE` is the starting admin for all roles, despite {RoleAdminChanged} not being emitted signaling this."
      },
      "RoleGranted(bytes32,address,address)": {
        "details": "Emitted when `account` is granted `role`. `sender` is the account that originated the contract call. This account bears the admin role (for the granted role). Expected in cases where the role was granted using the internal {AccessControl-_grantRole}."
      },
      "RoleRevoked(bytes32,address,address)": {
        "details": "Emitted when `account` is revoked `role`. `sender` is the account that originated the contract call:   - if using `revokeRole`, it is the admin role bearer   - if using `renounceRole`, it is the role bearer (i.e. `account`)"
      }
    },
    "kind": "dev",
    "methods": {
      "constructor": {
        "custom:oz-upgrades-unsafe-allow": "constructor"
      },
      "eip712Domain()": {
        "details": "See {IERC-5267}."
      },
      "getRoleAdmin(bytes32)": {
        "details": "Returns the admin role that controls `role`. See {grantRole} and {revokeRole}. To change a role's admin, use {_setRoleAdmin}."
      },
      "grantRole(bytes32,address)": {
        "details": "Grants `role` to `account`. If `account` had not been already granted `role`, emits a {RoleGranted} event. Requirements: - the caller must have ``role``'s admin role. May emit a {RoleGranted} event."
      },
      "hasRole(bytes32,address)": {
        "details": "Returns `true` if `account` has been granted `role`."
      },
      "mint(string,bytes,bytes32[],(uint256,uint256,uint256,uint256,address))": {
        "params": {
          "mintparams": "The mint parameter signer sign the caller's address (msg.sender) for this `mint` function.",
          "proof": "The proof for the leaf of the allowlist in a stage if mint type is Allowlist.",
          "signature": "The signature from the whitelist signer. This signautre is genreated by having the whitelist",
          "stage": "Identification of the stage"
        },
        "returns": {
          "ipId": "The ID of the NFT IP.",
          "tokenId": "The token ID of the minted NFT."
        }
      },
      "mintRecord(address,string)": {
        "params": {
          "stage": "The stage name",
          "to": "Inquiry address"
        }
      },
      "renounceRole(bytes32,address)": {
        "details": "Revokes `role` from the calling account. Roles are often managed via {grantRole} and {revokeRole}: this function's purpose is to provide a mechanism for accounts to lose their privileges if they are compromised (such as when a trusted device is misplaced). If the calling account had been revoked `role`, emits a {RoleRevoked} event. Requirements: - the caller must be `callerConfirmation`. May emit a {RoleRevoked} event."
      },
      "revokeRole(bytes32,address)": {
        "details": "Revokes `role` from `account`. If `account` had been granted `role`, emits a {RoleRevoked} event. Requirements: - the caller must have ``role``'s admin role. May emit a {RoleRevoked} event."
      },
      "setActiveSigner(address,bool)": {
        "params": {
          "signer": "Signer address.",
          "status": "Effective status."
        }
      },
      "setContracts(address,address)": {
        "params": {
          "multiRoundContract": "The new MultiRound contract address.",
          "nftContract": "The new NFT contract address."
        }
      },
      "setMaxSupply(uint256)": {
        "params": {
          "newMaxSupply": "The new maximum number of nfts that can be minted."
        }
      },
      "setSigner(address)": {
        "params": {
          "signer_": "The new whitelist signer address."
        }
      },
      "setStageEnableSig(string,bool)": {
        "params": {
          "enableSig": "Whether to enable (true, false).",
          "stage": "Round identification."
        }
      },
      "setStageMaxSupply(string,uint32)": {
        "params": {
          "maxSupply": "nft maximum supply.",
          "stage": "Round identification."
        }
      },
      "setStageMintInfo((bool,uint8,uint32,uint64,uint64,uint256,address,address,bytes32,string,uint8))": {
        "params": {
          "stageMintInfo": "The mint information for the stage."
        }
      },
      "setStageMintLimitationPerAddress(string,uint8)": {
        "params": {
          "mintLimitationPerAddress": "Single address mint limit.",
          "stage": "Round identification."
        }
      },
      "setStageMintTime(string,uint64,uint64)": {
        "params": {
          "endTime": "The end time of the stage.",
          "stage": "Round identification.",
          "startTime": "The start time of the stage."
        }
      },
      "setStagePayment(string,address,address,uint64)": {
        "params": {
          "payeeAddress": "Payment address.",
          "paymentToken": "Token contract address for payment (if 0, it is a native token).",
          "price": "Single nft price.",
          "stage": "Round identification."
        }
      },
      "setTransferRestricted(bool,uint64,uint64)": {
        "params": {
          "endTime": "End time.",
          "isTransferRestricted_": "Whether to restrict transfer.",
          "startTime": "Start time."
        }
      },
      "stageToMint(string)": {
        "params": {
          "stage": "The stage name"
        }
      },
      "stageToTotalSupply(string)": {
        "params": {
          "stage": "The stage name"
        }
      },
      "supportsInterface(bytes4)": {
        "details": "See {IERC165-supportsInterface}."
      }
    },
    "version": 1
  },
  "userdoc": {
    "events": {
      "NFTMinted(address,uint256,address)": {
        "notice": "Emitted when a NFT is minted."
      }
    },
    "kind": "user",
    "methods": {
      "CORE_METADATA_MODULE()": {
        "notice": "The Core Metadata Module contract address."
      },
      "DEFAULT_LICENSE_TERMS_ID()": {
        "notice": "The default license terms ID."
      },
      "IP_ASSET_REGISTRY()": {
        "notice": "The IP Asset Registry contract address."
      },
      "LICENSING_MODULE()": {
        "notice": "The Licensing Module contract address."
      },
      "MULTIROUND_CONTRACT()": {
        "notice": "We need a MultiRound contract to manage rounds"
      },
      "NFT_CONTRACT()": {
        "notice": "We need a NFT contract to mint NFTs"
      },
      "PIL_TEMPLATE()": {
        "notice": "Story Proof-of-Creativity PILicense Template address."
      },
      "ipMetadataURI()": {
        "notice": "IP information"
      },
      "mint(string,bytes,bytes32[],(uint256,uint256,uint256,uint256,address))": {
        "notice": "Mints a NFT for the given recipient, registers it as an IP,         and makes it a derivative of the organization IP."
      },
      "mintRecord(address,string)": {
        "notice": "Query the quantity that has been minted at a certain stage at a certain address"
      },
      "rootNFT()": {
        "notice": "Root NFT"
      },
      "setActiveSigner(address,bool)": {
        "notice": "Set a valid signer address.     If the address has been configured, it is a modify function.abi     If the address has not been configured, then it is and add function to configure the address."
      },
      "setContracts(address,address)": {
        "notice": "Updates the MULTIROUND_CONTRACT and the NFT_CONTRACT addresses."
      },
      "setMaxSupply(uint256)": {
        "notice": "Configure or update the maximum number of nfts that can be minted."
      },
      "setSigner(address)": {
        "notice": "Updates the whitelist signer."
      },
      "setStageEnableSig(string,bool)": {
        "notice": "Set whether server level signing is enabled for a specific round according to the stage"
      },
      "setStageMaxSupply(string,uint32)": {
        "notice": "According to the stage, set the maximum nft supply for a specific round."
      },
      "setStageMintInfo((bool,uint8,uint32,uint64,uint64,uint256,address,address,bytes32,string,uint8))": {
        "notice": "Configure or update the information of a certain round according to the stage"
      },
      "setStageMintLimitationPerAddress(string,uint8)": {
        "notice": "Set the upper limit of the number of mints per address for a specific round according to the stage"
      },
      "setStageMintTime(string,uint64,uint64)": {
        "notice": "Configure or update the mint time for a specific stage."
      },
      "setStagePayment(string,address,address,uint64)": {
        "notice": "Set payment information for a specific round based on the stage"
      },
      "setTransferRestricted(bool,uint64,uint64)": {
        "notice": "Set whether to restrict transfer, if configured to true, transfer is not allowed.     Otherwise, transfer is allowed."
      },
      "stageToMint(string)": {
        "notice": "Query configuration information for a specific stage"
      },
      "stageToTotalSupply(string)": {
        "notice": "Query the total number of minted under the current stage"
      },
      "totalSupply()": {
        "notice": "Query the total mint quantity"
      }
    },
    "version": 1
  },
  "storageLayout": {
    "storage": [
      {
        "astId": 8691,
        "contract": "contracts/MimbokuMultiround.sol:MimbokuMultiround",
        "label": "NFT_CONTRACT",
        "offset": 0,
        "slot": "0",
        "type": "t_address"
      },
      {
        "astId": 8694,
        "contract": "contracts/MimbokuMultiround.sol:MimbokuMultiround",
        "label": "MULTIROUND_CONTRACT",
        "offset": 0,
        "slot": "1",
        "type": "t_address"
      },
      {
        "astId": 8697,
        "contract": "contracts/MimbokuMultiround.sol:MimbokuMultiround",
        "label": "DEFAULT_LICENSE_TERMS_ID",
        "offset": 0,
        "slot": "2",
        "type": "t_uint256"
      },
      {
        "astId": 8700,
        "contract": "contracts/MimbokuMultiround.sol:MimbokuMultiround",
        "label": "PIL_TEMPLATE",
        "offset": 0,
        "slot": "3",
        "type": "t_address"
      },
      {
        "astId": 8703,
        "contract": "contracts/MimbokuMultiround.sol:MimbokuMultiround",
        "label": "IP_ASSET_REGISTRY",
        "offset": 0,
        "slot": "4",
        "type": "t_address"
      },
      {
        "astId": 8706,
        "contract": "contracts/MimbokuMultiround.sol:MimbokuMultiround",
        "label": "CORE_METADATA_MODULE",
        "offset": 0,
        "slot": "5",
        "type": "t_address"
      },
      {
        "astId": 8709,
        "contract": "contracts/MimbokuMultiround.sol:MimbokuMultiround",
        "label": "LICENSING_MODULE",
        "offset": 0,
        "slot": "6",
        "type": "t_address"
      },
      {
        "astId": 8713,
        "contract": "contracts/MimbokuMultiround.sol:MimbokuMultiround",
        "label": "rootNFT",
        "offset": 0,
        "slot": "7",
        "type": "t_struct(RootNFT)9543_storage"
      },
      {
        "astId": 8716,
        "contract": "contracts/MimbokuMultiround.sol:MimbokuMultiround",
        "label": "ipMetadataURI",
        "offset": 0,
        "slot": "10",
        "type": "t_string_storage"
      },
      {
        "astId": 8718,
        "contract": "contracts/MimbokuMultiround.sol:MimbokuMultiround",
        "label": "ipMetadataHash",
        "offset": 0,
        "slot": "11",
        "type": "t_bytes32"
      },
      {
        "astId": 8722,
        "contract": "contracts/MimbokuMultiround.sol:MimbokuMultiround",
        "label": "remainingTokenIds",
        "offset": 0,
        "slot": "12",
        "type": "t_array(t_uint256)dyn_storage"
      },
      {
        "astId": 8725,
        "contract": "contracts/MimbokuMultiround.sol:MimbokuMultiround",
        "label": "remainingTokenIdCount",
        "offset": 0,
        "slot": "13",
        "type": "t_uint256"
      }
    ],
    "types": {
      "t_address": {
        "encoding": "inplace",
        "label": "address",
        "numberOfBytes": "20"
      },
      "t_array(t_uint256)dyn_storage": {
        "base": "t_uint256",
        "encoding": "dynamic_array",
        "label": "uint256[]",
        "numberOfBytes": "32"
      },
      "t_bytes32": {
        "encoding": "inplace",
        "label": "bytes32",
        "numberOfBytes": "32"
      },
      "t_string_storage": {
        "encoding": "bytes",
        "label": "string",
        "numberOfBytes": "32"
      },
      "t_struct(RootNFT)9543_storage": {
        "encoding": "inplace",
        "label": "struct IMimbokuMultiround.RootNFT",
        "members": [
          {
            "astId": 9538,
            "contract": "contracts/MimbokuMultiround.sol:MimbokuMultiround",
            "label": "contractAddress",
            "offset": 0,
            "slot": "0",
            "type": "t_address"
          },
          {
            "astId": 9540,
            "contract": "contracts/MimbokuMultiround.sol:MimbokuMultiround",
            "label": "tokenId",
            "offset": 0,
            "slot": "1",
            "type": "t_uint256"
          },
          {
            "astId": 9542,
            "contract": "contracts/MimbokuMultiround.sol:MimbokuMultiround",
            "label": "ipId",
            "offset": 0,
            "slot": "2",
            "type": "t_address"
          }
        ],
        "numberOfBytes": "96"
      },
      "t_uint256": {
        "encoding": "inplace",
        "label": "uint256",
        "numberOfBytes": "32"
      }
    }
  }
}