{
  "address": "0x6B36635FFDeEd7BF2D5aF13BC32db27A1517b4dA",
  "abi": [
    {
      "inputs": [],
      "stateMutability": "nonpayable",
      "type": "constructor"
    },
    {
      "inputs": [],
      "name": "AccessControlBadConfirmation",
      "type": "error"
    },
    {
      "inputs": [
        {
          "internalType": "address",
          "name": "account",
          "type": "address"
        },
        {
          "internalType": "bytes32",
          "name": "neededRole",
          "type": "bytes32"
        }
      ],
      "name": "AccessControlUnauthorizedAccount",
      "type": "error"
    },
    {
      "inputs": [],
      "name": "ECDSAInvalidSignature",
      "type": "error"
    },
    {
      "inputs": [
        {
          "internalType": "uint256",
          "name": "length",
          "type": "uint256"
        }
      ],
      "name": "ECDSAInvalidSignatureLength",
      "type": "error"
    },
    {
      "inputs": [
        {
          "internalType": "bytes32",
          "name": "s",
          "type": "bytes32"
        }
      ],
      "name": "ECDSAInvalidSignatureS",
      "type": "error"
    },
    {
      "inputs": [],
      "name": "ExceedMaxSupply",
      "type": "error"
    },
    {
      "inputs": [],
      "name": "ExceedMaxSupplyForStage",
      "type": "error"
    },
    {
      "inputs": [],
      "name": "ExceedPerAddressLimit",
      "type": "error"
    },
    {
      "inputs": [],
      "name": "ExistStage",
      "type": "error"
    },
    {
      "inputs": [],
      "name": "ExpiredSignature",
      "type": "error"
    },
    {
      "inputs": [],
      "name": "InvalidInitialization",
      "type": "error"
    },
    {
      "inputs": [],
      "name": "InvalidMaxSupply",
      "type": "error"
    },
    {
      "inputs": [],
      "name": "InvalidPayeeAddress",
      "type": "error"
    },
    {
      "inputs": [],
      "name": "InvalidSignature",
      "type": "error"
    },
    {
      "inputs": [],
      "name": "InvalidStageMaxSupply",
      "type": "error"
    },
    {
      "inputs": [],
      "name": "InvalidTime",
      "type": "error"
    },
    {
      "inputs": [],
      "name": "NonExistStage",
      "type": "error"
    },
    {
      "inputs": [],
      "name": "NotActive",
      "type": "error"
    },
    {
      "inputs": [],
      "name": "NotInitializing",
      "type": "error"
    },
    {
      "inputs": [],
      "name": "NotWhitelisted",
      "type": "error"
    },
    {
      "inputs": [],
      "name": "SignatureAlreadyUsed",
      "type": "error"
    },
    {
      "anonymous": false,
      "inputs": [],
      "name": "EIP712DomainChanged",
      "type": "event"
    },
    {
      "anonymous": false,
      "inputs": [
        {
          "indexed": false,
          "internalType": "uint64",
          "name": "version",
          "type": "uint64"
        }
      ],
      "name": "Initialized",
      "type": "event"
    },
    {
      "anonymous": false,
      "inputs": [
        {
          "indexed": false,
          "internalType": "uint32",
          "name": "maxSupply",
          "type": "uint32"
        }
      ],
      "name": "MaxSupplySet",
      "type": "event"
    },
    {
      "anonymous": false,
      "inputs": [
        {
          "indexed": true,
          "internalType": "bytes32",
          "name": "role",
          "type": "bytes32"
        },
        {
          "indexed": true,
          "internalType": "bytes32",
          "name": "previousAdminRole",
          "type": "bytes32"
        },
        {
          "indexed": true,
          "internalType": "bytes32",
          "name": "newAdminRole",
          "type": "bytes32"
        }
      ],
      "name": "RoleAdminChanged",
      "type": "event"
    },
    {
      "anonymous": false,
      "inputs": [
        {
          "indexed": true,
          "internalType": "bytes32",
          "name": "role",
          "type": "bytes32"
        },
        {
          "indexed": true,
          "internalType": "address",
          "name": "account",
          "type": "address"
        },
        {
          "indexed": true,
          "internalType": "address",
          "name": "sender",
          "type": "address"
        }
      ],
      "name": "RoleGranted",
      "type": "event"
    },
    {
      "anonymous": false,
      "inputs": [
        {
          "indexed": true,
          "internalType": "bytes32",
          "name": "role",
          "type": "bytes32"
        },
        {
          "indexed": true,
          "internalType": "address",
          "name": "account",
          "type": "address"
        },
        {
          "indexed": true,
          "internalType": "address",
          "name": "sender",
          "type": "address"
        }
      ],
      "name": "RoleRevoked",
      "type": "event"
    },
    {
      "anonymous": false,
      "inputs": [
        {
          "indexed": false,
          "internalType": "address",
          "name": "signer",
          "type": "address"
        }
      ],
      "name": "SignerUpdated",
      "type": "event"
    },
    {
      "anonymous": false,
      "inputs": [
        {
          "indexed": false,
          "internalType": "string",
          "name": "stage",
          "type": "string"
        },
        {
          "indexed": false,
          "internalType": "bool",
          "name": "enableSig",
          "type": "bool"
        }
      ],
      "name": "StageEnableSigSet",
      "type": "event"
    },
    {
      "anonymous": false,
      "inputs": [
        {
          "indexed": false,
          "internalType": "string",
          "name": "stage",
          "type": "string"
        },
        {
          "indexed": false,
          "internalType": "uint32",
          "name": "maxSupply",
          "type": "uint32"
        }
      ],
      "name": "StageMaxSupplySet",
      "type": "event"
    },
    {
      "anonymous": false,
      "inputs": [
        {
          "components": [
            {
              "internalType": "bool",
              "name": "enableSig",
              "type": "bool"
            },
            {
              "internalType": "uint8",
              "name": "limitationForAddress",
              "type": "uint8"
            },
            {
              "internalType": "uint32",
              "name": "maxSupplyForStage",
              "type": "uint32"
            },
            {
              "internalType": "uint64",
              "name": "startTime",
              "type": "uint64"
            },
            {
              "internalType": "uint64",
              "name": "endTime",
              "type": "uint64"
            },
            {
              "internalType": "uint256",
              "name": "price",
              "type": "uint256"
            },
            {
              "internalType": "address",
              "name": "paymentToken",
              "type": "address"
            },
            {
              "internalType": "address",
              "name": "payeeAddress",
              "type": "address"
            },
            {
              "internalType": "bytes32",
              "name": "allowListMerkleRoot",
              "type": "bytes32"
            },
            {
              "internalType": "string",
              "name": "stage",
              "type": "string"
            },
            {
              "internalType": "enum IOKXMultiMint.MintType",
              "name": "mintType",
              "type": "uint8"
            }
          ],
          "indexed": false,
          "internalType": "struct IOKXMultiMint.StageMintInfo",
          "name": "stageMintInfo",
          "type": "tuple"
        }
      ],
      "name": "StageMintInfoSet",
      "type": "event"
    },
    {
      "anonymous": false,
      "inputs": [
        {
          "indexed": false,
          "internalType": "string",
          "name": "stage",
          "type": "string"
        },
        {
          "indexed": false,
          "internalType": "uint8",
          "name": "mintLimitationPerAddress",
          "type": "uint8"
        }
      ],
      "name": "StageMintLimitationPerAddressSet",
      "type": "event"
    },
    {
      "anonymous": false,
      "inputs": [
        {
          "indexed": false,
          "internalType": "string",
          "name": "stage",
          "type": "string"
        },
        {
          "indexed": false,
          "internalType": "uint64",
          "name": "startTime",
          "type": "uint64"
        },
        {
          "indexed": false,
          "internalType": "uint64",
          "name": "endTime",
          "type": "uint64"
        }
      ],
      "name": "StageMintTimeSet",
      "type": "event"
    },
    {
      "inputs": [],
      "name": "DEFAULT_ADMIN_ROLE",
      "outputs": [
        {
          "internalType": "bytes32",
          "name": "",
          "type": "bytes32"
        }
      ],
      "stateMutability": "view",
      "type": "function"
    },
    {
      "inputs": [],
      "name": "MINT_AUTH_TYPE_HASH",
      "outputs": [
        {
          "internalType": "bytes32",
          "name": "",
          "type": "bytes32"
        }
      ],
      "stateMutability": "view",
      "type": "function"
    },
    {
      "inputs": [],
      "name": "OWNER_CONTRACT",
      "outputs": [
        {
          "internalType": "bytes32",
          "name": "",
          "type": "bytes32"
        }
      ],
      "stateMutability": "view",
      "type": "function"
    },
    {
      "inputs": [],
      "name": "eip712Domain",
      "outputs": [
        {
          "internalType": "bytes1",
          "name": "fields",
          "type": "bytes1"
        },
        {
          "internalType": "string",
          "name": "name",
          "type": "string"
        },
        {
          "internalType": "string",
          "name": "version",
          "type": "string"
        },
        {
          "internalType": "uint256",
          "name": "chainId",
          "type": "uint256"
        },
        {
          "internalType": "address",
          "name": "verifyingContract",
          "type": "address"
        },
        {
          "internalType": "bytes32",
          "name": "salt",
          "type": "bytes32"
        },
        {
          "internalType": "uint256[]",
          "name": "extensions",
          "type": "uint256[]"
        }
      ],
      "stateMutability": "view",
      "type": "function"
    },
    {
      "inputs": [
        {
          "internalType": "string",
          "name": "stage",
          "type": "string"
        },
        {
          "internalType": "bytes32[]",
          "name": "proof",
          "type": "bytes32[]"
        },
        {
          "internalType": "bytes",
          "name": "signature",
          "type": "bytes"
        },
        {
          "components": [
            {
              "internalType": "uint256",
              "name": "amount",
              "type": "uint256"
            },
            {
              "internalType": "uint256",
              "name": "tokenId",
              "type": "uint256"
            },
            {
              "internalType": "uint256",
              "name": "nonce",
              "type": "uint256"
            },
            {
              "internalType": "uint256",
              "name": "expiry",
              "type": "uint256"
            },
            {
              "internalType": "address",
              "name": "to",
              "type": "address"
            }
          ],
          "internalType": "struct IOKXMultiMint.MintParams",
          "name": "mintparams",
          "type": "tuple"
        }
      ],
      "name": "eligibleCheckingAndRegister",
      "outputs": [
        {
          "internalType": "uint256",
          "name": "amount",
          "type": "uint256"
        }
      ],
      "stateMutability": "nonpayable",
      "type": "function"
    },
    {
      "inputs": [
        {
          "internalType": "bytes32",
          "name": "role",
          "type": "bytes32"
        }
      ],
      "name": "getRoleAdmin",
      "outputs": [
        {
          "internalType": "bytes32",
          "name": "",
          "type": "bytes32"
        }
      ],
      "stateMutability": "view",
      "type": "function"
    },
    {
      "inputs": [
        {
          "internalType": "bytes32",
          "name": "role",
          "type": "bytes32"
        },
        {
          "internalType": "address",
          "name": "account",
          "type": "address"
        }
      ],
      "name": "grantRole",
      "outputs": [],
      "stateMutability": "nonpayable",
      "type": "function"
    },
    {
      "inputs": [
        {
          "internalType": "bytes32",
          "name": "role",
          "type": "bytes32"
        },
        {
          "internalType": "address",
          "name": "account",
          "type": "address"
        }
      ],
      "name": "hasRole",
      "outputs": [
        {
          "internalType": "bool",
          "name": "",
          "type": "bool"
        }
      ],
      "stateMutability": "view",
      "type": "function"
    },
    {
      "inputs": [
        {
          "internalType": "address",
          "name": "defaultAdmin",
          "type": "address"
        },
        {
          "internalType": "address",
          "name": "owner",
          "type": "address"
        },
        {
          "internalType": "address",
          "name": "_signer",
          "type": "address"
        }
      ],
      "name": "initialize",
      "outputs": [],
      "stateMutability": "nonpayable",
      "type": "function"
    },
    {
      "inputs": [],
      "name": "maxSupply",
      "outputs": [
        {
          "internalType": "uint256",
          "name": "",
          "type": "uint256"
        }
      ],
      "stateMutability": "view",
      "type": "function"
    },
    {
      "inputs": [
        {
          "internalType": "address",
          "name": "to",
          "type": "address"
        },
        {
          "internalType": "string",
          "name": "stage",
          "type": "string"
        }
      ],
      "name": "mintRecord",
      "outputs": [
        {
          "internalType": "uint256",
          "name": "",
          "type": "uint256"
        }
      ],
      "stateMutability": "view",
      "type": "function"
    },
    {
      "inputs": [
        {
          "internalType": "bytes32",
          "name": "role",
          "type": "bytes32"
        },
        {
          "internalType": "address",
          "name": "callerConfirmation",
          "type": "address"
        }
      ],
      "name": "renounceRole",
      "outputs": [],
      "stateMutability": "nonpayable",
      "type": "function"
    },
    {
      "inputs": [
        {
          "internalType": "bytes32",
          "name": "role",
          "type": "bytes32"
        },
        {
          "internalType": "address",
          "name": "account",
          "type": "address"
        }
      ],
      "name": "revokeRole",
      "outputs": [],
      "stateMutability": "nonpayable",
      "type": "function"
    },
    {
      "inputs": [
        {
          "internalType": "address",
          "name": "_signer",
          "type": "address"
        },
        {
          "internalType": "bool",
          "name": "status",
          "type": "bool"
        }
      ],
      "name": "setActiveSigner",
      "outputs": [],
      "stateMutability": "nonpayable",
      "type": "function"
    },
    {
      "inputs": [
        {
          "internalType": "uint256",
          "name": "newMaxSupply",
          "type": "uint256"
        }
      ],
      "name": "setMaxSupply",
      "outputs": [],
      "stateMutability": "nonpayable",
      "type": "function"
    },
    {
      "inputs": [
        {
          "internalType": "address",
          "name": "signer_",
          "type": "address"
        }
      ],
      "name": "setSigner",
      "outputs": [],
      "stateMutability": "nonpayable",
      "type": "function"
    },
    {
      "inputs": [
        {
          "internalType": "string",
          "name": "stage",
          "type": "string"
        },
        {
          "internalType": "bool",
          "name": "enableSig",
          "type": "bool"
        }
      ],
      "name": "setStageEnableSig",
      "outputs": [],
      "stateMutability": "nonpayable",
      "type": "function"
    },
    {
      "inputs": [
        {
          "internalType": "string",
          "name": "stage",
          "type": "string"
        },
        {
          "internalType": "uint32",
          "name": "_maxSupply",
          "type": "uint32"
        }
      ],
      "name": "setStageMaxSupply",
      "outputs": [],
      "stateMutability": "nonpayable",
      "type": "function"
    },
    {
      "inputs": [
        {
          "components": [
            {
              "internalType": "bool",
              "name": "enableSig",
              "type": "bool"
            },
            {
              "internalType": "uint8",
              "name": "limitationForAddress",
              "type": "uint8"
            },
            {
              "internalType": "uint32",
              "name": "maxSupplyForStage",
              "type": "uint32"
            },
            {
              "internalType": "uint64",
              "name": "startTime",
              "type": "uint64"
            },
            {
              "internalType": "uint64",
              "name": "endTime",
              "type": "uint64"
            },
            {
              "internalType": "uint256",
              "name": "price",
              "type": "uint256"
            },
            {
              "internalType": "address",
              "name": "paymentToken",
              "type": "address"
            },
            {
              "internalType": "address",
              "name": "payeeAddress",
              "type": "address"
            },
            {
              "internalType": "bytes32",
              "name": "allowListMerkleRoot",
              "type": "bytes32"
            },
            {
              "internalType": "string",
              "name": "stage",
              "type": "string"
            },
            {
              "internalType": "enum IOKXMultiMint.MintType",
              "name": "mintType",
              "type": "uint8"
            }
          ],
          "internalType": "struct IOKXMultiMint.StageMintInfo",
          "name": "stageMintInfo",
          "type": "tuple"
        }
      ],
      "name": "setStageMintInfo",
      "outputs": [],
      "stateMutability": "nonpayable",
      "type": "function"
    },
    {
      "inputs": [
        {
          "internalType": "string",
          "name": "stage",
          "type": "string"
        },
        {
          "internalType": "uint8",
          "name": "mintLimitationPerAddress",
          "type": "uint8"
        }
      ],
      "name": "setStageMintLimitationPerAddress",
      "outputs": [],
      "stateMutability": "nonpayable",
      "type": "function"
    },
    {
      "inputs": [
        {
          "internalType": "string",
          "name": "stage",
          "type": "string"
        },
        {
          "internalType": "uint64",
          "name": "startTime",
          "type": "uint64"
        },
        {
          "internalType": "uint64",
          "name": "endTime",
          "type": "uint64"
        }
      ],
      "name": "setStageMintTime",
      "outputs": [],
      "stateMutability": "nonpayable",
      "type": "function"
    },
    {
      "inputs": [
        {
          "internalType": "string",
          "name": "stage",
          "type": "string"
        },
        {
          "internalType": "address",
          "name": "payeeAddress",
          "type": "address"
        },
        {
          "internalType": "address",
          "name": "paymentToken",
          "type": "address"
        },
        {
          "internalType": "uint256",
          "name": "price",
          "type": "uint256"
        }
      ],
      "name": "setStagePayment",
      "outputs": [],
      "stateMutability": "nonpayable",
      "type": "function"
    },
    {
      "inputs": [
        {
          "internalType": "bool",
          "name": "isTransferRestricted_",
          "type": "bool"
        },
        {
          "internalType": "uint64",
          "name": "startTime",
          "type": "uint64"
        },
        {
          "internalType": "uint64",
          "name": "endTime",
          "type": "uint64"
        }
      ],
      "name": "setTransferRestricted",
      "outputs": [],
      "stateMutability": "nonpayable",
      "type": "function"
    },
    {
      "inputs": [],
      "name": "signer",
      "outputs": [
        {
          "internalType": "address",
          "name": "",
          "type": "address"
        }
      ],
      "stateMutability": "view",
      "type": "function"
    },
    {
      "inputs": [
        {
          "internalType": "string",
          "name": "stage",
          "type": "string"
        }
      ],
      "name": "stageToMint",
      "outputs": [
        {
          "components": [
            {
              "internalType": "bool",
              "name": "enableSig",
              "type": "bool"
            },
            {
              "internalType": "uint8",
              "name": "limitationForAddress",
              "type": "uint8"
            },
            {
              "internalType": "uint32",
              "name": "maxSupplyForStage",
              "type": "uint32"
            },
            {
              "internalType": "uint64",
              "name": "startTime",
              "type": "uint64"
            },
            {
              "internalType": "uint64",
              "name": "endTime",
              "type": "uint64"
            },
            {
              "internalType": "uint256",
              "name": "price",
              "type": "uint256"
            },
            {
              "internalType": "address",
              "name": "paymentToken",
              "type": "address"
            },
            {
              "internalType": "address",
              "name": "payeeAddress",
              "type": "address"
            },
            {
              "internalType": "bytes32",
              "name": "allowListMerkleRoot",
              "type": "bytes32"
            },
            {
              "internalType": "string",
              "name": "stage",
              "type": "string"
            },
            {
              "internalType": "enum IOKXMultiMint.MintType",
              "name": "mintType",
              "type": "uint8"
            }
          ],
          "internalType": "struct IOKXMultiMint.StageMintInfo",
          "name": "",
          "type": "tuple"
        }
      ],
      "stateMutability": "view",
      "type": "function"
    },
    {
      "inputs": [
        {
          "internalType": "string",
          "name": "stage",
          "type": "string"
        }
      ],
      "name": "stageToTotalSupply",
      "outputs": [
        {
          "internalType": "uint256",
          "name": "",
          "type": "uint256"
        }
      ],
      "stateMutability": "view",
      "type": "function"
    },
    {
      "inputs": [
        {
          "internalType": "bytes4",
          "name": "interfaceId",
          "type": "bytes4"
        }
      ],
      "name": "supportsInterface",
      "outputs": [
        {
          "internalType": "bool",
          "name": "",
          "type": "bool"
        }
      ],
      "stateMutability": "view",
      "type": "function"
    },
    {
      "inputs": [],
      "name": "totalMintedAmount",
      "outputs": [
        {
          "internalType": "uint256",
          "name": "",
          "type": "uint256"
        }
      ],
      "stateMutability": "view",
      "type": "function"
    },
    {
      "inputs": [],
      "name": "totalSupply",
      "outputs": [
        {
          "internalType": "uint256",
          "name": "",
          "type": "uint256"
        }
      ],
      "stateMutability": "view",
      "type": "function"
    }
  ],
  "transactionHash": "0x1baf23373d88d738162c02bd4dfcf64ef9c5d43f9355c43ab65fc0ecd448d03e",
  "args": [],
  "numDeployments": 1,
  "solcInputHash": "20e0a4fa6408502f671c34bff50cbed1",
  "bytecode": "0x608060405234801561001057600080fd5b5061001f61002460201b60201c565b61018e565b600061003461012860201b60201c565b90508060000160089054906101000a900460ff161561007f576040517ff92ee8a900000000000000000000000000000000000000000000000000000000815260040160405180910390fd5b67ffffffffffffffff80168160000160009054906101000a900467ffffffffffffffff1667ffffffffffffffff16146101255767ffffffffffffffff8160000160006101000a81548167ffffffffffffffff021916908367ffffffffffffffff1602179055507fc7f505b2f371ae2175ee4913f4499e1f2633a7b5936321eed1cdaeb6115181d267ffffffffffffffff60405161011c9190610173565b60405180910390a15b50565b60007ff0c57e16840df040f15088dc2f81fe391c3923bec73e23a9662efc9c229c6a00905090565b600067ffffffffffffffff82169050919050565b61016d81610150565b82525050565b60006020820190506101886000830184610164565b92915050565b615aea8061019d6000396000f3fe608060405234801561001057600080fd5b50600436106101cf5760003560e01c80636f8b44b011610104578063b67f21be116100a2578063d5abeb0111610071578063d5abeb011461052c578063d9bc5da81461054a578063e32e2bbc14610568578063f914c88b14610584576101cf565b8063b67f21be146104bc578063c0c53b8b146104d8578063d4aa8d6f146104f4578063d547741f14610510576101cf565b806391d14854116100de57806391d14854146104225780639fe78f7914610452578063a217fddf14610482578063a5f5a4a8146104a0576101cf565b80636f8b44b0146103b2578063832f9f54146103ce57806384b0196e146103fe576101cf565b806336568abe116101715780634fb5656a1161014b5780634fb5656a1461034057806362f428221461035c5780636c19e783146103785780636f865e6f14610394576101cf565b806336568abe146102d85780634899cf0b146102f45780634d73cbd514610310576101cf565b8063238ac933116101ad578063238ac93314610252578063248a9ca31461027057806328c1a4f5146102a05780632f2ff15d146102bc576101cf565b806301ffc9a7146101d45780630fbe291a1461020457806318160ddd14610234575b600080fd5b6101ee60048036038101906101e99190613954565b6105a2565b6040516101fb919061399c565b60405180910390f35b61021e60048036038101906102199190613b5b565b61061c565b60405161022b9190613bd0565b60405180910390f35b61023c610682565b6040516102499190613bd0565b60405180910390f35b61025a61068c565b6040516102679190613bfa565b60405180910390f35b61028a60048036038101906102859190613c4b565b6106b0565b6040516102979190613c87565b60405180910390f35b6102ba60048036038101906102b59190613cce565b6106de565b005b6102d660048036038101906102d19190613d0e565b6107ee565b005b6102f260048036038101906102ed9190613d0e565b610810565b005b61030e60048036038101906103099190613d8e565b61088b565b005b61032a60048036038101906103259190613de1565b6108bb565b6040516103379190614095565b60405180910390f35b61035a60048036038101906103559190614143565b610b43565b005b610376600480360381019061037191906141f0565b610db7565b005b610392600480360381019061038d9190614239565b610edd565b005b61039c610f4b565b6040516103a99190613bd0565b60405180910390f35b6103cc60048036038101906103c79190614266565b610f51565b005b6103e860048036038101906103e3919061435e565b610fbd565b6040516103f59190613bd0565b60405180910390f35b610406611395565b604051610419979695949392919061455c565b60405180910390f35b61043c60048036038101906104379190613d0e565b6114a7565b604051610449919061399c565b60405180910390f35b61046c60048036038101906104679190613de1565b611520565b6040516104799190613bd0565b60405180910390f35b61048a611548565b6040516104979190613c87565b60405180910390f35b6104ba60048036038101906104b591906145e0565b61154f565b005b6104d660048036038101906104d1919061466c565b6116aa565b005b6104f260048036038101906104ed91906146cc565b611841565b005b61050e6004803603810190610509919061471f565b611abe565b005b61052a60048036038101906105259190613d0e565b611d13565b005b610534611d35565b6040516105419190613bd0565b60405180910390f35b610552611d3f565b60405161055f9190613c87565b60405180910390f35b610582600480360381019061057d91906147bf565b611d63565b005b61058c611fb3565b6040516105999190613c87565b60405180910390f35b60007f7965db0b000000000000000000000000000000000000000000000000000000007bffffffffffffffffffffffffffffffffffffffffffffffffffffffff1916827bffffffffffffffffffffffffffffffffffffffffffffffffffffffff19161480610615575061061482611fd7565b5b9050919050565b6000600260008473ffffffffffffffffffffffffffffffffffffffff1673ffffffffffffffffffffffffffffffffffffffff1681526020019081526020016000208260405161066b919061485b565b908152602001604051809103902054905092915050565b6000600654905090565b60008054906101000a900473ffffffffffffffffffffffffffffffffffffffff1681565b6000806106bb612041565b905080600001600084815260200190815260200160002060010154915050919050565b7fac630b03257fae252401511397e2a5bf973b613a6473dff7f66f4ceac436379a61070881612069565b811561075357826000806101000a81548173ffffffffffffffffffffffffffffffffffffffff021916908373ffffffffffffffffffffffffffffffffffffffff1602179055506107e9565b8273ffffffffffffffffffffffffffffffffffffffff1660008054906101000a900473ffffffffffffffffffffffffffffffffffffffff1673ffffffffffffffffffffffffffffffffffffffff16036107e85760008060006101000a81548173ffffffffffffffffffffffffffffffffffffffff021916908373ffffffffffffffffffffffffffffffffffffffff1602179055505b5b505050565b6107f7826106b0565b61080081612069565b61080a838361207d565b50505050565b61081861217e565b73ffffffffffffffffffffffffffffffffffffffff168173ffffffffffffffffffffffffffffffffffffffff161461087c576040517f6697b23200000000000000000000000000000000000000000000000000000000815260040160405180910390fd5b6108868282612186565b505050565b7fac630b03257fae252401511397e2a5bf973b613a6473dff7f66f4ceac436379a6108b581612069565b50505050565b6108c361382e565b6003826040516108d3919061485b565b9081526020016040518091039020604051806101600160405290816000820160009054906101000a900460ff161515151581526020016000820160019054906101000a900460ff1660ff1660ff1681526020016000820160029054906101000a900463ffffffff1663ffffffff1663ffffffff1681526020016000820160069054906101000a900467ffffffffffffffff1667ffffffffffffffff1667ffffffffffffffff16815260200160008201600e9054906101000a900467ffffffffffffffff1667ffffffffffffffff1667ffffffffffffffff168152602001600182015481526020016002820160009054906101000a900473ffffffffffffffffffffffffffffffffffffffff1673ffffffffffffffffffffffffffffffffffffffff1673ffffffffffffffffffffffffffffffffffffffff1681526020016003820160009054906101000a900473ffffffffffffffffffffffffffffffffffffffff1673ffffffffffffffffffffffffffffffffffffffff1673ffffffffffffffffffffffffffffffffffffffff16815260200160048201548152602001600582018054610a7f906148a1565b80601f0160208091040260200160405190810160405280929190818152602001828054610aab906148a1565b8015610af85780601f10610acd57610100808354040283529160200191610af8565b820191906000526020600020905b815481529060010190602001808311610adb57829003601f168201915b505050505081526020016006820160009054906101000a900460ff166001811115610b2657610b25613f2f565b5b6001811115610b3857610b37613f2f565b5b815250509050919050565b7fac630b03257fae252401511397e2a5bf973b613a6473dff7f66f4ceac436379a610b6d81612069565b8585600060038383604051610b839291906148f7565b90815260200160405180910390206005018054610b9f906148a1565b80601f0160208091040260200160405190810160405280929190818152602001828054610bcb906148a1565b8015610c185780601f10610bed57610100808354040283529160200191610c18565b820191906000526020600020905b815481529060010190602001808311610bfb57829003601f168201915b505050505090506000815103610c5a576040517ff62075ae00000000000000000000000000000000000000000000000000000000815260040160405180910390fd5b600073ffffffffffffffffffffffffffffffffffffffff168773ffffffffffffffffffffffffffffffffffffffff1603610cc0576040517ff25dd3b600000000000000000000000000000000000000000000000000000000815260040160405180910390fd5b8660038a8a604051610cd39291906148f7565b908152602001604051809103902060030160006101000a81548173ffffffffffffffffffffffffffffffffffffffff021916908373ffffffffffffffffffffffffffffffffffffffff1602179055508560038a8a604051610d359291906148f7565b908152602001604051809103902060020160006101000a81548173ffffffffffffffffffffffffffffffffffffffff021916908373ffffffffffffffffffffffffffffffffffffffff1602179055508460038a8a604051610d979291906148f7565b908152602001604051809103902060010181905550505050505050505050565b7fac630b03257fae252401511397e2a5bf973b613a6473dff7f66f4ceac436379a610de181612069565b600082806101200190610df4919061491f565b8080601f016020809104026020016040519081016040528093929190818152602001838380828437600081840152601f19601f820116905080830192505050505050509050610e4281612288565b82600382604051610e53919061485b565b90815260200160405180910390208181610e6d9190615253565b905050826040016020810190610e839190615261565b63ffffffff1660056000828254610e9a91906152bd565b925050819055507f3098a44a87b49bb0e16adabb19d7fbab0ce83381577960dbad922069268f03a583604051610ed091906155a6565b60405180910390a1505050565b7fac630b03257fae252401511397e2a5bf973b613a6473dff7f66f4ceac436379a610f0781612069565b816000806101000a81548173ffffffffffffffffffffffffffffffffffffffff021916908373ffffffffffffffffffffffffffffffffffffffff1602179055505050565b60065481565b7fac630b03257fae252401511397e2a5bf973b613a6473dff7f66f4ceac436379a610f7b81612069565b816005819055507f23162400366ff723389b0be8586a2779dd88fbce97f4356cec45836496f56d2282604051610fb191906155d7565b60405180910390a15050565b600081600001359050600060038989604051610fda9291906148f7565b9081526020016040518091039020604051806101600160405290816000820160009054906101000a900460ff161515151581526020016000820160019054906101000a900460ff1660ff1660ff1681526020016000820160029054906101000a900463ffffffff1663ffffffff1663ffffffff1681526020016000820160069054906101000a900467ffffffffffffffff1667ffffffffffffffff1667ffffffffffffffff16815260200160008201600e9054906101000a900467ffffffffffffffff1667ffffffffffffffff1667ffffffffffffffff168152602001600182015481526020016002820160009054906101000a900473ffffffffffffffffffffffffffffffffffffffff1673ffffffffffffffffffffffffffffffffffffffff1673ffffffffffffffffffffffffffffffffffffffff1681526020016003820160009054906101000a900473ffffffffffffffffffffffffffffffffffffffff1673ffffffffffffffffffffffffffffffffffffffff1673ffffffffffffffffffffffffffffffffffffffff16815260200160048201548152602001600582018054611186906148a1565b80601f01602080910402602001604051908101604052809291908181526020018280546111b2906148a1565b80156111ff5780601f106111d4576101008083540402835291602001916111ff565b820191906000526020600020905b8154815290600101906020018083116111e257829003601f168201915b505050505081526020016006820160009054906101000a900460ff16600181111561122d5761122c613f2f565b5b600181111561123f5761123e613f2f565b5b8152505090506000600181111561125957611258613f2f565b5b816101400151600181111561127157611270613f2f565b5b14611336576112ff878780806020026020016040519081016040528093929190818152602001838360200280828437600081840152601f19601f820116905080830192505050505050508261010001518560800160208101906112d49190614239565b6040516020016112e4919061563a565b60405160208183030381529060405280519060200120612375565b611335576040517f584a793800000000000000000000000000000000000000000000000000000000815260040160405180910390fd5b5b611343898987878761238c565b61134d898961286f565b61136b89898560800160208101906113659190614239565b85612b5f565b61138989898560800160208101906113839190614239565b85612f6a565b50979650505050505050565b60006060806000806000606060006113ab613034565b90506000801b81600001541480156113c957506000801b8160010154145b611408576040517f08c379a00000000000000000000000000000000000000000000000000000000081526004016113ff906156a1565b60405180910390fd5b61141061305c565b6114186130fd565b46306000801b600067ffffffffffffffff81111561143957611438613a30565b5b6040519080825280602002602001820160405280156114675781602001602082028036833780820191505090505b507f0f0000000000000000000000000000000000000000000000000000000000000095949392919097509750975097509750975097505090919293949596565b6000806114b2612041565b905080600001600085815260200190815260200160002060000160008473ffffffffffffffffffffffffffffffffffffffff1673ffffffffffffffffffffffffffffffffffffffff16815260200190815260200160002060009054906101000a900460ff1691505092915050565b6000600482604051611532919061485b565b9081526020016040518091039020549050919050565b6000801b81565b7fac630b03257fae252401511397e2a5bf973b613a6473dff7f66f4ceac436379a61157981612069565b838360006003838360405161158f9291906148f7565b908152602001604051809103902060050180546115ab906148a1565b80601f01602080910402602001604051908101604052809291908181526020018280546115d7906148a1565b80156116245780601f106115f957610100808354040283529160200191611624565b820191906000526020600020905b81548152906001019060200180831161160757829003601f168201915b505050505090506000815103611666576040517ff62075ae00000000000000000000000000000000000000000000000000000000815260040160405180910390fd5b84600388886040516116799291906148f7565b908152602001604051809103902060000160006101000a81548160ff02191690831515021790555050505050505050565b7fac630b03257fae252401511397e2a5bf973b613a6473dff7f66f4ceac436379a6116d481612069565b83836000600383836040516116ea9291906148f7565b90815260200160405180910390206005018054611706906148a1565b80601f0160208091040260200160405190810160405280929190818152602001828054611732906148a1565b801561177f5780601f106117545761010080835404028352916020019161177f565b820191906000526020600020905b81548152906001019060200180831161176257829003601f168201915b5050505050905060008151036117c1576040517ff62075ae00000000000000000000000000000000000000000000000000000000815260040160405180910390fd5b84600388886040516117d49291906148f7565b908152602001604051809103902060000160016101000a81548160ff021916908360ff1602179055507f9c088b91965a570a827483dbf41f285fe5ffc91f0eec29f0952b84ed8f67fae7878787604051611830939291906156fd565b60405180910390a150505050505050565b600061184b61319e565b905060008160000160089054906101000a900460ff1615905060008260000160009054906101000a900467ffffffffffffffff1690506000808267ffffffffffffffff161480156118995750825b9050600060018367ffffffffffffffff161480156118ce575060003073ffffffffffffffffffffffffffffffffffffffff163b145b9050811580156118dc575080155b15611913576040517ff92ee8a900000000000000000000000000000000000000000000000000000000815260040160405180910390fd5b60018560000160006101000a81548167ffffffffffffffff021916908367ffffffffffffffff16021790555083156119635760018560000160086101000a81548160ff0219169083151502179055505b6119d76040518060400160405280600781526020017f4f4b584d696e74000000000000000000000000000000000000000000000000008152506040518060400160405280600381526020017f312e3000000000000000000000000000000000000000000000000000000000008152506131c6565b6119df6131dc565b6119ec6000801b8961207d565b50611a177fac630b03257fae252401511397e2a5bf973b613a6473dff7f66f4ceac436379a8861207d565b50856000806101000a81548173ffffffffffffffffffffffffffffffffffffffff021916908373ffffffffffffffffffffffffffffffffffffffff1602179055508315611ab45760008560000160086101000a81548160ff0219169083151502179055507fc7f505b2f371ae2175ee4913f4499e1f2633a7b5936321eed1cdaeb6115181d26001604051611aab919061576a565b60405180910390a15b5050505050505050565b7fac630b03257fae252401511397e2a5bf973b613a6473dff7f66f4ceac436379a611ae881612069565b8484600060038383604051611afe9291906148f7565b90815260200160405180910390206005018054611b1a906148a1565b80601f0160208091040260200160405190810160405280929190818152602001828054611b46906148a1565b8015611b935780601f10611b6857610100808354040283529160200191611b93565b820191906000526020600020905b815481529060010190602001808311611b7657829003601f168201915b505050505090506000815103611bd5576040517ff62075ae00000000000000000000000000000000000000000000000000000000815260040160405180910390fd5b8467ffffffffffffffff168667ffffffffffffffff16101580611c015750428667ffffffffffffffff16105b15611c38576040517f6f7eac2600000000000000000000000000000000000000000000000000000000815260040160405180910390fd5b8560038989604051611c4b9291906148f7565b908152602001604051809103902060000160066101000a81548167ffffffffffffffff021916908367ffffffffffffffff1602179055508460038989604051611c959291906148f7565b9081526020016040518091039020600001600e6101000a81548167ffffffffffffffff021916908367ffffffffffffffff1602179055507fb3ed4f952adc05b688a8e6a7107a4befbbb9428aff94669316a94868d1fa620388888888604051611d019493929190615794565b60405180910390a15050505050505050565b611d1c826106b0565b611d2581612069565b611d2f8383612186565b50505050565b6000600554905090565b7fac630b03257fae252401511397e2a5bf973b613a6473dff7f66f4ceac436379a81565b7fac630b03257fae252401511397e2a5bf973b613a6473dff7f66f4ceac436379a611d8d81612069565b8383600060038383604051611da39291906148f7565b90815260200160405180910390206005018054611dbf906148a1565b80601f0160208091040260200160405190810160405280929190818152602001828054611deb906148a1565b8015611e385780601f10611e0d57610100808354040283529160200191611e38565b820191906000526020600020905b815481529060010190602001808311611e1b57829003601f168201915b505050505090506000815103611e7a576040517ff62075ae00000000000000000000000000000000000000000000000000000000815260040160405180910390fd5b8463ffffffff166005541015611ebc576040517fac03c3b000000000000000000000000000000000000000000000000000000000815260040160405180910390fd5b60038787604051611ece9291906148f7565b908152602001604051809103902060000160029054906101000a900463ffffffff1663ffffffff1660056000828254611f0791906157d4565b925050819055508463ffffffff1660056000828254611f2691906152bd565b925050819055508460038888604051611f409291906148f7565b908152602001604051809103902060000160026101000a81548163ffffffff021916908363ffffffff1602179055507fdbd25090b31665138dd4f4d5112f0123a57b48df47d5d5ca8edfff72c7d6b18e878787604051611fa293929190615808565b60405180910390a150505050505050565b7f8762e52abb3a2c73aaa491352cfcecff08ac1a6a9c90fee19015fc187a37747381565b60007f01ffc9a7000000000000000000000000000000000000000000000000000000007bffffffffffffffffffffffffffffffffffffffffffffffffffffffff1916827bffffffffffffffffffffffffffffffffffffffffffffffffffffffff1916149050919050565b60007f02dd7bc7dec4dceedda775e58dd541e08a116c6c53815c0bd028192f7b626800905090565b61207a8161207561217e565b6131e6565b50565b600080612088612041565b905061209484846114a7565b61217257600181600001600086815260200190815260200160002060000160008573ffffffffffffffffffffffffffffffffffffffff1673ffffffffffffffffffffffffffffffffffffffff16815260200190815260200160002060006101000a81548160ff02191690831515021790555061210e61217e565b73ffffffffffffffffffffffffffffffffffffffff168373ffffffffffffffffffffffffffffffffffffffff16857f2f8788117e7eff1d82e926ec794901d17c78024a50270940304540a733656f0d60405160405180910390a46001915050612178565b60009150505b92915050565b600033905090565b600080612191612041565b905061219d84846114a7565b1561227c57600081600001600086815260200190815260200160002060000160008573ffffffffffffffffffffffffffffffffffffffff1673ffffffffffffffffffffffffffffffffffffffff16815260200190815260200160002060006101000a81548160ff02191690831515021790555061221861217e565b73ffffffffffffffffffffffffffffffffffffffff168373ffffffffffffffffffffffffffffffffffffffff16857ff6391f5c32d9c69d2a47ea670b442974b53935d1edc7fd64eb21e047a839171b60405160405180910390a46001915050612282565b60009150505b92915050565b600060038260405161229a919061485b565b908152602001604051809103902060050180546122b6906148a1565b80601f01602080910402602001604051908101604052809291908181526020018280546122e2906148a1565b801561232f5780601f106123045761010080835404028352916020019161232f565b820191906000526020600020905b81548152906001019060200180831161231257829003601f168201915b505050505090506000815114612371576040517f19b1e27700000000000000000000000000000000000000000000000000000000815260040160405180910390fd5b5050565b6000826123828584613237565b1490509392505050565b6000600386866040516123a09291906148f7565b9081526020016040518091039020604051806101600160405290816000820160009054906101000a900460ff161515151581526020016000820160019054906101000a900460ff1660ff1660ff1681526020016000820160029054906101000a900463ffffffff1663ffffffff1663ffffffff1681526020016000820160069054906101000a900467ffffffffffffffff1667ffffffffffffffff1667ffffffffffffffff16815260200160008201600e9054906101000a900467ffffffffffffffff1667ffffffffffffffff1667ffffffffffffffff168152602001600182015481526020016002820160009054906101000a900473ffffffffffffffffffffffffffffffffffffffff1673ffffffffffffffffffffffffffffffffffffffff1673ffffffffffffffffffffffffffffffffffffffff1681526020016003820160009054906101000a900473ffffffffffffffffffffffffffffffffffffffff1673ffffffffffffffffffffffffffffffffffffffff1673ffffffffffffffffffffffffffffffffffffffff1681526020016004820154815260200160058201805461254c906148a1565b80601f0160208091040260200160405190810160405280929190818152602001828054612578906148a1565b80156125c55780601f1061259a576101008083540402835291602001916125c5565b820191906000526020600020905b8154815290600101906020018083116125a857829003601f168201915b505050505081526020016006820160009054906101000a900460ff1660018111156125f3576125f2613f2f565b5b600181111561260557612604613f2f565b5b815250509050806000015115612867576001848460405161262792919061586a565b908152602001604051809103902060009054906101000a900460ff161561267a576040517f900bb2c900000000000000000000000000000000000000000000000000000000815260040160405180910390fd5b81606001354211156126b8576040517fdf4cc36d00000000000000000000000000000000000000000000000000000000815260040160405180910390fd5b60018085856040516126cb92919061586a565b908152602001604051809103902060006101000a81548160ff021916908315150217905550600080878760405161270392919061586a565b604051809103902090507f8762e52abb3a2c73aaa491352cfcecff08ac1a6a9c90fee19015fc187a3774738460800160208101906127419190614239565b85602001358660000135876040013588606001358660405160200161276c9796959493929190615883565b6040516020818303038152906040528051906020012091505060006127dd61279383613287565b87878080601f016020809104026020016040519081016040528093929190818152602001838380828437600081840152601f19601f820116905080830192505050505050506132a1565b905060008054906101000a900473ffffffffffffffffffffffffffffffffffffffff1673ffffffffffffffffffffffffffffffffffffffff168173ffffffffffffffffffffffffffffffffffffffff1614612864576040517f8baa579f00000000000000000000000000000000000000000000000000000000815260040160405180910390fd5b50505b505050505050565b6000600383836040516128839291906148f7565b9081526020016040518091039020604051806101600160405290816000820160009054906101000a900460ff161515151581526020016000820160019054906101000a900460ff1660ff1660ff1681526020016000820160029054906101000a900463ffffffff1663ffffffff1663ffffffff1681526020016000820160069054906101000a900467ffffffffffffffff1667ffffffffffffffff1667ffffffffffffffff16815260200160008201600e9054906101000a900467ffffffffffffffff1667ffffffffffffffff1667ffffffffffffffff168152602001600182015481526020016002820160009054906101000a900473ffffffffffffffffffffffffffffffffffffffff1673ffffffffffffffffffffffffffffffffffffffff1673ffffffffffffffffffffffffffffffffffffffff1681526020016003820160009054906101000a900473ffffffffffffffffffffffffffffffffffffffff1673ffffffffffffffffffffffffffffffffffffffff1673ffffffffffffffffffffffffffffffffffffffff16815260200160048201548152602001600582018054612a2f906148a1565b80601f0160208091040260200160405190810160405280929190818152602001828054612a5b906148a1565b8015612aa85780601f10612a7d57610100808354040283529160200191612aa8565b820191906000526020600020905b815481529060010190602001808311612a8b57829003601f168201915b505050505081526020016006820160009054906101000a900460ff166001811115612ad657612ad5613f2f565b5b6001811115612ae857612ae7613f2f565b5b8152505090506001612b09826080015167ffffffffffffffff1642116132cd565b612b22836060015167ffffffffffffffff1642106132cd565b1703612b5a576040517f80cb55e200000000000000000000000000000000000000000000000000000000815260040160405180910390fd5b505050565b600060038585604051612b739291906148f7565b9081526020016040518091039020604051806101600160405290816000820160009054906101000a900460ff161515151581526020016000820160019054906101000a900460ff1660ff1660ff1681526020016000820160029054906101000a900463ffffffff1663ffffffff1663ffffffff1681526020016000820160069054906101000a900467ffffffffffffffff1667ffffffffffffffff1667ffffffffffffffff16815260200160008201600e9054906101000a900467ffffffffffffffff1667ffffffffffffffff1667ffffffffffffffff168152602001600182015481526020016002820160009054906101000a900473ffffffffffffffffffffffffffffffffffffffff1673ffffffffffffffffffffffffffffffffffffffff1673ffffffffffffffffffffffffffffffffffffffff1681526020016003820160009054906101000a900473ffffffffffffffffffffffffffffffffffffffff1673ffffffffffffffffffffffffffffffffffffffff1673ffffffffffffffffffffffffffffffffffffffff16815260200160048201548152602001600582018054612d1f906148a1565b80601f0160208091040260200160405190810160405280929190818152602001828054612d4b906148a1565b8015612d985780601f10612d6d57610100808354040283529160200191612d98565b820191906000526020600020905b815481529060010190602001808311612d7b57829003601f168201915b505050505081526020016006820160009054906101000a900460ff166001811115612dc657612dc5613f2f565b5b6001811115612dd857612dd7613f2f565b5b8152505090506000600260008573ffffffffffffffffffffffffffffffffffffffff1673ffffffffffffffffffffffffffffffffffffffff1681526020019081526020016000208686604051612e2f9291906148f7565b90815260200160405180910390205490506000826020015160ff1690506000836040015163ffffffff169050600060048989604051612e6f9291906148f7565b9081526020016040518091039020549050828685612e8d91906152bd565b1115612ec5576040517f3194dcd500000000000000000000000000000000000000000000000000000000815260040160405180910390fd5b600082118015612edf5750818682612edd91906152bd565b115b15612f16576040517f932f3b0c00000000000000000000000000000000000000000000000000000000815260040160405180910390fd5b60055486600654612f2791906152bd565b1115612f5f576040517f1e186f7200000000000000000000000000000000000000000000000000000000815260040160405180910390fd5b505050505050505050565b8060066000828254612f7c91906152bd565b9250508190555080600260008473ffffffffffffffffffffffffffffffffffffffff1673ffffffffffffffffffffffffffffffffffffffff1681526020019081526020016000208585604051612fd39291906148f7565b90815260200160405180910390206000828254612ff091906152bd565b92505081905550806004858560405161300a9291906148f7565b9081526020016040518091039020600082825461302791906152bd565b9250508190555050505050565b60007fa16a46d94261c7517cc8ff89f61c0ce93598e3c849801011dee649a6a557d100905090565b60606000613068613034565b9050806002018054613079906148a1565b80601f01602080910402602001604051908101604052809291908181526020018280546130a5906148a1565b80156130f25780601f106130c7576101008083540402835291602001916130f2565b820191906000526020600020905b8154815290600101906020018083116130d557829003601f168201915b505050505091505090565b60606000613109613034565b905080600301805461311a906148a1565b80601f0160208091040260200160405190810160405280929190818152602001828054613146906148a1565b80156131935780601f1061316857610100808354040283529160200191613193565b820191906000526020600020905b81548152906001019060200180831161317657829003601f168201915b505050505091505090565b60007ff0c57e16840df040f15088dc2f81fe391c3923bec73e23a9662efc9c229c6a00905090565b6131ce6132d7565b6131d88282613317565b5050565b6131e46132d7565b565b6131f082826114a7565b6132335780826040517fe2517d3f00000000000000000000000000000000000000000000000000000000815260040161322a9291906158f2565b60405180910390fd5b5050565b60008082905060005b845181101561327c5761326d828683815181106132605761325f61591b565b5b602002602001015161336c565b91508080600101915050613240565b508091505092915050565b600061329a613294613397565b836133a6565b9050919050565b6000806000806132b186866133e7565b9250925092506132c18282613443565b82935050505092915050565b6000819050919050565b6132df6135a7565b613315576040517fd7e6bcf800000000000000000000000000000000000000000000000000000000815260040160405180910390fd5b565b61331f6132d7565b6000613329613034565b90508281600201908161333c919061594a565b508181600301908161334e919061594a565b506000801b81600001819055506000801b8160010181905550505050565b60008183106133845761337f82846135c7565b61338f565b61338e83836135c7565b5b905092915050565b60006133a16135de565b905090565b60006040517f190100000000000000000000000000000000000000000000000000000000000081528360028201528260228201526042812091505092915050565b6000806000604184510361342c5760008060006020870151925060408701519150606087015160001a905061341e88828585613642565b95509550955050505061343c565b60006002855160001b9250925092505b9250925092565b6000600381111561345757613456613f2f565b5b82600381111561346a57613469613f2f565b5b03156135a3576001600381111561348457613483613f2f565b5b82600381111561349757613496613f2f565b5b036134ce576040517ff645eedf00000000000000000000000000000000000000000000000000000000815260040160405180910390fd5b600260038111156134e2576134e1613f2f565b5b8260038111156134f5576134f4613f2f565b5b0361353a578060001c6040517ffce698f70000000000000000000000000000000000000000000000000000000081526004016135319190613bd0565b60405180910390fd5b60038081111561354d5761354c613f2f565b5b8260038111156135605761355f613f2f565b5b036135a257806040517fd78bce0c0000000000000000000000000000000000000000000000000000000081526004016135999190613c87565b60405180910390fd5b5b5050565b60006135b161319e565b60000160089054906101000a900460ff16905090565b600082600052816020526040600020905092915050565b60007f8b73c3c69bb8fe3d512ecc4cf759cc79239f7b179b0ffacaa9a75d522b39400f613609613736565b6136116137b2565b4630604051602001613627959493929190615a1c565b60405160208183030381529060405280519060200120905090565b60008060007f7fffffffffffffffffffffffffffffff5d576e7357a4501ddfe92f46681b20a08460001c111561368257600060038592509250925061372c565b6000600188888888604051600081526020016040526040516136a79493929190615a6f565b6020604051602081039080840390855afa1580156136c9573d6000803e3d6000fd5b505050602060405103519050600073ffffffffffffffffffffffffffffffffffffffff168173ffffffffffffffffffffffffffffffffffffffff160361371d57600060016000801b9350935093505061372c565b8060008060001b935093509350505b9450945094915050565b600080613741613034565b9050600061374d61305c565b905060008151111561376a578080519060200120925050506137af565b6000826000015490506000801b8114613788578093505050506137af565b7fc5d2460186f7233c927e7db2dcc703c0e500b653ca82273b7bfad8045d85a47093505050505b90565b6000806137bd613034565b905060006137c96130fd565b90506000815111156137e65780805190602001209250505061382b565b6000826001015490506000801b81146138045780935050505061382b565b7fc5d2460186f7233c927e7db2dcc703c0e500b653ca82273b7bfad8045d85a47093505050505b90565b604051806101600160405280600015158152602001600060ff168152602001600063ffffffff168152602001600067ffffffffffffffff168152602001600067ffffffffffffffff16815260200160008152602001600073ffffffffffffffffffffffffffffffffffffffff168152602001600073ffffffffffffffffffffffffffffffffffffffff1681526020016000801916815260200160608152602001600060018111156138e2576138e1613f2f565b5b81525090565b6000604051905090565b600080fd5b600080fd5b60007fffffffff0000000000000000000000000000000000000000000000000000000082169050919050565b613931816138fc565b811461393c57600080fd5b50565b60008135905061394e81613928565b92915050565b60006020828403121561396a576139696138f2565b5b60006139788482850161393f565b91505092915050565b60008115159050919050565b61399681613981565b82525050565b60006020820190506139b1600083018461398d565b92915050565b600073ffffffffffffffffffffffffffffffffffffffff82169050919050565b60006139e2826139b7565b9050919050565b6139f2816139d7565b81146139fd57600080fd5b50565b600081359050613a0f816139e9565b92915050565b600080fd5b600080fd5b6000601f19601f8301169050919050565b7f4e487b7100000000000000000000000000000000000000000000000000000000600052604160045260246000fd5b613a6882613a1f565b810181811067ffffffffffffffff82111715613a8757613a86613a30565b5b80604052505050565b6000613a9a6138e8565b9050613aa68282613a5f565b919050565b600067ffffffffffffffff821115613ac657613ac5613a30565b5b613acf82613a1f565b9050602081019050919050565b82818337600083830152505050565b6000613afe613af984613aab565b613a90565b905082815260208101848484011115613b1a57613b19613a1a565b5b613b25848285613adc565b509392505050565b600082601f830112613b4257613b41613a15565b5b8135613b52848260208601613aeb565b91505092915050565b60008060408385031215613b7257613b716138f2565b5b6000613b8085828601613a00565b925050602083013567ffffffffffffffff811115613ba157613ba06138f7565b5b613bad85828601613b2d565b9150509250929050565b6000819050919050565b613bca81613bb7565b82525050565b6000602082019050613be56000830184613bc1565b92915050565b613bf4816139d7565b82525050565b6000602082019050613c0f6000830184613beb565b92915050565b6000819050919050565b613c2881613c15565b8114613c3357600080fd5b50565b600081359050613c4581613c1f565b92915050565b600060208284031215613c6157613c606138f2565b5b6000613c6f84828501613c36565b91505092915050565b613c8181613c15565b82525050565b6000602082019050613c9c6000830184613c78565b92915050565b613cab81613981565b8114613cb657600080fd5b50565b600081359050613cc881613ca2565b92915050565b60008060408385031215613ce557613ce46138f2565b5b6000613cf385828601613a00565b9250506020613d0485828601613cb9565b9150509250929050565b60008060408385031215613d2557613d246138f2565b5b6000613d3385828601613c36565b9250506020613d4485828601613a00565b9150509250929050565b600067ffffffffffffffff82169050919050565b613d6b81613d4e565b8114613d7657600080fd5b50565b600081359050613d8881613d62565b92915050565b600080600060608486031215613da757613da66138f2565b5b6000613db586828701613cb9565b9350506020613dc686828701613d79565b9250506040613dd786828701613d79565b9150509250925092565b600060208284031215613df757613df66138f2565b5b600082013567ffffffffffffffff811115613e1557613e146138f7565b5b613e2184828501613b2d565b91505092915050565b613e3381613981565b82525050565b600060ff82169050919050565b613e4f81613e39565b82525050565b600063ffffffff82169050919050565b613e6e81613e55565b82525050565b613e7d81613d4e565b82525050565b613e8c81613bb7565b82525050565b613e9b816139d7565b82525050565b613eaa81613c15565b82525050565b600081519050919050565b600082825260208201905092915050565b60005b83811015613eea578082015181840152602081019050613ecf565b60008484015250505050565b6000613f0182613eb0565b613f0b8185613ebb565b9350613f1b818560208601613ecc565b613f2481613a1f565b840191505092915050565b7f4e487b7100000000000000000000000000000000000000000000000000000000600052602160045260246000fd5b60028110613f6f57613f6e613f2f565b5b50565b6000819050613f8082613f5e565b919050565b6000613f9082613f72565b9050919050565b613fa081613f85565b82525050565b600061016083016000830151613fbf6000860182613e2a565b506020830151613fd26020860182613e46565b506040830151613fe56040860182613e65565b506060830151613ff86060860182613e74565b50608083015161400b6080860182613e74565b5060a083015161401e60a0860182613e83565b5060c083015161403160c0860182613e92565b5060e083015161404460e0860182613e92565b50610100830151614059610100860182613ea1565b506101208301518482036101208601526140738282613ef6565b91505061014083015161408a610140860182613f97565b508091505092915050565b600060208201905081810360008301526140af8184613fa6565b905092915050565b600080fd5b600080fd5b60008083601f8401126140d7576140d6613a15565b5b8235905067ffffffffffffffff8111156140f4576140f36140b7565b5b6020830191508360018202830111156141105761410f6140bc565b5b9250929050565b61412081613bb7565b811461412b57600080fd5b50565b60008135905061413d81614117565b92915050565b60008060008060006080868803121561415f5761415e6138f2565b5b600086013567ffffffffffffffff81111561417d5761417c6138f7565b5b614189888289016140c1565b9550955050602061419c88828901613a00565b93505060406141ad88828901613a00565b92505060606141be8882890161412e565b9150509295509295909350565b600080fd5b600061016082840312156141e7576141e66141cb565b5b81905092915050565b600060208284031215614206576142056138f2565b5b600082013567ffffffffffffffff811115614224576142236138f7565b5b614230848285016141d0565b91505092915050565b60006020828403121561424f5761424e6138f2565b5b600061425d84828501613a00565b91505092915050565b60006020828403121561427c5761427b6138f2565b5b600061428a8482850161412e565b91505092915050565b60008083601f8401126142a9576142a8613a15565b5b8235905067ffffffffffffffff8111156142c6576142c56140b7565b5b6020830191508360208202830111156142e2576142e16140bc565b5b9250929050565b60008083601f8401126142ff576142fe613a15565b5b8235905067ffffffffffffffff81111561431c5761431b6140b7565b5b602083019150836001820283011115614338576143376140bc565b5b9250929050565b600060a08284031215614355576143546141cb565b5b81905092915050565b6000806000806000806000610100888a03121561437e5761437d6138f2565b5b600088013567ffffffffffffffff81111561439c5761439b6138f7565b5b6143a88a828b016140c1565b9750975050602088013567ffffffffffffffff8111156143cb576143ca6138f7565b5b6143d78a828b01614293565b9550955050604088013567ffffffffffffffff8111156143fa576143f96138f7565b5b6144068a828b016142e9565b935093505060606144198a828b0161433f565b91505092959891949750929550565b60007fff0000000000000000000000000000000000000000000000000000000000000082169050919050565b61445d81614428565b82525050565b600082825260208201905092915050565b600061447f82613eb0565b6144898185614463565b9350614499818560208601613ecc565b6144a281613a1f565b840191505092915050565b600081519050919050565b600082825260208201905092915050565b6000819050602082019050919050565b60006144e58383613e83565b60208301905092915050565b6000602082019050919050565b6000614509826144ad565b61451381856144b8565b935061451e836144c9565b8060005b8381101561454f57815161453688826144d9565b9750614541836144f1565b925050600181019050614522565b5085935050505092915050565b600060e082019050614571600083018a614454565b81810360208301526145838189614474565b905081810360408301526145978188614474565b90506145a66060830187613bc1565b6145b36080830186613beb565b6145c060a0830185613c78565b81810360c08301526145d281846144fe565b905098975050505050505050565b6000806000604084860312156145f9576145f86138f2565b5b600084013567ffffffffffffffff811115614617576146166138f7565b5b614623868287016140c1565b9350935050602061463686828701613cb9565b9150509250925092565b61464981613e39565b811461465457600080fd5b50565b60008135905061466681614640565b92915050565b600080600060408486031215614685576146846138f2565b5b600084013567ffffffffffffffff8111156146a3576146a26138f7565b5b6146af868287016140c1565b935093505060206146c286828701614657565b9150509250925092565b6000806000606084860312156146e5576146e46138f2565b5b60006146f386828701613a00565b935050602061470486828701613a00565b925050604061471586828701613a00565b9150509250925092565b60008060008060608587031215614739576147386138f2565b5b600085013567ffffffffffffffff811115614757576147566138f7565b5b614763878288016140c1565b9450945050602061477687828801613d79565b925050604061478787828801613d79565b91505092959194509250565b61479c81613e55565b81146147a757600080fd5b50565b6000813590506147b981614793565b92915050565b6000806000604084860312156147d8576147d76138f2565b5b600084013567ffffffffffffffff8111156147f6576147f56138f7565b5b614802868287016140c1565b93509350506020614815868287016147aa565b9150509250925092565b600081905092915050565b600061483582613eb0565b61483f818561481f565b935061484f818560208601613ecc565b80840191505092915050565b6000614867828461482a565b915081905092915050565b7f4e487b7100000000000000000000000000000000000000000000000000000000600052602260045260246000fd5b600060028204905060018216806148b957607f821691505b6020821081036148cc576148cb614872565b5b50919050565b60006148de838561481f565b93506148eb838584613adc565b82840190509392505050565b60006149048284866148d2565b91508190509392505050565b600080fd5b600080fd5b600080fd5b6000808335600160200384360303811261493c5761493b614910565b5b80840192508235915067ffffffffffffffff82111561495e5761495d614915565b5b60208301925060018202360383131561497a5761497961491a565b5b509250929050565b6000813561498f81613ca2565b80915050919050565b60008160001b9050919050565b600060ff6149b284614998565b9350801983169250808416831791505092915050565b60006149d382613981565b9050919050565b6000819050919050565b6149ed826149c8565b614a006149f9826149da565b83546149a5565b8255505050565b60008135614a1481614640565b80915050919050565b60008160081b9050919050565b600061ff00614a3884614a1d565b9350801983169250808416831791505092915050565b6000819050919050565b6000614a73614a6e614a6984613e39565b614a4e565b613e39565b9050919050565b6000819050919050565b614a8d82614a58565b614aa0614a9982614a7a565b8354614a2a565b8255505050565b60008135614ab481614793565b80915050919050565b60008160101b9050919050565b600065ffffffff0000614adc84614abd565b9350801983169250808416831791505092915050565b6000614b0d614b08614b0384613e55565b614a4e565b613e55565b9050919050565b6000819050919050565b614b2782614af2565b614b3a614b3382614b14565b8354614aca565b8255505050565b60008135614b4e81613d62565b80915050919050565b60008160301b9050919050565b60006dffffffffffffffff000000000000614b7e84614b57565b9350801983169250808416831791505092915050565b6000614baf614baa614ba584613d4e565b614a4e565b613d4e565b9050919050565b6000819050919050565b614bc982614b94565b614bdc614bd582614bb6565b8354614b64565b8255505050565b60008160701b9050919050565b600075ffffffffffffffff0000000000000000000000000000614c1284614be3565b9350801983169250808416831791505092915050565b614c3182614b94565b614c44614c3d82614bb6565b8354614bf0565b8255505050565b60008135614c5881614117565b80915050919050565b60007fffffffffffffffffffffffffffffffffffffffffffffffffffffffffffffffff614c8d84614998565b9350801983169250808416831791505092915050565b6000614cbe614cb9614cb484613bb7565b614a4e565b613bb7565b9050919050565b6000819050919050565b614cd882614ca3565b614ceb614ce482614cc5565b8354614c61565b8255505050565b60008135614cff816139e9565b80915050919050565b600073ffffffffffffffffffffffffffffffffffffffff614d2884614998565b9350801983169250808416831791505092915050565b6000614d59614d54614d4f846139b7565b614a4e565b6139b7565b9050919050565b6000614d6b82614d3e565b9050919050565b6000614d7d82614d60565b9050919050565b6000819050919050565b614d9782614d72565b614daa614da382614d84565b8354614d08565b8255505050565b60008135614dbe81613c1f565b80915050919050565b6000614dd282613c15565b9050919050565b60008160001c9050919050565b6000614df182614dd9565b9050919050565b614e0182614dc7565b614e14614e0d82614de6565b8354614c61565b8255505050565b600082905092915050565b60008190508160005260206000209050919050565b60006020601f8301049050919050565b600082821b905092915050565b600060088302614e887fffffffffffffffffffffffffffffffffffffffffffffffffffffffffffffffff82614e4b565b614e928683614e4b565b95508019841693508086168417925050509392505050565b614eb383614ca3565b614ec7614ebf82614cc5565b848454614e58565b825550505050565b600090565b614edc614ecf565b614ee7818484614eaa565b505050565b5b81811015614f0b57614f00600082614ed4565b600181019050614eed565b5050565b601f821115614f5057614f2181614e26565b614f2a84614e3b565b81016020851015614f39578190505b614f4d614f4585614e3b565b830182614eec565b50505b505050565b600082821c905092915050565b6000614f7360001984600802614f55565b1980831691505092915050565b6000614f8c8383614f62565b9150826002028217905092915050565b614fa68383614e1b565b67ffffffffffffffff811115614fbf57614fbe613a30565b5b614fc982546148a1565b614fd4828285614f0f565b6000601f8311600181146150035760008415614ff1578287013590505b614ffb8582614f80565b865550615063565b601f19841661501186614e26565b60005b8281101561503957848901358255600182019150602085019450602081019050615014565b868310156150565784890135615052601f891682614f62565b8355505b6001600288020188555050505b50505050505050565b615077838383614f9c565b505050565b6002811061508957600080fd5b50565b600081356150998161507c565b80915050919050565b60006150ad82613f72565b9050919050565b6000819050919050565b6150c7826150a2565b6150da6150d3826150b4565b83546149a5565b8255505050565b6000810160008301806150f381614982565b90506150ff81846149e4565b50505060008101602083018061511481614a07565b90506151208184614a84565b50505060008101604083018061513581614aa7565b90506151418184614b1e565b50505060008101606083018061515681614b41565b90506151628184614bc0565b50505060008101608083018061517781614b41565b90506151838184614c28565b5050506001810160a083018061519881614c4b565b90506151a48184614ccf565b5050506002810160c08301806151b981614cf2565b90506151c58184614d8e565b5050506003810160e08301806151da81614cf2565b90506151e68184614d8e565b505050600481016101008301806151fc81614db1565b90506152088184614df8565b50505060058101610120830161521e818561491f565b61522981838661506c565b50505050600681016101408301806152408161508c565b905061524c81846150be565b5050505050565b61525d82826150e1565b5050565b600060208284031215615277576152766138f2565b5b6000615285848285016147aa565b91505092915050565b7f4e487b7100000000000000000000000000000000000000000000000000000000600052601160045260246000fd5b60006152c882613bb7565b91506152d383613bb7565b92508282019050808211156152eb576152ea61528e565b5b92915050565b60006153006020840184613cb9565b905092915050565b60006153176020840184614657565b905092915050565b600061532e60208401846147aa565b905092915050565b60006153456020840184613d79565b905092915050565b600061535c602084018461412e565b905092915050565b60006153736020840184613a00565b905092915050565b600061538a6020840184613c36565b905092915050565b600080fd5b600080fd5b600080fd5b600080833560016020038436030381126153be576153bd61539c565b5b83810192508235915060208301925067ffffffffffffffff8211156153e6576153e5615392565b5b6001820236038313156153fc576153fb615397565b5b509250929050565b60006154108385613ebb565b935061541d838584613adc565b61542683613a1f565b840190509392505050565b6000813590506154408161507c565b92915050565b60006154556020840184615431565b905092915050565b6000610160830161547160008401846152f1565b61547e6000860182613e2a565b5061548c6020840184615308565b6154996020860182613e46565b506154a7604084018461531f565b6154b46040860182613e65565b506154c26060840184615336565b6154cf6060860182613e74565b506154dd6080840184615336565b6154ea6080860182613e74565b506154f860a084018461534d565b61550560a0860182613e83565b5061551360c0840184615364565b61552060c0860182613e92565b5061552e60e0840184615364565b61553b60e0860182613e92565b5061554a61010084018461537b565b615558610100860182613ea1565b506155676101208401846153a1565b85830361012087015261557b838284615404565b9250505061558d610140840184615446565b61559b610140860182613f97565b508091505092915050565b600060208201905081810360008301526155c0818461545d565b905092915050565b6155d181613e55565b82525050565b60006020820190506155ec60008301846155c8565b92915050565b60008160601b9050919050565b600061560a826155f2565b9050919050565b600061561c826155ff565b9050919050565b61563461562f826139d7565b615611565b82525050565b60006156468284615623565b60148201915081905092915050565b7f4549503731323a20556e696e697469616c697a65640000000000000000000000600082015250565b600061568b601583614463565b915061569682615655565b602082019050919050565b600060208201905081810360008301526156ba8161567e565b9050919050565b60006156cd8385614463565b93506156da838584613adc565b6156e383613a1f565b840190509392505050565b6156f781613e39565b82525050565b600060408201905081810360008301526157188185876156c1565b905061572760208301846156ee565b949350505050565b6000819050919050565b600061575461574f61574a8461572f565b614a4e565b613d4e565b9050919050565b61576481615739565b82525050565b600060208201905061577f600083018461575b565b92915050565b61578e81613d4e565b82525050565b600060608201905081810360008301526157af8186886156c1565b90506157be6020830185615785565b6157cb6040830184615785565b95945050505050565b60006157df82613bb7565b91506157ea83613bb7565b92508282039050818111156158025761580161528e565b5b92915050565b600060408201905081810360008301526158238185876156c1565b905061583260208301846155c8565b949350505050565b600081905092915050565b6000615851838561583a565b935061585e838584613adc565b82840190509392505050565b6000615877828486615845565b91508190509392505050565b600060e082019050615898600083018a613c78565b6158a56020830189613beb565b6158b26040830188613bc1565b6158bf6060830187613bc1565b6158cc6080830186613bc1565b6158d960a0830185613bc1565b6158e660c0830184613c78565b98975050505050505050565b60006040820190506159076000830185613beb565b6159146020830184613c78565b9392505050565b7f4e487b7100000000000000000000000000000000000000000000000000000000600052603260045260246000fd5b61595382613eb0565b67ffffffffffffffff81111561596c5761596b613a30565b5b61597682546148a1565b615981828285614f0f565b600060209050601f8311600181146159b457600084156159a2578287015190505b6159ac8582614f80565b865550615a14565b601f1984166159c286614e26565b60005b828110156159ea578489015182556001820191506020850194506020810190506159c5565b86831015615a075784890151615a03601f891682614f62565b8355505b6001600288020188555050505b505050505050565b600060a082019050615a316000830188613c78565b615a3e6020830187613c78565b615a4b6040830186613c78565b615a586060830185613bc1565b615a656080830184613beb565b9695505050505050565b6000608082019050615a846000830187613c78565b615a9160208301866156ee565b615a9e6040830185613c78565b615aab6060830184613c78565b9594505050505056fea264697066735822122073e2aea9aa75194043c09a0877a05bcbb3cca3280a20a9a14aad2217f1493eae64736f6c634300081a0033",
  "devdoc": {
    "custom:security-contact": "mr.nmh175@gmail.com",
    "errors": {
      "AccessControlBadConfirmation()": [
        {
          "details": "The caller of a function is not the expected one. NOTE: Don't confuse with {AccessControlUnauthorizedAccount}."
        }
      ],
      "AccessControlUnauthorizedAccount(address,bytes32)": [
        {
          "details": "The `account` is missing a role."
        }
      ],
      "ECDSAInvalidSignature()": [
        {
          "details": "The signature derives the `address(0)`."
        }
      ],
      "ECDSAInvalidSignatureLength(uint256)": [
        {
          "details": "The signature has an invalid length."
        }
      ],
      "ECDSAInvalidSignatureS(bytes32)": [
        {
          "details": "The signature has an S value that is in the upper half order."
        }
      ],
      "InvalidInitialization()": [
        {
          "details": "The contract is already initialized."
        }
      ],
      "NotInitializing()": [
        {
          "details": "The contract is not initializing."
        }
      ]
    },
    "events": {
      "EIP712DomainChanged()": {
        "details": "MAY be emitted to signal that the domain could have changed."
      },
      "Initialized(uint64)": {
        "details": "Triggered when the contract has been initialized or reinitialized."
      },
      "RoleAdminChanged(bytes32,bytes32,bytes32)": {
        "details": "Emitted when `newAdminRole` is set as ``role``'s admin role, replacing `previousAdminRole` `DEFAULT_ADMIN_ROLE` is the starting admin for all roles, despite {RoleAdminChanged} not being emitted signaling this."
      },
      "RoleGranted(bytes32,address,address)": {
        "details": "Emitted when `account` is granted `role`. `sender` is the account that originated the contract call. This account bears the admin role (for the granted role). Expected in cases where the role was granted using the internal {AccessControl-_grantRole}."
      },
      "RoleRevoked(bytes32,address,address)": {
        "details": "Emitted when `account` is revoked `role`. `sender` is the account that originated the contract call:   - if using `revokeRole`, it is the admin role bearer   - if using `renounceRole`, it is the role bearer (i.e. `account`)"
      },
      "SignerUpdated(address)": {
        "params": {
          "signer": "The new signer address."
        }
      }
    },
    "kind": "dev",
    "methods": {
      "eip712Domain()": {
        "details": "See {IERC-5267}."
      },
      "eligibleCheckingAndRegister(string,bytes32[],bytes,(uint256,uint256,uint256,uint256,address))": {
        "params": {
          "mintparams": "The minting parameters.",
          "proof": "The proof of the minting action.  signature The signature of the minting action. (not used)",
          "stage": "The stage name."
        }
      },
      "getRoleAdmin(bytes32)": {
        "details": "Returns the admin role that controls `role`. See {grantRole} and {revokeRole}. To change a role's admin, use {_setRoleAdmin}."
      },
      "grantRole(bytes32,address)": {
        "details": "Grants `role` to `account`. If `account` had not been already granted `role`, emits a {RoleGranted} event. Requirements: - the caller must have ``role``'s admin role. May emit a {RoleGranted} event."
      },
      "hasRole(bytes32,address)": {
        "details": "Returns `true` if `account` has been granted `role`."
      },
      "mintRecord(address,string)": {
        "params": {
          "stage": "The stage name",
          "to": "Inquiry address"
        }
      },
      "renounceRole(bytes32,address)": {
        "details": "Revokes `role` from the calling account. Roles are often managed via {grantRole} and {revokeRole}: this function's purpose is to provide a mechanism for accounts to lose their privileges if they are compromised (such as when a trusted device is misplaced). If the calling account had been revoked `role`, emits a {RoleRevoked} event. Requirements: - the caller must be `callerConfirmation`. May emit a {RoleRevoked} event."
      },
      "revokeRole(bytes32,address)": {
        "details": "Revokes `role` from `account`. If `account` had been granted `role`, emits a {RoleRevoked} event. Requirements: - the caller must have ``role``'s admin role. May emit a {RoleRevoked} event."
      },
      "setActiveSigner(address,bool)": {
        "params": {
          "_signer": "Signer address.",
          "status": "Effective status."
        }
      },
      "setMaxSupply(uint256)": {
        "params": {
          "newMaxSupply": "The new maximum number of nfts that can be minted."
        }
      },
      "setSigner(address)": {
        "params": {
          "signer_": "The new whitelist signer address."
        }
      },
      "setStageEnableSig(string,bool)": {
        "params": {
          "enableSig": "Whether to enable (true, false).",
          "stage": "Round identification."
        }
      },
      "setStageMaxSupply(string,uint32)": {
        "params": {
          "_maxSupply": "nft maximum supply.",
          "stage": "Round identification."
        }
      },
      "setStageMintInfo((bool,uint8,uint32,uint64,uint64,uint256,address,address,bytes32,string,uint8))": {
        "params": {
          "stageMintInfo": "The mint information for the stage."
        }
      },
      "setStageMintLimitationPerAddress(string,uint8)": {
        "params": {
          "mintLimitationPerAddress": "Single address mint limit.",
          "stage": "Round identification."
        }
      },
      "setStageMintTime(string,uint64,uint64)": {
        "params": {
          "endTime": "The end time of the stage.",
          "stage": "Round identification.",
          "startTime": "The start time of the stage."
        }
      },
      "setStagePayment(string,address,address,uint256)": {
        "params": {
          "payeeAddress": "Payment address.",
          "paymentToken": "Token contract address for payment (if 0, it is a native token).",
          "price": "Single nft price.",
          "stage": "Round identification."
        }
      },
      "setTransferRestricted(bool,uint64,uint64)": {
        "params": {
          "endTime": "End time.",
          "isTransferRestricted_": "Whether to restrict transfer.",
          "startTime": "Start time."
        }
      },
      "stageToMint(string)": {
        "params": {
          "stage": "The stage name"
        }
      },
      "stageToTotalSupply(string)": {
        "params": {
          "stage": "The stage name"
        }
      },
      "supportsInterface(bytes4)": {
        "details": "See {IERC165-supportsInterface}."
      }
    },
    "version": 1
  },
  "userdoc": {
    "errors": {
      "SignatureAlreadyUsed()": [
        {
          "notice": "The provided whitelist signature is already used."
        }
      ]
    },
    "events": {
      "SignerUpdated(address)": {
        "notice": "Emitted when the signer is updated."
      }
    },
    "kind": "user",
    "methods": {
      "eligibleCheckingAndRegister(string,bytes32[],bytes,(uint256,uint256,uint256,uint256,address))": {
        "notice": "Check if the minting action of a address is eligible."
      },
      "maxSupply()": {
        "notice": "Query the maximum number of total mints"
      },
      "mintRecord(address,string)": {
        "notice": "Query the quantity that has been minted at a certain stage at a certain address"
      },
      "setActiveSigner(address,bool)": {
        "notice": "Set a valid signer address.     If the address has been configured, it is a modify function.abi     If the address has not been configured, then it is an add function to configure the address."
      },
      "setMaxSupply(uint256)": {
        "notice": "Configure or update the maximum number of nfts that can be minted."
      },
      "setSigner(address)": {
        "notice": "Updates the whitelist signer."
      },
      "setStageEnableSig(string,bool)": {
        "notice": "Set whether server level signing is enabled for a specific round according to the stage"
      },
      "setStageMaxSupply(string,uint32)": {
        "notice": "According to the stage, set the maximum nft supply for a specific round."
      },
      "setStageMintInfo((bool,uint8,uint32,uint64,uint64,uint256,address,address,bytes32,string,uint8))": {
        "notice": "Configure or update the information of a certain round according to the stage"
      },
      "setStageMintLimitationPerAddress(string,uint8)": {
        "notice": "Set the upper limit of the number of mints per address for a specific round according to the stage"
      },
      "setStageMintTime(string,uint64,uint64)": {
        "notice": "Configure or update the mint time for a specific stage."
      },
      "setStagePayment(string,address,address,uint256)": {
        "notice": "Set payment information for a specific round based on the stage"
      },
      "setTransferRestricted(bool,uint64,uint64)": {
        "notice": "Set whether to restrict transfer, if configured to true, transfer is not allowed.     Otherwise, transfer is allowed."
      },
      "stageToMint(string)": {
        "notice": "Query configuration information for a specific stage"
      },
      "stageToTotalSupply(string)": {
        "notice": "Query the total number of minted under the current stage"
      },
      "totalSupply()": {
        "notice": "Query the total mint quantity"
      }
    },
    "version": 1
  },
  "storageLayout": {
    "storage": [
      {
        "astId": 11459,
        "contract": "contracts/utils/OKXMultiMint.sol:OKXMultiMint",
        "label": "signer",
        "offset": 0,
        "slot": "0",
        "type": "t_address"
      },
      {
        "astId": 11463,
        "contract": "contracts/utils/OKXMultiMint.sol:OKXMultiMint",
        "label": "usedSignatures",
        "offset": 0,
        "slot": "1",
        "type": "t_mapping(t_bytes_memory_ptr,t_bool)"
      },
      {
        "astId": 11469,
        "contract": "contracts/utils/OKXMultiMint.sol:OKXMultiMint",
        "label": "_mintRecord",
        "offset": 0,
        "slot": "2",
        "type": "t_mapping(t_address,t_mapping(t_string_memory_ptr,t_uint256))"
      },
      {
        "astId": 11474,
        "contract": "contracts/utils/OKXMultiMint.sol:OKXMultiMint",
        "label": "_stageToMint",
        "offset": 0,
        "slot": "3",
        "type": "t_mapping(t_string_memory_ptr,t_struct(StageMintInfo)11215_storage)"
      },
      {
        "astId": 11478,
        "contract": "contracts/utils/OKXMultiMint.sol:OKXMultiMint",
        "label": "_stageToTotalSupply",
        "offset": 0,
        "slot": "4",
        "type": "t_mapping(t_string_memory_ptr,t_uint256)"
      },
      {
        "astId": 11480,
        "contract": "contracts/utils/OKXMultiMint.sol:OKXMultiMint",
        "label": "totalMaxSupply",
        "offset": 0,
        "slot": "5",
        "type": "t_uint256"
      },
      {
        "astId": 11482,
        "contract": "contracts/utils/OKXMultiMint.sol:OKXMultiMint",
        "label": "totalMintedAmount",
        "offset": 0,
        "slot": "6",
        "type": "t_uint256"
      }
    ],
    "types": {
      "t_address": {
        "encoding": "inplace",
        "label": "address",
        "numberOfBytes": "20"
      },
      "t_bool": {
        "encoding": "inplace",
        "label": "bool",
        "numberOfBytes": "1"
      },
      "t_bytes32": {
        "encoding": "inplace",
        "label": "bytes32",
        "numberOfBytes": "32"
      },
      "t_bytes_memory_ptr": {
        "encoding": "bytes",
        "label": "bytes",
        "numberOfBytes": "32"
      },
      "t_enum(MintType)11190": {
        "encoding": "inplace",
        "label": "enum IOKXMultiMint.MintType",
        "numberOfBytes": "1"
      },
      "t_mapping(t_address,t_mapping(t_string_memory_ptr,t_uint256))": {
        "encoding": "mapping",
        "key": "t_address",
        "label": "mapping(address => mapping(string => uint256))",
        "numberOfBytes": "32",
        "value": "t_mapping(t_string_memory_ptr,t_uint256)"
      },
      "t_mapping(t_bytes_memory_ptr,t_bool)": {
        "encoding": "mapping",
        "key": "t_bytes_memory_ptr",
        "label": "mapping(bytes => bool)",
        "numberOfBytes": "32",
        "value": "t_bool"
      },
      "t_mapping(t_string_memory_ptr,t_struct(StageMintInfo)11215_storage)": {
        "encoding": "mapping",
        "key": "t_string_memory_ptr",
        "label": "mapping(string => struct IOKXMultiMint.StageMintInfo)",
        "numberOfBytes": "32",
        "value": "t_struct(StageMintInfo)11215_storage"
      },
      "t_mapping(t_string_memory_ptr,t_uint256)": {
        "encoding": "mapping",
        "key": "t_string_memory_ptr",
        "label": "mapping(string => uint256)",
        "numberOfBytes": "32",
        "value": "t_uint256"
      },
      "t_string_memory_ptr": {
        "encoding": "bytes",
        "label": "string",
        "numberOfBytes": "32"
      },
      "t_string_storage": {
        "encoding": "bytes",
        "label": "string",
        "numberOfBytes": "32"
      },
      "t_struct(StageMintInfo)11215_storage": {
        "encoding": "inplace",
        "label": "struct IOKXMultiMint.StageMintInfo",
        "members": [
          {
            "astId": 11193,
            "contract": "contracts/utils/OKXMultiMint.sol:OKXMultiMint",
            "label": "enableSig",
            "offset": 0,
            "slot": "0",
            "type": "t_bool"
          },
          {
            "astId": 11195,
            "contract": "contracts/utils/OKXMultiMint.sol:OKXMultiMint",
            "label": "limitationForAddress",
            "offset": 1,
            "slot": "0",
            "type": "t_uint8"
          },
          {
            "astId": 11197,
            "contract": "contracts/utils/OKXMultiMint.sol:OKXMultiMint",
            "label": "maxSupplyForStage",
            "offset": 2,
            "slot": "0",
            "type": "t_uint32"
          },
          {
            "astId": 11199,
            "contract": "contracts/utils/OKXMultiMint.sol:OKXMultiMint",
            "label": "startTime",
            "offset": 6,
            "slot": "0",
            "type": "t_uint64"
          },
          {
            "astId": 11201,
            "contract": "contracts/utils/OKXMultiMint.sol:OKXMultiMint",
            "label": "endTime",
            "offset": 14,
            "slot": "0",
            "type": "t_uint64"
          },
          {
            "astId": 11203,
            "contract": "contracts/utils/OKXMultiMint.sol:OKXMultiMint",
            "label": "price",
            "offset": 0,
            "slot": "1",
            "type": "t_uint256"
          },
          {
            "astId": 11205,
            "contract": "contracts/utils/OKXMultiMint.sol:OKXMultiMint",
            "label": "paymentToken",
            "offset": 0,
            "slot": "2",
            "type": "t_address"
          },
          {
            "astId": 11207,
            "contract": "contracts/utils/OKXMultiMint.sol:OKXMultiMint",
            "label": "payeeAddress",
            "offset": 0,
            "slot": "3",
            "type": "t_address"
          },
          {
            "astId": 11209,
            "contract": "contracts/utils/OKXMultiMint.sol:OKXMultiMint",
            "label": "allowListMerkleRoot",
            "offset": 0,
            "slot": "4",
            "type": "t_bytes32"
          },
          {
            "astId": 11211,
            "contract": "contracts/utils/OKXMultiMint.sol:OKXMultiMint",
            "label": "stage",
            "offset": 0,
            "slot": "5",
            "type": "t_string_storage"
          },
          {
            "astId": 11214,
            "contract": "contracts/utils/OKXMultiMint.sol:OKXMultiMint",
            "label": "mintType",
            "offset": 0,
            "slot": "6",
            "type": "t_enum(MintType)11190"
          }
        ],
        "numberOfBytes": "224"
      },
      "t_uint256": {
        "encoding": "inplace",
        "label": "uint256",
        "numberOfBytes": "32"
      },
      "t_uint32": {
        "encoding": "inplace",
        "label": "uint32",
        "numberOfBytes": "4"
      },
      "t_uint64": {
        "encoding": "inplace",
        "label": "uint64",
        "numberOfBytes": "8"
      },
      "t_uint8": {
        "encoding": "inplace",
        "label": "uint8",
        "numberOfBytes": "1"
      }
    }
  }
}