{
  "address": "0x88606ae61c3444C85aa98b63eF6Ec7293d682C03",
  "abi": [
    {
      "inputs": [],
      "stateMutability": "nonpayable",
      "type": "constructor"
    },
    {
      "inputs": [],
      "name": "AccessControlBadConfirmation",
      "type": "error"
    },
    {
      "inputs": [
        {
          "internalType": "address",
          "name": "account",
          "type": "address"
        },
        {
          "internalType": "bytes32",
          "name": "neededRole",
          "type": "bytes32"
        }
      ],
      "name": "AccessControlUnauthorizedAccount",
      "type": "error"
    },
    {
      "inputs": [],
      "name": "InvalidInitialization",
      "type": "error"
    },
    {
      "inputs": [],
      "name": "NotInitializing",
      "type": "error"
    },
    {
      "anonymous": false,
      "inputs": [],
      "name": "EIP712DomainChanged",
      "type": "event"
    },
    {
      "anonymous": false,
      "inputs": [
        {
          "indexed": false,
          "internalType": "uint64",
          "name": "version",
          "type": "uint64"
        }
      ],
      "name": "Initialized",
      "type": "event"
    },
    {
      "anonymous": false,
      "inputs": [
        {
          "indexed": false,
          "internalType": "address",
          "name": "recipient",
          "type": "address"
        },
        {
          "indexed": false,
          "internalType": "uint256",
          "name": "tokenId",
          "type": "uint256"
        },
        {
          "indexed": false,
          "internalType": "address",
          "name": "ipId",
          "type": "address"
        }
      ],
      "name": "NFTMinted",
      "type": "event"
    },
    {
      "anonymous": false,
      "inputs": [
        {
          "indexed": true,
          "internalType": "bytes32",
          "name": "role",
          "type": "bytes32"
        },
        {
          "indexed": true,
          "internalType": "bytes32",
          "name": "previousAdminRole",
          "type": "bytes32"
        },
        {
          "indexed": true,
          "internalType": "bytes32",
          "name": "newAdminRole",
          "type": "bytes32"
        }
      ],
      "name": "RoleAdminChanged",
      "type": "event"
    },
    {
      "anonymous": false,
      "inputs": [
        {
          "indexed": true,
          "internalType": "bytes32",
          "name": "role",
          "type": "bytes32"
        },
        {
          "indexed": true,
          "internalType": "address",
          "name": "account",
          "type": "address"
        },
        {
          "indexed": true,
          "internalType": "address",
          "name": "sender",
          "type": "address"
        }
      ],
      "name": "RoleGranted",
      "type": "event"
    },
    {
      "anonymous": false,
      "inputs": [
        {
          "indexed": true,
          "internalType": "bytes32",
          "name": "role",
          "type": "bytes32"
        },
        {
          "indexed": true,
          "internalType": "address",
          "name": "account",
          "type": "address"
        },
        {
          "indexed": true,
          "internalType": "address",
          "name": "sender",
          "type": "address"
        }
      ],
      "name": "RoleRevoked",
      "type": "event"
    },
    {
      "inputs": [],
      "name": "CORE_METADATA_MODULE",
      "outputs": [
        {
          "internalType": "address",
          "name": "",
          "type": "address"
        }
      ],
      "stateMutability": "view",
      "type": "function"
    },
    {
      "inputs": [],
      "name": "DEFAULT_ADMIN_ROLE",
      "outputs": [
        {
          "internalType": "bytes32",
          "name": "",
          "type": "bytes32"
        }
      ],
      "stateMutability": "view",
      "type": "function"
    },
    {
      "inputs": [],
      "name": "DEFAULT_LICENSE_TERMS_ID",
      "outputs": [
        {
          "internalType": "uint256",
          "name": "",
          "type": "uint256"
        }
      ],
      "stateMutability": "view",
      "type": "function"
    },
    {
      "inputs": [],
      "name": "IP_ASSET_REGISTRY",
      "outputs": [
        {
          "internalType": "address",
          "name": "",
          "type": "address"
        }
      ],
      "stateMutability": "view",
      "type": "function"
    },
    {
      "inputs": [],
      "name": "LICENSING_MODULE",
      "outputs": [
        {
          "internalType": "address",
          "name": "",
          "type": "address"
        }
      ],
      "stateMutability": "view",
      "type": "function"
    },
    {
      "inputs": [],
      "name": "MULTIROUND_CONTRACT",
      "outputs": [
        {
          "internalType": "address",
          "name": "",
          "type": "address"
        }
      ],
      "stateMutability": "view",
      "type": "function"
    },
    {
      "inputs": [],
      "name": "NFT_CONTRACT",
      "outputs": [
        {
          "internalType": "address",
          "name": "",
          "type": "address"
        }
      ],
      "stateMutability": "view",
      "type": "function"
    },
    {
      "inputs": [],
      "name": "OWNER_ROLE",
      "outputs": [
        {
          "internalType": "bytes32",
          "name": "",
          "type": "bytes32"
        }
      ],
      "stateMutability": "view",
      "type": "function"
    },
    {
      "inputs": [],
      "name": "PIL_TEMPLATE",
      "outputs": [
        {
          "internalType": "address",
          "name": "",
          "type": "address"
        }
      ],
      "stateMutability": "view",
      "type": "function"
    },
    {
      "inputs": [],
      "name": "eip712Domain",
      "outputs": [
        {
          "internalType": "bytes1",
          "name": "fields",
          "type": "bytes1"
        },
        {
          "internalType": "string",
          "name": "name",
          "type": "string"
        },
        {
          "internalType": "string",
          "name": "version",
          "type": "string"
        },
        {
          "internalType": "uint256",
          "name": "chainId",
          "type": "uint256"
        },
        {
          "internalType": "address",
          "name": "verifyingContract",
          "type": "address"
        },
        {
          "internalType": "bytes32",
          "name": "salt",
          "type": "bytes32"
        },
        {
          "internalType": "uint256[]",
          "name": "extensions",
          "type": "uint256[]"
        }
      ],
      "stateMutability": "view",
      "type": "function"
    },
    {
      "inputs": [
        {
          "internalType": "bool",
          "name": "isTest_",
          "type": "bool"
        }
      ],
      "name": "enableTestMode",
      "outputs": [],
      "stateMutability": "nonpayable",
      "type": "function"
    },
    {
      "inputs": [
        {
          "internalType": "bytes32",
          "name": "role",
          "type": "bytes32"
        }
      ],
      "name": "getRoleAdmin",
      "outputs": [
        {
          "internalType": "bytes32",
          "name": "",
          "type": "bytes32"
        }
      ],
      "stateMutability": "view",
      "type": "function"
    },
    {
      "inputs": [
        {
          "internalType": "bytes32",
          "name": "role",
          "type": "bytes32"
        },
        {
          "internalType": "address",
          "name": "account",
          "type": "address"
        }
      ],
      "name": "grantRole",
      "outputs": [],
      "stateMutability": "nonpayable",
      "type": "function"
    },
    {
      "inputs": [
        {
          "internalType": "bytes32",
          "name": "role",
          "type": "bytes32"
        },
        {
          "internalType": "address",
          "name": "account",
          "type": "address"
        }
      ],
      "name": "hasRole",
      "outputs": [
        {
          "internalType": "bool",
          "name": "",
          "type": "bool"
        }
      ],
      "stateMutability": "view",
      "type": "function"
    },
    {
      "inputs": [
        {
          "internalType": "address",
          "name": "defaultAdmin",
          "type": "address"
        },
        {
          "internalType": "address",
          "name": "owner",
          "type": "address"
        },
        {
          "internalType": "address",
          "name": "nftContract",
          "type": "address"
        },
        {
          "internalType": "address",
          "name": "multiRoundContract",
          "type": "address"
        },
        {
          "components": [
            {
              "components": [
                {
                  "internalType": "address",
                  "name": "contractAddress",
                  "type": "address"
                },
                {
                  "internalType": "uint256",
                  "name": "tokenId",
                  "type": "uint256"
                },
                {
                  "internalType": "address",
                  "name": "ipId",
                  "type": "address"
                }
              ],
              "internalType": "struct IMimbokuMultiround.RootNFT",
              "name": "rootNFT",
              "type": "tuple"
            },
            {
              "internalType": "uint256",
              "name": "defaultLicenseTermsId",
              "type": "uint256"
            },
            {
              "internalType": "address",
              "name": "pilTemplate",
              "type": "address"
            },
            {
              "internalType": "address",
              "name": "ipAssetRegistry",
              "type": "address"
            },
            {
              "internalType": "address",
              "name": "coreMetadataModule",
              "type": "address"
            },
            {
              "internalType": "address",
              "name": "licenseModule",
              "type": "address"
            },
            {
              "internalType": "string",
              "name": "ipMetadataURI",
              "type": "string"
            },
            {
              "internalType": "bytes32",
              "name": "ipMetadataHash",
              "type": "bytes32"
            }
          ],
          "internalType": "struct IMimbokuMultiround.IPMetadata",
          "name": "ipMetadata",
          "type": "tuple"
        }
      ],
      "name": "initialize",
      "outputs": [],
      "stateMutability": "nonpayable",
      "type": "function"
    },
    {
      "inputs": [],
      "name": "ipMetadataHash",
      "outputs": [
        {
          "internalType": "bytes32",
          "name": "",
          "type": "bytes32"
        }
      ],
      "stateMutability": "view",
      "type": "function"
    },
    {
      "inputs": [],
      "name": "ipMetadataURI",
      "outputs": [
        {
          "internalType": "string",
          "name": "",
          "type": "string"
        }
      ],
      "stateMutability": "view",
      "type": "function"
    },
    {
      "inputs": [],
      "name": "isTest",
      "outputs": [
        {
          "internalType": "bool",
          "name": "",
          "type": "bool"
        }
      ],
      "stateMutability": "view",
      "type": "function"
    },
    {
      "inputs": [],
      "name": "lastMintedTokenId",
      "outputs": [
        {
          "internalType": "uint256",
          "name": "",
          "type": "uint256"
        }
      ],
      "stateMutability": "view",
      "type": "function"
    },
    {
      "inputs": [],
      "name": "maxSupply",
      "outputs": [
        {
          "internalType": "uint256",
          "name": "",
          "type": "uint256"
        }
      ],
      "stateMutability": "view",
      "type": "function"
    },
    {
      "inputs": [
        {
          "internalType": "string",
          "name": "stage",
          "type": "string"
        },
        {
          "internalType": "bytes",
          "name": "signature",
          "type": "bytes"
        },
        {
          "internalType": "bytes32[]",
          "name": "proof",
          "type": "bytes32[]"
        },
        {
          "components": [
            {
              "internalType": "uint256",
              "name": "amount",
              "type": "uint256"
            },
            {
              "internalType": "uint256",
              "name": "tokenId",
              "type": "uint256"
            },
            {
              "internalType": "uint256",
              "name": "nonce",
              "type": "uint256"
            },
            {
              "internalType": "uint256",
              "name": "expiry",
              "type": "uint256"
            },
            {
              "internalType": "address",
              "name": "to",
              "type": "address"
            }
          ],
          "internalType": "struct IOKXMultiMint.MintParams",
          "name": "mintparams",
          "type": "tuple"
        }
      ],
      "name": "mint",
      "outputs": [
        {
          "internalType": "uint256",
          "name": "tokenId",
          "type": "uint256"
        },
        {
          "internalType": "address",
          "name": "ipId",
          "type": "address"
        }
      ],
      "stateMutability": "payable",
      "type": "function"
    },
    {
      "inputs": [
        {
          "internalType": "address",
          "name": "to",
          "type": "address"
        },
        {
          "internalType": "string",
          "name": "stage",
          "type": "string"
        }
      ],
      "name": "mintRecord",
      "outputs": [
        {
          "internalType": "uint256",
          "name": "",
          "type": "uint256"
        }
      ],
      "stateMutability": "view",
      "type": "function"
    },
    {
      "inputs": [
        {
          "internalType": "address",
          "name": "to",
          "type": "address"
        },
        {
          "internalType": "uint256",
          "name": "tokenId_",
          "type": "uint256"
        }
      ],
      "name": "preMint",
      "outputs": [
        {
          "internalType": "address",
          "name": "ipId",
          "type": "address"
        }
      ],
      "stateMutability": "nonpayable",
      "type": "function"
    },
    {
      "inputs": [],
      "name": "preMintedCount",
      "outputs": [
        {
          "internalType": "uint256",
          "name": "",
          "type": "uint256"
        }
      ],
      "stateMutability": "view",
      "type": "function"
    },
    {
      "inputs": [
        {
          "internalType": "bytes32",
          "name": "role",
          "type": "bytes32"
        },
        {
          "internalType": "address",
          "name": "callerConfirmation",
          "type": "address"
        }
      ],
      "name": "renounceRole",
      "outputs": [],
      "stateMutability": "nonpayable",
      "type": "function"
    },
    {
      "inputs": [
        {
          "internalType": "bytes32",
          "name": "role",
          "type": "bytes32"
        },
        {
          "internalType": "address",
          "name": "account",
          "type": "address"
        }
      ],
      "name": "revokeRole",
      "outputs": [],
      "stateMutability": "nonpayable",
      "type": "function"
    },
    {
      "inputs": [],
      "name": "rootNFT",
      "outputs": [
        {
          "internalType": "address",
          "name": "contractAddress",
          "type": "address"
        },
        {
          "internalType": "uint256",
          "name": "tokenId",
          "type": "uint256"
        },
        {
          "internalType": "address",
          "name": "ipId",
          "type": "address"
        }
      ],
      "stateMutability": "view",
      "type": "function"
    },
    {
      "inputs": [
        {
          "internalType": "address",
          "name": "signer",
          "type": "address"
        },
        {
          "internalType": "bool",
          "name": "status",
          "type": "bool"
        }
      ],
      "name": "setActiveSigner",
      "outputs": [],
      "stateMutability": "nonpayable",
      "type": "function"
    },
    {
      "inputs": [
        {
          "internalType": "address",
          "name": "nftContract",
          "type": "address"
        },
        {
          "internalType": "address",
          "name": "multiRoundContract",
          "type": "address"
        }
      ],
      "name": "setContracts",
      "outputs": [],
      "stateMutability": "nonpayable",
      "type": "function"
    },
    {
      "inputs": [
        {
          "internalType": "uint256",
          "name": "newMaxSupply",
          "type": "uint256"
        }
      ],
      "name": "setMaxSupply",
      "outputs": [],
      "stateMutability": "nonpayable",
      "type": "function"
    },
    {
      "inputs": [
        {
          "internalType": "uint256",
          "name": "count",
          "type": "uint256"
        }
      ],
      "name": "setPreMintedCount",
      "outputs": [],
      "stateMutability": "nonpayable",
      "type": "function"
    },
    {
      "inputs": [
        {
          "internalType": "address",
          "name": "signer_",
          "type": "address"
        }
      ],
      "name": "setSigner",
      "outputs": [],
      "stateMutability": "nonpayable",
      "type": "function"
    },
    {
      "inputs": [
        {
          "internalType": "string",
          "name": "stage",
          "type": "string"
        },
        {
          "internalType": "bool",
          "name": "enableSig",
          "type": "bool"
        }
      ],
      "name": "setStageEnableSig",
      "outputs": [],
      "stateMutability": "nonpayable",
      "type": "function"
    },
    {
      "inputs": [
        {
          "internalType": "string",
          "name": "stage",
          "type": "string"
        },
        {
          "internalType": "uint32",
          "name": "maxSupply",
          "type": "uint32"
        }
      ],
      "name": "setStageMaxSupply",
      "outputs": [],
      "stateMutability": "nonpayable",
      "type": "function"
    },
    {
      "inputs": [
        {
          "components": [
            {
              "internalType": "bool",
              "name": "enableSig",
              "type": "bool"
            },
            {
              "internalType": "uint8",
              "name": "limitationForAddress",
              "type": "uint8"
            },
            {
              "internalType": "uint32",
              "name": "maxSupplyForStage",
              "type": "uint32"
            },
            {
              "internalType": "uint64",
              "name": "startTime",
              "type": "uint64"
            },
            {
              "internalType": "uint64",
              "name": "endTime",
              "type": "uint64"
            },
            {
              "internalType": "uint256",
              "name": "price",
              "type": "uint256"
            },
            {
              "internalType": "address",
              "name": "paymentToken",
              "type": "address"
            },
            {
              "internalType": "address",
              "name": "payeeAddress",
              "type": "address"
            },
            {
              "internalType": "bytes32",
              "name": "allowListMerkleRoot",
              "type": "bytes32"
            },
            {
              "internalType": "string",
              "name": "stage",
              "type": "string"
            },
            {
              "internalType": "enum IOKXMultiMint.MintType",
              "name": "mintType",
              "type": "uint8"
            }
          ],
          "internalType": "struct IOKXMultiMint.StageMintInfo",
          "name": "stageMintInfo",
          "type": "tuple"
        }
      ],
      "name": "setStageMintInfo",
      "outputs": [],
      "stateMutability": "nonpayable",
      "type": "function"
    },
    {
      "inputs": [
        {
          "internalType": "string",
          "name": "stage",
          "type": "string"
        },
        {
          "internalType": "uint8",
          "name": "mintLimitationPerAddress",
          "type": "uint8"
        }
      ],
      "name": "setStageMintLimitationPerAddress",
      "outputs": [],
      "stateMutability": "nonpayable",
      "type": "function"
    },
    {
      "inputs": [
        {
          "internalType": "string",
          "name": "stage",
          "type": "string"
        },
        {
          "internalType": "uint64",
          "name": "startTime",
          "type": "uint64"
        },
        {
          "internalType": "uint64",
          "name": "endTime",
          "type": "uint64"
        }
      ],
      "name": "setStageMintTime",
      "outputs": [],
      "stateMutability": "nonpayable",
      "type": "function"
    },
    {
      "inputs": [
        {
          "internalType": "string",
          "name": "stage",
          "type": "string"
        },
        {
          "internalType": "address",
          "name": "payeeAddress",
          "type": "address"
        },
        {
          "internalType": "address",
          "name": "paymentToken",
          "type": "address"
        },
        {
          "internalType": "uint64",
          "name": "price",
          "type": "uint64"
        }
      ],
      "name": "setStagePayment",
      "outputs": [],
      "stateMutability": "nonpayable",
      "type": "function"
    },
    {
      "inputs": [
        {
          "internalType": "bool",
          "name": "isTransferRestricted_",
          "type": "bool"
        },
        {
          "internalType": "uint64",
          "name": "startTime",
          "type": "uint64"
        },
        {
          "internalType": "uint64",
          "name": "endTime",
          "type": "uint64"
        }
      ],
      "name": "setTransferRestricted",
      "outputs": [],
      "stateMutability": "nonpayable",
      "type": "function"
    },
    {
      "inputs": [
        {
          "internalType": "string",
          "name": "stage",
          "type": "string"
        }
      ],
      "name": "stageToMint",
      "outputs": [
        {
          "components": [
            {
              "internalType": "bool",
              "name": "enableSig",
              "type": "bool"
            },
            {
              "internalType": "uint8",
              "name": "limitationForAddress",
              "type": "uint8"
            },
            {
              "internalType": "uint32",
              "name": "maxSupplyForStage",
              "type": "uint32"
            },
            {
              "internalType": "uint64",
              "name": "startTime",
              "type": "uint64"
            },
            {
              "internalType": "uint64",
              "name": "endTime",
              "type": "uint64"
            },
            {
              "internalType": "uint256",
              "name": "price",
              "type": "uint256"
            },
            {
              "internalType": "address",
              "name": "paymentToken",
              "type": "address"
            },
            {
              "internalType": "address",
              "name": "payeeAddress",
              "type": "address"
            },
            {
              "internalType": "bytes32",
              "name": "allowListMerkleRoot",
              "type": "bytes32"
            },
            {
              "internalType": "string",
              "name": "stage",
              "type": "string"
            },
            {
              "internalType": "enum IOKXMultiMint.MintType",
              "name": "mintType",
              "type": "uint8"
            }
          ],
          "internalType": "struct IOKXMultiMint.StageMintInfo",
          "name": "",
          "type": "tuple"
        }
      ],
      "stateMutability": "view",
      "type": "function"
    },
    {
      "inputs": [
        {
          "internalType": "string",
          "name": "stage",
          "type": "string"
        }
      ],
      "name": "stageToTotalSupply",
      "outputs": [
        {
          "internalType": "uint256",
          "name": "",
          "type": "uint256"
        }
      ],
      "stateMutability": "view",
      "type": "function"
    },
    {
      "inputs": [
        {
          "internalType": "bytes4",
          "name": "interfaceId",
          "type": "bytes4"
        }
      ],
      "name": "supportsInterface",
      "outputs": [
        {
          "internalType": "bool",
          "name": "",
          "type": "bool"
        }
      ],
      "stateMutability": "view",
      "type": "function"
    },
    {
      "inputs": [],
      "name": "totalSupply",
      "outputs": [
        {
          "internalType": "uint256",
          "name": "",
          "type": "uint256"
        }
      ],
      "stateMutability": "view",
      "type": "function"
    }
  ],
  "transactionHash": "0xc36c5eac354f16ee7511b8f2a522ffbec821e882056589985927f3cb1b17268e",
  "args": [],
  "numDeployments": 1,
  "solcInputHash": "2cd2911124c58c871ec64f5b33b4791f",
  "bytecode": "0x608060405234801561001057600080fd5b5061001f61002460201b60201c565b61018e565b600061003461012860201b60201c565b90508060000160089054906101000a900460ff161561007f576040517ff92ee8a900000000000000000000000000000000000000000000000000000000815260040160405180910390fd5b67ffffffffffffffff80168160000160009054906101000a900467ffffffffffffffff1667ffffffffffffffff16146101255767ffffffffffffffff8160000160006101000a81548167ffffffffffffffff021916908367ffffffffffffffff1602179055507fc7f505b2f371ae2175ee4913f4499e1f2633a7b5936321eed1cdaeb6115181d267ffffffffffffffff60405161011c9190610173565b60405180910390a15b50565b60007ff0c57e16840df040f15088dc2f81fe391c3923bec73e23a9662efc9c229c6a00905090565b600067ffffffffffffffff82169050919050565b61016d81610150565b82525050565b60006020820190506101886000830184610164565b92915050565b615fd38061019d6000396000f3fe60806040526004361061025c5760003560e01c80637f58660411610144578063aa4daf24116100b6578063d547741f1161007a578063d547741f14610908578063d5abeb0114610931578063d8952a491461095c578063e32e2bbc14610985578063e58378bb146109ae578063ec97120d146109d95761025c565b8063aa4daf2414610833578063b67f21be14610864578063bbfc68551461088d578063ce617ce5146108b6578063d4aa8d6f146108df5761025c565b806391d148541161010857806391d148541461070f5780639381a3451461074c5780639fe78f7914610777578063a217fddf146107b4578063a5f5a4a8146107df578063a95feefe146108085761025c565b80637f5866041461063257806384b0196e1461065d5780638d897a341461068e5780638e7d25a8146106b75780639035e5a6146106e45761025c565b806336568abe116101dd5780635a9baebd116101a15780635a9baebd1461053857806362f42822146105615780636508b10a1461058a57806365165aa5146105b55780636c19e783146105e05780636f8b44b0146106095761025c565b806336568abe1461045357806341c782c51461047c5780634899cf0b146104a75780634b6d9411146104d05780634d73cbd5146104fb5761025c565b80631fda9a02116102245780631fda9a021461035c578063248a9ca31461038757806328c1a4f5146103c4578063290c292d146103ed5780632f2ff15d1461042a5761025c565b806301ffc9a7146102615780630f9f6cbd1461029e5780630fbe291a146102c957806312c4ce881461030657806318160ddd14610331575b600080fd5b34801561026d57600080fd5b506102886004803603810190610283919061377d565b610a04565b60405161029591906137c5565b60405180910390f35b3480156102aa57600080fd5b506102b3610a7e565b6040516102c09190613870565b60405180910390f35b3480156102d557600080fd5b506102f060048036038101906102eb9190613a25565b610b0c565b6040516102fd9190613a9a565b60405180910390f35b34801561031257600080fd5b5061031b610bb4565b6040516103289190613ac4565b60405180910390f35b34801561033d57600080fd5b50610346610bda565b6040516103539190613a9a565b60405180910390f35b34801561036857600080fd5b50610371610c72565b60405161037e9190613ac4565b60405180910390f35b34801561039357600080fd5b506103ae60048036038101906103a99190613b15565b610c96565b6040516103bb9190613b51565b60405180910390f35b3480156103d057600080fd5b506103eb60048036038101906103e69190613b98565b610cc4565b005b3480156103f957600080fd5b50610414600480360381019061040f9190613c04565b610d82565b6040516104219190613ac4565b60405180910390f35b34801561043657600080fd5b50610451600480360381019061044c9190613c44565b610f4a565b005b34801561045f57600080fd5b5061047a60048036038101906104759190613c44565b610f6c565b005b34801561048857600080fd5b50610491610fe7565b60405161049e9190613ac4565b60405180910390f35b3480156104b357600080fd5b506104ce60048036038101906104c99190613cc4565b61100d565b005b3480156104dc57600080fd5b506104e56110ce565b6040516104f29190613a9a565b60405180910390f35b34801561050757600080fd5b50610522600480360381019061051d9190613d17565b6110d4565b60405161052f9190613f96565b60405180910390f35b34801561054457600080fd5b5061055f600480360381019061055a9190614018565b611184565b005b34801561056d57600080fd5b50610588600480360381019061058391906140c5565b61124b565b005b34801561059657600080fd5b5061059f61141b565b6040516105ac9190613a9a565b60405180910390f35b3480156105c157600080fd5b506105ca611421565b6040516105d79190613ac4565b60405180910390f35b3480156105ec57600080fd5b506106076004803603810190610602919061410e565b611447565b005b34801561061557600080fd5b50610630600480360381019061062b919061413b565b611505565b005b34801561063e57600080fd5b506106476115bb565b6040516106549190613ac4565b60405180910390f35b34801561066957600080fd5b506106726115e1565b6040516106859796959493929190614252565b60405180910390f35b34801561069a57600080fd5b506106b560048036038101906106b091906142d6565b6116f3565b005b3480156106c357600080fd5b506106cc61171e565b6040516106db93929190614303565b60405180910390f35b3480156106f057600080fd5b506106f9611776565b6040516107069190613ac4565b60405180910390f35b34801561071b57600080fd5b5061073660048036038101906107319190613c44565b61179c565b60405161074391906137c5565b60405180910390f35b34801561075857600080fd5b50610761611815565b60405161076e91906137c5565b60405180910390f35b34801561078357600080fd5b5061079e60048036038101906107999190613d17565b611828565b6040516107ab9190613a9a565b60405180910390f35b3480156107c057600080fd5b506107c96118cd565b6040516107d69190613b51565b60405180910390f35b3480156107eb57600080fd5b506108066004803603810190610801919061433a565b6118d4565b005b34801561081457600080fd5b5061081d611995565b60405161082a9190613b51565b60405180910390f35b61084d60048036038101906108489190614465565b61199b565b60405161085b92919061452f565b60405180910390f35b34801561087057600080fd5b5061088b60048036038101906108869190614584565b611ddf565b005b34801561089957600080fd5b506108b460048036038101906108af9190614604565b611ea0565b005b3480156108c257600080fd5b506108dd60048036038101906108d8919061413b565b6122f9565b005b3480156108eb57600080fd5b506109066004803603810190610901919061469b565b612484565b005b34801561091457600080fd5b5061092f600480360381019061092a9190613c44565b612548565b005b34801561093d57600080fd5b5061094661256a565b6040516109539190613a9a565b60405180910390f35b34801561096857600080fd5b50610983600480360381019061097e919061470f565b612602565b005b34801561099157600080fd5b506109ac60048036038101906109a7919061477b565b612695565b005b3480156109ba57600080fd5b506109c361292c565b6040516109d09190613b51565b60405180910390f35b3480156109e557600080fd5b506109ee612950565b6040516109fb9190613a9a565b60405180910390f35b60007f7965db0b000000000000000000000000000000000000000000000000000000007bffffffffffffffffffffffffffffffffffffffffffffffffffffffff1916827bffffffffffffffffffffffffffffffffffffffffffffffffffffffff19161480610a775750610a7682612956565b5b9050919050565b600a8054610a8b9061480a565b80601f0160208091040260200160405190810160405280929190818152602001828054610ab79061480a565b8015610b045780601f10610ad957610100808354040283529160200191610b04565b820191906000526020600020905b815481529060010190602001808311610ae757829003601f168201915b505050505081565b6000600160009054906101000a900473ffffffffffffffffffffffffffffffffffffffff1673ffffffffffffffffffffffffffffffffffffffff16630fbe291a84846040518363ffffffff1660e01b8152600401610b6b92919061483b565b602060405180830381865afa158015610b88573d6000803e3d6000fd5b505050506040513d601f19601f82011682018060405250810190610bac9190614880565b905092915050565b600360009054906101000a900473ffffffffffffffffffffffffffffffffffffffff1681565b6000600160009054906101000a900473ffffffffffffffffffffffffffffffffffffffff1673ffffffffffffffffffffffffffffffffffffffff166318160ddd6040518163ffffffff1660e01b8152600401602060405180830381865afa158015610c49573d6000803e3d6000fd5b505050506040513d601f19601f82011682018060405250810190610c6d9190614880565b905090565b60008054906101000a900473ffffffffffffffffffffffffffffffffffffffff1681565b600080610ca16129c0565b905080600001600084815260200190815260200160002060010154915050919050565b7fb19546dff01e856fb3f010c267a7b1c60363cf8a4664e21cc89c26224620214e610cee816129e8565b600160009054906101000a900473ffffffffffffffffffffffffffffffffffffffff1673ffffffffffffffffffffffffffffffffffffffff166328c1a4f584846040518363ffffffff1660e01b8152600401610d4b9291906148ad565b600060405180830381600087803b158015610d6557600080fd5b505af1158015610d79573d6000803e3d6000fd5b50505050505050565b60008060001b610d91816129e8565b60008314158015610da45750600e548311155b610de3576040517f08c379a0000000000000000000000000000000000000000000000000000000008152600401610dda90614922565b60405180910390fd5b600160009054906101000a900473ffffffffffffffffffffffffffffffffffffffff1673ffffffffffffffffffffffffffffffffffffffff166317d13a2b6040518163ffffffff1660e01b8152600401600060405180830381600087803b158015610e4d57600080fd5b505af1158015610e61573d6000803e3d6000fd5b505050506000610e70846129fc565b809450819250505060008054906101000a900473ffffffffffffffffffffffffffffffffffffffff1673ffffffffffffffffffffffffffffffffffffffff166323b872dd3087876040518463ffffffff1660e01b8152600401610ed593929190614942565b600060405180830381600087803b158015610eef57600080fd5b505af1158015610f03573d6000803e3d6000fd5b505050507f89a2c92e65780856b461f06435fffd0fb445240ba3cfee7e8f18e01dca40c073858585604051610f3a93929190614303565b60405180910390a1505092915050565b610f5382610c96565b610f5c816129e8565b610f668383612c5a565b50505050565b610f74612d5b565b73ffffffffffffffffffffffffffffffffffffffff168173ffffffffffffffffffffffffffffffffffffffff1614610fd8576040517f6697b23200000000000000000000000000000000000000000000000000000000815260040160405180910390fd5b610fe28282612d63565b505050565b600460009054906101000a900473ffffffffffffffffffffffffffffffffffffffff1681565b7fb19546dff01e856fb3f010c267a7b1c60363cf8a4664e21cc89c26224620214e611037816129e8565b600160009054906101000a900473ffffffffffffffffffffffffffffffffffffffff1673ffffffffffffffffffffffffffffffffffffffff16634899cf0b8585856040518463ffffffff1660e01b815260040161109693929190614988565b600060405180830381600087803b1580156110b057600080fd5b505af11580156110c4573d6000803e3d6000fd5b5050505050505050565b600e5481565b6110dc6135cc565b600160009054906101000a900473ffffffffffffffffffffffffffffffffffffffff1673ffffffffffffffffffffffffffffffffffffffff16634d73cbd5836040518263ffffffff1660e01b81526004016111379190613870565b600060405180830381865afa158015611154573d6000803e3d6000fd5b505050506040513d6000823e3d601f19601f8201168201806040525081019061117d9190614c04565b9050919050565b7fb19546dff01e856fb3f010c267a7b1c60363cf8a4664e21cc89c26224620214e6111ae816129e8565b600160009054906101000a900473ffffffffffffffffffffffffffffffffffffffff1673ffffffffffffffffffffffffffffffffffffffff16634fb5656a87878787876040518663ffffffff1660e01b8152600401611211959493929190614cb5565b600060405180830381600087803b15801561122b57600080fd5b505af115801561123f573d6000803e3d6000fd5b50505050505050505050565b7fb19546dff01e856fb3f010c267a7b1c60363cf8a4664e21cc89c26224620214e611275816129e8565b600160009054906101000a900473ffffffffffffffffffffffffffffffffffffffff1673ffffffffffffffffffffffffffffffffffffffff166362f42822836040518263ffffffff1660e01b81526004016112d09190614fb8565b600060405180830381600087803b1580156112ea57600080fd5b505af11580156112fe573d6000803e3d6000fd5b505050506000600160009054906101000a900473ffffffffffffffffffffffffffffffffffffffff1673ffffffffffffffffffffffffffffffffffffffff1663d5abeb016040518163ffffffff1660e01b8152600401602060405180830381865afa158015611371573d6000803e3d6000fd5b505050506040513d601f19601f820116820180604052508101906113959190614880565b9050600c60006113a59190613686565b8067ffffffffffffffff8111156113bf576113be6138fa565b5b6040519080825280602002602001820160405280156113ed5781602001602082028036833780820191505090505b50600c90805190602001906114039291906136a7565b5080600d81905550611416600e54612e65565b505050565b600f5481565b600660009054906101000a900473ffffffffffffffffffffffffffffffffffffffff1681565b7fb19546dff01e856fb3f010c267a7b1c60363cf8a4664e21cc89c26224620214e611471816129e8565b600160009054906101000a900473ffffffffffffffffffffffffffffffffffffffff1673ffffffffffffffffffffffffffffffffffffffff166328c1a4f58360016040518363ffffffff1660e01b81526004016114cf9291906148ad565b600060405180830381600087803b1580156114e957600080fd5b505af11580156114fd573d6000803e3d6000fd5b505050505050565b7fb19546dff01e856fb3f010c267a7b1c60363cf8a4664e21cc89c26224620214e61152f816129e8565b61153882612ecf565b600c60006115469190613686565b8167ffffffffffffffff8111156115605761155f6138fa565b5b60405190808252806020026020018201604052801561158e5781602001602082028036833780820191505090505b50600c90805190602001906115a49291906136a7565b5081600d819055506115b7600e54612e65565b5050565b600560009054906101000a900473ffffffffffffffffffffffffffffffffffffffff1681565b60006060806000806000606060006115f7612f5f565b90506000801b816000015414801561161557506000801b8160010154145b611654576040517f08c379a000000000000000000000000000000000000000000000000000000000815260040161164b90615026565b60405180910390fd5b61165c612f87565b611664613028565b46306000801b600067ffffffffffffffff811115611685576116846138fa565b5b6040519080825280602002602001820160405280156116b35781602001602082028036833780820191505090505b507f0f0000000000000000000000000000000000000000000000000000000000000095949392919097509750975097509750975097505090919293949596565b6000801b611700816129e8565b81601060006101000a81548160ff0219169083151502179055505050565b60078060000160009054906101000a900473ffffffffffffffffffffffffffffffffffffffff16908060010154908060020160009054906101000a900473ffffffffffffffffffffffffffffffffffffffff16905083565b600160009054906101000a900473ffffffffffffffffffffffffffffffffffffffff1681565b6000806117a76129c0565b905080600001600085815260200190815260200160002060000160008473ffffffffffffffffffffffffffffffffffffffff1673ffffffffffffffffffffffffffffffffffffffff16815260200190815260200160002060009054906101000a900460ff1691505092915050565b601060009054906101000a900460ff1681565b6000600160009054906101000a900473ffffffffffffffffffffffffffffffffffffffff1673ffffffffffffffffffffffffffffffffffffffff16639fe78f79836040518263ffffffff1660e01b81526004016118859190613870565b602060405180830381865afa1580156118a2573d6000803e3d6000fd5b505050506040513d601f19601f820116820180604052508101906118c69190614880565b9050919050565b6000801b81565b7fb19546dff01e856fb3f010c267a7b1c60363cf8a4664e21cc89c26224620214e6118fe816129e8565b600160009054906101000a900473ffffffffffffffffffffffffffffffffffffffff1673ffffffffffffffffffffffffffffffffffffffff1663a5f5a4a88585856040518463ffffffff1660e01b815260040161195d93929190615046565b600060405180830381600087803b15801561197757600080fd5b505af115801561198b573d6000803e3d6000fd5b5050505050505050565b600b5481565b6000806000600160009054906101000a900473ffffffffffffffffffffffffffffffffffffffff1673ffffffffffffffffffffffffffffffffffffffff1663832f9f548b8b89898d8d8b6040518863ffffffff1660e01b8152600401611a0797969594939291906151c1565b6020604051808303816000875af1158015611a26573d6000803e3d6000fd5b505050506040513d601f19601f82011682018060405250810190611a4a9190614880565b90506000600160009054906101000a900473ffffffffffffffffffffffffffffffffffffffff1673ffffffffffffffffffffffffffffffffffffffff16634d73cbd58c8c6040518363ffffffff1660e01b8152600401611aab929190615222565b600060405180830381865afa158015611ac8573d6000803e3d6000fd5b505050506040513d6000823e3d601f19601f82011682018060405250810190611af19190614c04565b905060008160c00151905060008260e00151905060008360a00151905060008114611cb057600073ffffffffffffffffffffffffffffffffffffffff168373ffffffffffffffffffffffffffffffffffffffff1614611c19578273ffffffffffffffffffffffffffffffffffffffff166323b872dd33848885611b749190615275565b6040518463ffffffff1660e01b8152600401611b9293929190614942565b6020604051808303816000875af1158015611bb1573d6000803e3d6000fd5b505050506040513d601f19601f82011682018060405250810190611bd591906152b7565b611c14576040517f08c379a0000000000000000000000000000000000000000000000000000000008152600401611c0b90615330565b60405180910390fd5b611caf565b8481611c259190615275565b341015611c67576040517f08c379a0000000000000000000000000000000000000000000000000000000008152600401611c5e9061539c565b60405180910390fd5b8173ffffffffffffffffffffffffffffffffffffffff166108fc349081150290604051600060405180830381858888f19350505050158015611cad573d6000803e3d6000fd5b505b5b60005b85811015611d8057611cc560006129fc565b809850819950505060008054906101000a900473ffffffffffffffffffffffffffffffffffffffff1673ffffffffffffffffffffffffffffffffffffffff166323b872dd308b6080016020810190611d1d919061410e565b8b6040518463ffffffff1660e01b8152600401611d3c93929190614942565b600060405180830381600087803b158015611d5657600080fd5b505af1158015611d6a573d6000803e3d6000fd5b5050505087600f81905550806001019050611cb3565b507f89a2c92e65780856b461f06435fffd0fb445240ba3cfee7e8f18e01dca40c073886080016020810190611db5919061410e565b8888604051611dc693929190614303565b60405180910390a1505050505097509795505050505050565b7fb19546dff01e856fb3f010c267a7b1c60363cf8a4664e21cc89c26224620214e611e09816129e8565b600160009054906101000a900473ffffffffffffffffffffffffffffffffffffffff1673ffffffffffffffffffffffffffffffffffffffff1663b67f21be8585856040518463ffffffff1660e01b8152600401611e68939291906153cb565b600060405180830381600087803b158015611e8257600080fd5b505af1158015611e96573d6000803e3d6000fd5b5050505050505050565b6000611eaa6130c9565b905060008160000160089054906101000a900460ff1615905060008260000160009054906101000a900467ffffffffffffffff1690506000808267ffffffffffffffff16148015611ef85750825b9050600060018367ffffffffffffffff16148015611f2d575060003073ffffffffffffffffffffffffffffffffffffffff163b145b905081158015611f3b575080155b15611f72576040517ff92ee8a900000000000000000000000000000000000000000000000000000000815260040160405180910390fd5b60018560000160006101000a81548167ffffffffffffffff021916908367ffffffffffffffff1602179055508315611fc25760018560000160086101000a81548160ff0219169083151502179055505b6120366040518060400160405280600781526020017f4f4b584d696e74000000000000000000000000000000000000000000000000008152506040518060400160405280600381526020017f312e3000000000000000000000000000000000000000000000000000000000008152506130f1565b61203e613107565b61204b6000801b8b612c5a565b506120767fb19546dff01e856fb3f010c267a7b1c60363cf8a4664e21cc89c26224620214e8a612c5a565b50876000806101000a81548173ffffffffffffffffffffffffffffffffffffffff021916908373ffffffffffffffffffffffffffffffffffffffff16021790555086600160006101000a81548173ffffffffffffffffffffffffffffffffffffffff021916908373ffffffffffffffffffffffffffffffffffffffff160217905550856000016007818161210a91906155d7565b905050856060013560028190555085608001602081019061212b919061410e565b600360006101000a81548173ffffffffffffffffffffffffffffffffffffffff021916908373ffffffffffffffffffffffffffffffffffffffff1602179055508560a001602081019061217e919061410e565b600460006101000a81548173ffffffffffffffffffffffffffffffffffffffff021916908373ffffffffffffffffffffffffffffffffffffffff1602179055508560c00160208101906121d1919061410e565b600560006101000a81548173ffffffffffffffffffffffffffffffffffffffff021916908373ffffffffffffffffffffffffffffffffffffffff1602179055508560e0016020810190612224919061410e565b600660006101000a81548173ffffffffffffffffffffffffffffffffffffffff021916908373ffffffffffffffffffffffffffffffffffffffff1602179055508580610100019061227591906155f4565b600a91826122849291906157d8565b50856101200135600b8190555083156122ed5760008560000160086101000a81548160ff0219169083151502179055507fc7f505b2f371ae2175ee4913f4499e1f2633a7b5936321eed1cdaeb6115181d260016040516122e491906158e3565b60405180910390a15b50505050505050505050565b7fb19546dff01e856fb3f010c267a7b1c60363cf8a4664e21cc89c26224620214e612323816129e8565b6000600160009054906101000a900473ffffffffffffffffffffffffffffffffffffffff1673ffffffffffffffffffffffffffffffffffffffff1663d5abeb016040518163ffffffff1660e01b8152600401602060405180830381865afa158015612392573d6000803e3d6000fd5b505050506040513d601f19601f820116820180604052508101906123b69190614880565b9050600e54816123c691906158fe565b905082816123d49190615932565b90506123df81612ecf565b600160009054906101000a900473ffffffffffffffffffffffffffffffffffffffff1673ffffffffffffffffffffffffffffffffffffffff1663d5abeb016040518163ffffffff1660e01b8152600401602060405180830381865afa15801561244c573d6000803e3d6000fd5b505050506040513d601f19601f820116820180604052508101906124709190614880565b600d8190555061247f83612e65565b505050565b7fb19546dff01e856fb3f010c267a7b1c60363cf8a4664e21cc89c26224620214e6124ae816129e8565b600160009054906101000a900473ffffffffffffffffffffffffffffffffffffffff1673ffffffffffffffffffffffffffffffffffffffff1663d4aa8d6f868686866040518563ffffffff1660e01b815260040161250f9493929190615966565b600060405180830381600087803b15801561252957600080fd5b505af115801561253d573d6000803e3d6000fd5b505050505050505050565b61255182610c96565b61255a816129e8565b6125648383612d63565b50505050565b6000600160009054906101000a900473ffffffffffffffffffffffffffffffffffffffff1673ffffffffffffffffffffffffffffffffffffffff1663d5abeb016040518163ffffffff1660e01b8152600401602060405180830381865afa1580156125d9573d6000803e3d6000fd5b505050506040513d601f19601f820116820180604052508101906125fd9190614880565b905090565b6000801b61260f816129e8565b826000806101000a81548173ffffffffffffffffffffffffffffffffffffffff021916908373ffffffffffffffffffffffffffffffffffffffff16021790555081600160006101000a81548173ffffffffffffffffffffffffffffffffffffffff021916908373ffffffffffffffffffffffffffffffffffffffff160217905550505050565b7fb19546dff01e856fb3f010c267a7b1c60363cf8a4664e21cc89c26224620214e6126bf816129e8565b6000600160009054906101000a900473ffffffffffffffffffffffffffffffffffffffff1673ffffffffffffffffffffffffffffffffffffffff1663d5abeb016040518163ffffffff1660e01b8152600401602060405180830381865afa15801561272e573d6000803e3d6000fd5b505050506040513d601f19601f820116820180604052508101906127529190614880565b9050600160009054906101000a900473ffffffffffffffffffffffffffffffffffffffff1673ffffffffffffffffffffffffffffffffffffffff1663e32e2bbc8686866040518463ffffffff1660e01b81526004016127b3939291906159b5565b600060405180830381600087803b1580156127cd57600080fd5b505af11580156127e1573d6000803e3d6000fd5b505050506000600160009054906101000a900473ffffffffffffffffffffffffffffffffffffffff1673ffffffffffffffffffffffffffffffffffffffff1663d5abeb016040518163ffffffff1660e01b8152600401602060405180830381865afa158015612854573d6000803e3d6000fd5b505050506040513d601f19601f820116820180604052508101906128789190614880565b9050818161288691906158fe565b90508363ffffffff168161289a9190615932565b90506128a581612ecf565b600c60006128b39190613686565b8067ffffffffffffffff8111156128cd576128cc6138fa565b5b6040519080825280602002602001820160405280156128fb5781602001602082028036833780820191505090505b50600c90805190602001906129119291906136a7565b5080600d81905550612924600e54612e65565b505050505050565b7fb19546dff01e856fb3f010c267a7b1c60363cf8a4664e21cc89c26224620214e81565b60025481565b60007f01ffc9a7000000000000000000000000000000000000000000000000000000007bffffffffffffffffffffffffffffffffffffffffffffffffffffffff1916827bffffffffffffffffffffffffffffffffffffffffffffffffffffffff1916149050919050565b60007f02dd7bc7dec4dceedda775e58dd541e08a116c6c53815c0bd028192f7b626800905090565b6129f9816129f4612d5b565b613111565b50565b60008060008314612a0f57829150612a1a565b612a17613162565b91505b60008054906101000a900473ffffffffffffffffffffffffffffffffffffffff1673ffffffffffffffffffffffffffffffffffffffff1663a144819430846040518363ffffffff1660e01b8152600401612a759291906159e7565b600060405180830381600087803b158015612a8f57600080fd5b505af1158015612aa3573d6000803e3d6000fd5b505050506000600167ffffffffffffffff811115612ac457612ac36138fa565b5b604051908082528060200260200182016040528015612af25781602001602082028036833780820191505090505b5090506000600167ffffffffffffffff811115612b1257612b116138fa565b5b604051908082528060200260200182016040528015612b405781602001602082028036833780820191505090505b509050600760020160009054906101000a900473ffffffffffffffffffffffffffffffffffffffff1682600081518110612b7d57612b7c615a10565b5b602002602001019073ffffffffffffffffffffffffffffffffffffffff16908173ffffffffffffffffffffffffffffffffffffffff168152505060025481600081518110612bce57612bcd615a10565b5b602002602001018181525050601060009054906101000a900460ff16612c4457612bfa84600b546132a7565b9250612c3f8383600360009054906101000a900473ffffffffffffffffffffffffffffffffffffffff1684604051806020016040528060008152506000806000613478565b612c52565b836000935093505050612c55565b50505b915091565b600080612c656129c0565b9050612c71848461179c565b612d4f57600181600001600086815260200190815260200160002060000160008573ffffffffffffffffffffffffffffffffffffffff1673ffffffffffffffffffffffffffffffffffffffff16815260200190815260200160002060006101000a81548160ff021916908315150217905550612ceb612d5b565b73ffffffffffffffffffffffffffffffffffffffff168373ffffffffffffffffffffffffffffffffffffffff16857f2f8788117e7eff1d82e926ec794901d17c78024a50270940304540a733656f0d60405160405180910390a46001915050612d55565b60009150505b92915050565b600033905090565b600080612d6e6129c0565b9050612d7a848461179c565b15612e5957600081600001600086815260200190815260200160002060000160008573ffffffffffffffffffffffffffffffffffffffff1673ffffffffffffffffffffffffffffffffffffffff16815260200190815260200160002060006101000a81548160ff021916908315150217905550612df5612d5b565b73ffffffffffffffffffffffffffffffffffffffff168373ffffffffffffffffffffffffffffffffffffffff16857ff6391f5c32d9c69d2a47ea670b442974b53935d1edc7fd64eb21e047a839171b60405160405180910390a46001915050612e5f565b60009150505b92915050565b80600e8190555060005b81811015612eb25780600d54612e8591906158fe565b600c8281548110612e9957612e98615a10565b5b9060005260206000200181905550806001019050612e6f565b5080600d6000828254612ec591906158fe565b9250508190555050565b600160009054906101000a900473ffffffffffffffffffffffffffffffffffffffff1673ffffffffffffffffffffffffffffffffffffffff16636f8b44b0826040518263ffffffff1660e01b8152600401612f2a9190613a9a565b600060405180830381600087803b158015612f4457600080fd5b505af1158015612f58573d6000803e3d6000fd5b5050505050565b60007fa16a46d94261c7517cc8ff89f61c0ce93598e3c849801011dee649a6a557d100905090565b60606000612f93612f5f565b9050806002018054612fa49061480a565b80601f0160208091040260200160405190810160405280929190818152602001828054612fd09061480a565b801561301d5780601f10612ff25761010080835404028352916020019161301d565b820191906000526020600020905b81548152906001019060200180831161300057829003601f168201915b505050505091505090565b60606000613034612f5f565b90508060030180546130459061480a565b80601f01602080910402602001604051908101604052809291908181526020018280546130719061480a565b80156130be5780601f10613093576101008083540402835291602001916130be565b820191906000526020600020905b8154815290600101906020018083116130a157829003601f168201915b505050505091505090565b60007ff0c57e16840df040f15088dc2f81fe391c3923bec73e23a9662efc9c229c6a00905090565b6130f9613517565b6131038282613557565b5050565b61310f613517565b565b61311b828261179c565b61315e5780826040517fe2517d3f000000000000000000000000000000000000000000000000000000008152600401613155929190615a3f565b60405180910390fd5b5050565b600080600d5442443360405160200161317d93929190615ad1565b6040516020818303038152906040528051906020012060001c6131a09190615b3d565b9050600080600c83815481106131b9576131b8615a10565b5b9060005260206000200154146131ed57600c82815481106131dd576131dc615a10565b5b90600052602060002001546131fb565b6001826131fa9190615932565b5b90506000600c6001600d5461321091906158fe565b8154811061322157613220615a10565b5b90600052602060002001541461326357600c6001600d5461324291906158fe565b8154811061325357613252615a10565b5b9060005260206000200154613267565b600d545b600c838154811061327b5761327a615a10565b5b9060005260206000200181905550600d6000815461329890615b6e565b91905081905550809250505090565b6000600460009054906101000a900473ffffffffffffffffffffffffffffffffffffffff1673ffffffffffffffffffffffffffffffffffffffff1663fca247ac4660008054906101000a900473ffffffffffffffffffffffffffffffffffffffff16866040518463ffffffff1660e01b815260040161332893929190615b97565b6020604051808303816000875af1158015613347573d6000803e3d6000fd5b505050506040513d601f19601f8201168201806040525081019061336b9190615bce565b90507fc5d2460186f7233c927e7db2dcc703c0e500b653ca82273b7bfad8045d85a470600a6040516020016133a09190615c89565b604051602081830303815290604052805190602001201415806133c857506000801b600b5414155b806133d657506000801b8214155b1561347257600560009054906101000a900473ffffffffffffffffffffffffffffffffffffffff1673ffffffffffffffffffffffffffffffffffffffff1663b76520c682600a600b54866040518563ffffffff1660e01b815260040161343f9493929190615d24565b600060405180830381600087803b15801561345957600080fd5b505af115801561346d573d6000803e3d6000fd5b505050505b92915050565b600660009054906101000a900473ffffffffffffffffffffffffffffffffffffffff1673ffffffffffffffffffffffffffffffffffffffff166371f6bea78989888a896040518663ffffffff1660e01b81526004016134db959493929190615e63565b600060405180830381600087803b1580156134f557600080fd5b505af1158015613509573d6000803e3d6000fd5b505050505050505050505050565b61351f6135ac565b613555576040517fd7e6bcf800000000000000000000000000000000000000000000000000000000815260040160405180910390fd5b565b61355f613517565b6000613569612f5f565b90508281600201908161357c9190615ecb565b508181600301908161358e9190615ecb565b506000801b81600001819055506000801b8160010181905550505050565b60006135b66130c9565b60000160089054906101000a900460ff16905090565b604051806101600160405280600015158152602001600060ff168152602001600063ffffffff168152602001600067ffffffffffffffff168152602001600067ffffffffffffffff16815260200160008152602001600073ffffffffffffffffffffffffffffffffffffffff168152602001600073ffffffffffffffffffffffffffffffffffffffff1681526020016000801916815260200160608152602001600060018111156136805761367f613e30565b5b81525090565b50805460008255906000526020600020908101906136a491906136f4565b50565b8280548282559060005260206000209081019282156136e3579160200282015b828111156136e25782518255916020019190600101906136c7565b5b5090506136f091906136f4565b5090565b5b8082111561370d5760008160009055506001016136f5565b5090565b6000604051905090565b600080fd5b600080fd5b60007fffffffff0000000000000000000000000000000000000000000000000000000082169050919050565b61375a81613725565b811461376557600080fd5b50565b60008135905061377781613751565b92915050565b6000602082840312156137935761379261371b565b5b60006137a184828501613768565b91505092915050565b60008115159050919050565b6137bf816137aa565b82525050565b60006020820190506137da60008301846137b6565b92915050565b600081519050919050565b600082825260208201905092915050565b60005b8381101561381a5780820151818401526020810190506137ff565b60008484015250505050565b6000601f19601f8301169050919050565b6000613842826137e0565b61384c81856137eb565b935061385c8185602086016137fc565b61386581613826565b840191505092915050565b6000602082019050818103600083015261388a8184613837565b905092915050565b600073ffffffffffffffffffffffffffffffffffffffff82169050919050565b60006138bd82613892565b9050919050565b6138cd816138b2565b81146138d857600080fd5b50565b6000813590506138ea816138c4565b92915050565b600080fd5b600080fd5b7f4e487b7100000000000000000000000000000000000000000000000000000000600052604160045260246000fd5b61393282613826565b810181811067ffffffffffffffff82111715613951576139506138fa565b5b80604052505050565b6000613964613711565b90506139708282613929565b919050565b600067ffffffffffffffff8211156139905761398f6138fa565b5b61399982613826565b9050602081019050919050565b82818337600083830152505050565b60006139c86139c384613975565b61395a565b9050828152602081018484840111156139e4576139e36138f5565b5b6139ef8482856139a6565b509392505050565b600082601f830112613a0c57613a0b6138f0565b5b8135613a1c8482602086016139b5565b91505092915050565b60008060408385031215613a3c57613a3b61371b565b5b6000613a4a858286016138db565b925050602083013567ffffffffffffffff811115613a6b57613a6a613720565b5b613a77858286016139f7565b9150509250929050565b6000819050919050565b613a9481613a81565b82525050565b6000602082019050613aaf6000830184613a8b565b92915050565b613abe816138b2565b82525050565b6000602082019050613ad96000830184613ab5565b92915050565b6000819050919050565b613af281613adf565b8114613afd57600080fd5b50565b600081359050613b0f81613ae9565b92915050565b600060208284031215613b2b57613b2a61371b565b5b6000613b3984828501613b00565b91505092915050565b613b4b81613adf565b82525050565b6000602082019050613b666000830184613b42565b92915050565b613b75816137aa565b8114613b8057600080fd5b50565b600081359050613b9281613b6c565b92915050565b60008060408385031215613baf57613bae61371b565b5b6000613bbd858286016138db565b9250506020613bce85828601613b83565b9150509250929050565b613be181613a81565b8114613bec57600080fd5b50565b600081359050613bfe81613bd8565b92915050565b60008060408385031215613c1b57613c1a61371b565b5b6000613c29858286016138db565b9250506020613c3a85828601613bef565b9150509250929050565b60008060408385031215613c5b57613c5a61371b565b5b6000613c6985828601613b00565b9250506020613c7a858286016138db565b9150509250929050565b600067ffffffffffffffff82169050919050565b613ca181613c84565b8114613cac57600080fd5b50565b600081359050613cbe81613c98565b92915050565b600080600060608486031215613cdd57613cdc61371b565b5b6000613ceb86828701613b83565b9350506020613cfc86828701613caf565b9250506040613d0d86828701613caf565b9150509250925092565b600060208284031215613d2d57613d2c61371b565b5b600082013567ffffffffffffffff811115613d4b57613d4a613720565b5b613d57848285016139f7565b91505092915050565b613d69816137aa565b82525050565b600060ff82169050919050565b613d8581613d6f565b82525050565b600063ffffffff82169050919050565b613da481613d8b565b82525050565b613db381613c84565b82525050565b613dc281613a81565b82525050565b613dd1816138b2565b82525050565b613de081613adf565b82525050565b600082825260208201905092915050565b6000613e02826137e0565b613e0c8185613de6565b9350613e1c8185602086016137fc565b613e2581613826565b840191505092915050565b7f4e487b7100000000000000000000000000000000000000000000000000000000600052602160045260246000fd5b60028110613e7057613e6f613e30565b5b50565b6000819050613e8182613e5f565b919050565b6000613e9182613e73565b9050919050565b613ea181613e86565b82525050565b600061016083016000830151613ec06000860182613d60565b506020830151613ed36020860182613d7c565b506040830151613ee66040860182613d9b565b506060830151613ef96060860182613daa565b506080830151613f0c6080860182613daa565b5060a0830151613f1f60a0860182613db9565b5060c0830151613f3260c0860182613dc8565b5060e0830151613f4560e0860182613dc8565b50610100830151613f5a610100860182613dd7565b50610120830151848203610120860152613f748282613df7565b915050610140830151613f8b610140860182613e98565b508091505092915050565b60006020820190508181036000830152613fb08184613ea7565b905092915050565b600080fd5b600080fd5b60008083601f840112613fd857613fd76138f0565b5b8235905067ffffffffffffffff811115613ff557613ff4613fb8565b5b60208301915083600182028301111561401157614010613fbd565b5b9250929050565b6000806000806000608086880312156140345761403361371b565b5b600086013567ffffffffffffffff81111561405257614051613720565b5b61405e88828901613fc2565b95509550506020614071888289016138db565b9350506040614082888289016138db565b925050606061409388828901613caf565b9150509295509295909350565b600080fd5b600061016082840312156140bc576140bb6140a0565b5b81905092915050565b6000602082840312156140db576140da61371b565b5b600082013567ffffffffffffffff8111156140f9576140f8613720565b5b614105848285016140a5565b91505092915050565b6000602082840312156141245761412361371b565b5b6000614132848285016138db565b91505092915050565b6000602082840312156141515761415061371b565b5b600061415f84828501613bef565b91505092915050565b60007fff0000000000000000000000000000000000000000000000000000000000000082169050919050565b61419d81614168565b82525050565b600081519050919050565b600082825260208201905092915050565b6000819050602082019050919050565b60006141db8383613db9565b60208301905092915050565b6000602082019050919050565b60006141ff826141a3565b61420981856141ae565b9350614214836141bf565b8060005b8381101561424557815161422c88826141cf565b9750614237836141e7565b925050600181019050614218565b5085935050505092915050565b600060e082019050614267600083018a614194565b81810360208301526142798189613837565b9050818103604083015261428d8188613837565b905061429c6060830187613a8b565b6142a96080830186613ab5565b6142b660a0830185613b42565b81810360c08301526142c881846141f4565b905098975050505050505050565b6000602082840312156142ec576142eb61371b565b5b60006142fa84828501613b83565b91505092915050565b60006060820190506143186000830186613ab5565b6143256020830185613a8b565b6143326040830184613ab5565b949350505050565b6000806000604084860312156143535761435261371b565b5b600084013567ffffffffffffffff81111561437157614370613720565b5b61437d86828701613fc2565b9350935050602061439086828701613b83565b9150509250925092565b60008083601f8401126143b0576143af6138f0565b5b8235905067ffffffffffffffff8111156143cd576143cc613fb8565b5b6020830191508360018202830111156143e9576143e8613fbd565b5b9250929050565b60008083601f840112614406576144056138f0565b5b8235905067ffffffffffffffff81111561442357614422613fb8565b5b60208301915083602082028301111561443f5761443e613fbd565b5b9250929050565b600060a0828403121561445c5761445b6140a0565b5b81905092915050565b6000806000806000806000610100888a0312156144855761448461371b565b5b600088013567ffffffffffffffff8111156144a3576144a2613720565b5b6144af8a828b01613fc2565b9750975050602088013567ffffffffffffffff8111156144d2576144d1613720565b5b6144de8a828b0161439a565b9550955050604088013567ffffffffffffffff81111561450157614500613720565b5b61450d8a828b016143f0565b935093505060606145208a828b01614446565b91505092959891949750929550565b60006040820190506145446000830185613a8b565b6145516020830184613ab5565b9392505050565b61456181613d6f565b811461456c57600080fd5b50565b60008135905061457e81614558565b92915050565b60008060006040848603121561459d5761459c61371b565b5b600084013567ffffffffffffffff8111156145bb576145ba613720565b5b6145c786828701613fc2565b935093505060206145da8682870161456f565b9150509250925092565b600061014082840312156145fb576145fa6140a0565b5b81905092915050565b600080600080600060a086880312156146205761461f61371b565b5b600061462e888289016138db565b955050602061463f888289016138db565b9450506040614650888289016138db565b9350506060614661888289016138db565b925050608086013567ffffffffffffffff81111561468257614681613720565b5b61468e888289016145e4565b9150509295509295909350565b600080600080606085870312156146b5576146b461371b565b5b600085013567ffffffffffffffff8111156146d3576146d2613720565b5b6146df87828801613fc2565b945094505060206146f287828801613caf565b925050604061470387828801613caf565b91505092959194509250565b600080604083850312156147265761472561371b565b5b6000614734858286016138db565b9250506020614745858286016138db565b9150509250929050565b61475881613d8b565b811461476357600080fd5b50565b6000813590506147758161474f565b92915050565b6000806000604084860312156147945761479361371b565b5b600084013567ffffffffffffffff8111156147b2576147b1613720565b5b6147be86828701613fc2565b935093505060206147d186828701614766565b9150509250925092565b7f4e487b7100000000000000000000000000000000000000000000000000000000600052602260045260246000fd5b6000600282049050600182168061482257607f821691505b602082108103614835576148346147db565b5b50919050565b60006040820190506148506000830185613ab5565b81810360208301526148628184613837565b90509392505050565b60008151905061487a81613bd8565b92915050565b6000602082840312156148965761489561371b565b5b60006148a48482850161486b565b91505092915050565b60006040820190506148c26000830185613ab5565b6148cf60208301846137b6565b9392505050565b7f496e76616c696420746f6b656e20494400000000000000000000000000000000600082015250565b600061490c6010836137eb565b9150614917826148d6565b602082019050919050565b6000602082019050818103600083015261493b816148ff565b9050919050565b60006060820190506149576000830186613ab5565b6149646020830185613ab5565b6149716040830184613a8b565b949350505050565b61498281613c84565b82525050565b600060608201905061499d60008301866137b6565b6149aa6020830185614979565b6149b76040830184614979565b949350505050565b600080fd5b600080fd5b6000815190506149d881613b6c565b92915050565b6000815190506149ed81614558565b92915050565b600081519050614a028161474f565b92915050565b600081519050614a1781613c98565b92915050565b600081519050614a2c816138c4565b92915050565b600081519050614a4181613ae9565b92915050565b6000614a5a614a5584613975565b61395a565b905082815260208101848484011115614a7657614a756138f5565b5b614a818482856137fc565b509392505050565b600082601f830112614a9e57614a9d6138f0565b5b8151614aae848260208601614a47565b91505092915050565b60028110614ac457600080fd5b50565b600081519050614ad681614ab7565b92915050565b60006101608284031215614af357614af26149bf565b5b614afe61016061395a565b90506000614b0e848285016149c9565b6000830152506020614b22848285016149de565b6020830152506040614b36848285016149f3565b6040830152506060614b4a84828501614a08565b6060830152506080614b5e84828501614a08565b60808301525060a0614b728482850161486b565b60a08301525060c0614b8684828501614a1d565b60c08301525060e0614b9a84828501614a1d565b60e083015250610100614baf84828501614a32565b6101008301525061012082015167ffffffffffffffff811115614bd557614bd46149c4565b5b614be184828501614a89565b61012083015250610140614bf784828501614ac7565b6101408301525092915050565b600060208284031215614c1a57614c1961371b565b5b600082015167ffffffffffffffff811115614c3857614c37613720565b5b614c4484828501614adc565b91505092915050565b6000614c5983856137eb565b9350614c668385846139a6565b614c6f83613826565b840190509392505050565b6000819050919050565b6000614c9f614c9a614c9584613c84565b614c7a565b613a81565b9050919050565b614caf81614c84565b82525050565b60006080820190508181036000830152614cd0818789614c4d565b9050614cdf6020830186613ab5565b614cec6040830185613ab5565b614cf96060830184614ca6565b9695505050505050565b6000614d126020840184613b83565b905092915050565b6000614d29602084018461456f565b905092915050565b6000614d406020840184614766565b905092915050565b6000614d576020840184613caf565b905092915050565b6000614d6e6020840184613bef565b905092915050565b6000614d8560208401846138db565b905092915050565b6000614d9c6020840184613b00565b905092915050565b600080fd5b600080fd5b600080fd5b60008083356001602003843603038112614dd057614dcf614dae565b5b83810192508235915060208301925067ffffffffffffffff821115614df857614df7614da4565b5b600182023603831315614e0e57614e0d614da9565b5b509250929050565b6000614e228385613de6565b9350614e2f8385846139a6565b614e3883613826565b840190509392505050565b600081359050614e5281614ab7565b92915050565b6000614e676020840184614e43565b905092915050565b60006101608301614e836000840184614d03565b614e906000860182613d60565b50614e9e6020840184614d1a565b614eab6020860182613d7c565b50614eb96040840184614d31565b614ec66040860182613d9b565b50614ed46060840184614d48565b614ee16060860182613daa565b50614eef6080840184614d48565b614efc6080860182613daa565b50614f0a60a0840184614d5f565b614f1760a0860182613db9565b50614f2560c0840184614d76565b614f3260c0860182613dc8565b50614f4060e0840184614d76565b614f4d60e0860182613dc8565b50614f5c610100840184614d8d565b614f6a610100860182613dd7565b50614f79610120840184614db3565b858303610120870152614f8d838284614e16565b92505050614f9f610140840184614e58565b614fad610140860182613e98565b508091505092915050565b60006020820190508181036000830152614fd28184614e6f565b905092915050565b7f4549503731323a20556e696e697469616c697a65640000000000000000000000600082015250565b60006150106015836137eb565b915061501b82614fda565b602082019050919050565b6000602082019050818103600083015261503f81615003565b9050919050565b60006040820190508181036000830152615061818587614c4d565b905061507060208301846137b6565b949350505050565b600082825260208201905092915050565b600080fd5b82818337505050565b60006150a38385615078565b93507f07ffffffffffffffffffffffffffffffffffffffffffffffffffffffffffffff8311156150d6576150d5615089565b5b6020830292506150e783858461508e565b82840190509392505050565b600082825260208201905092915050565b600061511083856150f3565b935061511d8385846139a6565b61512683613826565b840190509392505050565b60a082016151426000830183614d5f565b61514f6000850182613db9565b5061515d6020830183614d5f565b61516a6020850182613db9565b506151786040830183614d5f565b6151856040850182613db9565b506151936060830183614d5f565b6151a06060850182613db9565b506151ae6080830183614d76565b6151bb6080850182613dc8565b50505050565b60006101008201905081810360008301526151dd81898b614c4d565b905081810360208301526151f2818789615097565b90508181036040830152615207818587615104565b90506152166060830184615131565b98975050505050505050565b6000602082019050818103600083015261523d818486614c4d565b90509392505050565b7f4e487b7100000000000000000000000000000000000000000000000000000000600052601160045260246000fd5b600061528082613a81565b915061528b83613a81565b925082820261529981613a81565b915082820484148315176152b0576152af615246565b5b5092915050565b6000602082840312156152cd576152cc61371b565b5b60006152db848285016149c9565b91505092915050565b7f5472616e73666572204552433230206661696c65640000000000000000000000600082015250565b600061531a6015836137eb565b9150615325826152e4565b602082019050919050565b600060208201905081810360008301526153498161530d565b9050919050565b7f496e636f7272656374206e6174697665207061796d656e7420616d6f756e7400600082015250565b6000615386601f836137eb565b915061539182615350565b602082019050919050565b600060208201905081810360008301526153b581615379565b9050919050565b6153c581613d6f565b82525050565b600060408201905081810360008301526153e6818587614c4d565b90506153f560208301846153bc565b949350505050565b6000813561540a816138c4565b80915050919050565b60008160001b9050919050565b600073ffffffffffffffffffffffffffffffffffffffff61544084615413565b9350801983169250808416831791505092915050565b600061547161546c61546784613892565b614c7a565b613892565b9050919050565b600061548382615456565b9050919050565b600061549582615478565b9050919050565b6000819050919050565b6154af8261548a565b6154c26154bb8261549c565b8354615420565b8255505050565b600081356154d681613bd8565b80915050919050565b60007fffffffffffffffffffffffffffffffffffffffffffffffffffffffffffffffff61550b84615413565b9350801983169250808416831791505092915050565b600061553c61553761553284613a81565b614c7a565b613a81565b9050919050565b6000819050919050565b61555682615521565b61556961556282615543565b83546154df565b8255505050565b600081016000830180615582816153fd565b905061558e81846154a6565b5050506001810160208301806155a3816154c9565b90506155af818461554d565b5050506002810160408301806155c4816153fd565b90506155d081846154a6565b5050505050565b6155e18282615570565b5050565b600080fd5b600080fd5b600080fd5b60008083356001602003843603038112615611576156106155e5565b5b80840192508235915067ffffffffffffffff821115615633576156326155ea565b5b60208301925060018202360383131561564f5761564e6155ef565b5b509250929050565b600082905092915050565b60008190508160005260206000209050919050565b60006020601f8301049050919050565b600082821b905092915050565b6000600883026156c47fffffffffffffffffffffffffffffffffffffffffffffffffffffffffffffffff82615687565b6156ce8683615687565b95508019841693508086168417925050509392505050565b6156ef83615521565b6157036156fb82615543565b848454615694565b825550505050565b600090565b61571861570b565b6157238184846156e6565b505050565b5b818110156157475761573c600082615710565b600181019050615729565b5050565b601f82111561578c5761575d81615662565b61576684615677565b81016020851015615775578190505b61578961578185615677565b830182615728565b50505b505050565b600082821c905092915050565b60006157af60001984600802615791565b1980831691505092915050565b60006157c8838361579e565b9150826002028217905092915050565b6157e28383615657565b67ffffffffffffffff8111156157fb576157fa6138fa565b5b615805825461480a565b61581082828561574b565b6000601f83116001811461583f576000841561582d578287013590505b61583785826157bc565b86555061589f565b601f19841661584d86615662565b60005b8281101561587557848901358255600182019150602085019450602081019050615850565b86831015615892578489013561588e601f89168261579e565b8355505b6001600288020188555050505b50505050505050565b6000819050919050565b60006158cd6158c86158c3846158a8565b614c7a565b613c84565b9050919050565b6158dd816158b2565b82525050565b60006020820190506158f860008301846158d4565b92915050565b600061590982613a81565b915061591483613a81565b925082820390508181111561592c5761592b615246565b5b92915050565b600061593d82613a81565b915061594883613a81565b92508282019050808211156159605761595f615246565b5b92915050565b60006060820190508181036000830152615981818688614c4d565b90506159906020830185614979565b61599d6040830184614979565b95945050505050565b6159af81613d8b565b82525050565b600060408201905081810360008301526159d0818587614c4d565b90506159df60208301846159a6565b949350505050565b60006040820190506159fc6000830185613ab5565b615a096020830184613a8b565b9392505050565b7f4e487b7100000000000000000000000000000000000000000000000000000000600052603260045260246000fd5b6000604082019050615a546000830185613ab5565b615a616020830184613b42565b9392505050565b6000819050919050565b615a83615a7e82613a81565b615a68565b82525050565b60008160601b9050919050565b6000615aa182615a89565b9050919050565b6000615ab382615a96565b9050919050565b615acb615ac6826138b2565b615aa8565b82525050565b6000615add8286615a72565b602082019150615aed8285615a72565b602082019150615afd8284615aba565b601482019150819050949350505050565b7f4e487b7100000000000000000000000000000000000000000000000000000000600052601260045260246000fd5b6000615b4882613a81565b9150615b5383613a81565b925082615b6357615b62615b0e565b5b828206905092915050565b6000615b7982613a81565b915060008203615b8c57615b8b615246565b5b600182039050919050565b6000606082019050615bac6000830186613a8b565b615bb96020830185613ab5565b615bc66040830184613a8b565b949350505050565b600060208284031215615be457615be361371b565b5b6000615bf284828501614a1d565b91505092915050565b600081905092915050565b60008154615c138161480a565b615c1d8186615bfb565b94506001821660008114615c385760018114615c4d57615c80565b60ff1983168652811515820286019350615c80565b615c5685615662565b60005b83811015615c7857815481890152600182019150602081019050615c59565b838801955050505b50505092915050565b6000615c958284615c06565b915081905092915050565b60008154615cad8161480a565b615cb781866137eb565b94506001821660008114615cd25760018114615ce857615d1b565b60ff198316865281151560200286019350615d1b565b615cf185615662565b60005b83811015615d1357815481890152600182019150602081019050615cf4565b808801955050505b50505092915050565b6000608082019050615d396000830187613ab5565b8181036020830152615d4b8186615ca0565b9050615d5a6040830185613b42565b615d676060830184613b42565b95945050505050565b600081519050919050565b600082825260208201905092915050565b6000819050602082019050919050565b6000615da88383613dc8565b60208301905092915050565b6000602082019050919050565b6000615dcc82615d70565b615dd68185615d7b565b9350615de183615d8c565b8060005b83811015615e12578151615df98882615d9c565b9750615e0483615db4565b925050600181019050615de5565b5085935050505092915050565b600081519050919050565b6000615e3582615e1f565b615e3f81856150f3565b9350615e4f8185602086016137fc565b615e5881613826565b840191505092915050565b600060a082019050615e786000830188613ab5565b8181036020830152615e8a8187615dc1565b90508181036040830152615e9e81866141f4565b9050615ead6060830185613ab5565b8181036080830152615ebf8184615e2a565b90509695505050505050565b615ed4826137e0565b67ffffffffffffffff811115615eed57615eec6138fa565b5b615ef7825461480a565b615f0282828561574b565b600060209050601f831160018114615f355760008415615f23578287015190505b615f2d85826157bc565b865550615f95565b601f198416615f4386615662565b60005b82811015615f6b57848901518255600182019150602085019450602081019050615f46565b86831015615f885784890151615f84601f89168261579e565b8355505b6001600288020188555050505b50505050505056fea2646970667358221220f2ad7f2e17468db722eacd14cc216173c14d270b04fe34915a6e2d7c551d936c64736f6c634300081a0033",
  "devdoc": {
    "errors": {
      "AccessControlBadConfirmation()": [
        {
          "details": "The caller of a function is not the expected one. NOTE: Don't confuse with {AccessControlUnauthorizedAccount}."
        }
      ],
      "AccessControlUnauthorizedAccount(address,bytes32)": [
        {
          "details": "The `account` is missing a role."
        }
      ],
      "InvalidInitialization()": [
        {
          "details": "The contract is already initialized."
        }
      ],
      "NotInitializing()": [
        {
          "details": "The contract is not initializing."
        }
      ]
    },
    "events": {
      "EIP712DomainChanged()": {
        "details": "MAY be emitted to signal that the domain could have changed."
      },
      "Initialized(uint64)": {
        "details": "Triggered when the contract has been initialized or reinitialized."
      },
      "NFTMinted(address,uint256,address)": {
        "params": {
          "ipId": "The ID of the NFT IP.",
          "recipient": "The address of the recipient of the NFT.",
          "tokenId": "The token ID of the minted NFT."
        }
      },
      "RoleAdminChanged(bytes32,bytes32,bytes32)": {
        "details": "Emitted when `newAdminRole` is set as ``role``'s admin role, replacing `previousAdminRole` `DEFAULT_ADMIN_ROLE` is the starting admin for all roles, despite {RoleAdminChanged} not being emitted signaling this."
      },
      "RoleGranted(bytes32,address,address)": {
        "details": "Emitted when `account` is granted `role`. `sender` is the account that originated the contract call. This account bears the admin role (for the granted role). Expected in cases where the role was granted using the internal {AccessControl-_grantRole}."
      },
      "RoleRevoked(bytes32,address,address)": {
        "details": "Emitted when `account` is revoked `role`. `sender` is the account that originated the contract call:   - if using `revokeRole`, it is the admin role bearer   - if using `renounceRole`, it is the role bearer (i.e. `account`)"
      }
    },
    "kind": "dev",
    "methods": {
      "constructor": {
        "custom:oz-upgrades-unsafe-allow": "constructor"
      },
      "eip712Domain()": {
        "details": "See {IERC-5267}."
      },
      "enableTestMode(bool)": {
        "params": {
          "isTest_": "Whether to enable the test mode."
        }
      },
      "getRoleAdmin(bytes32)": {
        "details": "Returns the admin role that controls `role`. See {grantRole} and {revokeRole}. To change a role's admin, use {_setRoleAdmin}."
      },
      "grantRole(bytes32,address)": {
        "details": "Grants `role` to `account`. If `account` had not been already granted `role`, emits a {RoleGranted} event. Requirements: - the caller must have ``role``'s admin role. May emit a {RoleGranted} event."
      },
      "hasRole(bytes32,address)": {
        "details": "Returns `true` if `account` has been granted `role`."
      },
      "mint(string,bytes,bytes32[],(uint256,uint256,uint256,uint256,address))": {
        "params": {
          "mintparams": "The mint parameter signer sign the caller's address (msg.sender) for this `mint` function.",
          "proof": "The proof for the leaf of the allowlist in a stage if mint type is Allowlist.",
          "signature": "The signature from the whitelist signer. This signautre is genreated by having the whitelist",
          "stage": "Identification of the stage"
        },
        "returns": {
          "ipId": "The ID of the NFT IP.",
          "tokenId": "The token ID of the minted NFT."
        }
      },
      "mintRecord(address,string)": {
        "params": {
          "stage": "The stage name",
          "to": "Inquiry address"
        }
      },
      "preMint(address,uint256)": {
        "params": {
          "to": "The recipient of the minted NFT.",
          "tokenId_": "The token ID of the minted NFT."
        }
      },
      "renounceRole(bytes32,address)": {
        "details": "Revokes `role` from the calling account. Roles are often managed via {grantRole} and {revokeRole}: this function's purpose is to provide a mechanism for accounts to lose their privileges if they are compromised (such as when a trusted device is misplaced). If the calling account had been revoked `role`, emits a {RoleRevoked} event. Requirements: - the caller must be `callerConfirmation`. May emit a {RoleRevoked} event."
      },
      "revokeRole(bytes32,address)": {
        "details": "Revokes `role` from `account`. If `account` had been granted `role`, emits a {RoleRevoked} event. Requirements: - the caller must have ``role``'s admin role. May emit a {RoleRevoked} event."
      },
      "setActiveSigner(address,bool)": {
        "params": {
          "signer": "Signer address.",
          "status": "Effective status."
        }
      },
      "setContracts(address,address)": {
        "params": {
          "multiRoundContract": "The new MultiRound contract address.",
          "nftContract": "The new NFT contract address."
        }
      },
      "setMaxSupply(uint256)": {
        "params": {
          "newMaxSupply": "The new maximum number of nfts that can be minted."
        }
      },
      "setPreMintedCount(uint256)": {
        "params": {
          "count": "The number of pre-minted NFTs"
        }
      },
      "setSigner(address)": {
        "params": {
          "signer_": "The new whitelist signer address."
        }
      },
      "setStageEnableSig(string,bool)": {
        "params": {
          "enableSig": "Whether to enable (true, false).",
          "stage": "Round identification."
        }
      },
      "setStageMaxSupply(string,uint32)": {
        "params": {
          "maxSupply": "nft maximum supply.",
          "stage": "Round identification."
        }
      },
      "setStageMintInfo((bool,uint8,uint32,uint64,uint64,uint256,address,address,bytes32,string,uint8))": {
        "params": {
          "stageMintInfo": "The mint information for the stage."
        }
      },
      "setStageMintLimitationPerAddress(string,uint8)": {
        "params": {
          "mintLimitationPerAddress": "Single address mint limit.",
          "stage": "Round identification."
        }
      },
      "setStageMintTime(string,uint64,uint64)": {
        "params": {
          "endTime": "The end time of the stage.",
          "stage": "Round identification.",
          "startTime": "The start time of the stage."
        }
      },
      "setStagePayment(string,address,address,uint64)": {
        "params": {
          "payeeAddress": "Payment address.",
          "paymentToken": "Token contract address for payment (if 0, it is a native token).",
          "price": "Single nft price.",
          "stage": "Round identification."
        }
      },
      "setTransferRestricted(bool,uint64,uint64)": {
        "params": {
          "endTime": "End time.",
          "isTransferRestricted_": "Whether to restrict transfer.",
          "startTime": "Start time."
        }
      },
      "stageToMint(string)": {
        "params": {
          "stage": "The stage name"
        }
      },
      "stageToTotalSupply(string)": {
        "params": {
          "stage": "The stage name"
        }
      },
      "supportsInterface(bytes4)": {
        "details": "See {IERC165-supportsInterface}."
      }
    },
    "stateVariables": {
      "isTest": {
        "details": "This flag is false by default. It should be set to true only when testing.This flag will disable the IP registration and derivative creation."
      }
    },
    "version": 1
  },
  "userdoc": {
    "events": {
      "NFTMinted(address,uint256,address)": {
        "notice": "Emitted when a NFT is minted."
      }
    },
    "kind": "user",
    "methods": {
      "CORE_METADATA_MODULE()": {
        "notice": "The Core Metadata Module contract address."
      },
      "DEFAULT_LICENSE_TERMS_ID()": {
        "notice": "The default license terms ID."
      },
      "IP_ASSET_REGISTRY()": {
        "notice": "The IP Asset Registry contract address."
      },
      "LICENSING_MODULE()": {
        "notice": "The Licensing Module contract address."
      },
      "MULTIROUND_CONTRACT()": {
        "notice": "We need a MultiRound contract to manage rounds"
      },
      "NFT_CONTRACT()": {
        "notice": "We need a NFT contract to mint NFTs"
      },
      "PIL_TEMPLATE()": {
        "notice": "Story Proof-of-Creativity PILicense Template address."
      },
      "enableTestMode(bool)": {
        "notice": "Enable the test mode."
      },
      "ipMetadataURI()": {
        "notice": "IP information"
      },
      "isTest()": {
        "notice": "This flag is used for testing purposes due to the IP workflows contracts deployment."
      },
      "lastMintedTokenId()": {
        "notice": "Last minted token ID"
      },
      "maxSupply()": {
        "notice": "Query the maximum number of nfts that can be minted"
      },
      "mint(string,bytes,bytes32[],(uint256,uint256,uint256,uint256,address))": {
        "notice": "Mints a NFT for the given recipient, registers it as an IP,         and makes it a derivative of the organization IP."
      },
      "mintRecord(address,string)": {
        "notice": "Query the quantity that has been minted at a certain stage at a certain address"
      },
      "preMint(address,uint256)": {
        "notice": "Pre-Mints a NFT with specified tokenID for the given recipient, registers it as an IP,         and makes it a derivative of the organization IP."
      },
      "preMintedCount()": {
        "notice": "Number of pre-minted NFTs"
      },
      "rootNFT()": {
        "notice": "Root NFT"
      },
      "setActiveSigner(address,bool)": {
        "notice": "Set a valid signer address.     If the address has been configured, it is a modify function.abi     If the address has not been configured, then it is and add function to configure the address."
      },
      "setContracts(address,address)": {
        "notice": "Updates the MULTIROUND_CONTRACT and the NFT_CONTRACT addresses."
      },
      "setMaxSupply(uint256)": {
        "notice": "Configure or update the maximum number of nfts that can be minted."
      },
      "setPreMintedCount(uint256)": {
        "notice": "Set number of pre-minted NFTs"
      },
      "setSigner(address)": {
        "notice": "Updates the whitelist signer."
      },
      "setStageEnableSig(string,bool)": {
        "notice": "Set whether server level signing is enabled for a specific round according to the stage"
      },
      "setStageMaxSupply(string,uint32)": {
        "notice": "According to the stage, set the maximum nft supply for a specific round."
      },
      "setStageMintInfo((bool,uint8,uint32,uint64,uint64,uint256,address,address,bytes32,string,uint8))": {
        "notice": "Configure or update the information of a certain round according to the stage"
      },
      "setStageMintLimitationPerAddress(string,uint8)": {
        "notice": "Set the upper limit of the number of mints per address for a specific round according to the stage"
      },
      "setStageMintTime(string,uint64,uint64)": {
        "notice": "Configure or update the mint time for a specific stage."
      },
      "setStagePayment(string,address,address,uint64)": {
        "notice": "Set payment information for a specific round based on the stage"
      },
      "setTransferRestricted(bool,uint64,uint64)": {
        "notice": "Set whether to restrict transfer, if configured to true, transfer is not allowed.     Otherwise, transfer is allowed."
      },
      "stageToMint(string)": {
        "notice": "Query configuration information for a specific stage"
      },
      "stageToTotalSupply(string)": {
        "notice": "Query the total number of minted under the current stage"
      },
      "totalSupply()": {
        "notice": "Query the total mint quantity"
      }
    },
    "version": 1
  },
  "storageLayout": {
    "storage": [
      {
        "astId": 10519,
        "contract": "contracts/MimbokuMultiround.sol:MimbokuMultiround",
        "label": "NFT_CONTRACT",
        "offset": 0,
        "slot": "0",
        "type": "t_address"
      },
      {
        "astId": 10522,
        "contract": "contracts/MimbokuMultiround.sol:MimbokuMultiround",
        "label": "MULTIROUND_CONTRACT",
        "offset": 0,
        "slot": "1",
        "type": "t_address"
      },
      {
        "astId": 10525,
        "contract": "contracts/MimbokuMultiround.sol:MimbokuMultiround",
        "label": "DEFAULT_LICENSE_TERMS_ID",
        "offset": 0,
        "slot": "2",
        "type": "t_uint256"
      },
      {
        "astId": 10528,
        "contract": "contracts/MimbokuMultiround.sol:MimbokuMultiround",
        "label": "PIL_TEMPLATE",
        "offset": 0,
        "slot": "3",
        "type": "t_address"
      },
      {
        "astId": 10531,
        "contract": "contracts/MimbokuMultiround.sol:MimbokuMultiround",
        "label": "IP_ASSET_REGISTRY",
        "offset": 0,
        "slot": "4",
        "type": "t_address"
      },
      {
        "astId": 10534,
        "contract": "contracts/MimbokuMultiround.sol:MimbokuMultiround",
        "label": "CORE_METADATA_MODULE",
        "offset": 0,
        "slot": "5",
        "type": "t_address"
      },
      {
        "astId": 10537,
        "contract": "contracts/MimbokuMultiround.sol:MimbokuMultiround",
        "label": "LICENSING_MODULE",
        "offset": 0,
        "slot": "6",
        "type": "t_address"
      },
      {
        "astId": 10541,
        "contract": "contracts/MimbokuMultiround.sol:MimbokuMultiround",
        "label": "rootNFT",
        "offset": 0,
        "slot": "7",
        "type": "t_struct(RootNFT)11636_storage"
      },
      {
        "astId": 10544,
        "contract": "contracts/MimbokuMultiround.sol:MimbokuMultiround",
        "label": "ipMetadataURI",
        "offset": 0,
        "slot": "10",
        "type": "t_string_storage"
      },
      {
        "astId": 10546,
        "contract": "contracts/MimbokuMultiround.sol:MimbokuMultiround",
        "label": "ipMetadataHash",
        "offset": 0,
        "slot": "11",
        "type": "t_bytes32"
      },
      {
        "astId": 10550,
        "contract": "contracts/MimbokuMultiround.sol:MimbokuMultiround",
        "label": "remainingTokenIds",
        "offset": 0,
        "slot": "12",
        "type": "t_array(t_uint256)dyn_storage"
      },
      {
        "astId": 10553,
        "contract": "contracts/MimbokuMultiround.sol:MimbokuMultiround",
        "label": "remainingTokenIdCount",
        "offset": 0,
        "slot": "13",
        "type": "t_uint256"
      },
      {
        "astId": 10556,
        "contract": "contracts/MimbokuMultiround.sol:MimbokuMultiround",
        "label": "preMintedCount",
        "offset": 0,
        "slot": "14",
        "type": "t_uint256"
      },
      {
        "astId": 10559,
        "contract": "contracts/MimbokuMultiround.sol:MimbokuMultiround",
        "label": "lastMintedTokenId",
        "offset": 0,
        "slot": "15",
        "type": "t_uint256"
      },
      {
        "astId": 10562,
        "contract": "contracts/MimbokuMultiround.sol:MimbokuMultiround",
        "label": "isTest",
        "offset": 0,
        "slot": "16",
        "type": "t_bool"
      }
    ],
    "types": {
      "t_address": {
        "encoding": "inplace",
        "label": "address",
        "numberOfBytes": "20"
      },
      "t_array(t_uint256)dyn_storage": {
        "base": "t_uint256",
        "encoding": "dynamic_array",
        "label": "uint256[]",
        "numberOfBytes": "32"
      },
      "t_bool": {
        "encoding": "inplace",
        "label": "bool",
        "numberOfBytes": "1"
      },
      "t_bytes32": {
        "encoding": "inplace",
        "label": "bytes32",
        "numberOfBytes": "32"
      },
      "t_string_storage": {
        "encoding": "bytes",
        "label": "string",
        "numberOfBytes": "32"
      },
      "t_struct(RootNFT)11636_storage": {
        "encoding": "inplace",
        "label": "struct IMimbokuMultiround.RootNFT",
        "members": [
          {
            "astId": 11631,
            "contract": "contracts/MimbokuMultiround.sol:MimbokuMultiround",
            "label": "contractAddress",
            "offset": 0,
            "slot": "0",
            "type": "t_address"
          },
          {
            "astId": 11633,
            "contract": "contracts/MimbokuMultiround.sol:MimbokuMultiround",
            "label": "tokenId",
            "offset": 0,
            "slot": "1",
            "type": "t_uint256"
          },
          {
            "astId": 11635,
            "contract": "contracts/MimbokuMultiround.sol:MimbokuMultiround",
            "label": "ipId",
            "offset": 0,
            "slot": "2",
            "type": "t_address"
          }
        ],
        "numberOfBytes": "96"
      },
      "t_uint256": {
        "encoding": "inplace",
        "label": "uint256",
        "numberOfBytes": "32"
      }
    }
  }
}