{
  "address": "0x19812aCDa59472F015Ba3313891D1998DfBFBc1B",
  "abi": [
    {
      "inputs": [],
      "stateMutability": "nonpayable",
      "type": "constructor"
    },
    {
      "inputs": [],
      "name": "AccessControlBadConfirmation",
      "type": "error"
    },
    {
      "inputs": [
        {
          "internalType": "address",
          "name": "account",
          "type": "address"
        },
        {
          "internalType": "bytes32",
          "name": "neededRole",
          "type": "bytes32"
        }
      ],
      "name": "AccessControlUnauthorizedAccount",
      "type": "error"
    },
    {
      "inputs": [
        {
          "internalType": "uint256",
          "name": "numerator",
          "type": "uint256"
        },
        {
          "internalType": "uint256",
          "name": "denominator",
          "type": "uint256"
        }
      ],
      "name": "ERC2981InvalidDefaultRoyalty",
      "type": "error"
    },
    {
      "inputs": [
        {
          "internalType": "address",
          "name": "receiver",
          "type": "address"
        }
      ],
      "name": "ERC2981InvalidDefaultRoyaltyReceiver",
      "type": "error"
    },
    {
      "inputs": [
        {
          "internalType": "uint256",
          "name": "tokenId",
          "type": "uint256"
        },
        {
          "internalType": "uint256",
          "name": "numerator",
          "type": "uint256"
        },
        {
          "internalType": "uint256",
          "name": "denominator",
          "type": "uint256"
        }
      ],
      "name": "ERC2981InvalidTokenRoyalty",
      "type": "error"
    },
    {
      "inputs": [
        {
          "internalType": "uint256",
          "name": "tokenId",
          "type": "uint256"
        },
        {
          "internalType": "address",
          "name": "receiver",
          "type": "address"
        }
      ],
      "name": "ERC2981InvalidTokenRoyaltyReceiver",
      "type": "error"
    },
    {
      "inputs": [],
      "name": "ERC721EnumerableForbiddenBatchMint",
      "type": "error"
    },
    {
      "inputs": [
        {
          "internalType": "address",
          "name": "sender",
          "type": "address"
        },
        {
          "internalType": "uint256",
          "name": "tokenId",
          "type": "uint256"
        },
        {
          "internalType": "address",
          "name": "owner",
          "type": "address"
        }
      ],
      "name": "ERC721IncorrectOwner",
      "type": "error"
    },
    {
      "inputs": [
        {
          "internalType": "address",
          "name": "operator",
          "type": "address"
        },
        {
          "internalType": "uint256",
          "name": "tokenId",
          "type": "uint256"
        }
      ],
      "name": "ERC721InsufficientApproval",
      "type": "error"
    },
    {
      "inputs": [
        {
          "internalType": "address",
          "name": "approver",
          "type": "address"
        }
      ],
      "name": "ERC721InvalidApprover",
      "type": "error"
    },
    {
      "inputs": [
        {
          "internalType": "address",
          "name": "operator",
          "type": "address"
        }
      ],
      "name": "ERC721InvalidOperator",
      "type": "error"
    },
    {
      "inputs": [
        {
          "internalType": "address",
          "name": "owner",
          "type": "address"
        }
      ],
      "name": "ERC721InvalidOwner",
      "type": "error"
    },
    {
      "inputs": [
        {
          "internalType": "address",
          "name": "receiver",
          "type": "address"
        }
      ],
      "name": "ERC721InvalidReceiver",
      "type": "error"
    },
    {
      "inputs": [
        {
          "internalType": "address",
          "name": "sender",
          "type": "address"
        }
      ],
      "name": "ERC721InvalidSender",
      "type": "error"
    },
    {
      "inputs": [
        {
          "internalType": "uint256",
          "name": "tokenId",
          "type": "uint256"
        }
      ],
      "name": "ERC721NonexistentToken",
      "type": "error"
    },
    {
      "inputs": [
        {
          "internalType": "address",
          "name": "owner",
          "type": "address"
        },
        {
          "internalType": "uint256",
          "name": "index",
          "type": "uint256"
        }
      ],
      "name": "ERC721OutOfBoundsIndex",
      "type": "error"
    },
    {
      "inputs": [],
      "name": "InvalidInitialization",
      "type": "error"
    },
    {
      "inputs": [],
      "name": "NotInitializing",
      "type": "error"
    },
    {
      "anonymous": false,
      "inputs": [
        {
          "indexed": true,
          "internalType": "address",
          "name": "owner",
          "type": "address"
        },
        {
          "indexed": true,
          "internalType": "address",
          "name": "approved",
          "type": "address"
        },
        {
          "indexed": true,
          "internalType": "uint256",
          "name": "tokenId",
          "type": "uint256"
        }
      ],
      "name": "Approval",
      "type": "event"
    },
    {
      "anonymous": false,
      "inputs": [
        {
          "indexed": true,
          "internalType": "address",
          "name": "owner",
          "type": "address"
        },
        {
          "indexed": true,
          "internalType": "address",
          "name": "operator",
          "type": "address"
        },
        {
          "indexed": false,
          "internalType": "bool",
          "name": "approved",
          "type": "bool"
        }
      ],
      "name": "ApprovalForAll",
      "type": "event"
    },
    {
      "anonymous": false,
      "inputs": [
        {
          "indexed": false,
          "internalType": "uint64",
          "name": "version",
          "type": "uint64"
        }
      ],
      "name": "Initialized",
      "type": "event"
    },
    {
      "anonymous": false,
      "inputs": [
        {
          "indexed": true,
          "internalType": "bytes32",
          "name": "role",
          "type": "bytes32"
        },
        {
          "indexed": true,
          "internalType": "bytes32",
          "name": "previousAdminRole",
          "type": "bytes32"
        },
        {
          "indexed": true,
          "internalType": "bytes32",
          "name": "newAdminRole",
          "type": "bytes32"
        }
      ],
      "name": "RoleAdminChanged",
      "type": "event"
    },
    {
      "anonymous": false,
      "inputs": [
        {
          "indexed": true,
          "internalType": "bytes32",
          "name": "role",
          "type": "bytes32"
        },
        {
          "indexed": true,
          "internalType": "address",
          "name": "account",
          "type": "address"
        },
        {
          "indexed": true,
          "internalType": "address",
          "name": "sender",
          "type": "address"
        }
      ],
      "name": "RoleGranted",
      "type": "event"
    },
    {
      "anonymous": false,
      "inputs": [
        {
          "indexed": true,
          "internalType": "bytes32",
          "name": "role",
          "type": "bytes32"
        },
        {
          "indexed": true,
          "internalType": "address",
          "name": "account",
          "type": "address"
        },
        {
          "indexed": true,
          "internalType": "address",
          "name": "sender",
          "type": "address"
        }
      ],
      "name": "RoleRevoked",
      "type": "event"
    },
    {
      "anonymous": false,
      "inputs": [
        {
          "indexed": true,
          "internalType": "address",
          "name": "from",
          "type": "address"
        },
        {
          "indexed": true,
          "internalType": "address",
          "name": "to",
          "type": "address"
        },
        {
          "indexed": true,
          "internalType": "uint256",
          "name": "tokenId",
          "type": "uint256"
        }
      ],
      "name": "Transfer",
      "type": "event"
    },
    {
      "inputs": [],
      "name": "DEFAULT_ADMIN_ROLE",
      "outputs": [
        {
          "internalType": "bytes32",
          "name": "",
          "type": "bytes32"
        }
      ],
      "stateMutability": "view",
      "type": "function"
    },
    {
      "inputs": [],
      "name": "MINTER_ROLE",
      "outputs": [
        {
          "internalType": "bytes32",
          "name": "",
          "type": "bytes32"
        }
      ],
      "stateMutability": "view",
      "type": "function"
    },
    {
      "inputs": [
        {
          "internalType": "address",
          "name": "to",
          "type": "address"
        },
        {
          "internalType": "uint256",
          "name": "tokenId",
          "type": "uint256"
        }
      ],
      "name": "approve",
      "outputs": [],
      "stateMutability": "nonpayable",
      "type": "function"
    },
    {
      "inputs": [
        {
          "internalType": "address",
          "name": "owner",
          "type": "address"
        }
      ],
      "name": "balanceOf",
      "outputs": [
        {
          "internalType": "uint256",
          "name": "",
          "type": "uint256"
        }
      ],
      "stateMutability": "view",
      "type": "function"
    },
    {
      "inputs": [],
      "name": "baseURI",
      "outputs": [
        {
          "internalType": "string",
          "name": "",
          "type": "string"
        }
      ],
      "stateMutability": "view",
      "type": "function"
    },
    {
      "inputs": [
        {
          "internalType": "uint256",
          "name": "tokenId",
          "type": "uint256"
        }
      ],
      "name": "getApproved",
      "outputs": [
        {
          "internalType": "address",
          "name": "",
          "type": "address"
        }
      ],
      "stateMutability": "view",
      "type": "function"
    },
    {
      "inputs": [
        {
          "internalType": "bytes32",
          "name": "role",
          "type": "bytes32"
        }
      ],
      "name": "getRoleAdmin",
      "outputs": [
        {
          "internalType": "bytes32",
          "name": "",
          "type": "bytes32"
        }
      ],
      "stateMutability": "view",
      "type": "function"
    },
    {
      "inputs": [
        {
          "internalType": "bytes32",
          "name": "role",
          "type": "bytes32"
        },
        {
          "internalType": "address",
          "name": "account",
          "type": "address"
        }
      ],
      "name": "grantRole",
      "outputs": [],
      "stateMutability": "nonpayable",
      "type": "function"
    },
    {
      "inputs": [
        {
          "internalType": "bytes32",
          "name": "role",
          "type": "bytes32"
        },
        {
          "internalType": "address",
          "name": "account",
          "type": "address"
        }
      ],
      "name": "hasRole",
      "outputs": [
        {
          "internalType": "bool",
          "name": "",
          "type": "bool"
        }
      ],
      "stateMutability": "view",
      "type": "function"
    },
    {
      "inputs": [
        {
          "internalType": "address",
          "name": "defaultAdmin",
          "type": "address"
        },
        {
          "internalType": "address",
          "name": "minter",
          "type": "address"
        },
        {
          "internalType": "string",
          "name": "name",
          "type": "string"
        },
        {
          "internalType": "string",
          "name": "symbol",
          "type": "string"
        },
        {
          "internalType": "string",
          "name": "baseURI_",
          "type": "string"
        }
      ],
      "name": "initialize",
      "outputs": [],
      "stateMutability": "nonpayable",
      "type": "function"
    },
    {
      "inputs": [
        {
          "internalType": "address",
          "name": "owner",
          "type": "address"
        },
        {
          "internalType": "address",
          "name": "operator",
          "type": "address"
        }
      ],
      "name": "isApprovedForAll",
      "outputs": [
        {
          "internalType": "bool",
          "name": "",
          "type": "bool"
        }
      ],
      "stateMutability": "view",
      "type": "function"
    },
    {
      "inputs": [],
      "name": "name",
      "outputs": [
        {
          "internalType": "string",
          "name": "",
          "type": "string"
        }
      ],
      "stateMutability": "view",
      "type": "function"
    },
    {
      "inputs": [
        {
          "internalType": "uint256",
          "name": "tokenId",
          "type": "uint256"
        }
      ],
      "name": "ownerOf",
      "outputs": [
        {
          "internalType": "address",
          "name": "",
          "type": "address"
        }
      ],
      "stateMutability": "view",
      "type": "function"
    },
    {
      "inputs": [
        {
          "internalType": "bytes32",
          "name": "role",
          "type": "bytes32"
        },
        {
          "internalType": "address",
          "name": "callerConfirmation",
          "type": "address"
        }
      ],
      "name": "renounceRole",
      "outputs": [],
      "stateMutability": "nonpayable",
      "type": "function"
    },
    {
      "inputs": [
        {
          "internalType": "bytes32",
          "name": "role",
          "type": "bytes32"
        },
        {
          "internalType": "address",
          "name": "account",
          "type": "address"
        }
      ],
      "name": "revokeRole",
      "outputs": [],
      "stateMutability": "nonpayable",
      "type": "function"
    },
    {
      "inputs": [
        {
          "internalType": "uint256",
          "name": "tokenId",
          "type": "uint256"
        },
        {
          "internalType": "uint256",
          "name": "salePrice",
          "type": "uint256"
        }
      ],
      "name": "royaltyInfo",
      "outputs": [
        {
          "internalType": "address",
          "name": "receiver",
          "type": "address"
        },
        {
          "internalType": "uint256",
          "name": "amount",
          "type": "uint256"
        }
      ],
      "stateMutability": "view",
      "type": "function"
    },
    {
      "inputs": [
        {
          "internalType": "address",
          "name": "to",
          "type": "address"
        },
        {
          "internalType": "uint256",
          "name": "tokenId",
          "type": "uint256"
        }
      ],
      "name": "safeMint",
      "outputs": [],
      "stateMutability": "nonpayable",
      "type": "function"
    },
    {
      "inputs": [
        {
          "internalType": "address",
          "name": "from",
          "type": "address"
        },
        {
          "internalType": "address",
          "name": "to",
          "type": "address"
        },
        {
          "internalType": "uint256",
          "name": "tokenId",
          "type": "uint256"
        }
      ],
      "name": "safeTransferFrom",
      "outputs": [],
      "stateMutability": "nonpayable",
      "type": "function"
    },
    {
      "inputs": [
        {
          "internalType": "address",
          "name": "from",
          "type": "address"
        },
        {
          "internalType": "address",
          "name": "to",
          "type": "address"
        },
        {
          "internalType": "uint256",
          "name": "tokenId",
          "type": "uint256"
        },
        {
          "internalType": "bytes",
          "name": "data",
          "type": "bytes"
        }
      ],
      "name": "safeTransferFrom",
      "outputs": [],
      "stateMutability": "nonpayable",
      "type": "function"
    },
    {
      "inputs": [
        {
          "internalType": "address",
          "name": "operator",
          "type": "address"
        },
        {
          "internalType": "bool",
          "name": "approved",
          "type": "bool"
        }
      ],
      "name": "setApprovalForAll",
      "outputs": [],
      "stateMutability": "nonpayable",
      "type": "function"
    },
    {
      "inputs": [
        {
          "internalType": "address",
          "name": "receiver",
          "type": "address"
        },
        {
          "internalType": "uint96",
          "name": "royaltyFraction",
          "type": "uint96"
        }
      ],
      "name": "setDefaultRoyalty",
      "outputs": [],
      "stateMutability": "nonpayable",
      "type": "function"
    },
    {
      "inputs": [
        {
          "internalType": "uint256",
          "name": "tokenId",
          "type": "uint256"
        },
        {
          "internalType": "address",
          "name": "receiver",
          "type": "address"
        },
        {
          "internalType": "uint96",
          "name": "royaltyFraction",
          "type": "uint96"
        }
      ],
      "name": "setTokenRoyalty",
      "outputs": [],
      "stateMutability": "nonpayable",
      "type": "function"
    },
    {
      "inputs": [
        {
          "internalType": "string",
          "name": "baseURI_",
          "type": "string"
        }
      ],
      "name": "setTokenURI",
      "outputs": [],
      "stateMutability": "nonpayable",
      "type": "function"
    },
    {
      "inputs": [
        {
          "internalType": "bytes4",
          "name": "interfaceId",
          "type": "bytes4"
        }
      ],
      "name": "supportsInterface",
      "outputs": [
        {
          "internalType": "bool",
          "name": "",
          "type": "bool"
        }
      ],
      "stateMutability": "view",
      "type": "function"
    },
    {
      "inputs": [],
      "name": "symbol",
      "outputs": [
        {
          "internalType": "string",
          "name": "",
          "type": "string"
        }
      ],
      "stateMutability": "view",
      "type": "function"
    },
    {
      "inputs": [
        {
          "internalType": "uint256",
          "name": "index",
          "type": "uint256"
        }
      ],
      "name": "tokenByIndex",
      "outputs": [
        {
          "internalType": "uint256",
          "name": "",
          "type": "uint256"
        }
      ],
      "stateMutability": "view",
      "type": "function"
    },
    {
      "inputs": [
        {
          "internalType": "address",
          "name": "owner",
          "type": "address"
        },
        {
          "internalType": "uint256",
          "name": "index",
          "type": "uint256"
        }
      ],
      "name": "tokenOfOwnerByIndex",
      "outputs": [
        {
          "internalType": "uint256",
          "name": "",
          "type": "uint256"
        }
      ],
      "stateMutability": "view",
      "type": "function"
    },
    {
      "inputs": [
        {
          "internalType": "uint256",
          "name": "tokenId",
          "type": "uint256"
        }
      ],
      "name": "tokenURI",
      "outputs": [
        {
          "internalType": "string",
          "name": "",
          "type": "string"
        }
      ],
      "stateMutability": "view",
      "type": "function"
    },
    {
      "inputs": [],
      "name": "totalSupply",
      "outputs": [
        {
          "internalType": "uint256",
          "name": "",
          "type": "uint256"
        }
      ],
      "stateMutability": "view",
      "type": "function"
    },
    {
      "inputs": [
        {
          "internalType": "address",
          "name": "from",
          "type": "address"
        },
        {
          "internalType": "address",
          "name": "to",
          "type": "address"
        },
        {
          "internalType": "uint256",
          "name": "tokenId",
          "type": "uint256"
        }
      ],
      "name": "transferFrom",
      "outputs": [],
      "stateMutability": "nonpayable",
      "type": "function"
    }
  ],
  "transactionHash": "0xb46ad77760d4bf6ca265023ecea6656749eec65d6b8f4b512f7c8f9fc4cdbc81",
  "args": [],
  "numDeployments": 1,
  "solcInputHash": "c4663d0c8b328614dd74b5192986f662",
  "bytecode": "0x608060405234801561001057600080fd5b5061001f61002460201b60201c565b61018e565b600061003461012860201b60201c565b90508060000160089054906101000a900460ff161561007f576040517ff92ee8a900000000000000000000000000000000000000000000000000000000815260040160405180910390fd5b67ffffffffffffffff80168160000160009054906101000a900467ffffffffffffffff1667ffffffffffffffff16146101255767ffffffffffffffff8160000160006101000a81548167ffffffffffffffff021916908367ffffffffffffffff1602179055507fc7f505b2f371ae2175ee4913f4499e1f2633a7b5936321eed1cdaeb6115181d267ffffffffffffffff60405161011c9190610173565b60405180910390a15b50565b60007ff0c57e16840df040f15088dc2f81fe391c3923bec73e23a9662efc9c229c6a00905090565b600067ffffffffffffffff82169050919050565b61016d81610150565b82525050565b60006020820190506101886000830184610164565b92915050565b6140008061019d6000396000f3fe608060405234801561001057600080fd5b50600436106101da5760003560e01c80635944c75311610104578063a217fddf116100a2578063d539139311610071578063d53913931461058a578063d547741f146105a8578063e0df5b6f146105c4578063e985e9c5146105e0576101da565b8063a217fddf14610504578063a22cb46514610522578063b88d4fde1461053e578063c87b56dd1461055a576101da565b806370a08231116100de57806370a082311461046a57806391d148541461049a57806395d89b41146104ca578063a1448194146104e8576101da565b80635944c753146104005780636352211e1461041c5780636c0360eb1461044c576101da565b8063248a9ca31161017c57806336568abe1161014b57806336568abe1461037c5780633f2f5ee21461039857806342842e0e146103b45780634f6ccce7146103d0576101da565b8063248a9ca3146102cf5780632a55205a146102ff5780632f2ff15d146103305780632f745c591461034c576101da565b8063081812fc116101b8578063081812fc14610249578063095ea7b31461027957806318160ddd1461029557806323b872dd146102b3576101da565b806301ffc9a7146101df57806304634d8d1461020f57806306fdde031461022b575b600080fd5b6101f960048036038101906101f49190612f03565b610610565b6040516102069190612f4b565b60405180910390f35b61022960048036038101906102249190613008565b610622565b005b61023361063e565b60405161024091906130d8565b60405180910390f35b610263600480360381019061025e9190613130565b6106df565b604051610270919061316c565b60405180910390f35b610293600480360381019061028e9190613187565b6106fb565b005b61029d610711565b6040516102aa91906131d6565b60405180910390f35b6102cd60048036038101906102c891906131f1565b61072c565b005b6102e960048036038101906102e4919061327a565b61082e565b6040516102f691906132b6565b60405180910390f35b610319600480360381019061031491906132d1565b61085c565b604051610327929190613311565b60405180910390f35b61034a6004803603810190610345919061333a565b61099f565b005b61036660048036038101906103619190613187565b6109c1565b60405161037391906131d6565b60405180910390f35b6103966004803603810190610391919061333a565b610a78565b005b6103b260048036038101906103ad91906133df565b610af3565b005b6103ce60048036038101906103c991906131f1565b610d75565b005b6103ea60048036038101906103e59190613130565b610d95565b6040516103f791906131d6565b60405180910390f35b61041a600480360381019061041591906134bb565b610e19565b005b61043660048036038101906104319190613130565b610e37565b604051610443919061316c565b60405180910390f35b610454610e49565b60405161046191906130d8565b60405180910390f35b610484600480360381019061047f919061350e565b610ed7565b60405161049191906131d6565b60405180910390f35b6104b460048036038101906104af919061333a565b610fa0565b6040516104c19190612f4b565b60405180910390f35b6104d2611019565b6040516104df91906130d8565b60405180910390f35b61050260048036038101906104fd9190613187565b6110ba565b005b61050c6110f3565b60405161051991906132b6565b60405180910390f35b61053c60048036038101906105379190613567565b6110fa565b005b610558600480360381019061055391906136d7565b611110565b005b610574600480360381019061056f9190613130565b611135565b60405161058191906130d8565b60405180910390f35b61059261119e565b60405161059f91906132b6565b60405180910390f35b6105c260048036038101906105bd919061333a565b6111c2565b005b6105de60048036038101906105d9919061375a565b6111e4565b005b6105fa60048036038101906105f591906137a7565b611208565b6040516106079190612f4b565b60405180910390f35b600061061b826112aa565b9050919050565b6000801b61062f81611324565b6106398383611338565b505050565b6060600061064a6114e9565b905080600001805461065b90613816565b80601f016020809104026020016040519081016040528092919081815260200182805461068790613816565b80156106d45780601f106106a9576101008083540402835291602001916106d4565b820191906000526020600020905b8154815290600101906020018083116106b757829003601f168201915b505050505091505090565b60006106ea82611511565b506106f482611599565b9050919050565b61070d82826107086115e4565b6115ec565b5050565b60008061071c6115fe565b9050806002018054905091505090565b600073ffffffffffffffffffffffffffffffffffffffff168273ffffffffffffffffffffffffffffffffffffffff160361079e5760006040517f64a0ae92000000000000000000000000000000000000000000000000000000008152600401610795919061316c565b60405180910390fd5b60006107b283836107ad6115e4565b611626565b90508373ffffffffffffffffffffffffffffffffffffffff168173ffffffffffffffffffffffffffffffffffffffff1614610828578382826040517f64283d7b00000000000000000000000000000000000000000000000000000000815260040161081f93929190613847565b60405180910390fd5b50505050565b60008061083961163c565b905080600001600084815260200190815260200160002060010154915050919050565b6000806000610869611664565b90506000816001016000878152602001908152602001600020905060008160000160009054906101000a900473ffffffffffffffffffffffffffffffffffffffff16905060008260000160149054906101000a90046bffffffffffffffffffffffff169050600073ffffffffffffffffffffffffffffffffffffffff168273ffffffffffffffffffffffffffffffffffffffff160361094f578360000160000160009054906101000a900473ffffffffffffffffffffffffffffffffffffffff1691508360000160000160149054906101000a90046bffffffffffffffffffffffff1690505b600061095961168c565b6bffffffffffffffffffffffff16826bffffffffffffffffffffffff168961098191906138ad565b61098b919061391e565b905082819650965050505050509250929050565b6109a88261082e565b6109b181611324565b6109bb8383611696565b50505050565b6000806109cc6115fe565b90506109d784610ed7565b8310610a1c5783836040517fa57d13dc000000000000000000000000000000000000000000000000000000008152600401610a13929190613311565b60405180910390fd5b8060000160008573ffffffffffffffffffffffffffffffffffffffff1673ffffffffffffffffffffffffffffffffffffffff16815260200190815260200160002060008481526020019081526020016000205491505092915050565b610a806115e4565b73ffffffffffffffffffffffffffffffffffffffff168173ffffffffffffffffffffffffffffffffffffffff1614610ae4576040517f6697b23200000000000000000000000000000000000000000000000000000000815260040160405180910390fd5b610aee8282611797565b505050565b6000610afd611899565b905060008160000160089054906101000a900460ff1615905060008260000160009054906101000a900467ffffffffffffffff1690506000808267ffffffffffffffff16148015610b4b5750825b9050600060018367ffffffffffffffff16148015610b80575060003073ffffffffffffffffffffffffffffffffffffffff163b145b905081158015610b8e575080155b15610bc5576040517ff92ee8a900000000000000000000000000000000000000000000000000000000815260040160405180910390fd5b60018560000160006101000a81548167ffffffffffffffff021916908367ffffffffffffffff1602179055508315610c155760018560000160086101000a81548160ff0219169083151502179055505b610ca78b8b8080601f016020809104026020016040519081016040528093929190818152602001838380828437600081840152601f19601f820116905080830192505050505050508a8a8080601f016020809104026020016040519081016040528093929190818152602001838380828437600081840152601f19601f820116905080830192505050505050506118c1565b610caf6118d7565b610cb76118e1565b610cbf6118eb565b610ccc6000801b8e611696565b50610cf77f9f2df0fed2c77648de5860a4cc508cd0818c85b8b8a1ab4ceeef8d981c8956a68d611696565b50868660009182610d09929190613b06565b508315610d665760008560000160086101000a81548160ff0219169083151502179055507fc7f505b2f371ae2175ee4913f4499e1f2633a7b5936321eed1cdaeb6115181d26001604051610d5d9190613c25565b60405180910390a15b50505050505050505050505050565b610d9083838360405180602001604052806000815250611110565b505050565b600080610da06115fe565b9050610daa610711565b8310610df0576000836040517fa57d13dc000000000000000000000000000000000000000000000000000000008152600401610de7929190613311565b60405180910390fd5b806002018381548110610e0657610e05613c40565b5b9060005260206000200154915050919050565b6000801b610e2681611324565b610e318484846118f5565b50505050565b6000610e4282611511565b9050919050565b60008054610e5690613816565b80601f0160208091040260200160405190810160405280929190818152602001828054610e8290613816565b8015610ecf5780601f10610ea457610100808354040283529160200191610ecf565b820191906000526020600020905b815481529060010190602001808311610eb257829003601f168201915b505050505081565b600080610ee26114e9565b9050600073ffffffffffffffffffffffffffffffffffffffff168373ffffffffffffffffffffffffffffffffffffffff1603610f565760006040517f89c62b64000000000000000000000000000000000000000000000000000000008152600401610f4d919061316c565b60405180910390fd5b8060030160008473ffffffffffffffffffffffffffffffffffffffff1673ffffffffffffffffffffffffffffffffffffffff16815260200190815260200160002054915050919050565b600080610fab61163c565b905080600001600085815260200190815260200160002060000160008473ffffffffffffffffffffffffffffffffffffffff1673ffffffffffffffffffffffffffffffffffffffff16815260200190815260200160002060009054906101000a900460ff1691505092915050565b606060006110256114e9565b905080600101805461103690613816565b80601f016020809104026020016040519081016040528092919081815260200182805461106290613816565b80156110af5780601f10611084576101008083540402835291602001916110af565b820191906000526020600020905b81548152906001019060200180831161109257829003601f168201915b505050505091505090565b7f9f2df0fed2c77648de5860a4cc508cd0818c85b8b8a1ab4ceeef8d981c8956a66110e481611324565b6110ee8383611abc565b505050565b6000801b81565b61110c6111056115e4565b8383611bb5565b5050565b61111b84848461072c565b61112f6111266115e4565b85858585611d33565b50505050565b606061114082611511565b50600061114b611ee4565b9050600081511161116b5760405180602001604052806000815250611196565b8061117584611f76565b604051602001611186929190613cab565b6040516020818303038152906040525b915050919050565b7f9f2df0fed2c77648de5860a4cc508cd0818c85b8b8a1ab4ceeef8d981c8956a681565b6111cb8261082e565b6111d481611324565b6111de8383611797565b50505050565b6000801b6111f181611324565b828260009182611202929190613b06565b50505050565b6000806112136114e9565b90508060050160008573ffffffffffffffffffffffffffffffffffffffff1673ffffffffffffffffffffffffffffffffffffffff16815260200190815260200160002060008473ffffffffffffffffffffffffffffffffffffffff1673ffffffffffffffffffffffffffffffffffffffff16815260200190815260200160002060009054906101000a900460ff1691505092915050565b60007f7965db0b000000000000000000000000000000000000000000000000000000007bffffffffffffffffffffffffffffffffffffffffffffffffffffffff1916827bffffffffffffffffffffffffffffffffffffffffffffffffffffffff1916148061131d575061131c82612044565b5b9050919050565b611335816113306115e4565b6120be565b50565b6000611342611664565b9050600061134e61168c565b6bffffffffffffffffffffffff16905080836bffffffffffffffffffffffff1611156113b35782816040517f6f483d090000000000000000000000000000000000000000000000000000000081526004016113aa929190613d00565b60405180910390fd5b600073ffffffffffffffffffffffffffffffffffffffff168473ffffffffffffffffffffffffffffffffffffffff16036114255760006040517fb6d9900a00000000000000000000000000000000000000000000000000000000815260040161141c919061316c565b60405180910390fd5b60405180604001604052808573ffffffffffffffffffffffffffffffffffffffff168152602001846bffffffffffffffffffffffff168152508260000160008201518160000160006101000a81548173ffffffffffffffffffffffffffffffffffffffff021916908373ffffffffffffffffffffffffffffffffffffffff16021790555060208201518160000160146101000a8154816bffffffffffffffffffffffff02191690836bffffffffffffffffffffffff16021790555090505050505050565b60007f80bb2b638cc20bc4d0a60d66940f3ab4a00c1d7b313497ca82fb0b4ab0079300905090565b60008061151d8361210f565b9050600073ffffffffffffffffffffffffffffffffffffffff168173ffffffffffffffffffffffffffffffffffffffff160361159057826040517f7e27328900000000000000000000000000000000000000000000000000000000815260040161158791906131d6565b60405180910390fd5b80915050919050565b6000806115a46114e9565b905080600401600084815260200190815260200160002060009054906101000a900473ffffffffffffffffffffffffffffffffffffffff16915050919050565b600033905090565b6115f9838383600161215a565b505050565b60007f645e039705490088daad89bae25049a34f4a9072d398537b1ab2425f24cbed00905090565b600061163384848461232e565b90509392505050565b60007f02dd7bc7dec4dceedda775e58dd541e08a116c6c53815c0bd028192f7b626800905090565b60007fdaedc9ab023613a7caf35e703657e986ccfad7e3eb0af93a2853f8d65dd86b00905090565b6000612710905090565b6000806116a161163c565b90506116ad8484610fa0565b61178b57600181600001600086815260200190815260200160002060000160008573ffffffffffffffffffffffffffffffffffffffff1673ffffffffffffffffffffffffffffffffffffffff16815260200190815260200160002060006101000a81548160ff0219169083151502179055506117276115e4565b73ffffffffffffffffffffffffffffffffffffffff168373ffffffffffffffffffffffffffffffffffffffff16857f2f8788117e7eff1d82e926ec794901d17c78024a50270940304540a733656f0d60405160405180910390a46001915050611791565b60009150505b92915050565b6000806117a261163c565b90506117ae8484610fa0565b1561188d57600081600001600086815260200190815260200160002060000160008573ffffffffffffffffffffffffffffffffffffffff1673ffffffffffffffffffffffffffffffffffffffff16815260200190815260200160002060006101000a81548160ff0219169083151502179055506118296115e4565b73ffffffffffffffffffffffffffffffffffffffff168373ffffffffffffffffffffffffffffffffffffffff16857ff6391f5c32d9c69d2a47ea670b442974b53935d1edc7fd64eb21e047a839171b60405160405180910390a46001915050611893565b60009150505b92915050565b60007ff0c57e16840df040f15088dc2f81fe391c3923bec73e23a9662efc9c229c6a00905090565b6118c961244b565b6118d3828261248b565b5050565b6118df61244b565b565b6118e961244b565b565b6118f361244b565b565b60006118ff611664565b9050600061190b61168c565b6bffffffffffffffffffffffff16905080836bffffffffffffffffffffffff161115611972578483826040517fdfd1fc1b00000000000000000000000000000000000000000000000000000000815260040161196993929190613d29565b60405180910390fd5b600073ffffffffffffffffffffffffffffffffffffffff168473ffffffffffffffffffffffffffffffffffffffff16036119e6578460006040517f969f08520000000000000000000000000000000000000000000000000000000081526004016119dd929190613d60565b60405180910390fd5b60405180604001604052808573ffffffffffffffffffffffffffffffffffffffff168152602001846bffffffffffffffffffffffff1681525082600101600087815260200190815260200160002060008201518160000160006101000a81548173ffffffffffffffffffffffffffffffffffffffff021916908373ffffffffffffffffffffffffffffffffffffffff16021790555060208201518160000160146101000a8154816bffffffffffffffffffffffff02191690836bffffffffffffffffffffffff1602179055509050505050505050565b600073ffffffffffffffffffffffffffffffffffffffff168273ffffffffffffffffffffffffffffffffffffffff1603611b2e5760006040517f64a0ae92000000000000000000000000000000000000000000000000000000008152600401611b25919061316c565b60405180910390fd5b6000611b3c83836000611626565b9050600073ffffffffffffffffffffffffffffffffffffffff168173ffffffffffffffffffffffffffffffffffffffff1614611bb05760006040517f73c6ac6e000000000000000000000000000000000000000000000000000000008152600401611ba7919061316c565b60405180910390fd5b505050565b6000611bbf6114e9565b9050600073ffffffffffffffffffffffffffffffffffffffff168373ffffffffffffffffffffffffffffffffffffffff1603611c3257826040517f5b08ba18000000000000000000000000000000000000000000000000000000008152600401611c29919061316c565b60405180910390fd5b818160050160008673ffffffffffffffffffffffffffffffffffffffff1673ffffffffffffffffffffffffffffffffffffffff16815260200190815260200160002060008573ffffffffffffffffffffffffffffffffffffffff1673ffffffffffffffffffffffffffffffffffffffff16815260200190815260200160002060006101000a81548160ff0219169083151502179055508273ffffffffffffffffffffffffffffffffffffffff168473ffffffffffffffffffffffffffffffffffffffff167f17307eab39ab6107e8899845ad3d59bd9653f200f220920489ca2b5937696c3184604051611d259190612f4b565b60405180910390a350505050565b60008373ffffffffffffffffffffffffffffffffffffffff163b1115611edd578273ffffffffffffffffffffffffffffffffffffffff1663150b7a02868685856040518563ffffffff1660e01b8152600401611d929493929190613dde565b6020604051808303816000875af1925050508015611dce57506040513d601f19601f82011682018060405250810190611dcb9190613e3f565b60015b611e52573d8060008114611dfe576040519150601f19603f3d011682016040523d82523d6000602084013e611e03565b606091505b506000815103611e4a57836040517f64a0ae92000000000000000000000000000000000000000000000000000000008152600401611e41919061316c565b60405180910390fd5b805181602001fd5b63150b7a0260e01b7bffffffffffffffffffffffffffffffffffffffffffffffffffffffff1916817bffffffffffffffffffffffffffffffffffffffffffffffffffffffff191614611edb57836040517f64a0ae92000000000000000000000000000000000000000000000000000000008152600401611ed2919061316c565b60405180910390fd5b505b5050505050565b606060008054611ef390613816565b80601f0160208091040260200160405190810160405280929190818152602001828054611f1f90613816565b8015611f6c5780601f10611f4157610100808354040283529160200191611f6c565b820191906000526020600020905b815481529060010190602001808311611f4f57829003601f168201915b5050505050905090565b606060006001611f85846124c8565b01905060008167ffffffffffffffff811115611fa457611fa36135ac565b5b6040519080825280601f01601f191660200182016040528015611fd65781602001600182028036833780820191505090505b509050600082602001820190505b600115612039578080600190039150507f3031323334353637383961626364656600000000000000000000000000000000600a86061a8153600a858161202d5761202c6138ef565b5b04945060008503611fe4575b819350505050919050565b60007f2a55205a000000000000000000000000000000000000000000000000000000007bffffffffffffffffffffffffffffffffffffffffffffffffffffffff1916827bffffffffffffffffffffffffffffffffffffffffffffffffffffffff191614806120b757506120b68261261b565b5b9050919050565b6120c88282610fa0565b61210b5780826040517fe2517d3f000000000000000000000000000000000000000000000000000000008152600401612102929190613e6c565b60405180910390fd5b5050565b60008061211a6114e9565b905080600201600084815260200190815260200160002060009054906101000a900473ffffffffffffffffffffffffffffffffffffffff16915050919050565b60006121646114e9565b9050818061219f5750600073ffffffffffffffffffffffffffffffffffffffff168373ffffffffffffffffffffffffffffffffffffffff1614155b156122d35760006121af85611511565b9050600073ffffffffffffffffffffffffffffffffffffffff168473ffffffffffffffffffffffffffffffffffffffff161415801561221a57508373ffffffffffffffffffffffffffffffffffffffff168173ffffffffffffffffffffffffffffffffffffffff1614155b801561222d575061222b8185611208565b155b1561226f57836040517fa9fbf51f000000000000000000000000000000000000000000000000000000008152600401612266919061316c565b60405180910390fd5b82156122d157848673ffffffffffffffffffffffffffffffffffffffff168273ffffffffffffffffffffffffffffffffffffffff167f8c5be1e5ebec7d5bd14f71427d1e84f3dd0314c0f7b2291e5b200ac8c7c3b92560405160405180910390a45b505b8481600401600086815260200190815260200160002060006101000a81548173ffffffffffffffffffffffffffffffffffffffff021916908373ffffffffffffffffffffffffffffffffffffffff1602179055505050505050565b60008061233c858585612695565b9050600073ffffffffffffffffffffffffffffffffffffffff168173ffffffffffffffffffffffffffffffffffffffff16036123805761237b846128c2565b6123bf565b8473ffffffffffffffffffffffffffffffffffffffff168173ffffffffffffffffffffffffffffffffffffffff16146123be576123bd818561291e565b5b5b600073ffffffffffffffffffffffffffffffffffffffff168573ffffffffffffffffffffffffffffffffffffffff1603612401576123fc84612a1e565b612440565b8473ffffffffffffffffffffffffffffffffffffffff168173ffffffffffffffffffffffffffffffffffffffff161461243f5761243e8585612b0a565b5b5b809150509392505050565b612453612ba6565b612489576040517fd7e6bcf800000000000000000000000000000000000000000000000000000000815260040160405180910390fd5b565b61249361244b565b600061249d6114e9565b9050828160000190816124b09190613e95565b50818160010190816124c29190613e95565b50505050565b600080600090507a184f03e93ff9f4daa797ed6e38ed64bf6a1f0100000000000000008310612526577a184f03e93ff9f4daa797ed6e38ed64bf6a1f010000000000000000838161251c5761251b6138ef565b5b0492506040810190505b6d04ee2d6d415b85acef81000000008310612563576d04ee2d6d415b85acef81000000008381612559576125586138ef565b5b0492506020810190505b662386f26fc10000831061259257662386f26fc100008381612588576125876138ef565b5b0492506010810190505b6305f5e10083106125bb576305f5e10083816125b1576125b06138ef565b5b0492506008810190505b61271083106125e05761271083816125d6576125d56138ef565b5b0492506004810190505b6064831061260357606483816125f9576125f86138ef565b5b0492506002810190505b600a8310612612576001810190505b80915050919050565b60007f780e9d63000000000000000000000000000000000000000000000000000000007bffffffffffffffffffffffffffffffffffffffffffffffffffffffff1916827bffffffffffffffffffffffffffffffffffffffffffffffffffffffff1916148061268e575061268d82612bc6565b5b9050919050565b6000806126a06114e9565b905060006126ad8561210f565b9050600073ffffffffffffffffffffffffffffffffffffffff168473ffffffffffffffffffffffffffffffffffffffff16146126ef576126ee818587612ca8565b5b600073ffffffffffffffffffffffffffffffffffffffff168173ffffffffffffffffffffffffffffffffffffffff16146127825761273160008660008061215a565b60018260030160008373ffffffffffffffffffffffffffffffffffffffff1673ffffffffffffffffffffffffffffffffffffffff168152602001908152602001600020600082825403925050819055505b600073ffffffffffffffffffffffffffffffffffffffff168673ffffffffffffffffffffffffffffffffffffffff16146128075760018260030160008873ffffffffffffffffffffffffffffffffffffffff1673ffffffffffffffffffffffffffffffffffffffff168152602001908152602001600020600082825401925050819055505b8582600201600087815260200190815260200160002060006101000a81548173ffffffffffffffffffffffffffffffffffffffff021916908373ffffffffffffffffffffffffffffffffffffffff160217905550848673ffffffffffffffffffffffffffffffffffffffff168273ffffffffffffffffffffffffffffffffffffffff167fddf252ad1be2c89b69c2b068fc378daa952ba7f163c4a11628f55a4df523b3ef60405160405180910390a480925050509392505050565b60006128cc6115fe565b9050806002018054905081600301600084815260200190815260200160002081905550806002018290806001815401808255809150506001900390600052602060002001600090919091909150555050565b60006129286115fe565b9050600061293584610ed7565b9050600082600101600085815260200190815260200160002054905060008360000160008773ffffffffffffffffffffffffffffffffffffffff1673ffffffffffffffffffffffffffffffffffffffff16815260200190815260200160002090508282146129e757600081600085815260200190815260200160002054905080826000858152602001908152602001600020819055508285600101600083815260200190815260200160002081905550505b8360010160008681526020019081526020016000206000905580600084815260200190815260200160002060009055505050505050565b6000612a286115fe565b9050600060018260020180549050612a409190613f67565b905060008260030160008581526020019081526020016000205490506000836002018381548110612a7457612a73613c40565b5b9060005260206000200154905080846002018381548110612a9857612a97613c40565b5b906000526020600020018190555081846003016000838152602001908152602001600020819055508360030160008681526020019081526020016000206000905583600201805480612aed57612aec613f9b565b5b600190038181906000526020600020016000905590555050505050565b6000612b146115fe565b905060006001612b2385610ed7565b612b2d9190613f67565b9050828260000160008673ffffffffffffffffffffffffffffffffffffffff1673ffffffffffffffffffffffffffffffffffffffff168152602001908152602001600020600083815260200190815260200160002081905550808260010160008581526020019081526020016000208190555050505050565b6000612bb0611899565b60000160089054906101000a900460ff16905090565b60007f80ac58cd000000000000000000000000000000000000000000000000000000007bffffffffffffffffffffffffffffffffffffffffffffffffffffffff1916827bffffffffffffffffffffffffffffffffffffffffffffffffffffffff19161480612c9157507f5b5e139f000000000000000000000000000000000000000000000000000000007bffffffffffffffffffffffffffffffffffffffffffffffffffffffff1916827bffffffffffffffffffffffffffffffffffffffffffffffffffffffff1916145b80612ca15750612ca082612d6c565b5b9050919050565b612cb3838383612dd6565b612d6757600073ffffffffffffffffffffffffffffffffffffffff168373ffffffffffffffffffffffffffffffffffffffff1603612d2857806040517f7e273289000000000000000000000000000000000000000000000000000000008152600401612d1f91906131d6565b60405180910390fd5b81816040517f177e802f000000000000000000000000000000000000000000000000000000008152600401612d5e929190613311565b60405180910390fd5b505050565b60007f01ffc9a7000000000000000000000000000000000000000000000000000000007bffffffffffffffffffffffffffffffffffffffffffffffffffffffff1916827bffffffffffffffffffffffffffffffffffffffffffffffffffffffff1916149050919050565b60008073ffffffffffffffffffffffffffffffffffffffff168373ffffffffffffffffffffffffffffffffffffffff1614158015612e8e57508273ffffffffffffffffffffffffffffffffffffffff168473ffffffffffffffffffffffffffffffffffffffff161480612e4f5750612e4e8484611208565b5b80612e8d57508273ffffffffffffffffffffffffffffffffffffffff16612e7583611599565b73ffffffffffffffffffffffffffffffffffffffff16145b5b90509392505050565b6000604051905090565b600080fd5b600080fd5b60007fffffffff0000000000000000000000000000000000000000000000000000000082169050919050565b612ee081612eab565b8114612eeb57600080fd5b50565b600081359050612efd81612ed7565b92915050565b600060208284031215612f1957612f18612ea1565b5b6000612f2784828501612eee565b91505092915050565b60008115159050919050565b612f4581612f30565b82525050565b6000602082019050612f606000830184612f3c565b92915050565b600073ffffffffffffffffffffffffffffffffffffffff82169050919050565b6000612f9182612f66565b9050919050565b612fa181612f86565b8114612fac57600080fd5b50565b600081359050612fbe81612f98565b92915050565b60006bffffffffffffffffffffffff82169050919050565b612fe581612fc4565b8114612ff057600080fd5b50565b60008135905061300281612fdc565b92915050565b6000806040838503121561301f5761301e612ea1565b5b600061302d85828601612faf565b925050602061303e85828601612ff3565b9150509250929050565b600081519050919050565b600082825260208201905092915050565b60005b83811015613082578082015181840152602081019050613067565b60008484015250505050565b6000601f19601f8301169050919050565b60006130aa82613048565b6130b48185613053565b93506130c4818560208601613064565b6130cd8161308e565b840191505092915050565b600060208201905081810360008301526130f2818461309f565b905092915050565b6000819050919050565b61310d816130fa565b811461311857600080fd5b50565b60008135905061312a81613104565b92915050565b60006020828403121561314657613145612ea1565b5b60006131548482850161311b565b91505092915050565b61316681612f86565b82525050565b6000602082019050613181600083018461315d565b92915050565b6000806040838503121561319e5761319d612ea1565b5b60006131ac85828601612faf565b92505060206131bd8582860161311b565b9150509250929050565b6131d0816130fa565b82525050565b60006020820190506131eb60008301846131c7565b92915050565b60008060006060848603121561320a57613209612ea1565b5b600061321886828701612faf565b935050602061322986828701612faf565b925050604061323a8682870161311b565b9150509250925092565b6000819050919050565b61325781613244565b811461326257600080fd5b50565b6000813590506132748161324e565b92915050565b6000602082840312156132905761328f612ea1565b5b600061329e84828501613265565b91505092915050565b6132b081613244565b82525050565b60006020820190506132cb60008301846132a7565b92915050565b600080604083850312156132e8576132e7612ea1565b5b60006132f68582860161311b565b92505060206133078582860161311b565b9150509250929050565b6000604082019050613326600083018561315d565b61333360208301846131c7565b9392505050565b6000806040838503121561335157613350612ea1565b5b600061335f85828601613265565b925050602061337085828601612faf565b9150509250929050565b600080fd5b600080fd5b600080fd5b60008083601f84011261339f5761339e61337a565b5b8235905067ffffffffffffffff8111156133bc576133bb61337f565b5b6020830191508360018202830111156133d8576133d7613384565b5b9250929050565b60008060008060008060008060a0898b0312156133ff576133fe612ea1565b5b600061340d8b828c01612faf565b985050602061341e8b828c01612faf565b975050604089013567ffffffffffffffff81111561343f5761343e612ea6565b5b61344b8b828c01613389565b9650965050606089013567ffffffffffffffff81111561346e5761346d612ea6565b5b61347a8b828c01613389565b9450945050608089013567ffffffffffffffff81111561349d5761349c612ea6565b5b6134a98b828c01613389565b92509250509295985092959890939650565b6000806000606084860312156134d4576134d3612ea1565b5b60006134e28682870161311b565b93505060206134f386828701612faf565b925050604061350486828701612ff3565b9150509250925092565b60006020828403121561352457613523612ea1565b5b600061353284828501612faf565b91505092915050565b61354481612f30565b811461354f57600080fd5b50565b6000813590506135618161353b565b92915050565b6000806040838503121561357e5761357d612ea1565b5b600061358c85828601612faf565b925050602061359d85828601613552565b9150509250929050565b600080fd5b7f4e487b7100000000000000000000000000000000000000000000000000000000600052604160045260246000fd5b6135e48261308e565b810181811067ffffffffffffffff82111715613603576136026135ac565b5b80604052505050565b6000613616612e97565b905061362282826135db565b919050565b600067ffffffffffffffff821115613642576136416135ac565b5b61364b8261308e565b9050602081019050919050565b82818337600083830152505050565b600061367a61367584613627565b61360c565b905082815260208101848484011115613696576136956135a7565b5b6136a1848285613658565b509392505050565b600082601f8301126136be576136bd61337a565b5b81356136ce848260208601613667565b91505092915050565b600080600080608085870312156136f1576136f0612ea1565b5b60006136ff87828801612faf565b945050602061371087828801612faf565b93505060406137218782880161311b565b925050606085013567ffffffffffffffff81111561374257613741612ea6565b5b61374e878288016136a9565b91505092959194509250565b6000806020838503121561377157613770612ea1565b5b600083013567ffffffffffffffff81111561378f5761378e612ea6565b5b61379b85828601613389565b92509250509250929050565b600080604083850312156137be576137bd612ea1565b5b60006137cc85828601612faf565b92505060206137dd85828601612faf565b9150509250929050565b7f4e487b7100000000000000000000000000000000000000000000000000000000600052602260045260246000fd5b6000600282049050600182168061382e57607f821691505b602082108103613841576138406137e7565b5b50919050565b600060608201905061385c600083018661315d565b61386960208301856131c7565b613876604083018461315d565b949350505050565b7f4e487b7100000000000000000000000000000000000000000000000000000000600052601160045260246000fd5b60006138b8826130fa565b91506138c3836130fa565b92508282026138d1816130fa565b915082820484148315176138e8576138e761387e565b5b5092915050565b7f4e487b7100000000000000000000000000000000000000000000000000000000600052601260045260246000fd5b6000613929826130fa565b9150613934836130fa565b925082613944576139436138ef565b5b828204905092915050565b600082905092915050565b60008190508160005260206000209050919050565b60006020601f8301049050919050565b600082821b905092915050565b6000600883026139bc7fffffffffffffffffffffffffffffffffffffffffffffffffffffffffffffffff8261397f565b6139c6868361397f565b95508019841693508086168417925050509392505050565b6000819050919050565b6000613a036139fe6139f9846130fa565b6139de565b6130fa565b9050919050565b6000819050919050565b613a1d836139e8565b613a31613a2982613a0a565b84845461398c565b825550505050565b600090565b613a46613a39565b613a51818484613a14565b505050565b5b81811015613a7557613a6a600082613a3e565b600181019050613a57565b5050565b601f821115613aba57613a8b8161395a565b613a948461396f565b81016020851015613aa3578190505b613ab7613aaf8561396f565b830182613a56565b50505b505050565b600082821c905092915050565b6000613add60001984600802613abf565b1980831691505092915050565b6000613af68383613acc565b9150826002028217905092915050565b613b10838361394f565b67ffffffffffffffff811115613b2957613b286135ac565b5b613b338254613816565b613b3e828285613a79565b6000601f831160018114613b6d5760008415613b5b578287013590505b613b658582613aea565b865550613bcd565b601f198416613b7b8661395a565b60005b82811015613ba357848901358255600182019150602085019450602081019050613b7e565b86831015613bc05784890135613bbc601f891682613acc565b8355505b6001600288020188555050505b50505050505050565b6000819050919050565b600067ffffffffffffffff82169050919050565b6000613c0f613c0a613c0584613bd6565b6139de565b613be0565b9050919050565b613c1f81613bf4565b82525050565b6000602082019050613c3a6000830184613c16565b92915050565b7f4e487b7100000000000000000000000000000000000000000000000000000000600052603260045260246000fd5b600081905092915050565b6000613c8582613048565b613c8f8185613c6f565b9350613c9f818560208601613064565b80840191505092915050565b6000613cb78285613c7a565b9150613cc38284613c7a565b91508190509392505050565b6000613cea613ce5613ce084612fc4565b6139de565b6130fa565b9050919050565b613cfa81613ccf565b82525050565b6000604082019050613d156000830185613cf1565b613d2260208301846131c7565b9392505050565b6000606082019050613d3e60008301866131c7565b613d4b6020830185613cf1565b613d5860408301846131c7565b949350505050565b6000604082019050613d7560008301856131c7565b613d82602083018461315d565b9392505050565b600081519050919050565b600082825260208201905092915050565b6000613db082613d89565b613dba8185613d94565b9350613dca818560208601613064565b613dd38161308e565b840191505092915050565b6000608082019050613df3600083018761315d565b613e00602083018661315d565b613e0d60408301856131c7565b8181036060830152613e1f8184613da5565b905095945050505050565b600081519050613e3981612ed7565b92915050565b600060208284031215613e5557613e54612ea1565b5b6000613e6384828501613e2a565b91505092915050565b6000604082019050613e81600083018561315d565b613e8e60208301846132a7565b9392505050565b613e9e82613048565b67ffffffffffffffff811115613eb757613eb66135ac565b5b613ec18254613816565b613ecc828285613a79565b600060209050601f831160018114613eff5760008415613eed578287015190505b613ef78582613aea565b865550613f5f565b601f198416613f0d8661395a565b60005b82811015613f3557848901518255600182019150602085019450602081019050613f10565b86831015613f525784890151613f4e601f891682613acc565b8355505b6001600288020188555050505b505050505050565b6000613f72826130fa565b9150613f7d836130fa565b9250828203905081811115613f9557613f9461387e565b5b92915050565b7f4e487b7100000000000000000000000000000000000000000000000000000000600052603160045260246000fdfea26469706673582212201967fe3f4bfd7d5a8da8cee28a22fa851fc3b67b7ee82d33cee84af3f2b9f27e64736f6c634300081a0033",
  "devdoc": {
    "errors": {
      "AccessControlBadConfirmation()": [
        {
          "details": "The caller of a function is not the expected one. NOTE: Don't confuse with {AccessControlUnauthorizedAccount}."
        }
      ],
      "AccessControlUnauthorizedAccount(address,bytes32)": [
        {
          "details": "The `account` is missing a role."
        }
      ],
      "ERC2981InvalidDefaultRoyalty(uint256,uint256)": [
        {
          "details": "The default royalty set is invalid (eg. (numerator / denominator) >= 1)."
        }
      ],
      "ERC2981InvalidDefaultRoyaltyReceiver(address)": [
        {
          "details": "The default royalty receiver is invalid."
        }
      ],
      "ERC2981InvalidTokenRoyalty(uint256,uint256,uint256)": [
        {
          "details": "The royalty set for an specific `tokenId` is invalid (eg. (numerator / denominator) >= 1)."
        }
      ],
      "ERC2981InvalidTokenRoyaltyReceiver(uint256,address)": [
        {
          "details": "The royalty receiver for `tokenId` is invalid."
        }
      ],
      "ERC721EnumerableForbiddenBatchMint()": [
        {
          "details": "Batch mint is not allowed."
        }
      ],
      "ERC721IncorrectOwner(address,uint256,address)": [
        {
          "details": "Indicates an error related to the ownership over a particular token. Used in transfers.",
          "params": {
            "owner": "Address of the current owner of a token.",
            "sender": "Address whose tokens are being transferred.",
            "tokenId": "Identifier number of a token."
          }
        }
      ],
      "ERC721InsufficientApproval(address,uint256)": [
        {
          "details": "Indicates a failure with the `operator`s approval. Used in transfers.",
          "params": {
            "operator": "Address that may be allowed to operate on tokens without being their owner.",
            "tokenId": "Identifier number of a token."
          }
        }
      ],
      "ERC721InvalidApprover(address)": [
        {
          "details": "Indicates a failure with the `approver` of a token to be approved. Used in approvals.",
          "params": {
            "approver": "Address initiating an approval operation."
          }
        }
      ],
      "ERC721InvalidOperator(address)": [
        {
          "details": "Indicates a failure with the `operator` to be approved. Used in approvals.",
          "params": {
            "operator": "Address that may be allowed to operate on tokens without being their owner."
          }
        }
      ],
      "ERC721InvalidOwner(address)": [
        {
          "details": "Indicates that an address can't be an owner. For example, `address(0)` is a forbidden owner in ERC-20. Used in balance queries.",
          "params": {
            "owner": "Address of the current owner of a token."
          }
        }
      ],
      "ERC721InvalidReceiver(address)": [
        {
          "details": "Indicates a failure with the token `receiver`. Used in transfers.",
          "params": {
            "receiver": "Address to which tokens are being transferred."
          }
        }
      ],
      "ERC721InvalidSender(address)": [
        {
          "details": "Indicates a failure with the token `sender`. Used in transfers.",
          "params": {
            "sender": "Address whose tokens are being transferred."
          }
        }
      ],
      "ERC721NonexistentToken(uint256)": [
        {
          "details": "Indicates a `tokenId` whose `owner` is the zero address.",
          "params": {
            "tokenId": "Identifier number of a token."
          }
        }
      ],
      "ERC721OutOfBoundsIndex(address,uint256)": [
        {
          "details": "An `owner`'s token query was out of bounds for `index`. NOTE: The owner being `address(0)` indicates a global out of bounds index."
        }
      ],
      "InvalidInitialization()": [
        {
          "details": "The contract is already initialized."
        }
      ],
      "NotInitializing()": [
        {
          "details": "The contract is not initializing."
        }
      ]
    },
    "events": {
      "Approval(address,address,uint256)": {
        "details": "Emitted when `owner` enables `approved` to manage the `tokenId` token."
      },
      "ApprovalForAll(address,address,bool)": {
        "details": "Emitted when `owner` enables or disables (`approved`) `operator` to manage all of its assets."
      },
      "Initialized(uint64)": {
        "details": "Triggered when the contract has been initialized or reinitialized."
      },
      "RoleAdminChanged(bytes32,bytes32,bytes32)": {
        "details": "Emitted when `newAdminRole` is set as ``role``'s admin role, replacing `previousAdminRole` `DEFAULT_ADMIN_ROLE` is the starting admin for all roles, despite {RoleAdminChanged} not being emitted signaling this."
      },
      "RoleGranted(bytes32,address,address)": {
        "details": "Emitted when `account` is granted `role`. `sender` is the account that originated the contract call. This account bears the admin role (for the granted role). Expected in cases where the role was granted using the internal {AccessControl-_grantRole}."
      },
      "RoleRevoked(bytes32,address,address)": {
        "details": "Emitted when `account` is revoked `role`. `sender` is the account that originated the contract call:   - if using `revokeRole`, it is the admin role bearer   - if using `renounceRole`, it is the role bearer (i.e. `account`)"
      },
      "Transfer(address,address,uint256)": {
        "details": "Emitted when `tokenId` token is transferred from `from` to `to`."
      }
    },
    "kind": "dev",
    "methods": {
      "approve(address,uint256)": {
        "details": "See {IERC721-approve}."
      },
      "balanceOf(address)": {
        "details": "See {IERC721-balanceOf}."
      },
      "constructor": {
        "custom:oz-upgrades-unsafe-allow": "constructor"
      },
      "getApproved(uint256)": {
        "details": "See {IERC721-getApproved}."
      },
      "getRoleAdmin(bytes32)": {
        "details": "Returns the admin role that controls `role`. See {grantRole} and {revokeRole}. To change a role's admin, use {_setRoleAdmin}."
      },
      "grantRole(bytes32,address)": {
        "details": "Grants `role` to `account`. If `account` had not been already granted `role`, emits a {RoleGranted} event. Requirements: - the caller must have ``role``'s admin role. May emit a {RoleGranted} event."
      },
      "hasRole(bytes32,address)": {
        "details": "Returns `true` if `account` has been granted `role`."
      },
      "isApprovedForAll(address,address)": {
        "details": "See {IERC721-isApprovedForAll}."
      },
      "name()": {
        "details": "See {IERC721Metadata-name}."
      },
      "ownerOf(uint256)": {
        "details": "See {IERC721-ownerOf}."
      },
      "renounceRole(bytes32,address)": {
        "details": "Revokes `role` from the calling account. Roles are often managed via {grantRole} and {revokeRole}: this function's purpose is to provide a mechanism for accounts to lose their privileges if they are compromised (such as when a trusted device is misplaced). If the calling account had been revoked `role`, emits a {RoleRevoked} event. Requirements: - the caller must be `callerConfirmation`. May emit a {RoleRevoked} event."
      },
      "revokeRole(bytes32,address)": {
        "details": "Revokes `role` from `account`. If `account` had been granted `role`, emits a {RoleRevoked} event. Requirements: - the caller must have ``role``'s admin role. May emit a {RoleRevoked} event."
      },
      "royaltyInfo(uint256,uint256)": {
        "details": "Returns how much royalty is owed and to whom, based on a sale price that may be denominated in any unit of exchange. The royalty amount is denominated and should be paid in that same unit of exchange. NOTE: ERC-2981 allows setting the royalty to 100% of the price. In that case all the price would be sent to the royalty receiver and 0 tokens to the seller. Contracts dealing with royalty should consider empty transfers."
      },
      "safeTransferFrom(address,address,uint256)": {
        "details": "See {IERC721-safeTransferFrom}."
      },
      "safeTransferFrom(address,address,uint256,bytes)": {
        "details": "See {IERC721-safeTransferFrom}."
      },
      "setApprovalForAll(address,bool)": {
        "details": "See {IERC721-setApprovalForAll}."
      },
      "symbol()": {
        "details": "See {IERC721Metadata-symbol}."
      },
      "tokenByIndex(uint256)": {
        "details": "See {IERC721Enumerable-tokenByIndex}."
      },
      "tokenOfOwnerByIndex(address,uint256)": {
        "details": "See {IERC721Enumerable-tokenOfOwnerByIndex}."
      },
      "tokenURI(uint256)": {
        "details": "See {IERC721Metadata-tokenURI}."
      },
      "totalSupply()": {
        "details": "See {IERC721Enumerable-totalSupply}."
      },
      "transferFrom(address,address,uint256)": {
        "details": "See {IERC721-transferFrom}."
      }
    },
    "version": 1
  },
  "userdoc": {
    "kind": "user",
    "methods": {},
    "version": 1
  },
  "storageLayout": {
    "storage": [
      {
        "astId": 7922,
        "contract": "contracts/MimBokuNFT.sol:MimBokuNFT",
        "label": "baseURI",
        "offset": 0,
        "slot": "0",
        "type": "t_string_storage"
      }
    ],
    "types": {
      "t_string_storage": {
        "encoding": "bytes",
        "label": "string",
        "numberOfBytes": "32"
      }
    }
  }
}