{
  "address": "0x9441AC8e7943af728c07b82485Dd066943300641",
  "abi": [
    {
      "inputs": [],
      "stateMutability": "nonpayable",
      "type": "constructor"
    },
    {
      "inputs": [],
      "name": "AccessControlBadConfirmation",
      "type": "error"
    },
    {
      "inputs": [
        {
          "internalType": "address",
          "name": "account",
          "type": "address"
        },
        {
          "internalType": "bytes32",
          "name": "neededRole",
          "type": "bytes32"
        }
      ],
      "name": "AccessControlUnauthorizedAccount",
      "type": "error"
    },
    {
      "inputs": [],
      "name": "ECDSAInvalidSignature",
      "type": "error"
    },
    {
      "inputs": [
        {
          "internalType": "uint256",
          "name": "length",
          "type": "uint256"
        }
      ],
      "name": "ECDSAInvalidSignatureLength",
      "type": "error"
    },
    {
      "inputs": [
        {
          "internalType": "bytes32",
          "name": "s",
          "type": "bytes32"
        }
      ],
      "name": "ECDSAInvalidSignatureS",
      "type": "error"
    },
    {
      "inputs": [],
      "name": "ExceedMaxSupply",
      "type": "error"
    },
    {
      "inputs": [],
      "name": "ExceedMaxSupplyForStage",
      "type": "error"
    },
    {
      "inputs": [],
      "name": "ExceedPerAddressLimit",
      "type": "error"
    },
    {
      "inputs": [],
      "name": "ExistStage",
      "type": "error"
    },
    {
      "inputs": [],
      "name": "ExpiredSignature",
      "type": "error"
    },
    {
      "inputs": [],
      "name": "InvalidInitialization",
      "type": "error"
    },
    {
      "inputs": [],
      "name": "InvalidMaxSupply",
      "type": "error"
    },
    {
      "inputs": [],
      "name": "InvalidPayeeAddress",
      "type": "error"
    },
    {
      "inputs": [],
      "name": "InvalidSignature",
      "type": "error"
    },
    {
      "inputs": [],
      "name": "InvalidStageMaxSupply",
      "type": "error"
    },
    {
      "inputs": [],
      "name": "InvalidTime",
      "type": "error"
    },
    {
      "inputs": [],
      "name": "NonExistStage",
      "type": "error"
    },
    {
      "inputs": [],
      "name": "NotActive",
      "type": "error"
    },
    {
      "inputs": [],
      "name": "NotInitializing",
      "type": "error"
    },
    {
      "inputs": [],
      "name": "NotWhitelisted",
      "type": "error"
    },
    {
      "inputs": [],
      "name": "SignatureAlreadyUsed",
      "type": "error"
    },
    {
      "anonymous": false,
      "inputs": [],
      "name": "EIP712DomainChanged",
      "type": "event"
    },
    {
      "anonymous": false,
      "inputs": [
        {
          "indexed": false,
          "internalType": "uint64",
          "name": "version",
          "type": "uint64"
        }
      ],
      "name": "Initialized",
      "type": "event"
    },
    {
      "anonymous": false,
      "inputs": [
        {
          "indexed": false,
          "internalType": "uint32",
          "name": "maxSupply",
          "type": "uint32"
        }
      ],
      "name": "MaxSupplySet",
      "type": "event"
    },
    {
      "anonymous": false,
      "inputs": [
        {
          "indexed": true,
          "internalType": "bytes32",
          "name": "role",
          "type": "bytes32"
        },
        {
          "indexed": true,
          "internalType": "bytes32",
          "name": "previousAdminRole",
          "type": "bytes32"
        },
        {
          "indexed": true,
          "internalType": "bytes32",
          "name": "newAdminRole",
          "type": "bytes32"
        }
      ],
      "name": "RoleAdminChanged",
      "type": "event"
    },
    {
      "anonymous": false,
      "inputs": [
        {
          "indexed": true,
          "internalType": "bytes32",
          "name": "role",
          "type": "bytes32"
        },
        {
          "indexed": true,
          "internalType": "address",
          "name": "account",
          "type": "address"
        },
        {
          "indexed": true,
          "internalType": "address",
          "name": "sender",
          "type": "address"
        }
      ],
      "name": "RoleGranted",
      "type": "event"
    },
    {
      "anonymous": false,
      "inputs": [
        {
          "indexed": true,
          "internalType": "bytes32",
          "name": "role",
          "type": "bytes32"
        },
        {
          "indexed": true,
          "internalType": "address",
          "name": "account",
          "type": "address"
        },
        {
          "indexed": true,
          "internalType": "address",
          "name": "sender",
          "type": "address"
        }
      ],
      "name": "RoleRevoked",
      "type": "event"
    },
    {
      "anonymous": false,
      "inputs": [
        {
          "indexed": false,
          "internalType": "address",
          "name": "signer",
          "type": "address"
        }
      ],
      "name": "SignerUpdated",
      "type": "event"
    },
    {
      "anonymous": false,
      "inputs": [
        {
          "indexed": false,
          "internalType": "string",
          "name": "stage",
          "type": "string"
        },
        {
          "indexed": false,
          "internalType": "bool",
          "name": "enableSig",
          "type": "bool"
        }
      ],
      "name": "StageEnableSigSet",
      "type": "event"
    },
    {
      "anonymous": false,
      "inputs": [
        {
          "indexed": false,
          "internalType": "string",
          "name": "stage",
          "type": "string"
        },
        {
          "indexed": false,
          "internalType": "uint32",
          "name": "maxSupply",
          "type": "uint32"
        }
      ],
      "name": "StageMaxSupplySet",
      "type": "event"
    },
    {
      "anonymous": false,
      "inputs": [
        {
          "components": [
            {
              "internalType": "bool",
              "name": "enableSig",
              "type": "bool"
            },
            {
              "internalType": "uint8",
              "name": "limitationForAddress",
              "type": "uint8"
            },
            {
              "internalType": "uint32",
              "name": "maxSupplyForStage",
              "type": "uint32"
            },
            {
              "internalType": "uint64",
              "name": "startTime",
              "type": "uint64"
            },
            {
              "internalType": "uint64",
              "name": "endTime",
              "type": "uint64"
            },
            {
              "internalType": "uint256",
              "name": "price",
              "type": "uint256"
            },
            {
              "internalType": "address",
              "name": "paymentToken",
              "type": "address"
            },
            {
              "internalType": "address",
              "name": "payeeAddress",
              "type": "address"
            },
            {
              "internalType": "bytes32",
              "name": "allowListMerkleRoot",
              "type": "bytes32"
            },
            {
              "internalType": "string",
              "name": "stage",
              "type": "string"
            },
            {
              "internalType": "enum IOKXMultiMint.MintType",
              "name": "mintType",
              "type": "uint8"
            }
          ],
          "indexed": false,
          "internalType": "struct IOKXMultiMint.StageMintInfo",
          "name": "stageMintInfo",
          "type": "tuple"
        }
      ],
      "name": "StageMintInfoSet",
      "type": "event"
    },
    {
      "anonymous": false,
      "inputs": [
        {
          "indexed": false,
          "internalType": "string",
          "name": "stage",
          "type": "string"
        },
        {
          "indexed": false,
          "internalType": "uint8",
          "name": "mintLimitationPerAddress",
          "type": "uint8"
        }
      ],
      "name": "StageMintLimitationPerAddressSet",
      "type": "event"
    },
    {
      "anonymous": false,
      "inputs": [
        {
          "indexed": false,
          "internalType": "string",
          "name": "stage",
          "type": "string"
        },
        {
          "indexed": false,
          "internalType": "uint64",
          "name": "startTime",
          "type": "uint64"
        },
        {
          "indexed": false,
          "internalType": "uint64",
          "name": "endTime",
          "type": "uint64"
        }
      ],
      "name": "StageMintTimeSet",
      "type": "event"
    },
    {
      "inputs": [],
      "name": "DEFAULT_ADMIN_ROLE",
      "outputs": [
        {
          "internalType": "bytes32",
          "name": "",
          "type": "bytes32"
        }
      ],
      "stateMutability": "view",
      "type": "function"
    },
    {
      "inputs": [],
      "name": "MINT_AUTH_TYPE_HASH",
      "outputs": [
        {
          "internalType": "bytes32",
          "name": "",
          "type": "bytes32"
        }
      ],
      "stateMutability": "view",
      "type": "function"
    },
    {
      "inputs": [],
      "name": "OWNER_CONTRACT",
      "outputs": [
        {
          "internalType": "bytes32",
          "name": "",
          "type": "bytes32"
        }
      ],
      "stateMutability": "view",
      "type": "function"
    },
    {
      "inputs": [],
      "name": "eip712Domain",
      "outputs": [
        {
          "internalType": "bytes1",
          "name": "fields",
          "type": "bytes1"
        },
        {
          "internalType": "string",
          "name": "name",
          "type": "string"
        },
        {
          "internalType": "string",
          "name": "version",
          "type": "string"
        },
        {
          "internalType": "uint256",
          "name": "chainId",
          "type": "uint256"
        },
        {
          "internalType": "address",
          "name": "verifyingContract",
          "type": "address"
        },
        {
          "internalType": "bytes32",
          "name": "salt",
          "type": "bytes32"
        },
        {
          "internalType": "uint256[]",
          "name": "extensions",
          "type": "uint256[]"
        }
      ],
      "stateMutability": "view",
      "type": "function"
    },
    {
      "inputs": [
        {
          "internalType": "string",
          "name": "stage",
          "type": "string"
        },
        {
          "internalType": "bytes32[]",
          "name": "proof",
          "type": "bytes32[]"
        },
        {
          "internalType": "bytes",
          "name": "signature",
          "type": "bytes"
        },
        {
          "components": [
            {
              "internalType": "uint256",
              "name": "amount",
              "type": "uint256"
            },
            {
              "internalType": "uint256",
              "name": "tokenId",
              "type": "uint256"
            },
            {
              "internalType": "uint256",
              "name": "nonce",
              "type": "uint256"
            },
            {
              "internalType": "uint256",
              "name": "expiry",
              "type": "uint256"
            },
            {
              "internalType": "address",
              "name": "to",
              "type": "address"
            }
          ],
          "internalType": "struct IOKXMultiMint.MintParams",
          "name": "mintparams",
          "type": "tuple"
        }
      ],
      "name": "eligibleCheckingAndRegister",
      "outputs": [
        {
          "internalType": "uint256",
          "name": "amount",
          "type": "uint256"
        }
      ],
      "stateMutability": "nonpayable",
      "type": "function"
    },
    {
      "inputs": [
        {
          "internalType": "bytes32",
          "name": "role",
          "type": "bytes32"
        }
      ],
      "name": "getRoleAdmin",
      "outputs": [
        {
          "internalType": "bytes32",
          "name": "",
          "type": "bytes32"
        }
      ],
      "stateMutability": "view",
      "type": "function"
    },
    {
      "inputs": [
        {
          "internalType": "bytes32",
          "name": "role",
          "type": "bytes32"
        },
        {
          "internalType": "address",
          "name": "account",
          "type": "address"
        }
      ],
      "name": "grantRole",
      "outputs": [],
      "stateMutability": "nonpayable",
      "type": "function"
    },
    {
      "inputs": [
        {
          "internalType": "bytes32",
          "name": "role",
          "type": "bytes32"
        },
        {
          "internalType": "address",
          "name": "account",
          "type": "address"
        }
      ],
      "name": "hasRole",
      "outputs": [
        {
          "internalType": "bool",
          "name": "",
          "type": "bool"
        }
      ],
      "stateMutability": "view",
      "type": "function"
    },
    {
      "inputs": [],
      "name": "increaseTotalMintedAmount",
      "outputs": [],
      "stateMutability": "nonpayable",
      "type": "function"
    },
    {
      "inputs": [
        {
          "internalType": "address",
          "name": "defaultAdmin",
          "type": "address"
        },
        {
          "internalType": "address",
          "name": "owner",
          "type": "address"
        },
        {
          "internalType": "address",
          "name": "_signer",
          "type": "address"
        }
      ],
      "name": "initialize",
      "outputs": [],
      "stateMutability": "nonpayable",
      "type": "function"
    },
    {
      "inputs": [],
      "name": "maxSupply",
      "outputs": [
        {
          "internalType": "uint256",
          "name": "",
          "type": "uint256"
        }
      ],
      "stateMutability": "view",
      "type": "function"
    },
    {
      "inputs": [
        {
          "internalType": "address",
          "name": "to",
          "type": "address"
        },
        {
          "internalType": "string",
          "name": "stage",
          "type": "string"
        }
      ],
      "name": "mintRecord",
      "outputs": [
        {
          "internalType": "uint256",
          "name": "",
          "type": "uint256"
        }
      ],
      "stateMutability": "view",
      "type": "function"
    },
    {
      "inputs": [
        {
          "internalType": "bytes32",
          "name": "role",
          "type": "bytes32"
        },
        {
          "internalType": "address",
          "name": "callerConfirmation",
          "type": "address"
        }
      ],
      "name": "renounceRole",
      "outputs": [],
      "stateMutability": "nonpayable",
      "type": "function"
    },
    {
      "inputs": [
        {
          "internalType": "bytes32",
          "name": "role",
          "type": "bytes32"
        },
        {
          "internalType": "address",
          "name": "account",
          "type": "address"
        }
      ],
      "name": "revokeRole",
      "outputs": [],
      "stateMutability": "nonpayable",
      "type": "function"
    },
    {
      "inputs": [
        {
          "internalType": "address",
          "name": "_signer",
          "type": "address"
        },
        {
          "internalType": "bool",
          "name": "status",
          "type": "bool"
        }
      ],
      "name": "setActiveSigner",
      "outputs": [],
      "stateMutability": "nonpayable",
      "type": "function"
    },
    {
      "inputs": [
        {
          "internalType": "uint256",
          "name": "newMaxSupply",
          "type": "uint256"
        }
      ],
      "name": "setMaxSupply",
      "outputs": [],
      "stateMutability": "nonpayable",
      "type": "function"
    },
    {
      "inputs": [
        {
          "internalType": "address",
          "name": "signer_",
          "type": "address"
        }
      ],
      "name": "setSigner",
      "outputs": [],
      "stateMutability": "nonpayable",
      "type": "function"
    },
    {
      "inputs": [
        {
          "internalType": "string",
          "name": "stage",
          "type": "string"
        },
        {
          "internalType": "bool",
          "name": "enableSig",
          "type": "bool"
        }
      ],
      "name": "setStageEnableSig",
      "outputs": [],
      "stateMutability": "nonpayable",
      "type": "function"
    },
    {
      "inputs": [
        {
          "internalType": "string",
          "name": "stage",
          "type": "string"
        },
        {
          "internalType": "uint32",
          "name": "_maxSupply",
          "type": "uint32"
        }
      ],
      "name": "setStageMaxSupply",
      "outputs": [],
      "stateMutability": "nonpayable",
      "type": "function"
    },
    {
      "inputs": [
        {
          "components": [
            {
              "internalType": "bool",
              "name": "enableSig",
              "type": "bool"
            },
            {
              "internalType": "uint8",
              "name": "limitationForAddress",
              "type": "uint8"
            },
            {
              "internalType": "uint32",
              "name": "maxSupplyForStage",
              "type": "uint32"
            },
            {
              "internalType": "uint64",
              "name": "startTime",
              "type": "uint64"
            },
            {
              "internalType": "uint64",
              "name": "endTime",
              "type": "uint64"
            },
            {
              "internalType": "uint256",
              "name": "price",
              "type": "uint256"
            },
            {
              "internalType": "address",
              "name": "paymentToken",
              "type": "address"
            },
            {
              "internalType": "address",
              "name": "payeeAddress",
              "type": "address"
            },
            {
              "internalType": "bytes32",
              "name": "allowListMerkleRoot",
              "type": "bytes32"
            },
            {
              "internalType": "string",
              "name": "stage",
              "type": "string"
            },
            {
              "internalType": "enum IOKXMultiMint.MintType",
              "name": "mintType",
              "type": "uint8"
            }
          ],
          "internalType": "struct IOKXMultiMint.StageMintInfo",
          "name": "stageMintInfo",
          "type": "tuple"
        }
      ],
      "name": "setStageMintInfo",
      "outputs": [],
      "stateMutability": "nonpayable",
      "type": "function"
    },
    {
      "inputs": [
        {
          "internalType": "string",
          "name": "stage",
          "type": "string"
        },
        {
          "internalType": "uint8",
          "name": "mintLimitationPerAddress",
          "type": "uint8"
        }
      ],
      "name": "setStageMintLimitationPerAddress",
      "outputs": [],
      "stateMutability": "nonpayable",
      "type": "function"
    },
    {
      "inputs": [
        {
          "internalType": "string",
          "name": "stage",
          "type": "string"
        },
        {
          "internalType": "uint64",
          "name": "startTime",
          "type": "uint64"
        },
        {
          "internalType": "uint64",
          "name": "endTime",
          "type": "uint64"
        }
      ],
      "name": "setStageMintTime",
      "outputs": [],
      "stateMutability": "nonpayable",
      "type": "function"
    },
    {
      "inputs": [
        {
          "internalType": "string",
          "name": "stage",
          "type": "string"
        },
        {
          "internalType": "address",
          "name": "payeeAddress",
          "type": "address"
        },
        {
          "internalType": "address",
          "name": "paymentToken",
          "type": "address"
        },
        {
          "internalType": "uint256",
          "name": "price",
          "type": "uint256"
        }
      ],
      "name": "setStagePayment",
      "outputs": [],
      "stateMutability": "nonpayable",
      "type": "function"
    },
    {
      "inputs": [
        {
          "internalType": "bool",
          "name": "isTransferRestricted_",
          "type": "bool"
        },
        {
          "internalType": "uint64",
          "name": "startTime",
          "type": "uint64"
        },
        {
          "internalType": "uint64",
          "name": "endTime",
          "type": "uint64"
        }
      ],
      "name": "setTransferRestricted",
      "outputs": [],
      "stateMutability": "nonpayable",
      "type": "function"
    },
    {
      "inputs": [],
      "name": "signer",
      "outputs": [
        {
          "internalType": "address",
          "name": "",
          "type": "address"
        }
      ],
      "stateMutability": "view",
      "type": "function"
    },
    {
      "inputs": [
        {
          "internalType": "string",
          "name": "stage",
          "type": "string"
        }
      ],
      "name": "stageToMint",
      "outputs": [
        {
          "components": [
            {
              "internalType": "bool",
              "name": "enableSig",
              "type": "bool"
            },
            {
              "internalType": "uint8",
              "name": "limitationForAddress",
              "type": "uint8"
            },
            {
              "internalType": "uint32",
              "name": "maxSupplyForStage",
              "type": "uint32"
            },
            {
              "internalType": "uint64",
              "name": "startTime",
              "type": "uint64"
            },
            {
              "internalType": "uint64",
              "name": "endTime",
              "type": "uint64"
            },
            {
              "internalType": "uint256",
              "name": "price",
              "type": "uint256"
            },
            {
              "internalType": "address",
              "name": "paymentToken",
              "type": "address"
            },
            {
              "internalType": "address",
              "name": "payeeAddress",
              "type": "address"
            },
            {
              "internalType": "bytes32",
              "name": "allowListMerkleRoot",
              "type": "bytes32"
            },
            {
              "internalType": "string",
              "name": "stage",
              "type": "string"
            },
            {
              "internalType": "enum IOKXMultiMint.MintType",
              "name": "mintType",
              "type": "uint8"
            }
          ],
          "internalType": "struct IOKXMultiMint.StageMintInfo",
          "name": "",
          "type": "tuple"
        }
      ],
      "stateMutability": "view",
      "type": "function"
    },
    {
      "inputs": [
        {
          "internalType": "string",
          "name": "stage",
          "type": "string"
        }
      ],
      "name": "stageToTotalSupply",
      "outputs": [
        {
          "internalType": "uint256",
          "name": "",
          "type": "uint256"
        }
      ],
      "stateMutability": "view",
      "type": "function"
    },
    {
      "inputs": [
        {
          "internalType": "bytes4",
          "name": "interfaceId",
          "type": "bytes4"
        }
      ],
      "name": "supportsInterface",
      "outputs": [
        {
          "internalType": "bool",
          "name": "",
          "type": "bool"
        }
      ],
      "stateMutability": "view",
      "type": "function"
    },
    {
      "inputs": [],
      "name": "totalMintedAmount",
      "outputs": [
        {
          "internalType": "uint256",
          "name": "",
          "type": "uint256"
        }
      ],
      "stateMutability": "view",
      "type": "function"
    },
    {
      "inputs": [],
      "name": "totalSupply",
      "outputs": [
        {
          "internalType": "uint256",
          "name": "",
          "type": "uint256"
        }
      ],
      "stateMutability": "view",
      "type": "function"
    }
  ],
  "transactionHash": "0x71004d086cfa74e8aa4ec1177f6fab3736678a51f0f79c1845b330221b0a2e10",
  "args": [],
  "numDeployments": 1,
  "solcInputHash": "109913a22c98c07c612da02b64057b65",
  "bytecode": "0x608060405234801561001057600080fd5b5061001f61002460201b60201c565b61018e565b600061003461012860201b60201c565b90508060000160089054906101000a900460ff161561007f576040517ff92ee8a900000000000000000000000000000000000000000000000000000000815260040160405180910390fd5b67ffffffffffffffff80168160000160009054906101000a900467ffffffffffffffff1667ffffffffffffffff16146101255767ffffffffffffffff8160000160006101000a81548167ffffffffffffffff021916908367ffffffffffffffff1602179055507fc7f505b2f371ae2175ee4913f4499e1f2633a7b5936321eed1cdaeb6115181d267ffffffffffffffff60405161011c9190610173565b60405180910390a15b50565b60007ff0c57e16840df040f15088dc2f81fe391c3923bec73e23a9662efc9c229c6a00905090565b600067ffffffffffffffff82169050919050565b61016d81610150565b82525050565b60006020820190506101886000830184610164565b92915050565b615b8a8061019d6000396000f3fe608060405234801561001057600080fd5b50600436106101da5760003560e01c80636f8b44b011610104578063b67f21be116100a2578063d5abeb0111610071578063d5abeb0114610541578063d9bc5da81461055f578063e32e2bbc1461057d578063f914c88b14610599576101da565b8063b67f21be146104d1578063c0c53b8b146104ed578063d4aa8d6f14610509578063d547741f14610525576101da565b806391d14854116100de57806391d14854146104375780639fe78f7914610467578063a217fddf14610497578063a5f5a4a8146104b5576101da565b80636f8b44b0146103c7578063832f9f54146103e357806384b0196e14610413576101da565b80632f2ff15d1161017c5780634fb5656a1161014b5780634fb5656a1461035557806362f42822146103715780636c19e7831461038d5780636f865e6f146103a9576101da565b80632f2ff15d146102d157806336568abe146102ed5780634899cf0b146103095780634d73cbd514610325576101da565b806318160ddd116101b857806318160ddd14610249578063238ac93314610267578063248a9ca31461028557806328c1a4f5146102b5576101da565b806301ffc9a7146101df5780630fbe291a1461020f57806317d13a2b1461023f575b600080fd5b6101f960048036038101906101f491906139ac565b6105b7565b60405161020691906139f4565b60405180910390f35b61022960048036038101906102249190613bb3565b610631565b6040516102369190613c28565b60405180910390f35b610247610697565b005b6102516106da565b60405161025e9190613c28565b60405180910390f35b61026f6106e4565b60405161027c9190613c52565b60405180910390f35b61029f600480360381019061029a9190613ca3565b610708565b6040516102ac9190613cdf565b60405180910390f35b6102cf60048036038101906102ca9190613d26565b610736565b005b6102eb60048036038101906102e69190613d66565b610846565b005b61030760048036038101906103029190613d66565b610868565b005b610323600480360381019061031e9190613de6565b6108e3565b005b61033f600480360381019061033a9190613e39565b610913565b60405161034c91906140ed565b60405180910390f35b61036f600480360381019061036a919061419b565b610b9b565b005b61038b60048036038101906103869190614248565b610e0f565b005b6103a760048036038101906103a29190614291565b610f35565b005b6103b1610fa3565b6040516103be9190613c28565b60405180910390f35b6103e160048036038101906103dc91906142be565b610fa9565b005b6103fd60048036038101906103f891906143b6565b611015565b60405161040a9190613c28565b60405180910390f35b61041b6113ed565b60405161042e97969594939291906145b4565b60405180910390f35b610451600480360381019061044c9190613d66565b6114ff565b60405161045e91906139f4565b60405180910390f35b610481600480360381019061047c9190613e39565b611578565b60405161048e9190613c28565b60405180910390f35b61049f6115a0565b6040516104ac9190613cdf565b60405180910390f35b6104cf60048036038101906104ca9190614638565b6115a7565b005b6104eb60048036038101906104e691906146c4565b611702565b005b61050760048036038101906105029190614724565b611899565b005b610523600480360381019061051e9190614777565b611b16565b005b61053f600480360381019061053a9190613d66565b611d6b565b005b610549611d8d565b6040516105569190613c28565b60405180910390f35b610567611d97565b6040516105749190613cdf565b60405180910390f35b61059760048036038101906105929190614817565b611dbb565b005b6105a161200b565b6040516105ae9190613cdf565b60405180910390f35b60007f7965db0b000000000000000000000000000000000000000000000000000000007bffffffffffffffffffffffffffffffffffffffffffffffffffffffff1916827bffffffffffffffffffffffffffffffffffffffffffffffffffffffff1916148061062a57506106298261202f565b5b9050919050565b6000600260008473ffffffffffffffffffffffffffffffffffffffff1673ffffffffffffffffffffffffffffffffffffffff1681526020019081526020016000208260405161068091906148b3565b908152602001604051809103902054905092915050565b7fac630b03257fae252401511397e2a5bf973b613a6473dff7f66f4ceac436379a6106c181612099565b6006600081546106d0906148f9565b9190508190555050565b6000600654905090565b60008054906101000a900473ffffffffffffffffffffffffffffffffffffffff1681565b6000806107136120ad565b905080600001600084815260200190815260200160002060010154915050919050565b7fac630b03257fae252401511397e2a5bf973b613a6473dff7f66f4ceac436379a61076081612099565b81156107ab57826000806101000a81548173ffffffffffffffffffffffffffffffffffffffff021916908373ffffffffffffffffffffffffffffffffffffffff160217905550610841565b8273ffffffffffffffffffffffffffffffffffffffff1660008054906101000a900473ffffffffffffffffffffffffffffffffffffffff1673ffffffffffffffffffffffffffffffffffffffff16036108405760008060006101000a81548173ffffffffffffffffffffffffffffffffffffffff021916908373ffffffffffffffffffffffffffffffffffffffff1602179055505b5b505050565b61084f82610708565b61085881612099565b61086283836120d5565b50505050565b6108706121d6565b73ffffffffffffffffffffffffffffffffffffffff168173ffffffffffffffffffffffffffffffffffffffff16146108d4576040517f6697b23200000000000000000000000000000000000000000000000000000000815260040160405180910390fd5b6108de82826121de565b505050565b7fac630b03257fae252401511397e2a5bf973b613a6473dff7f66f4ceac436379a61090d81612099565b50505050565b61091b613886565b60038260405161092b91906148b3565b9081526020016040518091039020604051806101600160405290816000820160009054906101000a900460ff161515151581526020016000820160019054906101000a900460ff1660ff1660ff1681526020016000820160029054906101000a900463ffffffff1663ffffffff1663ffffffff1681526020016000820160069054906101000a900467ffffffffffffffff1667ffffffffffffffff1667ffffffffffffffff16815260200160008201600e9054906101000a900467ffffffffffffffff1667ffffffffffffffff1667ffffffffffffffff168152602001600182015481526020016002820160009054906101000a900473ffffffffffffffffffffffffffffffffffffffff1673ffffffffffffffffffffffffffffffffffffffff1673ffffffffffffffffffffffffffffffffffffffff1681526020016003820160009054906101000a900473ffffffffffffffffffffffffffffffffffffffff1673ffffffffffffffffffffffffffffffffffffffff1673ffffffffffffffffffffffffffffffffffffffff16815260200160048201548152602001600582018054610ad790614970565b80601f0160208091040260200160405190810160405280929190818152602001828054610b0390614970565b8015610b505780601f10610b2557610100808354040283529160200191610b50565b820191906000526020600020905b815481529060010190602001808311610b3357829003601f168201915b505050505081526020016006820160009054906101000a900460ff166001811115610b7e57610b7d613f87565b5b6001811115610b9057610b8f613f87565b5b815250509050919050565b7fac630b03257fae252401511397e2a5bf973b613a6473dff7f66f4ceac436379a610bc581612099565b8585600060038383604051610bdb9291906149c6565b90815260200160405180910390206005018054610bf790614970565b80601f0160208091040260200160405190810160405280929190818152602001828054610c2390614970565b8015610c705780601f10610c4557610100808354040283529160200191610c70565b820191906000526020600020905b815481529060010190602001808311610c5357829003601f168201915b505050505090506000815103610cb2576040517ff62075ae00000000000000000000000000000000000000000000000000000000815260040160405180910390fd5b600073ffffffffffffffffffffffffffffffffffffffff168773ffffffffffffffffffffffffffffffffffffffff1603610d18576040517ff25dd3b600000000000000000000000000000000000000000000000000000000815260040160405180910390fd5b8660038a8a604051610d2b9291906149c6565b908152602001604051809103902060030160006101000a81548173ffffffffffffffffffffffffffffffffffffffff021916908373ffffffffffffffffffffffffffffffffffffffff1602179055508560038a8a604051610d8d9291906149c6565b908152602001604051809103902060020160006101000a81548173ffffffffffffffffffffffffffffffffffffffff021916908373ffffffffffffffffffffffffffffffffffffffff1602179055508460038a8a604051610def9291906149c6565b908152602001604051809103902060010181905550505050505050505050565b7fac630b03257fae252401511397e2a5bf973b613a6473dff7f66f4ceac436379a610e3981612099565b600082806101200190610e4c91906149ee565b8080601f016020809104026020016040519081016040528093929190818152602001838380828437600081840152601f19601f820116905080830192505050505050509050610e9a816122e0565b82600382604051610eab91906148b3565b90815260200160405180910390208181610ec59190615322565b905050826040016020810190610edb9190615330565b63ffffffff1660056000828254610ef2919061535d565b925050819055507f3098a44a87b49bb0e16adabb19d7fbab0ce83381577960dbad922069268f03a583604051610f289190615646565b60405180910390a1505050565b7fac630b03257fae252401511397e2a5bf973b613a6473dff7f66f4ceac436379a610f5f81612099565b816000806101000a81548173ffffffffffffffffffffffffffffffffffffffff021916908373ffffffffffffffffffffffffffffffffffffffff1602179055505050565b60065481565b7fac630b03257fae252401511397e2a5bf973b613a6473dff7f66f4ceac436379a610fd381612099565b816005819055507f23162400366ff723389b0be8586a2779dd88fbce97f4356cec45836496f56d22826040516110099190615677565b60405180910390a15050565b6000816000013590506000600389896040516110329291906149c6565b9081526020016040518091039020604051806101600160405290816000820160009054906101000a900460ff161515151581526020016000820160019054906101000a900460ff1660ff1660ff1681526020016000820160029054906101000a900463ffffffff1663ffffffff1663ffffffff1681526020016000820160069054906101000a900467ffffffffffffffff1667ffffffffffffffff1667ffffffffffffffff16815260200160008201600e9054906101000a900467ffffffffffffffff1667ffffffffffffffff1667ffffffffffffffff168152602001600182015481526020016002820160009054906101000a900473ffffffffffffffffffffffffffffffffffffffff1673ffffffffffffffffffffffffffffffffffffffff1673ffffffffffffffffffffffffffffffffffffffff1681526020016003820160009054906101000a900473ffffffffffffffffffffffffffffffffffffffff1673ffffffffffffffffffffffffffffffffffffffff1673ffffffffffffffffffffffffffffffffffffffff168152602001600482015481526020016005820180546111de90614970565b80601f016020809104026020016040519081016040528092919081815260200182805461120a90614970565b80156112575780601f1061122c57610100808354040283529160200191611257565b820191906000526020600020905b81548152906001019060200180831161123a57829003601f168201915b505050505081526020016006820160009054906101000a900460ff16600181111561128557611284613f87565b5b600181111561129757611296613f87565b5b815250509050600060018111156112b1576112b0613f87565b5b81610140015160018111156112c9576112c8613f87565b5b1461138e57611357878780806020026020016040519081016040528093929190818152602001838360200280828437600081840152601f19601f8201169050808301925050505050505082610100015185608001602081019061132c9190614291565b60405160200161133c91906156da565b604051602081830303815290604052805190602001206123cd565b61138d576040517f584a793800000000000000000000000000000000000000000000000000000000815260040160405180910390fd5b5b61139b89898787876123e4565b6113a589896128c7565b6113c389898560800160208101906113bd9190614291565b85612bb7565b6113e189898560800160208101906113db9190614291565b85612fc2565b50979650505050505050565b600060608060008060006060600061140361308c565b90506000801b816000015414801561142157506000801b8160010154145b611460576040517f08c379a000000000000000000000000000000000000000000000000000000000815260040161145790615741565b60405180910390fd5b6114686130b4565b611470613155565b46306000801b600067ffffffffffffffff81111561149157611490613a88565b5b6040519080825280602002602001820160405280156114bf5781602001602082028036833780820191505090505b507f0f0000000000000000000000000000000000000000000000000000000000000095949392919097509750975097509750975097505090919293949596565b60008061150a6120ad565b905080600001600085815260200190815260200160002060000160008473ffffffffffffffffffffffffffffffffffffffff1673ffffffffffffffffffffffffffffffffffffffff16815260200190815260200160002060009054906101000a900460ff1691505092915050565b600060048260405161158a91906148b3565b9081526020016040518091039020549050919050565b6000801b81565b7fac630b03257fae252401511397e2a5bf973b613a6473dff7f66f4ceac436379a6115d181612099565b83836000600383836040516115e79291906149c6565b9081526020016040518091039020600501805461160390614970565b80601f016020809104026020016040519081016040528092919081815260200182805461162f90614970565b801561167c5780601f106116515761010080835404028352916020019161167c565b820191906000526020600020905b81548152906001019060200180831161165f57829003601f168201915b5050505050905060008151036116be576040517ff62075ae00000000000000000000000000000000000000000000000000000000815260040160405180910390fd5b84600388886040516116d19291906149c6565b908152602001604051809103902060000160006101000a81548160ff02191690831515021790555050505050505050565b7fac630b03257fae252401511397e2a5bf973b613a6473dff7f66f4ceac436379a61172c81612099565b83836000600383836040516117429291906149c6565b9081526020016040518091039020600501805461175e90614970565b80601f016020809104026020016040519081016040528092919081815260200182805461178a90614970565b80156117d75780601f106117ac576101008083540402835291602001916117d7565b820191906000526020600020905b8154815290600101906020018083116117ba57829003601f168201915b505050505090506000815103611819576040517ff62075ae00000000000000000000000000000000000000000000000000000000815260040160405180910390fd5b846003888860405161182c9291906149c6565b908152602001604051809103902060000160016101000a81548160ff021916908360ff1602179055507f9c088b91965a570a827483dbf41f285fe5ffc91f0eec29f0952b84ed8f67fae78787876040516118889392919061579d565b60405180910390a150505050505050565b60006118a36131f6565b905060008160000160089054906101000a900460ff1615905060008260000160009054906101000a900467ffffffffffffffff1690506000808267ffffffffffffffff161480156118f15750825b9050600060018367ffffffffffffffff16148015611926575060003073ffffffffffffffffffffffffffffffffffffffff163b145b905081158015611934575080155b1561196b576040517ff92ee8a900000000000000000000000000000000000000000000000000000000815260040160405180910390fd5b60018560000160006101000a81548167ffffffffffffffff021916908367ffffffffffffffff16021790555083156119bb5760018560000160086101000a81548160ff0219169083151502179055505b611a2f6040518060400160405280600781526020017f4f4b584d696e74000000000000000000000000000000000000000000000000008152506040518060400160405280600381526020017f312e30000000000000000000000000000000000000000000000000000000000081525061321e565b611a37613234565b611a446000801b896120d5565b50611a6f7fac630b03257fae252401511397e2a5bf973b613a6473dff7f66f4ceac436379a886120d5565b50856000806101000a81548173ffffffffffffffffffffffffffffffffffffffff021916908373ffffffffffffffffffffffffffffffffffffffff1602179055508315611b0c5760008560000160086101000a81548160ff0219169083151502179055507fc7f505b2f371ae2175ee4913f4499e1f2633a7b5936321eed1cdaeb6115181d26001604051611b03919061580a565b60405180910390a15b5050505050505050565b7fac630b03257fae252401511397e2a5bf973b613a6473dff7f66f4ceac436379a611b4081612099565b8484600060038383604051611b569291906149c6565b90815260200160405180910390206005018054611b7290614970565b80601f0160208091040260200160405190810160405280929190818152602001828054611b9e90614970565b8015611beb5780601f10611bc057610100808354040283529160200191611beb565b820191906000526020600020905b815481529060010190602001808311611bce57829003601f168201915b505050505090506000815103611c2d576040517ff62075ae00000000000000000000000000000000000000000000000000000000815260040160405180910390fd5b8467ffffffffffffffff168667ffffffffffffffff16101580611c595750428667ffffffffffffffff16105b15611c90576040517f6f7eac2600000000000000000000000000000000000000000000000000000000815260040160405180910390fd5b8560038989604051611ca39291906149c6565b908152602001604051809103902060000160066101000a81548167ffffffffffffffff021916908367ffffffffffffffff1602179055508460038989604051611ced9291906149c6565b9081526020016040518091039020600001600e6101000a81548167ffffffffffffffff021916908367ffffffffffffffff1602179055507fb3ed4f952adc05b688a8e6a7107a4befbbb9428aff94669316a94868d1fa620388888888604051611d599493929190615834565b60405180910390a15050505050505050565b611d7482610708565b611d7d81612099565b611d8783836121de565b50505050565b6000600554905090565b7fac630b03257fae252401511397e2a5bf973b613a6473dff7f66f4ceac436379a81565b7fac630b03257fae252401511397e2a5bf973b613a6473dff7f66f4ceac436379a611de581612099565b8383600060038383604051611dfb9291906149c6565b90815260200160405180910390206005018054611e1790614970565b80601f0160208091040260200160405190810160405280929190818152602001828054611e4390614970565b8015611e905780601f10611e6557610100808354040283529160200191611e90565b820191906000526020600020905b815481529060010190602001808311611e7357829003601f168201915b505050505090506000815103611ed2576040517ff62075ae00000000000000000000000000000000000000000000000000000000815260040160405180910390fd5b8463ffffffff166005541015611f14576040517fac03c3b000000000000000000000000000000000000000000000000000000000815260040160405180910390fd5b60038787604051611f269291906149c6565b908152602001604051809103902060000160029054906101000a900463ffffffff1663ffffffff1660056000828254611f5f9190615874565b925050819055508463ffffffff1660056000828254611f7e919061535d565b925050819055508460038888604051611f989291906149c6565b908152602001604051809103902060000160026101000a81548163ffffffff021916908363ffffffff1602179055507fdbd25090b31665138dd4f4d5112f0123a57b48df47d5d5ca8edfff72c7d6b18e878787604051611ffa939291906158a8565b60405180910390a150505050505050565b7f8762e52abb3a2c73aaa491352cfcecff08ac1a6a9c90fee19015fc187a37747381565b60007f01ffc9a7000000000000000000000000000000000000000000000000000000007bffffffffffffffffffffffffffffffffffffffffffffffffffffffff1916827bffffffffffffffffffffffffffffffffffffffffffffffffffffffff1916149050919050565b6120aa816120a56121d6565b61323e565b50565b60007f02dd7bc7dec4dceedda775e58dd541e08a116c6c53815c0bd028192f7b626800905090565b6000806120e06120ad565b90506120ec84846114ff565b6121ca57600181600001600086815260200190815260200160002060000160008573ffffffffffffffffffffffffffffffffffffffff1673ffffffffffffffffffffffffffffffffffffffff16815260200190815260200160002060006101000a81548160ff0219169083151502179055506121666121d6565b73ffffffffffffffffffffffffffffffffffffffff168373ffffffffffffffffffffffffffffffffffffffff16857f2f8788117e7eff1d82e926ec794901d17c78024a50270940304540a733656f0d60405160405180910390a460019150506121d0565b60009150505b92915050565b600033905090565b6000806121e96120ad565b90506121f584846114ff565b156122d457600081600001600086815260200190815260200160002060000160008573ffffffffffffffffffffffffffffffffffffffff1673ffffffffffffffffffffffffffffffffffffffff16815260200190815260200160002060006101000a81548160ff0219169083151502179055506122706121d6565b73ffffffffffffffffffffffffffffffffffffffff168373ffffffffffffffffffffffffffffffffffffffff16857ff6391f5c32d9c69d2a47ea670b442974b53935d1edc7fd64eb21e047a839171b60405160405180910390a460019150506122da565b60009150505b92915050565b60006003826040516122f291906148b3565b9081526020016040518091039020600501805461230e90614970565b80601f016020809104026020016040519081016040528092919081815260200182805461233a90614970565b80156123875780601f1061235c57610100808354040283529160200191612387565b820191906000526020600020905b81548152906001019060200180831161236a57829003601f168201915b5050505050905060008151146123c9576040517f19b1e27700000000000000000000000000000000000000000000000000000000815260040160405180910390fd5b5050565b6000826123da858461328f565b1490509392505050565b6000600386866040516123f89291906149c6565b9081526020016040518091039020604051806101600160405290816000820160009054906101000a900460ff161515151581526020016000820160019054906101000a900460ff1660ff1660ff1681526020016000820160029054906101000a900463ffffffff1663ffffffff1663ffffffff1681526020016000820160069054906101000a900467ffffffffffffffff1667ffffffffffffffff1667ffffffffffffffff16815260200160008201600e9054906101000a900467ffffffffffffffff1667ffffffffffffffff1667ffffffffffffffff168152602001600182015481526020016002820160009054906101000a900473ffffffffffffffffffffffffffffffffffffffff1673ffffffffffffffffffffffffffffffffffffffff1673ffffffffffffffffffffffffffffffffffffffff1681526020016003820160009054906101000a900473ffffffffffffffffffffffffffffffffffffffff1673ffffffffffffffffffffffffffffffffffffffff1673ffffffffffffffffffffffffffffffffffffffff168152602001600482015481526020016005820180546125a490614970565b80601f01602080910402602001604051908101604052809291908181526020018280546125d090614970565b801561261d5780601f106125f25761010080835404028352916020019161261d565b820191906000526020600020905b81548152906001019060200180831161260057829003601f168201915b505050505081526020016006820160009054906101000a900460ff16600181111561264b5761264a613f87565b5b600181111561265d5761265c613f87565b5b8152505090508060000151156128bf576001848460405161267f92919061590a565b908152602001604051809103902060009054906101000a900460ff16156126d2576040517f900bb2c900000000000000000000000000000000000000000000000000000000815260040160405180910390fd5b8160600135421115612710576040517fdf4cc36d00000000000000000000000000000000000000000000000000000000815260040160405180910390fd5b600180858560405161272392919061590a565b908152602001604051809103902060006101000a81548160ff021916908315150217905550600080878760405161275b92919061590a565b604051809103902090507f8762e52abb3a2c73aaa491352cfcecff08ac1a6a9c90fee19015fc187a3774738460800160208101906127999190614291565b8560200135866000013587604001358860600135866040516020016127c49796959493929190615923565b6040516020818303038152906040528051906020012091505060006128356127eb836132df565b87878080601f016020809104026020016040519081016040528093929190818152602001838380828437600081840152601f19601f820116905080830192505050505050506132f9565b905060008054906101000a900473ffffffffffffffffffffffffffffffffffffffff1673ffffffffffffffffffffffffffffffffffffffff168173ffffffffffffffffffffffffffffffffffffffff16146128bc576040517f8baa579f00000000000000000000000000000000000000000000000000000000815260040160405180910390fd5b50505b505050505050565b6000600383836040516128db9291906149c6565b9081526020016040518091039020604051806101600160405290816000820160009054906101000a900460ff161515151581526020016000820160019054906101000a900460ff1660ff1660ff1681526020016000820160029054906101000a900463ffffffff1663ffffffff1663ffffffff1681526020016000820160069054906101000a900467ffffffffffffffff1667ffffffffffffffff1667ffffffffffffffff16815260200160008201600e9054906101000a900467ffffffffffffffff1667ffffffffffffffff1667ffffffffffffffff168152602001600182015481526020016002820160009054906101000a900473ffffffffffffffffffffffffffffffffffffffff1673ffffffffffffffffffffffffffffffffffffffff1673ffffffffffffffffffffffffffffffffffffffff1681526020016003820160009054906101000a900473ffffffffffffffffffffffffffffffffffffffff1673ffffffffffffffffffffffffffffffffffffffff1673ffffffffffffffffffffffffffffffffffffffff16815260200160048201548152602001600582018054612a8790614970565b80601f0160208091040260200160405190810160405280929190818152602001828054612ab390614970565b8015612b005780601f10612ad557610100808354040283529160200191612b00565b820191906000526020600020905b815481529060010190602001808311612ae357829003601f168201915b505050505081526020016006820160009054906101000a900460ff166001811115612b2e57612b2d613f87565b5b6001811115612b4057612b3f613f87565b5b8152505090506001612b61826080015167ffffffffffffffff164211613325565b612b7a836060015167ffffffffffffffff164210613325565b1703612bb2576040517f80cb55e200000000000000000000000000000000000000000000000000000000815260040160405180910390fd5b505050565b600060038585604051612bcb9291906149c6565b9081526020016040518091039020604051806101600160405290816000820160009054906101000a900460ff161515151581526020016000820160019054906101000a900460ff1660ff1660ff1681526020016000820160029054906101000a900463ffffffff1663ffffffff1663ffffffff1681526020016000820160069054906101000a900467ffffffffffffffff1667ffffffffffffffff1667ffffffffffffffff16815260200160008201600e9054906101000a900467ffffffffffffffff1667ffffffffffffffff1667ffffffffffffffff168152602001600182015481526020016002820160009054906101000a900473ffffffffffffffffffffffffffffffffffffffff1673ffffffffffffffffffffffffffffffffffffffff1673ffffffffffffffffffffffffffffffffffffffff1681526020016003820160009054906101000a900473ffffffffffffffffffffffffffffffffffffffff1673ffffffffffffffffffffffffffffffffffffffff1673ffffffffffffffffffffffffffffffffffffffff16815260200160048201548152602001600582018054612d7790614970565b80601f0160208091040260200160405190810160405280929190818152602001828054612da390614970565b8015612df05780601f10612dc557610100808354040283529160200191612df0565b820191906000526020600020905b815481529060010190602001808311612dd357829003601f168201915b505050505081526020016006820160009054906101000a900460ff166001811115612e1e57612e1d613f87565b5b6001811115612e3057612e2f613f87565b5b8152505090506000600260008573ffffffffffffffffffffffffffffffffffffffff1673ffffffffffffffffffffffffffffffffffffffff1681526020019081526020016000208686604051612e879291906149c6565b90815260200160405180910390205490506000826020015160ff1690506000836040015163ffffffff169050600060048989604051612ec79291906149c6565b9081526020016040518091039020549050828685612ee5919061535d565b1115612f1d576040517f3194dcd500000000000000000000000000000000000000000000000000000000815260040160405180910390fd5b600082118015612f375750818682612f35919061535d565b115b15612f6e576040517f932f3b0c00000000000000000000000000000000000000000000000000000000815260040160405180910390fd5b60055486600654612f7f919061535d565b1115612fb7576040517f1e186f7200000000000000000000000000000000000000000000000000000000815260040160405180910390fd5b505050505050505050565b8060066000828254612fd4919061535d565b9250508190555080600260008473ffffffffffffffffffffffffffffffffffffffff1673ffffffffffffffffffffffffffffffffffffffff168152602001908152602001600020858560405161302b9291906149c6565b90815260200160405180910390206000828254613048919061535d565b9250508190555080600485856040516130629291906149c6565b9081526020016040518091039020600082825461307f919061535d565b9250508190555050505050565b60007fa16a46d94261c7517cc8ff89f61c0ce93598e3c849801011dee649a6a557d100905090565b606060006130c061308c565b90508060020180546130d190614970565b80601f01602080910402602001604051908101604052809291908181526020018280546130fd90614970565b801561314a5780601f1061311f5761010080835404028352916020019161314a565b820191906000526020600020905b81548152906001019060200180831161312d57829003601f168201915b505050505091505090565b6060600061316161308c565b905080600301805461317290614970565b80601f016020809104026020016040519081016040528092919081815260200182805461319e90614970565b80156131eb5780601f106131c0576101008083540402835291602001916131eb565b820191906000526020600020905b8154815290600101906020018083116131ce57829003601f168201915b505050505091505090565b60007ff0c57e16840df040f15088dc2f81fe391c3923bec73e23a9662efc9c229c6a00905090565b61322661332f565b613230828261336f565b5050565b61323c61332f565b565b61324882826114ff565b61328b5780826040517fe2517d3f000000000000000000000000000000000000000000000000000000008152600401613282929190615992565b60405180910390fd5b5050565b60008082905060005b84518110156132d4576132c5828683815181106132b8576132b76159bb565b5b60200260200101516133c4565b91508080600101915050613298565b508091505092915050565b60006132f26132ec6133ef565b836133fe565b9050919050565b600080600080613309868661343f565b925092509250613319828261349b565b82935050505092915050565b6000819050919050565b6133376135ff565b61336d576040517fd7e6bcf800000000000000000000000000000000000000000000000000000000815260040160405180910390fd5b565b61337761332f565b600061338161308c565b90508281600201908161339491906159ea565b50818160030190816133a691906159ea565b506000801b81600001819055506000801b8160010181905550505050565b60008183106133dc576133d7828461361f565b6133e7565b6133e6838361361f565b5b905092915050565b60006133f9613636565b905090565b60006040517f190100000000000000000000000000000000000000000000000000000000000081528360028201528260228201526042812091505092915050565b600080600060418451036134845760008060006020870151925060408701519150606087015160001a90506134768882858561369a565b955095509550505050613494565b60006002855160001b9250925092505b9250925092565b600060038111156134af576134ae613f87565b5b8260038111156134c2576134c1613f87565b5b03156135fb57600160038111156134dc576134db613f87565b5b8260038111156134ef576134ee613f87565b5b03613526576040517ff645eedf00000000000000000000000000000000000000000000000000000000815260040160405180910390fd5b6002600381111561353a57613539613f87565b5b82600381111561354d5761354c613f87565b5b03613592578060001c6040517ffce698f70000000000000000000000000000000000000000000000000000000081526004016135899190613c28565b60405180910390fd5b6003808111156135a5576135a4613f87565b5b8260038111156135b8576135b7613f87565b5b036135fa57806040517fd78bce0c0000000000000000000000000000000000000000000000000000000081526004016135f19190613cdf565b60405180910390fd5b5b5050565b60006136096131f6565b60000160089054906101000a900460ff16905090565b600082600052816020526040600020905092915050565b60007f8b73c3c69bb8fe3d512ecc4cf759cc79239f7b179b0ffacaa9a75d522b39400f61366161378e565b61366961380a565b463060405160200161367f959493929190615abc565b60405160208183030381529060405280519060200120905090565b60008060007f7fffffffffffffffffffffffffffffff5d576e7357a4501ddfe92f46681b20a08460001c11156136da576000600385925092509250613784565b6000600188888888604051600081526020016040526040516136ff9493929190615b0f565b6020604051602081039080840390855afa158015613721573d6000803e3d6000fd5b505050602060405103519050600073ffffffffffffffffffffffffffffffffffffffff168173ffffffffffffffffffffffffffffffffffffffff160361377557600060016000801b93509350935050613784565b8060008060001b935093509350505b9450945094915050565b60008061379961308c565b905060006137a56130b4565b90506000815111156137c257808051906020012092505050613807565b6000826000015490506000801b81146137e057809350505050613807565b7fc5d2460186f7233c927e7db2dcc703c0e500b653ca82273b7bfad8045d85a47093505050505b90565b60008061381561308c565b90506000613821613155565b905060008151111561383e57808051906020012092505050613883565b6000826001015490506000801b811461385c57809350505050613883565b7fc5d2460186f7233c927e7db2dcc703c0e500b653ca82273b7bfad8045d85a47093505050505b90565b604051806101600160405280600015158152602001600060ff168152602001600063ffffffff168152602001600067ffffffffffffffff168152602001600067ffffffffffffffff16815260200160008152602001600073ffffffffffffffffffffffffffffffffffffffff168152602001600073ffffffffffffffffffffffffffffffffffffffff16815260200160008019168152602001606081526020016000600181111561393a57613939613f87565b5b81525090565b6000604051905090565b600080fd5b600080fd5b60007fffffffff0000000000000000000000000000000000000000000000000000000082169050919050565b61398981613954565b811461399457600080fd5b50565b6000813590506139a681613980565b92915050565b6000602082840312156139c2576139c161394a565b5b60006139d084828501613997565b91505092915050565b60008115159050919050565b6139ee816139d9565b82525050565b6000602082019050613a0960008301846139e5565b92915050565b600073ffffffffffffffffffffffffffffffffffffffff82169050919050565b6000613a3a82613a0f565b9050919050565b613a4a81613a2f565b8114613a5557600080fd5b50565b600081359050613a6781613a41565b92915050565b600080fd5b600080fd5b6000601f19601f8301169050919050565b7f4e487b7100000000000000000000000000000000000000000000000000000000600052604160045260246000fd5b613ac082613a77565b810181811067ffffffffffffffff82111715613adf57613ade613a88565b5b80604052505050565b6000613af2613940565b9050613afe8282613ab7565b919050565b600067ffffffffffffffff821115613b1e57613b1d613a88565b5b613b2782613a77565b9050602081019050919050565b82818337600083830152505050565b6000613b56613b5184613b03565b613ae8565b905082815260208101848484011115613b7257613b71613a72565b5b613b7d848285613b34565b509392505050565b600082601f830112613b9a57613b99613a6d565b5b8135613baa848260208601613b43565b91505092915050565b60008060408385031215613bca57613bc961394a565b5b6000613bd885828601613a58565b925050602083013567ffffffffffffffff811115613bf957613bf861394f565b5b613c0585828601613b85565b9150509250929050565b6000819050919050565b613c2281613c0f565b82525050565b6000602082019050613c3d6000830184613c19565b92915050565b613c4c81613a2f565b82525050565b6000602082019050613c676000830184613c43565b92915050565b6000819050919050565b613c8081613c6d565b8114613c8b57600080fd5b50565b600081359050613c9d81613c77565b92915050565b600060208284031215613cb957613cb861394a565b5b6000613cc784828501613c8e565b91505092915050565b613cd981613c6d565b82525050565b6000602082019050613cf46000830184613cd0565b92915050565b613d03816139d9565b8114613d0e57600080fd5b50565b600081359050613d2081613cfa565b92915050565b60008060408385031215613d3d57613d3c61394a565b5b6000613d4b85828601613a58565b9250506020613d5c85828601613d11565b9150509250929050565b60008060408385031215613d7d57613d7c61394a565b5b6000613d8b85828601613c8e565b9250506020613d9c85828601613a58565b9150509250929050565b600067ffffffffffffffff82169050919050565b613dc381613da6565b8114613dce57600080fd5b50565b600081359050613de081613dba565b92915050565b600080600060608486031215613dff57613dfe61394a565b5b6000613e0d86828701613d11565b9350506020613e1e86828701613dd1565b9250506040613e2f86828701613dd1565b9150509250925092565b600060208284031215613e4f57613e4e61394a565b5b600082013567ffffffffffffffff811115613e6d57613e6c61394f565b5b613e7984828501613b85565b91505092915050565b613e8b816139d9565b82525050565b600060ff82169050919050565b613ea781613e91565b82525050565b600063ffffffff82169050919050565b613ec681613ead565b82525050565b613ed581613da6565b82525050565b613ee481613c0f565b82525050565b613ef381613a2f565b82525050565b613f0281613c6d565b82525050565b600081519050919050565b600082825260208201905092915050565b60005b83811015613f42578082015181840152602081019050613f27565b60008484015250505050565b6000613f5982613f08565b613f638185613f13565b9350613f73818560208601613f24565b613f7c81613a77565b840191505092915050565b7f4e487b7100000000000000000000000000000000000000000000000000000000600052602160045260246000fd5b60028110613fc757613fc6613f87565b5b50565b6000819050613fd882613fb6565b919050565b6000613fe882613fca565b9050919050565b613ff881613fdd565b82525050565b6000610160830160008301516140176000860182613e82565b50602083015161402a6020860182613e9e565b50604083015161403d6040860182613ebd565b5060608301516140506060860182613ecc565b5060808301516140636080860182613ecc565b5060a083015161407660a0860182613edb565b5060c083015161408960c0860182613eea565b5060e083015161409c60e0860182613eea565b506101008301516140b1610100860182613ef9565b506101208301518482036101208601526140cb8282613f4e565b9150506101408301516140e2610140860182613fef565b508091505092915050565b600060208201905081810360008301526141078184613ffe565b905092915050565b600080fd5b600080fd5b60008083601f84011261412f5761412e613a6d565b5b8235905067ffffffffffffffff81111561414c5761414b61410f565b5b60208301915083600182028301111561416857614167614114565b5b9250929050565b61417881613c0f565b811461418357600080fd5b50565b6000813590506141958161416f565b92915050565b6000806000806000608086880312156141b7576141b661394a565b5b600086013567ffffffffffffffff8111156141d5576141d461394f565b5b6141e188828901614119565b955095505060206141f488828901613a58565b935050604061420588828901613a58565b925050606061421688828901614186565b9150509295509295909350565b600080fd5b6000610160828403121561423f5761423e614223565b5b81905092915050565b60006020828403121561425e5761425d61394a565b5b600082013567ffffffffffffffff81111561427c5761427b61394f565b5b61428884828501614228565b91505092915050565b6000602082840312156142a7576142a661394a565b5b60006142b584828501613a58565b91505092915050565b6000602082840312156142d4576142d361394a565b5b60006142e284828501614186565b91505092915050565b60008083601f84011261430157614300613a6d565b5b8235905067ffffffffffffffff81111561431e5761431d61410f565b5b60208301915083602082028301111561433a57614339614114565b5b9250929050565b60008083601f84011261435757614356613a6d565b5b8235905067ffffffffffffffff8111156143745761437361410f565b5b6020830191508360018202830111156143905761438f614114565b5b9250929050565b600060a082840312156143ad576143ac614223565b5b81905092915050565b6000806000806000806000610100888a0312156143d6576143d561394a565b5b600088013567ffffffffffffffff8111156143f4576143f361394f565b5b6144008a828b01614119565b9750975050602088013567ffffffffffffffff8111156144235761442261394f565b5b61442f8a828b016142eb565b9550955050604088013567ffffffffffffffff8111156144525761445161394f565b5b61445e8a828b01614341565b935093505060606144718a828b01614397565b91505092959891949750929550565b60007fff0000000000000000000000000000000000000000000000000000000000000082169050919050565b6144b581614480565b82525050565b600082825260208201905092915050565b60006144d782613f08565b6144e181856144bb565b93506144f1818560208601613f24565b6144fa81613a77565b840191505092915050565b600081519050919050565b600082825260208201905092915050565b6000819050602082019050919050565b600061453d8383613edb565b60208301905092915050565b6000602082019050919050565b600061456182614505565b61456b8185614510565b935061457683614521565b8060005b838110156145a757815161458e8882614531565b975061459983614549565b92505060018101905061457a565b5085935050505092915050565b600060e0820190506145c9600083018a6144ac565b81810360208301526145db81896144cc565b905081810360408301526145ef81886144cc565b90506145fe6060830187613c19565b61460b6080830186613c43565b61461860a0830185613cd0565b81810360c083015261462a8184614556565b905098975050505050505050565b6000806000604084860312156146515761465061394a565b5b600084013567ffffffffffffffff81111561466f5761466e61394f565b5b61467b86828701614119565b9350935050602061468e86828701613d11565b9150509250925092565b6146a181613e91565b81146146ac57600080fd5b50565b6000813590506146be81614698565b92915050565b6000806000604084860312156146dd576146dc61394a565b5b600084013567ffffffffffffffff8111156146fb576146fa61394f565b5b61470786828701614119565b9350935050602061471a868287016146af565b9150509250925092565b60008060006060848603121561473d5761473c61394a565b5b600061474b86828701613a58565b935050602061475c86828701613a58565b925050604061476d86828701613a58565b9150509250925092565b600080600080606085870312156147915761479061394a565b5b600085013567ffffffffffffffff8111156147af576147ae61394f565b5b6147bb87828801614119565b945094505060206147ce87828801613dd1565b92505060406147df87828801613dd1565b91505092959194509250565b6147f481613ead565b81146147ff57600080fd5b50565b600081359050614811816147eb565b92915050565b6000806000604084860312156148305761482f61394a565b5b600084013567ffffffffffffffff81111561484e5761484d61394f565b5b61485a86828701614119565b9350935050602061486d86828701614802565b9150509250925092565b600081905092915050565b600061488d82613f08565b6148978185614877565b93506148a7818560208601613f24565b80840191505092915050565b60006148bf8284614882565b915081905092915050565b7f4e487b7100000000000000000000000000000000000000000000000000000000600052601160045260246000fd5b600061490482613c0f565b91507fffffffffffffffffffffffffffffffffffffffffffffffffffffffffffffffff8203614936576149356148ca565b5b600182019050919050565b7f4e487b7100000000000000000000000000000000000000000000000000000000600052602260045260246000fd5b6000600282049050600182168061498857607f821691505b60208210810361499b5761499a614941565b5b50919050565b60006149ad8385614877565b93506149ba838584613b34565b82840190509392505050565b60006149d38284866149a1565b91508190509392505050565b600080fd5b600080fd5b600080fd5b60008083356001602003843603038112614a0b57614a0a6149df565b5b80840192508235915067ffffffffffffffff821115614a2d57614a2c6149e4565b5b602083019250600182023603831315614a4957614a486149e9565b5b509250929050565b60008135614a5e81613cfa565b80915050919050565b60008160001b9050919050565b600060ff614a8184614a67565b9350801983169250808416831791505092915050565b6000614aa2826139d9565b9050919050565b6000819050919050565b614abc82614a97565b614acf614ac882614aa9565b8354614a74565b8255505050565b60008135614ae381614698565b80915050919050565b60008160081b9050919050565b600061ff00614b0784614aec565b9350801983169250808416831791505092915050565b6000819050919050565b6000614b42614b3d614b3884613e91565b614b1d565b613e91565b9050919050565b6000819050919050565b614b5c82614b27565b614b6f614b6882614b49565b8354614af9565b8255505050565b60008135614b83816147eb565b80915050919050565b60008160101b9050919050565b600065ffffffff0000614bab84614b8c565b9350801983169250808416831791505092915050565b6000614bdc614bd7614bd284613ead565b614b1d565b613ead565b9050919050565b6000819050919050565b614bf682614bc1565b614c09614c0282614be3565b8354614b99565b8255505050565b60008135614c1d81613dba565b80915050919050565b60008160301b9050919050565b60006dffffffffffffffff000000000000614c4d84614c26565b9350801983169250808416831791505092915050565b6000614c7e614c79614c7484613da6565b614b1d565b613da6565b9050919050565b6000819050919050565b614c9882614c63565b614cab614ca482614c85565b8354614c33565b8255505050565b60008160701b9050919050565b600075ffffffffffffffff0000000000000000000000000000614ce184614cb2565b9350801983169250808416831791505092915050565b614d0082614c63565b614d13614d0c82614c85565b8354614cbf565b8255505050565b60008135614d278161416f565b80915050919050565b60007fffffffffffffffffffffffffffffffffffffffffffffffffffffffffffffffff614d5c84614a67565b9350801983169250808416831791505092915050565b6000614d8d614d88614d8384613c0f565b614b1d565b613c0f565b9050919050565b6000819050919050565b614da782614d72565b614dba614db382614d94565b8354614d30565b8255505050565b60008135614dce81613a41565b80915050919050565b600073ffffffffffffffffffffffffffffffffffffffff614df784614a67565b9350801983169250808416831791505092915050565b6000614e28614e23614e1e84613a0f565b614b1d565b613a0f565b9050919050565b6000614e3a82614e0d565b9050919050565b6000614e4c82614e2f565b9050919050565b6000819050919050565b614e6682614e41565b614e79614e7282614e53565b8354614dd7565b8255505050565b60008135614e8d81613c77565b80915050919050565b6000614ea182613c6d565b9050919050565b60008160001c9050919050565b6000614ec082614ea8565b9050919050565b614ed082614e96565b614ee3614edc82614eb5565b8354614d30565b8255505050565b600082905092915050565b60008190508160005260206000209050919050565b60006020601f8301049050919050565b600082821b905092915050565b600060088302614f577fffffffffffffffffffffffffffffffffffffffffffffffffffffffffffffffff82614f1a565b614f618683614f1a565b95508019841693508086168417925050509392505050565b614f8283614d72565b614f96614f8e82614d94565b848454614f27565b825550505050565b600090565b614fab614f9e565b614fb6818484614f79565b505050565b5b81811015614fda57614fcf600082614fa3565b600181019050614fbc565b5050565b601f82111561501f57614ff081614ef5565b614ff984614f0a565b81016020851015615008578190505b61501c61501485614f0a565b830182614fbb565b50505b505050565b600082821c905092915050565b600061504260001984600802615024565b1980831691505092915050565b600061505b8383615031565b9150826002028217905092915050565b6150758383614eea565b67ffffffffffffffff81111561508e5761508d613a88565b5b6150988254614970565b6150a3828285614fde565b6000601f8311600181146150d257600084156150c0578287013590505b6150ca858261504f565b865550615132565b601f1984166150e086614ef5565b60005b82811015615108578489013582556001820191506020850194506020810190506150e3565b868310156151255784890135615121601f891682615031565b8355505b6001600288020188555050505b50505050505050565b61514683838361506b565b505050565b6002811061515857600080fd5b50565b600081356151688161514b565b80915050919050565b600061517c82613fca565b9050919050565b6000819050919050565b61519682615171565b6151a96151a282615183565b8354614a74565b8255505050565b6000810160008301806151c281614a51565b90506151ce8184614ab3565b5050506000810160208301806151e381614ad6565b90506151ef8184614b53565b50505060008101604083018061520481614b76565b90506152108184614bed565b50505060008101606083018061522581614c10565b90506152318184614c8f565b50505060008101608083018061524681614c10565b90506152528184614cf7565b5050506001810160a083018061526781614d1a565b90506152738184614d9e565b5050506002810160c083018061528881614dc1565b90506152948184614e5d565b5050506003810160e08301806152a981614dc1565b90506152b58184614e5d565b505050600481016101008301806152cb81614e80565b90506152d78184614ec7565b5050506005810161012083016152ed81856149ee565b6152f881838661513b565b505050506006810161014083018061530f8161515b565b905061531b818461518d565b5050505050565b61532c82826151b0565b5050565b6000602082840312156153465761534561394a565b5b600061535484828501614802565b91505092915050565b600061536882613c0f565b915061537383613c0f565b925082820190508082111561538b5761538a6148ca565b5b92915050565b60006153a06020840184613d11565b905092915050565b60006153b760208401846146af565b905092915050565b60006153ce6020840184614802565b905092915050565b60006153e56020840184613dd1565b905092915050565b60006153fc6020840184614186565b905092915050565b60006154136020840184613a58565b905092915050565b600061542a6020840184613c8e565b905092915050565b600080fd5b600080fd5b600080fd5b6000808335600160200384360303811261545e5761545d61543c565b5b83810192508235915060208301925067ffffffffffffffff82111561548657615485615432565b5b60018202360383131561549c5761549b615437565b5b509250929050565b60006154b08385613f13565b93506154bd838584613b34565b6154c683613a77565b840190509392505050565b6000813590506154e08161514b565b92915050565b60006154f560208401846154d1565b905092915050565b600061016083016155116000840184615391565b61551e6000860182613e82565b5061552c60208401846153a8565b6155396020860182613e9e565b5061554760408401846153bf565b6155546040860182613ebd565b5061556260608401846153d6565b61556f6060860182613ecc565b5061557d60808401846153d6565b61558a6080860182613ecc565b5061559860a08401846153ed565b6155a560a0860182613edb565b506155b360c0840184615404565b6155c060c0860182613eea565b506155ce60e0840184615404565b6155db60e0860182613eea565b506155ea61010084018461541b565b6155f8610100860182613ef9565b50615607610120840184615441565b85830361012087015261561b8382846154a4565b9250505061562d6101408401846154e6565b61563b610140860182613fef565b508091505092915050565b6000602082019050818103600083015261566081846154fd565b905092915050565b61567181613ead565b82525050565b600060208201905061568c6000830184615668565b92915050565b60008160601b9050919050565b60006156aa82615692565b9050919050565b60006156bc8261569f565b9050919050565b6156d46156cf82613a2f565b6156b1565b82525050565b60006156e682846156c3565b60148201915081905092915050565b7f4549503731323a20556e696e697469616c697a65640000000000000000000000600082015250565b600061572b6015836144bb565b9150615736826156f5565b602082019050919050565b6000602082019050818103600083015261575a8161571e565b9050919050565b600061576d83856144bb565b935061577a838584613b34565b61578383613a77565b840190509392505050565b61579781613e91565b82525050565b600060408201905081810360008301526157b8818587615761565b90506157c7602083018461578e565b949350505050565b6000819050919050565b60006157f46157ef6157ea846157cf565b614b1d565b613da6565b9050919050565b615804816157d9565b82525050565b600060208201905061581f60008301846157fb565b92915050565b61582e81613da6565b82525050565b6000606082019050818103600083015261584f818688615761565b905061585e6020830185615825565b61586b6040830184615825565b95945050505050565b600061587f82613c0f565b915061588a83613c0f565b92508282039050818111156158a2576158a16148ca565b5b92915050565b600060408201905081810360008301526158c3818587615761565b90506158d26020830184615668565b949350505050565b600081905092915050565b60006158f183856158da565b93506158fe838584613b34565b82840190509392505050565b60006159178284866158e5565b91508190509392505050565b600060e082019050615938600083018a613cd0565b6159456020830189613c43565b6159526040830188613c19565b61595f6060830187613c19565b61596c6080830186613c19565b61597960a0830185613c19565b61598660c0830184613cd0565b98975050505050505050565b60006040820190506159a76000830185613c43565b6159b46020830184613cd0565b9392505050565b7f4e487b7100000000000000000000000000000000000000000000000000000000600052603260045260246000fd5b6159f382613f08565b67ffffffffffffffff811115615a0c57615a0b613a88565b5b615a168254614970565b615a21828285614fde565b600060209050601f831160018114615a545760008415615a42578287015190505b615a4c858261504f565b865550615ab4565b601f198416615a6286614ef5565b60005b82811015615a8a57848901518255600182019150602085019450602081019050615a65565b86831015615aa75784890151615aa3601f891682615031565b8355505b6001600288020188555050505b505050505050565b600060a082019050615ad16000830188613cd0565b615ade6020830187613cd0565b615aeb6040830186613cd0565b615af86060830185613c19565b615b056080830184613c43565b9695505050505050565b6000608082019050615b246000830187613cd0565b615b31602083018661578e565b615b3e6040830185613cd0565b615b4b6060830184613cd0565b9594505050505056fea264697066735822122082a902daed5dc2915e2183b59534ac976d54151fd5c2efc25d36dfc2fe69df9b64736f6c634300081a0033",
  "devdoc": {
    "custom:security-contact": "mr.nmh175@gmail.com",
    "errors": {
      "AccessControlBadConfirmation()": [
        {
          "details": "The caller of a function is not the expected one. NOTE: Don't confuse with {AccessControlUnauthorizedAccount}."
        }
      ],
      "AccessControlUnauthorizedAccount(address,bytes32)": [
        {
          "details": "The `account` is missing a role."
        }
      ],
      "ECDSAInvalidSignature()": [
        {
          "details": "The signature derives the `address(0)`."
        }
      ],
      "ECDSAInvalidSignatureLength(uint256)": [
        {
          "details": "The signature has an invalid length."
        }
      ],
      "ECDSAInvalidSignatureS(bytes32)": [
        {
          "details": "The signature has an S value that is in the upper half order."
        }
      ],
      "InvalidInitialization()": [
        {
          "details": "The contract is already initialized."
        }
      ],
      "NotInitializing()": [
        {
          "details": "The contract is not initializing."
        }
      ]
    },
    "events": {
      "EIP712DomainChanged()": {
        "details": "MAY be emitted to signal that the domain could have changed."
      },
      "Initialized(uint64)": {
        "details": "Triggered when the contract has been initialized or reinitialized."
      },
      "RoleAdminChanged(bytes32,bytes32,bytes32)": {
        "details": "Emitted when `newAdminRole` is set as ``role``'s admin role, replacing `previousAdminRole` `DEFAULT_ADMIN_ROLE` is the starting admin for all roles, despite {RoleAdminChanged} not being emitted signaling this."
      },
      "RoleGranted(bytes32,address,address)": {
        "details": "Emitted when `account` is granted `role`. `sender` is the account that originated the contract call. This account bears the admin role (for the granted role). Expected in cases where the role was granted using the internal {AccessControl-_grantRole}."
      },
      "RoleRevoked(bytes32,address,address)": {
        "details": "Emitted when `account` is revoked `role`. `sender` is the account that originated the contract call:   - if using `revokeRole`, it is the admin role bearer   - if using `renounceRole`, it is the role bearer (i.e. `account`)"
      },
      "SignerUpdated(address)": {
        "params": {
          "signer": "The new signer address."
        }
      }
    },
    "kind": "dev",
    "methods": {
      "constructor": {
        "custom:oz-upgrades-unsafe-allow": "constructor"
      },
      "eip712Domain()": {
        "details": "See {IERC-5267}."
      },
      "eligibleCheckingAndRegister(string,bytes32[],bytes,(uint256,uint256,uint256,uint256,address))": {
        "params": {
          "mintparams": "The minting parameters.",
          "proof": "The proof of the minting action.  signature The signature of the minting action. (not used)",
          "stage": "The stage name."
        }
      },
      "getRoleAdmin(bytes32)": {
        "details": "Returns the admin role that controls `role`. See {grantRole} and {revokeRole}. To change a role's admin, use {_setRoleAdmin}."
      },
      "grantRole(bytes32,address)": {
        "details": "Grants `role` to `account`. If `account` had not been already granted `role`, emits a {RoleGranted} event. Requirements: - the caller must have ``role``'s admin role. May emit a {RoleGranted} event."
      },
      "hasRole(bytes32,address)": {
        "details": "Returns `true` if `account` has been granted `role`."
      },
      "mintRecord(address,string)": {
        "params": {
          "stage": "The stage name",
          "to": "Inquiry address"
        }
      },
      "renounceRole(bytes32,address)": {
        "details": "Revokes `role` from the calling account. Roles are often managed via {grantRole} and {revokeRole}: this function's purpose is to provide a mechanism for accounts to lose their privileges if they are compromised (such as when a trusted device is misplaced). If the calling account had been revoked `role`, emits a {RoleRevoked} event. Requirements: - the caller must be `callerConfirmation`. May emit a {RoleRevoked} event."
      },
      "revokeRole(bytes32,address)": {
        "details": "Revokes `role` from `account`. If `account` had been granted `role`, emits a {RoleRevoked} event. Requirements: - the caller must have ``role``'s admin role. May emit a {RoleRevoked} event."
      },
      "setActiveSigner(address,bool)": {
        "params": {
          "_signer": "Signer address.",
          "status": "Effective status."
        }
      },
      "setMaxSupply(uint256)": {
        "params": {
          "newMaxSupply": "The new maximum number of nfts that can be minted."
        }
      },
      "setSigner(address)": {
        "params": {
          "signer_": "The new whitelist signer address."
        }
      },
      "setStageEnableSig(string,bool)": {
        "params": {
          "enableSig": "Whether to enable (true, false).",
          "stage": "Round identification."
        }
      },
      "setStageMaxSupply(string,uint32)": {
        "params": {
          "_maxSupply": "nft maximum supply.",
          "stage": "Round identification."
        }
      },
      "setStageMintInfo((bool,uint8,uint32,uint64,uint64,uint256,address,address,bytes32,string,uint8))": {
        "params": {
          "stageMintInfo": "The mint information for the stage."
        }
      },
      "setStageMintLimitationPerAddress(string,uint8)": {
        "params": {
          "mintLimitationPerAddress": "Single address mint limit.",
          "stage": "Round identification."
        }
      },
      "setStageMintTime(string,uint64,uint64)": {
        "params": {
          "endTime": "The end time of the stage.",
          "stage": "Round identification.",
          "startTime": "The start time of the stage."
        }
      },
      "setStagePayment(string,address,address,uint256)": {
        "params": {
          "payeeAddress": "Payment address.",
          "paymentToken": "Token contract address for payment (if 0, it is a native token).",
          "price": "Single nft price.",
          "stage": "Round identification."
        }
      },
      "setTransferRestricted(bool,uint64,uint64)": {
        "params": {
          "endTime": "End time.",
          "isTransferRestricted_": "Whether to restrict transfer.",
          "startTime": "Start time."
        }
      },
      "stageToMint(string)": {
        "params": {
          "stage": "The stage name"
        }
      },
      "stageToTotalSupply(string)": {
        "params": {
          "stage": "The stage name"
        }
      },
      "supportsInterface(bytes4)": {
        "details": "See {IERC165-supportsInterface}."
      }
    },
    "version": 1
  },
  "userdoc": {
    "errors": {
      "SignatureAlreadyUsed()": [
        {
          "notice": "The provided whitelist signature is already used."
        }
      ]
    },
    "events": {
      "SignerUpdated(address)": {
        "notice": "Emitted when the signer is updated."
      }
    },
    "kind": "user",
    "methods": {
      "eligibleCheckingAndRegister(string,bytes32[],bytes,(uint256,uint256,uint256,uint256,address))": {
        "notice": "Check if the minting action of a address is eligible."
      },
      "increaseTotalMintedAmount()": {
        "notice": "Function for pre-minted NFTs."
      },
      "maxSupply()": {
        "notice": "Query the maximum number of total mints"
      },
      "mintRecord(address,string)": {
        "notice": "Query the quantity that has been minted at a certain stage at a certain address"
      },
      "setActiveSigner(address,bool)": {
        "notice": "Set a valid signer address.     If the address has been configured, it is a modify function.abi     If the address has not been configured, then it is an add function to configure the address."
      },
      "setMaxSupply(uint256)": {
        "notice": "Configure or update the maximum number of nfts that can be minted."
      },
      "setSigner(address)": {
        "notice": "Updates the whitelist signer."
      },
      "setStageEnableSig(string,bool)": {
        "notice": "Set whether server level signing is enabled for a specific round according to the stage"
      },
      "setStageMaxSupply(string,uint32)": {
        "notice": "According to the stage, set the maximum nft supply for a specific round."
      },
      "setStageMintInfo((bool,uint8,uint32,uint64,uint64,uint256,address,address,bytes32,string,uint8))": {
        "notice": "Configure or update the information of a certain round according to the stage"
      },
      "setStageMintLimitationPerAddress(string,uint8)": {
        "notice": "Set the upper limit of the number of mints per address for a specific round according to the stage"
      },
      "setStageMintTime(string,uint64,uint64)": {
        "notice": "Configure or update the mint time for a specific stage."
      },
      "setStagePayment(string,address,address,uint256)": {
        "notice": "Set payment information for a specific round based on the stage"
      },
      "setTransferRestricted(bool,uint64,uint64)": {
        "notice": "Set whether to restrict transfer, if configured to true, transfer is not allowed.     Otherwise, transfer is allowed."
      },
      "stageToMint(string)": {
        "notice": "Query configuration information for a specific stage"
      },
      "stageToTotalSupply(string)": {
        "notice": "Query the total number of minted under the current stage"
      },
      "totalSupply()": {
        "notice": "Query the total mint quantity"
      }
    },
    "version": 1
  },
  "storageLayout": {
    "storage": [
      {
        "astId": 12118,
        "contract": "contracts/utils/OKXMultiMint.sol:OKXMultiMint",
        "label": "signer",
        "offset": 0,
        "slot": "0",
        "type": "t_address"
      },
      {
        "astId": 12122,
        "contract": "contracts/utils/OKXMultiMint.sol:OKXMultiMint",
        "label": "usedSignatures",
        "offset": 0,
        "slot": "1",
        "type": "t_mapping(t_bytes_memory_ptr,t_bool)"
      },
      {
        "astId": 12128,
        "contract": "contracts/utils/OKXMultiMint.sol:OKXMultiMint",
        "label": "_mintRecord",
        "offset": 0,
        "slot": "2",
        "type": "t_mapping(t_address,t_mapping(t_string_memory_ptr,t_uint256))"
      },
      {
        "astId": 12133,
        "contract": "contracts/utils/OKXMultiMint.sol:OKXMultiMint",
        "label": "_stageToMint",
        "offset": 0,
        "slot": "3",
        "type": "t_mapping(t_string_memory_ptr,t_struct(StageMintInfo)11870_storage)"
      },
      {
        "astId": 12137,
        "contract": "contracts/utils/OKXMultiMint.sol:OKXMultiMint",
        "label": "_stageToTotalSupply",
        "offset": 0,
        "slot": "4",
        "type": "t_mapping(t_string_memory_ptr,t_uint256)"
      },
      {
        "astId": 12139,
        "contract": "contracts/utils/OKXMultiMint.sol:OKXMultiMint",
        "label": "totalMaxSupply",
        "offset": 0,
        "slot": "5",
        "type": "t_uint256"
      },
      {
        "astId": 12141,
        "contract": "contracts/utils/OKXMultiMint.sol:OKXMultiMint",
        "label": "totalMintedAmount",
        "offset": 0,
        "slot": "6",
        "type": "t_uint256"
      }
    ],
    "types": {
      "t_address": {
        "encoding": "inplace",
        "label": "address",
        "numberOfBytes": "20"
      },
      "t_bool": {
        "encoding": "inplace",
        "label": "bool",
        "numberOfBytes": "1"
      },
      "t_bytes32": {
        "encoding": "inplace",
        "label": "bytes32",
        "numberOfBytes": "32"
      },
      "t_bytes_memory_ptr": {
        "encoding": "bytes",
        "label": "bytes",
        "numberOfBytes": "32"
      },
      "t_enum(MintType)11845": {
        "encoding": "inplace",
        "label": "enum IOKXMultiMint.MintType",
        "numberOfBytes": "1"
      },
      "t_mapping(t_address,t_mapping(t_string_memory_ptr,t_uint256))": {
        "encoding": "mapping",
        "key": "t_address",
        "label": "mapping(address => mapping(string => uint256))",
        "numberOfBytes": "32",
        "value": "t_mapping(t_string_memory_ptr,t_uint256)"
      },
      "t_mapping(t_bytes_memory_ptr,t_bool)": {
        "encoding": "mapping",
        "key": "t_bytes_memory_ptr",
        "label": "mapping(bytes => bool)",
        "numberOfBytes": "32",
        "value": "t_bool"
      },
      "t_mapping(t_string_memory_ptr,t_struct(StageMintInfo)11870_storage)": {
        "encoding": "mapping",
        "key": "t_string_memory_ptr",
        "label": "mapping(string => struct IOKXMultiMint.StageMintInfo)",
        "numberOfBytes": "32",
        "value": "t_struct(StageMintInfo)11870_storage"
      },
      "t_mapping(t_string_memory_ptr,t_uint256)": {
        "encoding": "mapping",
        "key": "t_string_memory_ptr",
        "label": "mapping(string => uint256)",
        "numberOfBytes": "32",
        "value": "t_uint256"
      },
      "t_string_memory_ptr": {
        "encoding": "bytes",
        "label": "string",
        "numberOfBytes": "32"
      },
      "t_string_storage": {
        "encoding": "bytes",
        "label": "string",
        "numberOfBytes": "32"
      },
      "t_struct(StageMintInfo)11870_storage": {
        "encoding": "inplace",
        "label": "struct IOKXMultiMint.StageMintInfo",
        "members": [
          {
            "astId": 11848,
            "contract": "contracts/utils/OKXMultiMint.sol:OKXMultiMint",
            "label": "enableSig",
            "offset": 0,
            "slot": "0",
            "type": "t_bool"
          },
          {
            "astId": 11850,
            "contract": "contracts/utils/OKXMultiMint.sol:OKXMultiMint",
            "label": "limitationForAddress",
            "offset": 1,
            "slot": "0",
            "type": "t_uint8"
          },
          {
            "astId": 11852,
            "contract": "contracts/utils/OKXMultiMint.sol:OKXMultiMint",
            "label": "maxSupplyForStage",
            "offset": 2,
            "slot": "0",
            "type": "t_uint32"
          },
          {
            "astId": 11854,
            "contract": "contracts/utils/OKXMultiMint.sol:OKXMultiMint",
            "label": "startTime",
            "offset": 6,
            "slot": "0",
            "type": "t_uint64"
          },
          {
            "astId": 11856,
            "contract": "contracts/utils/OKXMultiMint.sol:OKXMultiMint",
            "label": "endTime",
            "offset": 14,
            "slot": "0",
            "type": "t_uint64"
          },
          {
            "astId": 11858,
            "contract": "contracts/utils/OKXMultiMint.sol:OKXMultiMint",
            "label": "price",
            "offset": 0,
            "slot": "1",
            "type": "t_uint256"
          },
          {
            "astId": 11860,
            "contract": "contracts/utils/OKXMultiMint.sol:OKXMultiMint",
            "label": "paymentToken",
            "offset": 0,
            "slot": "2",
            "type": "t_address"
          },
          {
            "astId": 11862,
            "contract": "contracts/utils/OKXMultiMint.sol:OKXMultiMint",
            "label": "payeeAddress",
            "offset": 0,
            "slot": "3",
            "type": "t_address"
          },
          {
            "astId": 11864,
            "contract": "contracts/utils/OKXMultiMint.sol:OKXMultiMint",
            "label": "allowListMerkleRoot",
            "offset": 0,
            "slot": "4",
            "type": "t_bytes32"
          },
          {
            "astId": 11866,
            "contract": "contracts/utils/OKXMultiMint.sol:OKXMultiMint",
            "label": "stage",
            "offset": 0,
            "slot": "5",
            "type": "t_string_storage"
          },
          {
            "astId": 11869,
            "contract": "contracts/utils/OKXMultiMint.sol:OKXMultiMint",
            "label": "mintType",
            "offset": 0,
            "slot": "6",
            "type": "t_enum(MintType)11845"
          }
        ],
        "numberOfBytes": "224"
      },
      "t_uint256": {
        "encoding": "inplace",
        "label": "uint256",
        "numberOfBytes": "32"
      },
      "t_uint32": {
        "encoding": "inplace",
        "label": "uint32",
        "numberOfBytes": "4"
      },
      "t_uint64": {
        "encoding": "inplace",
        "label": "uint64",
        "numberOfBytes": "8"
      },
      "t_uint8": {
        "encoding": "inplace",
        "label": "uint8",
        "numberOfBytes": "1"
      }
    }
  }
}