{
  "address": "0xd10d54BF69483D41B7268949D72Fd6a858DFb546",
  "abi": [
    {
      "inputs": [],
      "stateMutability": "nonpayable",
      "type": "constructor"
    },
    {
      "inputs": [],
      "name": "AccessControlBadConfirmation",
      "type": "error"
    },
    {
      "inputs": [
        {
          "internalType": "address",
          "name": "account",
          "type": "address"
        },
        {
          "internalType": "bytes32",
          "name": "neededRole",
          "type": "bytes32"
        }
      ],
      "name": "AccessControlUnauthorizedAccount",
      "type": "error"
    },
    {
      "inputs": [],
      "name": "InvalidInitialization",
      "type": "error"
    },
    {
      "inputs": [],
      "name": "NotInitializing",
      "type": "error"
    },
    {
      "anonymous": false,
      "inputs": [],
      "name": "EIP712DomainChanged",
      "type": "event"
    },
    {
      "anonymous": false,
      "inputs": [
        {
          "indexed": false,
          "internalType": "uint64",
          "name": "version",
          "type": "uint64"
        }
      ],
      "name": "Initialized",
      "type": "event"
    },
    {
      "anonymous": false,
      "inputs": [
        {
          "indexed": false,
          "internalType": "address",
          "name": "recipient",
          "type": "address"
        },
        {
          "indexed": false,
          "internalType": "uint256",
          "name": "tokenId",
          "type": "uint256"
        },
        {
          "indexed": false,
          "internalType": "address",
          "name": "ipId",
          "type": "address"
        }
      ],
      "name": "NFTMinted",
      "type": "event"
    },
    {
      "anonymous": false,
      "inputs": [
        {
          "indexed": true,
          "internalType": "bytes32",
          "name": "role",
          "type": "bytes32"
        },
        {
          "indexed": true,
          "internalType": "bytes32",
          "name": "previousAdminRole",
          "type": "bytes32"
        },
        {
          "indexed": true,
          "internalType": "bytes32",
          "name": "newAdminRole",
          "type": "bytes32"
        }
      ],
      "name": "RoleAdminChanged",
      "type": "event"
    },
    {
      "anonymous": false,
      "inputs": [
        {
          "indexed": true,
          "internalType": "bytes32",
          "name": "role",
          "type": "bytes32"
        },
        {
          "indexed": true,
          "internalType": "address",
          "name": "account",
          "type": "address"
        },
        {
          "indexed": true,
          "internalType": "address",
          "name": "sender",
          "type": "address"
        }
      ],
      "name": "RoleGranted",
      "type": "event"
    },
    {
      "anonymous": false,
      "inputs": [
        {
          "indexed": true,
          "internalType": "bytes32",
          "name": "role",
          "type": "bytes32"
        },
        {
          "indexed": true,
          "internalType": "address",
          "name": "account",
          "type": "address"
        },
        {
          "indexed": true,
          "internalType": "address",
          "name": "sender",
          "type": "address"
        }
      ],
      "name": "RoleRevoked",
      "type": "event"
    },
    {
      "inputs": [],
      "name": "CORE_METADATA_MODULE",
      "outputs": [
        {
          "internalType": "address",
          "name": "",
          "type": "address"
        }
      ],
      "stateMutability": "view",
      "type": "function"
    },
    {
      "inputs": [],
      "name": "DEFAULT_ADMIN_ROLE",
      "outputs": [
        {
          "internalType": "bytes32",
          "name": "",
          "type": "bytes32"
        }
      ],
      "stateMutability": "view",
      "type": "function"
    },
    {
      "inputs": [],
      "name": "IP_ASSET_REGISTRY",
      "outputs": [
        {
          "internalType": "address",
          "name": "",
          "type": "address"
        }
      ],
      "stateMutability": "view",
      "type": "function"
    },
    {
      "inputs": [],
      "name": "LICENSING_MODULE",
      "outputs": [
        {
          "internalType": "address",
          "name": "",
          "type": "address"
        }
      ],
      "stateMutability": "view",
      "type": "function"
    },
    {
      "inputs": [],
      "name": "MULTIROUND_CONTRACT",
      "outputs": [
        {
          "internalType": "address",
          "name": "",
          "type": "address"
        }
      ],
      "stateMutability": "view",
      "type": "function"
    },
    {
      "inputs": [],
      "name": "NFT_CONTRACT",
      "outputs": [
        {
          "internalType": "address",
          "name": "",
          "type": "address"
        }
      ],
      "stateMutability": "view",
      "type": "function"
    },
    {
      "inputs": [],
      "name": "OWNER_ROLE",
      "outputs": [
        {
          "internalType": "bytes32",
          "name": "",
          "type": "bytes32"
        }
      ],
      "stateMutability": "view",
      "type": "function"
    },
    {
      "inputs": [],
      "name": "PIL_TEMPLATE",
      "outputs": [
        {
          "internalType": "address",
          "name": "",
          "type": "address"
        }
      ],
      "stateMutability": "view",
      "type": "function"
    },
    {
      "inputs": [],
      "name": "eip712Domain",
      "outputs": [
        {
          "internalType": "bytes1",
          "name": "fields",
          "type": "bytes1"
        },
        {
          "internalType": "string",
          "name": "name",
          "type": "string"
        },
        {
          "internalType": "string",
          "name": "version",
          "type": "string"
        },
        {
          "internalType": "uint256",
          "name": "chainId",
          "type": "uint256"
        },
        {
          "internalType": "address",
          "name": "verifyingContract",
          "type": "address"
        },
        {
          "internalType": "bytes32",
          "name": "salt",
          "type": "bytes32"
        },
        {
          "internalType": "uint256[]",
          "name": "extensions",
          "type": "uint256[]"
        }
      ],
      "stateMutability": "view",
      "type": "function"
    },
    {
      "inputs": [
        {
          "internalType": "bytes32",
          "name": "role",
          "type": "bytes32"
        }
      ],
      "name": "getRoleAdmin",
      "outputs": [
        {
          "internalType": "bytes32",
          "name": "",
          "type": "bytes32"
        }
      ],
      "stateMutability": "view",
      "type": "function"
    },
    {
      "inputs": [
        {
          "internalType": "bytes32",
          "name": "role",
          "type": "bytes32"
        },
        {
          "internalType": "address",
          "name": "account",
          "type": "address"
        }
      ],
      "name": "grantRole",
      "outputs": [],
      "stateMutability": "nonpayable",
      "type": "function"
    },
    {
      "inputs": [
        {
          "internalType": "bytes32",
          "name": "role",
          "type": "bytes32"
        },
        {
          "internalType": "address",
          "name": "account",
          "type": "address"
        }
      ],
      "name": "hasRole",
      "outputs": [
        {
          "internalType": "bool",
          "name": "",
          "type": "bool"
        }
      ],
      "stateMutability": "view",
      "type": "function"
    },
    {
      "inputs": [
        {
          "internalType": "address",
          "name": "defaultAdmin",
          "type": "address"
        },
        {
          "internalType": "address",
          "name": "owner",
          "type": "address"
        },
        {
          "internalType": "address",
          "name": "nftContract",
          "type": "address"
        },
        {
          "internalType": "address",
          "name": "multiRoundContract",
          "type": "address"
        },
        {
          "components": [
            {
              "components": [
                {
                  "internalType": "address",
                  "name": "contractAddress",
                  "type": "address"
                },
                {
                  "internalType": "uint256[]",
                  "name": "tokenIds",
                  "type": "uint256[]"
                },
                {
                  "internalType": "address[]",
                  "name": "ipIds",
                  "type": "address[]"
                },
                {
                  "internalType": "uint256[]",
                  "name": "licenseTermsIds",
                  "type": "uint256[]"
                }
              ],
              "internalType": "struct IMimbokuMultiround.RootNFT",
              "name": "rootNFT",
              "type": "tuple"
            },
            {
              "internalType": "address",
              "name": "pilTemplate",
              "type": "address"
            },
            {
              "internalType": "address",
              "name": "ipAssetRegistry",
              "type": "address"
            },
            {
              "internalType": "address",
              "name": "coreMetadataModule",
              "type": "address"
            },
            {
              "internalType": "address",
              "name": "licenseModule",
              "type": "address"
            },
            {
              "internalType": "string",
              "name": "ipMetadataURI",
              "type": "string"
            },
            {
              "internalType": "bytes32",
              "name": "ipMetadataHash",
              "type": "bytes32"
            }
          ],
          "internalType": "struct IMimbokuMultiround.IPMetadata",
          "name": "ipMetadata",
          "type": "tuple"
        }
      ],
      "name": "initialize",
      "outputs": [],
      "stateMutability": "nonpayable",
      "type": "function"
    },
    {
      "inputs": [],
      "name": "ipMetadataHash",
      "outputs": [
        {
          "internalType": "bytes32",
          "name": "",
          "type": "bytes32"
        }
      ],
      "stateMutability": "view",
      "type": "function"
    },
    {
      "inputs": [],
      "name": "ipMetadataURI",
      "outputs": [
        {
          "internalType": "string",
          "name": "",
          "type": "string"
        }
      ],
      "stateMutability": "view",
      "type": "function"
    },
    {
      "inputs": [],
      "name": "lastMintedTokenId",
      "outputs": [
        {
          "internalType": "uint256",
          "name": "",
          "type": "uint256"
        }
      ],
      "stateMutability": "view",
      "type": "function"
    },
    {
      "inputs": [],
      "name": "maxSupply",
      "outputs": [
        {
          "internalType": "uint256",
          "name": "",
          "type": "uint256"
        }
      ],
      "stateMutability": "view",
      "type": "function"
    },
    {
      "inputs": [
        {
          "internalType": "string",
          "name": "stage",
          "type": "string"
        },
        {
          "internalType": "bytes",
          "name": "signature",
          "type": "bytes"
        },
        {
          "internalType": "bytes32[]",
          "name": "proof",
          "type": "bytes32[]"
        },
        {
          "components": [
            {
              "internalType": "uint256",
              "name": "amount",
              "type": "uint256"
            },
            {
              "internalType": "uint256",
              "name": "tokenId",
              "type": "uint256"
            },
            {
              "internalType": "uint256",
              "name": "nonce",
              "type": "uint256"
            },
            {
              "internalType": "uint256",
              "name": "expiry",
              "type": "uint256"
            },
            {
              "internalType": "address",
              "name": "to",
              "type": "address"
            }
          ],
          "internalType": "struct IOKXMultiMint.MintParams",
          "name": "mintparams",
          "type": "tuple"
        }
      ],
      "name": "mint",
      "outputs": [],
      "stateMutability": "payable",
      "type": "function"
    },
    {
      "inputs": [
        {
          "internalType": "address",
          "name": "to",
          "type": "address"
        },
        {
          "internalType": "string",
          "name": "stage",
          "type": "string"
        }
      ],
      "name": "mintRecord",
      "outputs": [
        {
          "internalType": "uint256",
          "name": "",
          "type": "uint256"
        }
      ],
      "stateMutability": "view",
      "type": "function"
    },
    {
      "inputs": [
        {
          "internalType": "address",
          "name": "to",
          "type": "address"
        },
        {
          "internalType": "uint256",
          "name": "tokenId_",
          "type": "uint256"
        }
      ],
      "name": "preMint",
      "outputs": [
        {
          "internalType": "address",
          "name": "ipId",
          "type": "address"
        }
      ],
      "stateMutability": "nonpayable",
      "type": "function"
    },
    {
      "inputs": [],
      "name": "preMintedCount",
      "outputs": [
        {
          "internalType": "uint256",
          "name": "",
          "type": "uint256"
        }
      ],
      "stateMutability": "view",
      "type": "function"
    },
    {
      "inputs": [],
      "name": "remainingTokenIdCount",
      "outputs": [
        {
          "internalType": "uint256",
          "name": "",
          "type": "uint256"
        }
      ],
      "stateMutability": "view",
      "type": "function"
    },
    {
      "inputs": [
        {
          "internalType": "bytes32",
          "name": "role",
          "type": "bytes32"
        },
        {
          "internalType": "address",
          "name": "callerConfirmation",
          "type": "address"
        }
      ],
      "name": "renounceRole",
      "outputs": [],
      "stateMutability": "nonpayable",
      "type": "function"
    },
    {
      "inputs": [
        {
          "internalType": "bytes32",
          "name": "role",
          "type": "bytes32"
        },
        {
          "internalType": "address",
          "name": "account",
          "type": "address"
        }
      ],
      "name": "revokeRole",
      "outputs": [],
      "stateMutability": "nonpayable",
      "type": "function"
    },
    {
      "inputs": [],
      "name": "rootNFT",
      "outputs": [
        {
          "internalType": "address",
          "name": "contractAddress",
          "type": "address"
        }
      ],
      "stateMutability": "view",
      "type": "function"
    },
    {
      "inputs": [
        {
          "internalType": "address",
          "name": "signer",
          "type": "address"
        },
        {
          "internalType": "bool",
          "name": "status",
          "type": "bool"
        }
      ],
      "name": "setActiveSigner",
      "outputs": [],
      "stateMutability": "nonpayable",
      "type": "function"
    },
    {
      "inputs": [
        {
          "internalType": "address",
          "name": "nftContract",
          "type": "address"
        },
        {
          "internalType": "address",
          "name": "multiRoundContract",
          "type": "address"
        }
      ],
      "name": "setContracts",
      "outputs": [],
      "stateMutability": "nonpayable",
      "type": "function"
    },
    {
      "inputs": [
        {
          "internalType": "uint256",
          "name": "newMaxSupply",
          "type": "uint256"
        }
      ],
      "name": "setMaxsupply",
      "outputs": [],
      "stateMutability": "nonpayable",
      "type": "function"
    },
    {
      "inputs": [
        {
          "internalType": "uint256",
          "name": "count",
          "type": "uint256"
        }
      ],
      "name": "setPreMintedCount",
      "outputs": [],
      "stateMutability": "nonpayable",
      "type": "function"
    },
    {
      "inputs": [
        {
          "internalType": "address",
          "name": "signer_",
          "type": "address"
        }
      ],
      "name": "setSigner",
      "outputs": [],
      "stateMutability": "nonpayable",
      "type": "function"
    },
    {
      "inputs": [
        {
          "internalType": "string",
          "name": "stage",
          "type": "string"
        },
        {
          "internalType": "bool",
          "name": "enableSig",
          "type": "bool"
        }
      ],
      "name": "setStageEnableSig",
      "outputs": [],
      "stateMutability": "nonpayable",
      "type": "function"
    },
    {
      "inputs": [
        {
          "internalType": "string",
          "name": "stage",
          "type": "string"
        },
        {
          "internalType": "uint32",
          "name": "maxSupply_",
          "type": "uint32"
        }
      ],
      "name": "setStageMaxSupply",
      "outputs": [],
      "stateMutability": "nonpayable",
      "type": "function"
    },
    {
      "inputs": [
        {
          "components": [
            {
              "internalType": "bool",
              "name": "enableSig",
              "type": "bool"
            },
            {
              "internalType": "uint8",
              "name": "limitationForAddress",
              "type": "uint8"
            },
            {
              "internalType": "uint32",
              "name": "maxSupplyForStage",
              "type": "uint32"
            },
            {
              "internalType": "uint64",
              "name": "startTime",
              "type": "uint64"
            },
            {
              "internalType": "uint64",
              "name": "endTime",
              "type": "uint64"
            },
            {
              "internalType": "uint256",
              "name": "price",
              "type": "uint256"
            },
            {
              "internalType": "address",
              "name": "paymentToken",
              "type": "address"
            },
            {
              "internalType": "address",
              "name": "payeeAddress",
              "type": "address"
            },
            {
              "internalType": "bytes32",
              "name": "allowListMerkleRoot",
              "type": "bytes32"
            },
            {
              "internalType": "string",
              "name": "stage",
              "type": "string"
            },
            {
              "internalType": "enum IOKXMultiMint.MintType",
              "name": "mintType",
              "type": "uint8"
            }
          ],
          "internalType": "struct IOKXMultiMint.StageMintInfo",
          "name": "stageMintInfo",
          "type": "tuple"
        }
      ],
      "name": "setStageMintInfo",
      "outputs": [],
      "stateMutability": "nonpayable",
      "type": "function"
    },
    {
      "inputs": [
        {
          "internalType": "string",
          "name": "stage",
          "type": "string"
        },
        {
          "internalType": "uint8",
          "name": "mintLimitationPerAddress",
          "type": "uint8"
        }
      ],
      "name": "setStageMintLimitationPerAddress",
      "outputs": [],
      "stateMutability": "nonpayable",
      "type": "function"
    },
    {
      "inputs": [
        {
          "internalType": "string",
          "name": "stage",
          "type": "string"
        },
        {
          "internalType": "uint64",
          "name": "startTime",
          "type": "uint64"
        },
        {
          "internalType": "uint64",
          "name": "endTime",
          "type": "uint64"
        }
      ],
      "name": "setStageMintTime",
      "outputs": [],
      "stateMutability": "nonpayable",
      "type": "function"
    },
    {
      "inputs": [
        {
          "internalType": "string",
          "name": "stage",
          "type": "string"
        },
        {
          "internalType": "address",
          "name": "payeeAddress",
          "type": "address"
        },
        {
          "internalType": "address",
          "name": "paymentToken",
          "type": "address"
        },
        {
          "internalType": "uint256",
          "name": "price",
          "type": "uint256"
        }
      ],
      "name": "setStagePayment",
      "outputs": [],
      "stateMutability": "nonpayable",
      "type": "function"
    },
    {
      "inputs": [
        {
          "internalType": "bool",
          "name": "isTransferRestricted_",
          "type": "bool"
        },
        {
          "internalType": "uint64",
          "name": "startTime",
          "type": "uint64"
        },
        {
          "internalType": "uint64",
          "name": "endTime",
          "type": "uint64"
        }
      ],
      "name": "setTransferRestrict",
      "outputs": [],
      "stateMutability": "nonpayable",
      "type": "function"
    },
    {
      "inputs": [
        {
          "internalType": "string",
          "name": "stage_",
          "type": "string"
        }
      ],
      "name": "stageToMint",
      "outputs": [
        {
          "internalType": "bool",
          "name": "enableSig",
          "type": "bool"
        },
        {
          "internalType": "uint8",
          "name": "limitationForAddress",
          "type": "uint8"
        },
        {
          "internalType": "uint32",
          "name": "maxSupplyForStage",
          "type": "uint32"
        },
        {
          "internalType": "uint64",
          "name": "startTime",
          "type": "uint64"
        },
        {
          "internalType": "uint64",
          "name": "endTime",
          "type": "uint64"
        },
        {
          "internalType": "uint256",
          "name": "price",
          "type": "uint256"
        },
        {
          "internalType": "address",
          "name": "paymentToken",
          "type": "address"
        },
        {
          "internalType": "address",
          "name": "payeeAddress",
          "type": "address"
        },
        {
          "internalType": "bytes32",
          "name": "allowListMerkleRoot",
          "type": "bytes32"
        },
        {
          "internalType": "string",
          "name": "stage",
          "type": "string"
        },
        {
          "internalType": "enum IOKXMultiMint.MintType",
          "name": "mintType",
          "type": "uint8"
        }
      ],
      "stateMutability": "view",
      "type": "function"
    },
    {
      "inputs": [
        {
          "internalType": "string",
          "name": "stage",
          "type": "string"
        }
      ],
      "name": "stageToTotalSupply",
      "outputs": [
        {
          "internalType": "uint256",
          "name": "",
          "type": "uint256"
        }
      ],
      "stateMutability": "view",
      "type": "function"
    },
    {
      "inputs": [
        {
          "internalType": "bytes4",
          "name": "interfaceId",
          "type": "bytes4"
        }
      ],
      "name": "supportsInterface",
      "outputs": [
        {
          "internalType": "bool",
          "name": "",
          "type": "bool"
        }
      ],
      "stateMutability": "view",
      "type": "function"
    },
    {
      "inputs": [],
      "name": "totalSupply",
      "outputs": [
        {
          "internalType": "uint256",
          "name": "",
          "type": "uint256"
        }
      ],
      "stateMutability": "view",
      "type": "function"
    }
  ],
  "transactionHash": "0x6cca3aec24148334dbef6193ea6d83600f799a0adf82cbee2d15a01817a024f1",
  "args": [],
  "numDeployments": 1,
  "solcInputHash": "2935ddf0ce98f98a4e15a2eddea55fd8",
  "bytecode": "0x608060405234801561001057600080fd5b5061001f61002460201b60201c565b61018e565b600061003461012860201b60201c565b90508060000160089054906101000a900460ff161561007f576040517ff92ee8a900000000000000000000000000000000000000000000000000000000815260040160405180910390fd5b67ffffffffffffffff80168160000160009054906101000a900467ffffffffffffffff1667ffffffffffffffff16146101255767ffffffffffffffff8160000160006101000a81548167ffffffffffffffff021916908367ffffffffffffffff1602179055507fc7f505b2f371ae2175ee4913f4499e1f2633a7b5936321eed1cdaeb6115181d267ffffffffffffffff60405161011c9190610173565b60405180910390a15b50565b60007ff0c57e16840df040f15088dc2f81fe391c3923bec73e23a9662efc9c229c6a00905090565b600067ffffffffffffffff82169050919050565b61016d81610150565b82525050565b60006020820190506101886000830184610164565b92915050565b615f568061019d6000396000f3fe6080604052600436106102465760003560e01c80636c19e78311610139578063a95feefe116100b6578063d4aa8d6f1161007a578063d4aa8d6f14610893578063d547741f146108bc578063d5abeb01146108e5578063d8952a4914610910578063e32e2bbc14610939578063e58378bb1461096257610246565b8063a95feefe146107d1578063aa4daf24146107fc578063b67f21be14610818578063b921379914610841578063ce617ce51461086a57610246565b806391cf204a116100fd57806391cf204a146106da57806391d14854146107035780639fe78f7914610740578063a217fddf1461077d578063a5f5a4a8146107a857610246565b80636c19e783146105ff5780637f5866041461062857806384b0196e146106535780638e7d25a8146106845780639035e5a6146106af57610246565b8063290c292d116101c75780634d73cbd51161018b5780634d73cbd5146105105780634fb5656a1461055757806362f42822146105805780636508b10a146105a957806365165aa5146105d457610246565b8063290c292d1461042b5780632f2ff15d1461046857806336568abe1461049157806341c782c5146104ba5780634b6d9411146104e557610246565b806315036e871161020e57806315036e871461034457806318160ddd1461036f5780631fda9a021461039a578063248a9ca3146103c557806328c1a4f51461040257610246565b806301ffc9a71461024b5780630f9f6cbd146102885780630fbe291a146102b357806312c4ce88146102f0578063149835a01461031b575b600080fd5b34801561025757600080fd5b50610272600480360381019061026d919061344a565b61098d565b60405161027f9190613492565b60405180910390f35b34801561029457600080fd5b5061029d610a07565b6040516102aa919061353d565b60405180910390f35b3480156102bf57600080fd5b506102da60048036038101906102d591906136f2565b610a95565b6040516102e79190613767565b60405180910390f35b3480156102fc57600080fd5b50610305610b3d565b6040516103129190613791565b60405180910390f35b34801561032757600080fd5b50610342600480360381019061033d91906137d8565b610b63565b005b34801561035057600080fd5b50610359610c19565b6040516103669190613767565b60405180910390f35b34801561037b57600080fd5b50610384610c1f565b6040516103919190613767565b60405180910390f35b3480156103a657600080fd5b506103af610cb7565b6040516103bc9190613791565b60405180910390f35b3480156103d157600080fd5b506103ec60048036038101906103e7919061383b565b610cdb565b6040516103f99190613877565b60405180910390f35b34801561040e57600080fd5b50610429600480360381019061042491906138be565b610d09565b005b34801561043757600080fd5b50610452600480360381019061044d91906138fe565b610dc7565b60405161045f9190613791565b60405180910390f35b34801561047457600080fd5b5061048f600480360381019061048a919061393e565b610f8f565b005b34801561049d57600080fd5b506104b860048036038101906104b3919061393e565b610fb1565b005b3480156104c657600080fd5b506104cf61102c565b6040516104dc9190613791565b60405180910390f35b3480156104f157600080fd5b506104fa611052565b6040516105079190613767565b60405180910390f35b34801561051c57600080fd5b506105376004803603810190610532919061397e565b611058565b60405161054e9b9a99989796959493929190613a9c565b60405180910390f35b34801561056357600080fd5b5061057e60048036038101906105799190613bae565b61116e565b005b34801561058c57600080fd5b506105a760048036038101906105a29190613c5b565b611235565b005b3480156105b557600080fd5b506105be6112f0565b6040516105cb9190613767565b60405180910390f35b3480156105e057600080fd5b506105e96112f6565b6040516105f69190613791565b60405180910390f35b34801561060b57600080fd5b5061062660048036038101906106219190613ca4565b61131c565b005b34801561063457600080fd5b5061063d6113da565b60405161064a9190613791565b60405180910390f35b34801561065f57600080fd5b50610668611400565b60405161067b9796959493929190613dca565b60405180910390f35b34801561069057600080fd5b50610699611512565b6040516106a69190613791565b60405180910390f35b3480156106bb57600080fd5b506106c461153e565b6040516106d19190613791565b60405180910390f35b3480156106e657600080fd5b5061070160048036038101906106fc9190613e7a565b611564565b005b34801561070f57600080fd5b5061072a6004803603810190610725919061393e565b611625565b6040516107379190613492565b60405180910390f35b34801561074c57600080fd5b506107676004803603810190610762919061397e565b61169e565b6040516107749190613767565b60405180910390f35b34801561078957600080fd5b50610792611743565b60405161079f9190613877565b60405180910390f35b3480156107b457600080fd5b506107cf60048036038101906107ca9190613ecd565b61174a565b005b3480156107dd57600080fd5b506107e661180b565b6040516107f39190613877565b60405180910390f35b61081660048036038101906108119190613ff8565b611811565b005b34801561082457600080fd5b5061083f600480360381019061083a91906140ee565b611c52565b005b34801561084d57600080fd5b506108686004803603810190610863919061416d565b611d13565b005b34801561087657600080fd5b50610891600480360381019061088c91906137d8565b61216b565b005b34801561089f57600080fd5b506108ba60048036038101906108b59190614204565b6122f4565b005b3480156108c857600080fd5b506108e360048036038101906108de919061393e565b6123b8565b005b3480156108f157600080fd5b506108fa6123da565b6040516109079190613767565b60405180910390f35b34801561091c57600080fd5b5061093760048036038101906109329190614278565b612472565b005b34801561094557600080fd5b50610960600480360381019061095b91906142e4565b612505565b005b34801561096e57600080fd5b50610977612728565b6040516109849190613877565b60405180910390f35b60007f7965db0b000000000000000000000000000000000000000000000000000000007bffffffffffffffffffffffffffffffffffffffffffffffffffffffff1916827bffffffffffffffffffffffffffffffffffffffffffffffffffffffff19161480610a0057506109ff8261274c565b5b9050919050565b600a8054610a1490614373565b80601f0160208091040260200160405190810160405280929190818152602001828054610a4090614373565b8015610a8d5780601f10610a6257610100808354040283529160200191610a8d565b820191906000526020600020905b815481529060010190602001808311610a7057829003601f168201915b505050505081565b6000600160009054906101000a900473ffffffffffffffffffffffffffffffffffffffff1673ffffffffffffffffffffffffffffffffffffffff16630fbe291a84846040518363ffffffff1660e01b8152600401610af49291906143a4565b602060405180830381865afa158015610b11573d6000803e3d6000fd5b505050506040513d601f19601f82011682018060405250810190610b3591906143e9565b905092915050565b600260009054906101000a900473ffffffffffffffffffffffffffffffffffffffff1681565b7fb19546dff01e856fb3f010c267a7b1c60363cf8a4664e21cc89c26224620214e610b8d816127b6565b610b96826127ca565b600c6000610ba49190613353565b8167ffffffffffffffff811115610bbe57610bbd6135c7565b5b604051908082528060200260200182016040528015610bec5781602001602082028036833780820191505090505b50600c9080519060200190610c02929190613374565b5081600d81905550610c15600e5461285a565b5050565b600d5481565b6000600160009054906101000a900473ffffffffffffffffffffffffffffffffffffffff1673ffffffffffffffffffffffffffffffffffffffff166318160ddd6040518163ffffffff1660e01b8152600401602060405180830381865afa158015610c8e573d6000803e3d6000fd5b505050506040513d601f19601f82011682018060405250810190610cb291906143e9565b905090565b60008054906101000a900473ffffffffffffffffffffffffffffffffffffffff1681565b600080610ce66128c4565b905080600001600084815260200190815260200160002060010154915050919050565b7fb19546dff01e856fb3f010c267a7b1c60363cf8a4664e21cc89c26224620214e610d33816127b6565b600160009054906101000a900473ffffffffffffffffffffffffffffffffffffffff1673ffffffffffffffffffffffffffffffffffffffff166328c1a4f584846040518363ffffffff1660e01b8152600401610d90929190614416565b600060405180830381600087803b158015610daa57600080fd5b505af1158015610dbe573d6000803e3d6000fd5b50505050505050565b60008060001b610dd6816127b6565b60008314158015610de95750600e548311155b610e28576040517f08c379a0000000000000000000000000000000000000000000000000000000008152600401610e1f9061448b565b60405180910390fd5b600160009054906101000a900473ffffffffffffffffffffffffffffffffffffffff1673ffffffffffffffffffffffffffffffffffffffff166317d13a2b6040518163ffffffff1660e01b8152600401600060405180830381600087803b158015610e9257600080fd5b505af1158015610ea6573d6000803e3d6000fd5b505050506000610eb5846128ec565b809450819250505060008054906101000a900473ffffffffffffffffffffffffffffffffffffffff1673ffffffffffffffffffffffffffffffffffffffff166323b872dd3087876040518463ffffffff1660e01b8152600401610f1a939291906144ab565b600060405180830381600087803b158015610f3457600080fd5b505af1158015610f48573d6000803e3d6000fd5b505050507f89a2c92e65780856b461f06435fffd0fb445240ba3cfee7e8f18e01dca40c073858585604051610f7f939291906144e2565b60405180910390a1505092915050565b610f9882610cdb565b610fa1816127b6565b610fab8383612ad5565b50505050565b610fb9612bd6565b73ffffffffffffffffffffffffffffffffffffffff168173ffffffffffffffffffffffffffffffffffffffff161461101d576040517f6697b23200000000000000000000000000000000000000000000000000000000815260040160405180910390fd5b6110278282612bde565b505050565b600360009054906101000a900473ffffffffffffffffffffffffffffffffffffffff1681565b600e5481565b60008060008060008060008060006060600080600160009054906101000a900473ffffffffffffffffffffffffffffffffffffffff1673ffffffffffffffffffffffffffffffffffffffff16634d73cbd58e6040518263ffffffff1660e01b81526004016110c6919061353d565b600060405180830381865afa1580156110e3573d6000803e3d6000fd5b505050506040513d6000823e3d601f19601f8201168201806040525081019061110c919061475e565b9050806000015181602001518260400151836060015184608001518560a001518660c001518760e001518861010001518961012001518a61014001519b509b509b509b509b509b509b509b509b509b509b505091939597999b90929496989a50565b7fb19546dff01e856fb3f010c267a7b1c60363cf8a4664e21cc89c26224620214e611198816127b6565b600160009054906101000a900473ffffffffffffffffffffffffffffffffffffffff1673ffffffffffffffffffffffffffffffffffffffff16634fb5656a87878787876040518663ffffffff1660e01b81526004016111fb9594939291906147d4565b600060405180830381600087803b15801561121557600080fd5b505af1158015611229573d6000803e3d6000fd5b50505050505050505050565b7fb19546dff01e856fb3f010c267a7b1c60363cf8a4664e21cc89c26224620214e61125f816127b6565b600160009054906101000a900473ffffffffffffffffffffffffffffffffffffffff1673ffffffffffffffffffffffffffffffffffffffff166362f42822836040518263ffffffff1660e01b81526004016112ba9190614b51565b600060405180830381600087803b1580156112d457600080fd5b505af11580156112e8573d6000803e3d6000fd5b505050505050565b600f5481565b600560009054906101000a900473ffffffffffffffffffffffffffffffffffffffff1681565b7fb19546dff01e856fb3f010c267a7b1c60363cf8a4664e21cc89c26224620214e611346816127b6565b600160009054906101000a900473ffffffffffffffffffffffffffffffffffffffff1673ffffffffffffffffffffffffffffffffffffffff166328c1a4f58360016040518363ffffffff1660e01b81526004016113a4929190614416565b600060405180830381600087803b1580156113be57600080fd5b505af11580156113d2573d6000803e3d6000fd5b505050505050565b600460009054906101000a900473ffffffffffffffffffffffffffffffffffffffff1681565b6000606080600080600060606000611416612ce0565b90506000801b816000015414801561143457506000801b8160010154145b611473576040517f08c379a000000000000000000000000000000000000000000000000000000000815260040161146a90614bbf565b60405180910390fd5b61147b612d08565b611483612da9565b46306000801b600067ffffffffffffffff8111156114a4576114a36135c7565b5b6040519080825280602002602001820160405280156114d25781602001602082028036833780820191505090505b507f0f0000000000000000000000000000000000000000000000000000000000000095949392919097509750975097509750975097505090919293949596565b60068060000160009054906101000a900473ffffffffffffffffffffffffffffffffffffffff16905081565b600160009054906101000a900473ffffffffffffffffffffffffffffffffffffffff1681565b7fb19546dff01e856fb3f010c267a7b1c60363cf8a4664e21cc89c26224620214e61158e816127b6565b600160009054906101000a900473ffffffffffffffffffffffffffffffffffffffff1673ffffffffffffffffffffffffffffffffffffffff16634899cf0b8585856040518463ffffffff1660e01b81526004016115ed93929190614bdf565b600060405180830381600087803b15801561160757600080fd5b505af115801561161b573d6000803e3d6000fd5b5050505050505050565b6000806116306128c4565b905080600001600085815260200190815260200160002060000160008473ffffffffffffffffffffffffffffffffffffffff1673ffffffffffffffffffffffffffffffffffffffff16815260200190815260200160002060009054906101000a900460ff1691505092915050565b6000600160009054906101000a900473ffffffffffffffffffffffffffffffffffffffff1673ffffffffffffffffffffffffffffffffffffffff16639fe78f79836040518263ffffffff1660e01b81526004016116fb919061353d565b602060405180830381865afa158015611718573d6000803e3d6000fd5b505050506040513d601f19601f8201168201806040525081019061173c91906143e9565b9050919050565b6000801b81565b7fb19546dff01e856fb3f010c267a7b1c60363cf8a4664e21cc89c26224620214e611774816127b6565b600160009054906101000a900473ffffffffffffffffffffffffffffffffffffffff1673ffffffffffffffffffffffffffffffffffffffff1663a5f5a4a88585856040518463ffffffff1660e01b81526004016117d393929190614c16565b600060405180830381600087803b1580156117ed57600080fd5b505af1158015611801573d6000803e3d6000fd5b5050505050505050565b600b5481565b6000600160009054906101000a900473ffffffffffffffffffffffffffffffffffffffff1673ffffffffffffffffffffffffffffffffffffffff1663832f9f54898987878b8b896040518863ffffffff1660e01b815260040161187a9796959493929190614d91565b6020604051808303816000875af1158015611899573d6000803e3d6000fd5b505050506040513d601f19601f820116820180604052508101906118bd91906143e9565b90506000600160009054906101000a900473ffffffffffffffffffffffffffffffffffffffff1673ffffffffffffffffffffffffffffffffffffffff16634d73cbd58a8a6040518363ffffffff1660e01b815260040161191e929190614df2565b600060405180830381865afa15801561193b573d6000803e3d6000fd5b505050506040513d6000823e3d601f19601f82011682018060405250810190611964919061475e565b905060008160a0015114611b2457600073ffffffffffffffffffffffffffffffffffffffff168160c0015173ffffffffffffffffffffffffffffffffffffffff1614611a85578060c0015173ffffffffffffffffffffffffffffffffffffffff166323b872dd338360e00151858560a001516119e09190614e45565b6040518463ffffffff1660e01b81526004016119fe939291906144ab565b6020604051808303816000875af1158015611a1d573d6000803e3d6000fd5b505050506040513d601f19601f82011682018060405250810190611a419190614e87565b611a80576040517f08c379a0000000000000000000000000000000000000000000000000000000008152600401611a7790614f00565b60405180910390fd5b611b23565b818160a00151611a959190614e45565b341015611ad7576040517f08c379a0000000000000000000000000000000000000000000000000000000008152600401611ace90614f6c565b60405180910390fd5b8060e0015173ffffffffffffffffffffffffffffffffffffffff166108fc349081150290604051600060405180830381858888f19350505050158015611b21573d6000803e3d6000fd5b505b5b60005b82811015611c4657600080611b3c60006128ec565b809250819350505060008054906101000a900473ffffffffffffffffffffffffffffffffffffffff1673ffffffffffffffffffffffffffffffffffffffff166323b872dd30886080016020810190611b949190613ca4565b856040518463ffffffff1660e01b8152600401611bb3939291906144ab565b600060405180830381600087803b158015611bcd57600080fd5b505af1158015611be1573d6000803e3d6000fd5b5050505081600f819055507f89a2c92e65780856b461f06435fffd0fb445240ba3cfee7e8f18e01dca40c073866080016020810190611c209190613ca4565b8383604051611c31939291906144e2565b60405180910390a15050806001019050611b27565b50505050505050505050565b7fb19546dff01e856fb3f010c267a7b1c60363cf8a4664e21cc89c26224620214e611c7c816127b6565b600160009054906101000a900473ffffffffffffffffffffffffffffffffffffffff1673ffffffffffffffffffffffffffffffffffffffff1663b67f21be8585856040518463ffffffff1660e01b8152600401611cdb93929190614f8c565b600060405180830381600087803b158015611cf557600080fd5b505af1158015611d09573d6000803e3d6000fd5b5050505050505050565b6000611d1d612e4a565b905060008160000160089054906101000a900460ff1615905060008260000160009054906101000a900467ffffffffffffffff1690506000808267ffffffffffffffff16148015611d6b5750825b9050600060018367ffffffffffffffff16148015611da0575060003073ffffffffffffffffffffffffffffffffffffffff163b145b905081158015611dae575080155b15611de5576040517ff92ee8a900000000000000000000000000000000000000000000000000000000815260040160405180910390fd5b60018560000160006101000a81548167ffffffffffffffff021916908367ffffffffffffffff1602179055508315611e355760018560000160086101000a81548160ff0219169083151502179055505b611ea96040518060400160405280600781526020017f4f4b584d696e74000000000000000000000000000000000000000000000000008152506040518060400160405280600381526020017f312e300000000000000000000000000000000000000000000000000000000000815250612e72565b611eb1612e88565b611ebe6000801b8b612ad5565b50611ee97fb19546dff01e856fb3f010c267a7b1c60363cf8a4664e21cc89c26224620214e8a612ad5565b50876000806101000a81548173ffffffffffffffffffffffffffffffffffffffff021916908373ffffffffffffffffffffffffffffffffffffffff16021790555086600160006101000a81548173ffffffffffffffffffffffffffffffffffffffff021916908373ffffffffffffffffffffffffffffffffffffffff160217905550858060000190611f7b9190614fcd565b60068181611f8991906155fb565b905050856020016020810190611f9f9190613ca4565b600260006101000a81548173ffffffffffffffffffffffffffffffffffffffff021916908373ffffffffffffffffffffffffffffffffffffffff160217905550856040016020810190611ff29190613ca4565b600360006101000a81548173ffffffffffffffffffffffffffffffffffffffff021916908373ffffffffffffffffffffffffffffffffffffffff1602179055508560600160208101906120459190613ca4565b600460006101000a81548173ffffffffffffffffffffffffffffffffffffffff021916908373ffffffffffffffffffffffffffffffffffffffff1602179055508560800160208101906120989190613ca4565b600560006101000a81548173ffffffffffffffffffffffffffffffffffffffff021916908373ffffffffffffffffffffffffffffffffffffffff160217905550858060a001906120e89190615609565b600a91826120f792919061573f565b508560c00135600b81905550831561215f5760008560000160086101000a81548160ff0219169083151502179055507fc7f505b2f371ae2175ee4913f4499e1f2633a7b5936321eed1cdaeb6115181d26001604051612156919061584a565b60405180910390a15b50505050505050505050565b7fb19546dff01e856fb3f010c267a7b1c60363cf8a4664e21cc89c26224620214e612195816127b6565b6000600160009054906101000a900473ffffffffffffffffffffffffffffffffffffffff1673ffffffffffffffffffffffffffffffffffffffff1663d5abeb016040518163ffffffff1660e01b8152600401602060405180830381865afa158015612204573d6000803e3d6000fd5b505050506040513d601f19601f8201168201806040525081019061222891906143e9565b9050600e54816122389190615865565b905082816122469190615899565b9050612251816127ca565b600160009054906101000a900473ffffffffffffffffffffffffffffffffffffffff1673ffffffffffffffffffffffffffffffffffffffff1663d5abeb016040518163ffffffff1660e01b8152600401602060405180830381865afa1580156122be573d6000803e3d6000fd5b505050506040513d601f19601f820116820180604052508101906122e291906143e9565b600d8190555082600e81905550505050565b7fb19546dff01e856fb3f010c267a7b1c60363cf8a4664e21cc89c26224620214e61231e816127b6565b600160009054906101000a900473ffffffffffffffffffffffffffffffffffffffff1673ffffffffffffffffffffffffffffffffffffffff1663d4aa8d6f868686866040518563ffffffff1660e01b815260040161237f94939291906158cd565b600060405180830381600087803b15801561239957600080fd5b505af11580156123ad573d6000803e3d6000fd5b505050505050505050565b6123c182610cdb565b6123ca816127b6565b6123d48383612bde565b50505050565b6000600160009054906101000a900473ffffffffffffffffffffffffffffffffffffffff1673ffffffffffffffffffffffffffffffffffffffff1663d5abeb016040518163ffffffff1660e01b8152600401602060405180830381865afa158015612449573d6000803e3d6000fd5b505050506040513d601f19601f8201168201806040525081019061246d91906143e9565b905090565b6000801b61247f816127b6565b826000806101000a81548173ffffffffffffffffffffffffffffffffffffffff021916908373ffffffffffffffffffffffffffffffffffffffff16021790555081600160006101000a81548173ffffffffffffffffffffffffffffffffffffffff021916908373ffffffffffffffffffffffffffffffffffffffff160217905550505050565b7fb19546dff01e856fb3f010c267a7b1c60363cf8a4664e21cc89c26224620214e61252f816127b6565b6000600160009054906101000a900473ffffffffffffffffffffffffffffffffffffffff1673ffffffffffffffffffffffffffffffffffffffff1663d5abeb016040518163ffffffff1660e01b8152600401602060405180830381865afa15801561259e573d6000803e3d6000fd5b505050506040513d601f19601f820116820180604052508101906125c291906143e9565b9050600160009054906101000a900473ffffffffffffffffffffffffffffffffffffffff1673ffffffffffffffffffffffffffffffffffffffff1663e32e2bbc8686866040518463ffffffff1660e01b81526004016126239392919061590d565b600060405180830381600087803b15801561263d57600080fd5b505af1158015612651573d6000803e3d6000fd5b505050506000600160009054906101000a900473ffffffffffffffffffffffffffffffffffffffff1673ffffffffffffffffffffffffffffffffffffffff1663d5abeb016040518163ffffffff1660e01b8152600401602060405180830381865afa1580156126c4573d6000803e3d6000fd5b505050506040513d601f19601f820116820180604052508101906126e891906143e9565b905081816126f69190615865565b90508363ffffffff168161270a9190615899565b9050612715816127ca565b612720600e5461285a565b505050505050565b7fb19546dff01e856fb3f010c267a7b1c60363cf8a4664e21cc89c26224620214e81565b60007f01ffc9a7000000000000000000000000000000000000000000000000000000007bffffffffffffffffffffffffffffffffffffffffffffffffffffffff1916827bffffffffffffffffffffffffffffffffffffffffffffffffffffffff1916149050919050565b6127c7816127c2612bd6565b612e92565b50565b600160009054906101000a900473ffffffffffffffffffffffffffffffffffffffff1673ffffffffffffffffffffffffffffffffffffffff16636f8b44b0826040518263ffffffff1660e01b81526004016128259190613767565b600060405180830381600087803b15801561283f57600080fd5b505af1158015612853573d6000803e3d6000fd5b5050505050565b80600e8190555060005b818110156128a75780600d5461287a9190615865565b600c828154811061288e5761288d61593f565b5b9060005260206000200181905550806001019050612864565b5080600d60008282546128ba9190615865565b9250508190555050565b60007f02dd7bc7dec4dceedda775e58dd541e08a116c6c53815c0bd028192f7b626800905090565b600080600083146128ff5782915061290a565b612907612ee3565b91505b60008054906101000a900473ffffffffffffffffffffffffffffffffffffffff1673ffffffffffffffffffffffffffffffffffffffff1663a144819430846040518363ffffffff1660e01b815260040161296592919061596e565b600060405180830381600087803b15801561297f57600080fd5b505af1158015612993573d6000803e3d6000fd5b5050505060006006600201805480602002602001604051908101604052809291908181526020018280548015612a1e57602002820191906000526020600020905b8160009054906101000a900473ffffffffffffffffffffffffffffffffffffffff1673ffffffffffffffffffffffffffffffffffffffff16815260200190600101908083116129d4575b5050505050905060006006600301805480602002602001604051908101604052809291908181526020018280548015612a7657602002820191906000526020600020905b815481526020019060010190808311612a62575b50505050509050612a8984600b54613028565b9250612ace8383600260009054906101000a900473ffffffffffffffffffffffffffffffffffffffff16846040518060200160405280600081525060008060006131f9565b5050915091565b600080612ae06128c4565b9050612aec8484611625565b612bca57600181600001600086815260200190815260200160002060000160008573ffffffffffffffffffffffffffffffffffffffff1673ffffffffffffffffffffffffffffffffffffffff16815260200190815260200160002060006101000a81548160ff021916908315150217905550612b66612bd6565b73ffffffffffffffffffffffffffffffffffffffff168373ffffffffffffffffffffffffffffffffffffffff16857f2f8788117e7eff1d82e926ec794901d17c78024a50270940304540a733656f0d60405160405180910390a46001915050612bd0565b60009150505b92915050565b600033905090565b600080612be96128c4565b9050612bf58484611625565b15612cd457600081600001600086815260200190815260200160002060000160008573ffffffffffffffffffffffffffffffffffffffff1673ffffffffffffffffffffffffffffffffffffffff16815260200190815260200160002060006101000a81548160ff021916908315150217905550612c70612bd6565b73ffffffffffffffffffffffffffffffffffffffff168373ffffffffffffffffffffffffffffffffffffffff16857ff6391f5c32d9c69d2a47ea670b442974b53935d1edc7fd64eb21e047a839171b60405160405180910390a46001915050612cda565b60009150505b92915050565b60007fa16a46d94261c7517cc8ff89f61c0ce93598e3c849801011dee649a6a557d100905090565b60606000612d14612ce0565b9050806002018054612d2590614373565b80601f0160208091040260200160405190810160405280929190818152602001828054612d5190614373565b8015612d9e5780601f10612d7357610100808354040283529160200191612d9e565b820191906000526020600020905b815481529060010190602001808311612d8157829003601f168201915b505050505091505090565b60606000612db5612ce0565b9050806003018054612dc690614373565b80601f0160208091040260200160405190810160405280929190818152602001828054612df290614373565b8015612e3f5780601f10612e1457610100808354040283529160200191612e3f565b820191906000526020600020905b815481529060010190602001808311612e2257829003601f168201915b505050505091505090565b60007ff0c57e16840df040f15088dc2f81fe391c3923bec73e23a9662efc9c229c6a00905090565b612e7a61329e565b612e8482826132de565b5050565b612e9061329e565b565b612e9c8282611625565b612edf5780826040517fe2517d3f000000000000000000000000000000000000000000000000000000008152600401612ed6929190615997565b60405180910390fd5b5050565b600080600d54424433604051602001612efe93929190615a29565b6040516020818303038152906040528051906020012060001c612f219190615a95565b9050600080600c8381548110612f3a57612f3961593f565b5b906000526020600020015414612f6e57600c8281548110612f5e57612f5d61593f565b5b9060005260206000200154612f7c565b600182612f7b9190615899565b5b90506000600c6001600d54612f919190615865565b81548110612fa257612fa161593f565b5b906000526020600020015414612fe457600c6001600d54612fc39190615865565b81548110612fd457612fd361593f565b5b9060005260206000200154612fe8565b600d545b600c8381548110612ffc57612ffb61593f565b5b9060005260206000200181905550600d6000815461301990615ac6565b91905081905550809250505090565b6000600360009054906101000a900473ffffffffffffffffffffffffffffffffffffffff1673ffffffffffffffffffffffffffffffffffffffff1663fca247ac4660008054906101000a900473ffffffffffffffffffffffffffffffffffffffff16866040518463ffffffff1660e01b81526004016130a993929190615aef565b6020604051808303816000875af11580156130c8573d6000803e3d6000fd5b505050506040513d601f19601f820116820180604052508101906130ec9190615b26565b90507fc5d2460186f7233c927e7db2dcc703c0e500b653ca82273b7bfad8045d85a470600a6040516020016131219190615be1565b6040516020818303038152906040528051906020012014158061314957506000801b600b5414155b8061315757506000801b8214155b156131f357600460009054906101000a900473ffffffffffffffffffffffffffffffffffffffff1673ffffffffffffffffffffffffffffffffffffffff1663b76520c682600a600b54866040518563ffffffff1660e01b81526004016131c09493929190615c7c565b600060405180830381600087803b1580156131da57600080fd5b505af11580156131ee573d6000803e3d6000fd5b505050505b92915050565b600560009054906101000a900473ffffffffffffffffffffffffffffffffffffffff1673ffffffffffffffffffffffffffffffffffffffff16634a4d56c58989888a898989896040518963ffffffff1660e01b8152600401613262989796959493929190615dbb565b600060405180830381600087803b15801561327c57600080fd5b505af1158015613290573d6000803e3d6000fd5b505050505050505050505050565b6132a6613333565b6132dc576040517fd7e6bcf800000000000000000000000000000000000000000000000000000000815260040160405180910390fd5b565b6132e661329e565b60006132f0612ce0565b9050828160020190816133039190615e4e565b50818160030190816133159190615e4e565b506000801b81600001819055506000801b8160010181905550505050565b600061333d612e4a565b60000160089054906101000a900460ff16905090565b508054600082559060005260206000209081019061337191906133c1565b50565b8280548282559060005260206000209081019282156133b0579160200282015b828111156133af578251825591602001919060010190613394565b5b5090506133bd91906133c1565b5090565b5b808211156133da5760008160009055506001016133c2565b5090565b6000604051905090565b600080fd5b600080fd5b60007fffffffff0000000000000000000000000000000000000000000000000000000082169050919050565b613427816133f2565b811461343257600080fd5b50565b6000813590506134448161341e565b92915050565b6000602082840312156134605761345f6133e8565b5b600061346e84828501613435565b91505092915050565b60008115159050919050565b61348c81613477565b82525050565b60006020820190506134a76000830184613483565b92915050565b600081519050919050565b600082825260208201905092915050565b60005b838110156134e75780820151818401526020810190506134cc565b60008484015250505050565b6000601f19601f8301169050919050565b600061350f826134ad565b61351981856134b8565b93506135298185602086016134c9565b613532816134f3565b840191505092915050565b600060208201905081810360008301526135578184613504565b905092915050565b600073ffffffffffffffffffffffffffffffffffffffff82169050919050565b600061358a8261355f565b9050919050565b61359a8161357f565b81146135a557600080fd5b50565b6000813590506135b781613591565b92915050565b600080fd5b600080fd5b7f4e487b7100000000000000000000000000000000000000000000000000000000600052604160045260246000fd5b6135ff826134f3565b810181811067ffffffffffffffff8211171561361e5761361d6135c7565b5b80604052505050565b60006136316133de565b905061363d82826135f6565b919050565b600067ffffffffffffffff82111561365d5761365c6135c7565b5b613666826134f3565b9050602081019050919050565b82818337600083830152505050565b600061369561369084613642565b613627565b9050828152602081018484840111156136b1576136b06135c2565b5b6136bc848285613673565b509392505050565b600082601f8301126136d9576136d86135bd565b5b81356136e9848260208601613682565b91505092915050565b60008060408385031215613709576137086133e8565b5b6000613717858286016135a8565b925050602083013567ffffffffffffffff811115613738576137376133ed565b5b613744858286016136c4565b9150509250929050565b6000819050919050565b6137618161374e565b82525050565b600060208201905061377c6000830184613758565b92915050565b61378b8161357f565b82525050565b60006020820190506137a66000830184613782565b92915050565b6137b58161374e565b81146137c057600080fd5b50565b6000813590506137d2816137ac565b92915050565b6000602082840312156137ee576137ed6133e8565b5b60006137fc848285016137c3565b91505092915050565b6000819050919050565b61381881613805565b811461382357600080fd5b50565b6000813590506138358161380f565b92915050565b600060208284031215613851576138506133e8565b5b600061385f84828501613826565b91505092915050565b61387181613805565b82525050565b600060208201905061388c6000830184613868565b92915050565b61389b81613477565b81146138a657600080fd5b50565b6000813590506138b881613892565b92915050565b600080604083850312156138d5576138d46133e8565b5b60006138e3858286016135a8565b92505060206138f4858286016138a9565b9150509250929050565b60008060408385031215613915576139146133e8565b5b6000613923858286016135a8565b9250506020613934858286016137c3565b9150509250929050565b60008060408385031215613955576139546133e8565b5b600061396385828601613826565b9250506020613974858286016135a8565b9150509250929050565b600060208284031215613994576139936133e8565b5b600082013567ffffffffffffffff8111156139b2576139b16133ed565b5b6139be848285016136c4565b91505092915050565b600060ff82169050919050565b6139dd816139c7565b82525050565b600063ffffffff82169050919050565b6139fc816139e3565b82525050565b600067ffffffffffffffff82169050919050565b613a1f81613a02565b82525050565b7f4e487b7100000000000000000000000000000000000000000000000000000000600052602160045260246000fd5b60028110613a6557613a64613a25565b5b50565b6000819050613a7682613a54565b919050565b6000613a8682613a68565b9050919050565b613a9681613a7b565b82525050565b600061016082019050613ab2600083018e613483565b613abf602083018d6139d4565b613acc604083018c6139f3565b613ad9606083018b613a16565b613ae6608083018a613a16565b613af360a0830189613758565b613b0060c0830188613782565b613b0d60e0830187613782565b613b1b610100830186613868565b818103610120830152613b2e8185613504565b9050613b3e610140830184613a8d565b9c9b505050505050505050505050565b600080fd5b600080fd5b60008083601f840112613b6e57613b6d6135bd565b5b8235905067ffffffffffffffff811115613b8b57613b8a613b4e565b5b602083019150836001820283011115613ba757613ba6613b53565b5b9250929050565b600080600080600060808688031215613bca57613bc96133e8565b5b600086013567ffffffffffffffff811115613be857613be76133ed565b5b613bf488828901613b58565b95509550506020613c07888289016135a8565b9350506040613c18888289016135a8565b9250506060613c29888289016137c3565b9150509295509295909350565b600080fd5b60006101608284031215613c5257613c51613c36565b5b81905092915050565b600060208284031215613c7157613c706133e8565b5b600082013567ffffffffffffffff811115613c8f57613c8e6133ed565b5b613c9b84828501613c3b565b91505092915050565b600060208284031215613cba57613cb96133e8565b5b6000613cc8848285016135a8565b91505092915050565b60007fff0000000000000000000000000000000000000000000000000000000000000082169050919050565b613d0681613cd1565b82525050565b600081519050919050565b600082825260208201905092915050565b6000819050602082019050919050565b613d418161374e565b82525050565b6000613d538383613d38565b60208301905092915050565b6000602082019050919050565b6000613d7782613d0c565b613d818185613d17565b9350613d8c83613d28565b8060005b83811015613dbd578151613da48882613d47565b9750613daf83613d5f565b925050600181019050613d90565b5085935050505092915050565b600060e082019050613ddf600083018a613cfd565b8181036020830152613df18189613504565b90508181036040830152613e058188613504565b9050613e146060830187613758565b613e216080830186613782565b613e2e60a0830185613868565b81810360c0830152613e408184613d6c565b905098975050505050505050565b613e5781613a02565b8114613e6257600080fd5b50565b600081359050613e7481613e4e565b92915050565b600080600060608486031215613e9357613e926133e8565b5b6000613ea1868287016138a9565b9350506020613eb286828701613e65565b9250506040613ec386828701613e65565b9150509250925092565b600080600060408486031215613ee657613ee56133e8565b5b600084013567ffffffffffffffff811115613f0457613f036133ed565b5b613f1086828701613b58565b93509350506020613f23868287016138a9565b9150509250925092565b60008083601f840112613f4357613f426135bd565b5b8235905067ffffffffffffffff811115613f6057613f5f613b4e565b5b602083019150836001820283011115613f7c57613f7b613b53565b5b9250929050565b60008083601f840112613f9957613f986135bd565b5b8235905067ffffffffffffffff811115613fb657613fb5613b4e565b5b602083019150836020820283011115613fd257613fd1613b53565b5b9250929050565b600060a08284031215613fef57613fee613c36565b5b81905092915050565b6000806000806000806000610100888a031215614018576140176133e8565b5b600088013567ffffffffffffffff811115614036576140356133ed565b5b6140428a828b01613b58565b9750975050602088013567ffffffffffffffff811115614065576140646133ed565b5b6140718a828b01613f2d565b9550955050604088013567ffffffffffffffff811115614094576140936133ed565b5b6140a08a828b01613f83565b935093505060606140b38a828b01613fd9565b91505092959891949750929550565b6140cb816139c7565b81146140d657600080fd5b50565b6000813590506140e8816140c2565b92915050565b600080600060408486031215614107576141066133e8565b5b600084013567ffffffffffffffff811115614125576141246133ed565b5b61413186828701613b58565b93509350506020614144868287016140d9565b9150509250925092565b600060e0828403121561416457614163613c36565b5b81905092915050565b600080600080600060a08688031215614189576141886133e8565b5b6000614197888289016135a8565b95505060206141a8888289016135a8565b94505060406141b9888289016135a8565b93505060606141ca888289016135a8565b925050608086013567ffffffffffffffff8111156141eb576141ea6133ed565b5b6141f78882890161414e565b9150509295509295909350565b6000806000806060858703121561421e5761421d6133e8565b5b600085013567ffffffffffffffff81111561423c5761423b6133ed565b5b61424887828801613b58565b9450945050602061425b87828801613e65565b925050604061426c87828801613e65565b91505092959194509250565b6000806040838503121561428f5761428e6133e8565b5b600061429d858286016135a8565b92505060206142ae858286016135a8565b9150509250929050565b6142c1816139e3565b81146142cc57600080fd5b50565b6000813590506142de816142b8565b92915050565b6000806000604084860312156142fd576142fc6133e8565b5b600084013567ffffffffffffffff81111561431b5761431a6133ed565b5b61432786828701613b58565b9350935050602061433a868287016142cf565b9150509250925092565b7f4e487b7100000000000000000000000000000000000000000000000000000000600052602260045260246000fd5b6000600282049050600182168061438b57607f821691505b60208210810361439e5761439d614344565b5b50919050565b60006040820190506143b96000830185613782565b81810360208301526143cb8184613504565b90509392505050565b6000815190506143e3816137ac565b92915050565b6000602082840312156143ff576143fe6133e8565b5b600061440d848285016143d4565b91505092915050565b600060408201905061442b6000830185613782565b6144386020830184613483565b9392505050565b7f496e76616c696420746f6b656e20494400000000000000000000000000000000600082015250565b60006144756010836134b8565b91506144808261443f565b602082019050919050565b600060208201905081810360008301526144a481614468565b9050919050565b60006060820190506144c06000830186613782565b6144cd6020830185613782565b6144da6040830184613758565b949350505050565b60006060820190506144f76000830186613782565b6145046020830185613758565b6145116040830184613782565b949350505050565b600080fd5b600080fd5b60008151905061453281613892565b92915050565b600081519050614547816140c2565b92915050565b60008151905061455c816142b8565b92915050565b60008151905061457181613e4e565b92915050565b60008151905061458681613591565b92915050565b60008151905061459b8161380f565b92915050565b60006145b46145af84613642565b613627565b9050828152602081018484840111156145d0576145cf6135c2565b5b6145db8482856134c9565b509392505050565b600082601f8301126145f8576145f76135bd565b5b81516146088482602086016145a1565b91505092915050565b6002811061461e57600080fd5b50565b60008151905061463081614611565b92915050565b6000610160828403121561464d5761464c614519565b5b614658610160613627565b9050600061466884828501614523565b600083015250602061467c84828501614538565b60208301525060406146908482850161454d565b60408301525060606146a484828501614562565b60608301525060806146b884828501614562565b60808301525060a06146cc848285016143d4565b60a08301525060c06146e084828501614577565b60c08301525060e06146f484828501614577565b60e0830152506101006147098482850161458c565b6101008301525061012082015167ffffffffffffffff81111561472f5761472e61451e565b5b61473b848285016145e3565b6101208301525061014061475184828501614621565b6101408301525092915050565b600060208284031215614774576147736133e8565b5b600082015167ffffffffffffffff811115614792576147916133ed565b5b61479e84828501614636565b91505092915050565b60006147b383856134b8565b93506147c0838584613673565b6147c9836134f3565b840190509392505050565b600060808201905081810360008301526147ef8187896147a7565b90506147fe6020830186613782565b61480b6040830185613782565b6148186060830184613758565b9695505050505050565b600061483160208401846138a9565b905092915050565b61484281613477565b82525050565b600061485760208401846140d9565b905092915050565b614868816139c7565b82525050565b600061487d60208401846142cf565b905092915050565b61488e816139e3565b82525050565b60006148a36020840184613e65565b905092915050565b6148b481613a02565b82525050565b60006148c960208401846137c3565b905092915050565b60006148e060208401846135a8565b905092915050565b6148f18161357f565b82525050565b60006149066020840184613826565b905092915050565b61491781613805565b82525050565b600080fd5b600080fd5b600080fd5b6000808335600160200384360303811261494957614948614927565b5b83810192508235915060208301925067ffffffffffffffff8211156149715761497061491d565b5b60018202360383131561498757614986614922565b5b509250929050565b600082825260208201905092915050565b60006149ac838561498f565b93506149b9838584613673565b6149c2836134f3565b840190509392505050565b6000813590506149dc81614611565b92915050565b60006149f160208401846149cd565b905092915050565b614a0281613a7b565b82525050565b60006101608301614a1c6000840184614822565b614a296000860182614839565b50614a376020840184614848565b614a44602086018261485f565b50614a52604084018461486e565b614a5f6040860182614885565b50614a6d6060840184614894565b614a7a60608601826148ab565b50614a886080840184614894565b614a9560808601826148ab565b50614aa360a08401846148ba565b614ab060a0860182613d38565b50614abe60c08401846148d1565b614acb60c08601826148e8565b50614ad960e08401846148d1565b614ae660e08601826148e8565b50614af56101008401846148f7565b614b0361010086018261490e565b50614b1261012084018461492c565b858303610120870152614b268382846149a0565b92505050614b386101408401846149e2565b614b466101408601826149f9565b508091505092915050565b60006020820190508181036000830152614b6b8184614a08565b905092915050565b7f4549503731323a20556e696e697469616c697a65640000000000000000000000600082015250565b6000614ba96015836134b8565b9150614bb482614b73565b602082019050919050565b60006020820190508181036000830152614bd881614b9c565b9050919050565b6000606082019050614bf46000830186613483565b614c016020830185613a16565b614c0e6040830184613a16565b949350505050565b60006040820190508181036000830152614c318185876147a7565b9050614c406020830184613483565b949350505050565b600082825260208201905092915050565b600080fd5b82818337505050565b6000614c738385614c48565b93507f07ffffffffffffffffffffffffffffffffffffffffffffffffffffffffffffff831115614ca657614ca5614c59565b5b602083029250614cb7838584614c5e565b82840190509392505050565b600082825260208201905092915050565b6000614ce08385614cc3565b9350614ced838584613673565b614cf6836134f3565b840190509392505050565b60a08201614d1260008301836148ba565b614d1f6000850182613d38565b50614d2d60208301836148ba565b614d3a6020850182613d38565b50614d4860408301836148ba565b614d556040850182613d38565b50614d6360608301836148ba565b614d706060850182613d38565b50614d7e60808301836148d1565b614d8b60808501826148e8565b50505050565b6000610100820190508181036000830152614dad81898b6147a7565b90508181036020830152614dc2818789614c67565b90508181036040830152614dd7818587614cd4565b9050614de66060830184614d01565b98975050505050505050565b60006020820190508181036000830152614e0d8184866147a7565b90509392505050565b7f4e487b7100000000000000000000000000000000000000000000000000000000600052601160045260246000fd5b6000614e508261374e565b9150614e5b8361374e565b9250828202614e698161374e565b91508282048414831517614e8057614e7f614e16565b5b5092915050565b600060208284031215614e9d57614e9c6133e8565b5b6000614eab84828501614523565b91505092915050565b7f5472616e73666572204552433230206661696c65640000000000000000000000600082015250565b6000614eea6015836134b8565b9150614ef582614eb4565b602082019050919050565b60006020820190508181036000830152614f1981614edd565b9050919050565b7f496e636f7272656374206e6174697665207061796d656e7420616d6f756e7400600082015250565b6000614f56601f836134b8565b9150614f6182614f20565b602082019050919050565b60006020820190508181036000830152614f8581614f49565b9050919050565b60006040820190508181036000830152614fa78185876147a7565b9050614fb660208301846139d4565b949350505050565b600080fd5b600080fd5b600080fd5b600082356001608003833603038112614fe957614fe8614fbe565b5b80830191505092915050565b6000813561500281613591565b80915050919050565b60008160001b9050919050565b600073ffffffffffffffffffffffffffffffffffffffff6150388461500b565b9350801983169250808416831791505092915050565b6000819050919050565b600061507361506e6150698461355f565b61504e565b61355f565b9050919050565b600061508582615058565b9050919050565b60006150978261507a565b9050919050565b6000819050919050565b6150b18261508c565b6150c46150bd8261509e565b8354615018565b8255505050565b600080833560016020038436030381126150e8576150e7614fbe565b5b80840192508235915067ffffffffffffffff82111561510a57615109614fc3565b5b60208301925060208202360383131561512657615125614fc8565b5b509250929050565b600081549050919050565b60008190506001806001038301049050919050565b60008190508160005260206000209050919050565b600082821b905092915050565b6000600883026151a07fffffffffffffffffffffffffffffffffffffffffffffffffffffffffffffffff82615163565b6151aa8683615163565b95508019841693508086168417925050509392505050565b60006151dd6151d86151d38461374e565b61504e565b61374e565b9050919050565b6000819050919050565b6151f7836151c2565b61520b615203826151e4565b848454615170565b825550505050565b600090565b615220615213565b61522b8184846151ee565b505050565b5b8181101561524f57615244600082615218565b600181019050615231565b5050565b600082821c905092915050565b818310156152995761527182615139565b61527a84615139565b6152838361514e565b8181018382016152938183615230565b50505050505b505050565b680100000000000000008211156152b8576152b76135c7565b5b6152c18161512e565b8282556152cf838284615260565b505050565b600082905092915050565b600081356152ec816137ac565b80915050919050565b6000819050919050565b61530983836152d4565b67ffffffffffffffff811115615322576153216135c7565b5b61532c818361529e565b615335836152f5565b61533e8361514e565b6001830460005b8181101561537d576000615358856152df565b615361816151e4565b8092506020870196505050808285015550600181019050615345565b5050505050505050565b6153928383836152ff565b505050565b600080833560016020038436030381126153b4576153b3614fbe565b5b80840192508235915067ffffffffffffffff8211156153d6576153d5614fc3565b5b6020830192506020820236038313156153f2576153f1614fc8565b5b509250929050565b600081549050919050565b60008190506001806001038301049050919050565b60008190508160005260206000209050919050565b5b8181101561544e57615443600082615218565b600181019050615430565b5050565b8183101561548b5761546382615405565b61546c84615405565b6154758361541a565b818101838201615485818361542f565b50505050505b505050565b680100000000000000008211156154aa576154a96135c7565b5b6154b3816153fa565b8282556154c1838284615452565b505050565b600082905092915050565b6000819050919050565b6154e583836154c6565b67ffffffffffffffff8111156154fe576154fd6135c7565b5b6155088183615490565b615511836154d1565b61551a8361541a565b6001830460005b8181101561555957600061553485614ff5565b61553d8161509e565b8092506020870196505050808285015550600181019050615521565b5050505050505050565b61556e8383836154db565b505050565b60008101600083018061558581614ff5565b905061559181846150a8565b50505060018101602083016155a681856150cb565b6155b1818386615387565b5050505060028101604083016155c78185615397565b6155d2818386615563565b5050505060038101606083016155e881856150cb565b6155f3818386615387565b505050505050565b6156058282615573565b5050565b6000808335600160200384360303811261562657615625614fbe565b5b80840192508235915067ffffffffffffffff82111561564857615647614fc3565b5b60208301925060018202360383131561566457615663614fc8565b5b509250929050565b600082905092915050565b60008190508160005260206000209050919050565b60006020601f8301049050919050565b5b818110156156bb576156b0600082615218565b60018101905061569d565b5050565b601f821115615700576156d181615677565b6156da8461568c565b810160208510156156e9578190505b6156fd6156f58561568c565b83018261569c565b50505b505050565b600061571660001984600802615253565b1980831691505092915050565b600061572f8383615705565b9150826002028217905092915050565b615749838361566c565b67ffffffffffffffff811115615762576157616135c7565b5b61576c8254614373565b6157778282856156bf565b6000601f8311600181146157a65760008415615794578287013590505b61579e8582615723565b865550615806565b601f1984166157b486615677565b60005b828110156157dc578489013582556001820191506020850194506020810190506157b7565b868310156157f957848901356157f5601f891682615705565b8355505b6001600288020188555050505b50505050505050565b6000819050919050565b600061583461582f61582a8461580f565b61504e565b613a02565b9050919050565b61584481615819565b82525050565b600060208201905061585f600083018461583b565b92915050565b60006158708261374e565b915061587b8361374e565b925082820390508181111561589357615892614e16565b5b92915050565b60006158a48261374e565b91506158af8361374e565b92508282019050808211156158c7576158c6614e16565b5b92915050565b600060608201905081810360008301526158e88186886147a7565b90506158f76020830185613a16565b6159046040830184613a16565b95945050505050565b600060408201905081810360008301526159288185876147a7565b905061593760208301846139f3565b949350505050565b7f4e487b7100000000000000000000000000000000000000000000000000000000600052603260045260246000fd5b60006040820190506159836000830185613782565b6159906020830184613758565b9392505050565b60006040820190506159ac6000830185613782565b6159b96020830184613868565b9392505050565b6000819050919050565b6159db6159d68261374e565b6159c0565b82525050565b60008160601b9050919050565b60006159f9826159e1565b9050919050565b6000615a0b826159ee565b9050919050565b615a23615a1e8261357f565b615a00565b82525050565b6000615a3582866159ca565b602082019150615a4582856159ca565b602082019150615a558284615a12565b601482019150819050949350505050565b7f4e487b7100000000000000000000000000000000000000000000000000000000600052601260045260246000fd5b6000615aa08261374e565b9150615aab8361374e565b925082615abb57615aba615a66565b5b828206905092915050565b6000615ad18261374e565b915060008203615ae457615ae3614e16565b5b600182039050919050565b6000606082019050615b046000830186613758565b615b116020830185613782565b615b1e6040830184613758565b949350505050565b600060208284031215615b3c57615b3b6133e8565b5b6000615b4a84828501614577565b91505092915050565b600081905092915050565b60008154615b6b81614373565b615b758186615b53565b94506001821660008114615b905760018114615ba557615bd8565b60ff1983168652811515820286019350615bd8565b615bae85615677565b60005b83811015615bd057815481890152600182019150602081019050615bb1565b838801955050505b50505092915050565b6000615bed8284615b5e565b915081905092915050565b60008154615c0581614373565b615c0f81866134b8565b94506001821660008114615c2a5760018114615c4057615c73565b60ff198316865281151560200286019350615c73565b615c4985615677565b60005b83811015615c6b57815481890152600182019150602081019050615c4c565b808801955050505b50505092915050565b6000608082019050615c916000830187613782565b8181036020830152615ca38186615bf8565b9050615cb26040830185613868565b615cbf6060830184613868565b95945050505050565b600081519050919050565b600082825260208201905092915050565b6000819050602082019050919050565b6000615d0083836148e8565b60208301905092915050565b6000602082019050919050565b6000615d2482615cc8565b615d2e8185615cd3565b9350615d3983615ce4565b8060005b83811015615d6a578151615d518882615cf4565b9750615d5c83615d0c565b925050600181019050615d3d565b5085935050505092915050565b600081519050919050565b6000615d8d82615d77565b615d978185614cc3565b9350615da78185602086016134c9565b615db0816134f3565b840191505092915050565b600061010082019050615dd1600083018b613782565b8181036020830152615de3818a615d19565b90508181036040830152615df78189613d6c565b9050615e066060830188613782565b8181036080830152615e188187615d82565b9050615e2760a0830186613758565b615e3460c08301856139f3565b615e4160e08301846139f3565b9998505050505050505050565b615e57826134ad565b67ffffffffffffffff811115615e7057615e6f6135c7565b5b615e7a8254614373565b615e858282856156bf565b600060209050601f831160018114615eb85760008415615ea6578287015190505b615eb08582615723565b865550615f18565b601f198416615ec686615677565b60005b82811015615eee57848901518255600182019150602085019450602081019050615ec9565b86831015615f0b5784890151615f07601f891682615705565b8355505b6001600288020188555050505b50505050505056fea264697066735822122014c6563f07d553d03428837cf89778e0dfa90851a1f6f59739a243763399eef064736f6c634300081a0033",
  "devdoc": {
    "errors": {
      "AccessControlBadConfirmation()": [
        {
          "details": "The caller of a function is not the expected one. NOTE: Don't confuse with {AccessControlUnauthorizedAccount}."
        }
      ],
      "AccessControlUnauthorizedAccount(address,bytes32)": [
        {
          "details": "The `account` is missing a role."
        }
      ],
      "InvalidInitialization()": [
        {
          "details": "The contract is already initialized."
        }
      ],
      "NotInitializing()": [
        {
          "details": "The contract is not initializing."
        }
      ]
    },
    "events": {
      "EIP712DomainChanged()": {
        "details": "MAY be emitted to signal that the domain could have changed."
      },
      "Initialized(uint64)": {
        "details": "Triggered when the contract has been initialized or reinitialized."
      },
      "NFTMinted(address,uint256,address)": {
        "params": {
          "ipId": "The ID of the NFT IP.",
          "recipient": "The address of the recipient of the NFT.",
          "tokenId": "The token ID of the minted NFT."
        }
      },
      "RoleAdminChanged(bytes32,bytes32,bytes32)": {
        "details": "Emitted when `newAdminRole` is set as ``role``'s admin role, replacing `previousAdminRole` `DEFAULT_ADMIN_ROLE` is the starting admin for all roles, despite {RoleAdminChanged} not being emitted signaling this."
      },
      "RoleGranted(bytes32,address,address)": {
        "details": "Emitted when `account` is granted `role`. `sender` is the account that originated the contract call. This account bears the admin role (for the granted role). Expected in cases where the role was granted using the internal {AccessControl-_grantRole}."
      },
      "RoleRevoked(bytes32,address,address)": {
        "details": "Emitted when `account` is revoked `role`. `sender` is the account that originated the contract call:   - if using `revokeRole`, it is the admin role bearer   - if using `renounceRole`, it is the role bearer (i.e. `account`)"
      }
    },
    "kind": "dev",
    "methods": {
      "constructor": {
        "custom:oz-upgrades-unsafe-allow": "constructor"
      },
      "eip712Domain()": {
        "details": "See {IERC-5267}."
      },
      "getRoleAdmin(bytes32)": {
        "details": "Returns the admin role that controls `role`. See {grantRole} and {revokeRole}. To change a role's admin, use {_setRoleAdmin}."
      },
      "grantRole(bytes32,address)": {
        "details": "Grants `role` to `account`. If `account` had not been already granted `role`, emits a {RoleGranted} event. Requirements: - the caller must have ``role``'s admin role. May emit a {RoleGranted} event."
      },
      "hasRole(bytes32,address)": {
        "details": "Returns `true` if `account` has been granted `role`."
      },
      "mint(string,bytes,bytes32[],(uint256,uint256,uint256,uint256,address))": {
        "params": {
          "mintparams": "The mint parameter signer sign the caller's address (msg.sender) for this `mint` function.",
          "proof": "The proof for the leaf of the allowlist in a stage if mint type is Allowlist.",
          "signature": "The signature from the whitelist signer. This signautre is genreated by having the whitelist",
          "stage": "Identification of the stage"
        }
      },
      "mintRecord(address,string)": {
        "params": {
          "stage": "The stage name",
          "to": "Inquiry address"
        }
      },
      "preMint(address,uint256)": {
        "params": {
          "to": "The recipient of the minted NFT.",
          "tokenId_": "The token ID of the minted NFT."
        }
      },
      "renounceRole(bytes32,address)": {
        "details": "Revokes `role` from the calling account. Roles are often managed via {grantRole} and {revokeRole}: this function's purpose is to provide a mechanism for accounts to lose their privileges if they are compromised (such as when a trusted device is misplaced). If the calling account had been revoked `role`, emits a {RoleRevoked} event. Requirements: - the caller must be `callerConfirmation`. May emit a {RoleRevoked} event."
      },
      "revokeRole(bytes32,address)": {
        "details": "Revokes `role` from `account`. If `account` had been granted `role`, emits a {RoleRevoked} event. Requirements: - the caller must have ``role``'s admin role. May emit a {RoleRevoked} event."
      },
      "setActiveSigner(address,bool)": {
        "params": {
          "signer": "Signer address.",
          "status": "Effective status."
        }
      },
      "setContracts(address,address)": {
        "params": {
          "multiRoundContract": "The new MultiRound contract address.",
          "nftContract": "The new NFT contract address."
        }
      },
      "setMaxsupply(uint256)": {
        "params": {
          "newMaxSupply": "The new maximum number of nfts that can be minted."
        }
      },
      "setPreMintedCount(uint256)": {
        "params": {
          "count": "The number of pre-minted NFTs"
        }
      },
      "setSigner(address)": {
        "params": {
          "signer_": "The new whitelist signer address."
        }
      },
      "setStageEnableSig(string,bool)": {
        "params": {
          "enableSig": "Whether to enable (true, false).",
          "stage": "Round identification."
        }
      },
      "setStageMaxSupply(string,uint32)": {
        "params": {
          "maxSupply_": "nft maximum supply.",
          "stage": "Round identification."
        }
      },
      "setStageMintInfo((bool,uint8,uint32,uint64,uint64,uint256,address,address,bytes32,string,uint8))": {
        "params": {
          "stageMintInfo": "The mint information for the stage."
        }
      },
      "setStageMintLimitationPerAddress(string,uint8)": {
        "params": {
          "mintLimitationPerAddress": "Single address mint limit.",
          "stage": "Round identification."
        }
      },
      "setStageMintTime(string,uint64,uint64)": {
        "params": {
          "endTime": "The end time of the stage.",
          "stage": "Round identification.",
          "startTime": "The start time of the stage."
        }
      },
      "setStagePayment(string,address,address,uint256)": {
        "params": {
          "payeeAddress": "Payment address.",
          "paymentToken": "Token contract address for payment (if 0, it is a native token).",
          "price": "Single nft price.",
          "stage": "Round identification."
        }
      },
      "setTransferRestrict(bool,uint64,uint64)": {
        "params": {
          "endTime": "End time.",
          "isTransferRestricted_": "Whether to restrict transfer.",
          "startTime": "Start time."
        }
      },
      "stageToMint(string)": {
        "params": {
          "stage_": "The stage name"
        }
      },
      "stageToTotalSupply(string)": {
        "params": {
          "stage": "The stage name"
        }
      },
      "supportsInterface(bytes4)": {
        "details": "See {IERC165-supportsInterface}."
      }
    },
    "version": 1
  },
  "userdoc": {
    "events": {
      "NFTMinted(address,uint256,address)": {
        "notice": "Emitted when a NFT is minted."
      }
    },
    "kind": "user",
    "methods": {
      "CORE_METADATA_MODULE()": {
        "notice": "The Core Metadata Module contract address."
      },
      "IP_ASSET_REGISTRY()": {
        "notice": "The IP Asset Registry contract address."
      },
      "LICENSING_MODULE()": {
        "notice": "The Licensing Module contract address."
      },
      "MULTIROUND_CONTRACT()": {
        "notice": "We need a MultiRound contract to manage rounds"
      },
      "NFT_CONTRACT()": {
        "notice": "We need a NFT contract to mint NFTs"
      },
      "PIL_TEMPLATE()": {
        "notice": "Story Proof-of-Creativity PILicense Template address."
      },
      "ipMetadataURI()": {
        "notice": "IP information"
      },
      "lastMintedTokenId()": {
        "notice": "Last minted token ID"
      },
      "maxSupply()": {
        "notice": "Query the maximum number of nfts that can be minted"
      },
      "mint(string,bytes,bytes32[],(uint256,uint256,uint256,uint256,address))": {
        "notice": "Mints a NFT for the given recipient, registers it as an IP,         and makes it a derivative of the organization IP."
      },
      "mintRecord(address,string)": {
        "notice": "Query the quantity that has been minted at a certain stage at a certain address"
      },
      "preMint(address,uint256)": {
        "notice": "Pre-Mints a NFT with specified tokenID for the given recipient, registers it as an IP,         and makes it a derivative of the organization IP."
      },
      "preMintedCount()": {
        "notice": "Number of pre-minted NFTs"
      },
      "remainingTokenIdCount()": {
        "notice": "Number of remaining token_id"
      },
      "rootNFT()": {
        "notice": "Root NFT"
      },
      "setActiveSigner(address,bool)": {
        "notice": "Set a valid signer address.     If the address has been configured, it is a modify function.abi     If the address has not been configured, then it is and add function to configure the address."
      },
      "setContracts(address,address)": {
        "notice": "Updates the MULTIROUND_CONTRACT and the NFT_CONTRACT addresses."
      },
      "setMaxsupply(uint256)": {
        "notice": "Configure or update the maximum number of nfts that can be minted."
      },
      "setPreMintedCount(uint256)": {
        "notice": "Set number of pre-minted NFTs"
      },
      "setSigner(address)": {
        "notice": "Updates the whitelist signer."
      },
      "setStageEnableSig(string,bool)": {
        "notice": "Set whether server level signing is enabled for a specific round according to the stage"
      },
      "setStageMaxSupply(string,uint32)": {
        "notice": "According to the stage, set the maximum nft supply for a specific round."
      },
      "setStageMintInfo((bool,uint8,uint32,uint64,uint64,uint256,address,address,bytes32,string,uint8))": {
        "notice": "Configure or update the information of a certain round according to the stage"
      },
      "setStageMintLimitationPerAddress(string,uint8)": {
        "notice": "Set the upper limit of the number of mints per address for a specific round according to the stage"
      },
      "setStageMintTime(string,uint64,uint64)": {
        "notice": "Configure or update the mint time for a specific stage."
      },
      "setStagePayment(string,address,address,uint256)": {
        "notice": "Set payment information for a specific round based on the stage"
      },
      "setTransferRestrict(bool,uint64,uint64)": {
        "notice": "Set whether to restrict transfer, if configured to true, transfer is not allowed.     Otherwise, transfer is allowed."
      },
      "stageToMint(string)": {
        "notice": "Query configuration information for a specific stage"
      },
      "stageToTotalSupply(string)": {
        "notice": "Query the total number of minted under the current stage"
      },
      "totalSupply()": {
        "notice": "Query the total mint quantity"
      }
    },
    "version": 1
  },
  "storageLayout": {
    "storage": [
      {
        "astId": 6548,
        "contract": "contracts/MimbokuMultiround.sol:MimbokuMultiround",
        "label": "NFT_CONTRACT",
        "offset": 0,
        "slot": "0",
        "type": "t_address"
      },
      {
        "astId": 6551,
        "contract": "contracts/MimbokuMultiround.sol:MimbokuMultiround",
        "label": "MULTIROUND_CONTRACT",
        "offset": 0,
        "slot": "1",
        "type": "t_address"
      },
      {
        "astId": 6554,
        "contract": "contracts/MimbokuMultiround.sol:MimbokuMultiround",
        "label": "PIL_TEMPLATE",
        "offset": 0,
        "slot": "2",
        "type": "t_address"
      },
      {
        "astId": 6557,
        "contract": "contracts/MimbokuMultiround.sol:MimbokuMultiround",
        "label": "IP_ASSET_REGISTRY",
        "offset": 0,
        "slot": "3",
        "type": "t_address"
      },
      {
        "astId": 6560,
        "contract": "contracts/MimbokuMultiround.sol:MimbokuMultiround",
        "label": "CORE_METADATA_MODULE",
        "offset": 0,
        "slot": "4",
        "type": "t_address"
      },
      {
        "astId": 6563,
        "contract": "contracts/MimbokuMultiround.sol:MimbokuMultiround",
        "label": "LICENSING_MODULE",
        "offset": 0,
        "slot": "5",
        "type": "t_address"
      },
      {
        "astId": 6567,
        "contract": "contracts/MimbokuMultiround.sol:MimbokuMultiround",
        "label": "rootNFT",
        "offset": 0,
        "slot": "6",
        "type": "t_struct(RootNFT)7618_storage"
      },
      {
        "astId": 6570,
        "contract": "contracts/MimbokuMultiround.sol:MimbokuMultiround",
        "label": "ipMetadataURI",
        "offset": 0,
        "slot": "10",
        "type": "t_string_storage"
      },
      {
        "astId": 6572,
        "contract": "contracts/MimbokuMultiround.sol:MimbokuMultiround",
        "label": "ipMetadataHash",
        "offset": 0,
        "slot": "11",
        "type": "t_bytes32"
      },
      {
        "astId": 6576,
        "contract": "contracts/MimbokuMultiround.sol:MimbokuMultiround",
        "label": "remainingTokenIds",
        "offset": 0,
        "slot": "12",
        "type": "t_array(t_uint256)dyn_storage"
      },
      {
        "astId": 6579,
        "contract": "contracts/MimbokuMultiround.sol:MimbokuMultiround",
        "label": "remainingTokenIdCount",
        "offset": 0,
        "slot": "13",
        "type": "t_uint256"
      },
      {
        "astId": 6582,
        "contract": "contracts/MimbokuMultiround.sol:MimbokuMultiround",
        "label": "preMintedCount",
        "offset": 0,
        "slot": "14",
        "type": "t_uint256"
      },
      {
        "astId": 6585,
        "contract": "contracts/MimbokuMultiround.sol:MimbokuMultiround",
        "label": "lastMintedTokenId",
        "offset": 0,
        "slot": "15",
        "type": "t_uint256"
      }
    ],
    "types": {
      "t_address": {
        "encoding": "inplace",
        "label": "address",
        "numberOfBytes": "20"
      },
      "t_array(t_address)dyn_storage": {
        "base": "t_address",
        "encoding": "dynamic_array",
        "label": "address[]",
        "numberOfBytes": "32"
      },
      "t_array(t_uint256)dyn_storage": {
        "base": "t_uint256",
        "encoding": "dynamic_array",
        "label": "uint256[]",
        "numberOfBytes": "32"
      },
      "t_bytes32": {
        "encoding": "inplace",
        "label": "bytes32",
        "numberOfBytes": "32"
      },
      "t_string_storage": {
        "encoding": "bytes",
        "label": "string",
        "numberOfBytes": "32"
      },
      "t_struct(RootNFT)7618_storage": {
        "encoding": "inplace",
        "label": "struct IMimbokuMultiround.RootNFT",
        "members": [
          {
            "astId": 7608,
            "contract": "contracts/MimbokuMultiround.sol:MimbokuMultiround",
            "label": "contractAddress",
            "offset": 0,
            "slot": "0",
            "type": "t_address"
          },
          {
            "astId": 7611,
            "contract": "contracts/MimbokuMultiround.sol:MimbokuMultiround",
            "label": "tokenIds",
            "offset": 0,
            "slot": "1",
            "type": "t_array(t_uint256)dyn_storage"
          },
          {
            "astId": 7614,
            "contract": "contracts/MimbokuMultiround.sol:MimbokuMultiround",
            "label": "ipIds",
            "offset": 0,
            "slot": "2",
            "type": "t_array(t_address)dyn_storage"
          },
          {
            "astId": 7617,
            "contract": "contracts/MimbokuMultiround.sol:MimbokuMultiround",
            "label": "licenseTermsIds",
            "offset": 0,
            "slot": "3",
            "type": "t_array(t_uint256)dyn_storage"
          }
        ],
        "numberOfBytes": "128"
      },
      "t_uint256": {
        "encoding": "inplace",
        "label": "uint256",
        "numberOfBytes": "32"
      }
    }
  }
}