{
  "address": "0x72605492f013408eadA534D6E41262A7D2c38321",
  "abi": [
    {
      "inputs": [],
      "stateMutability": "nonpayable",
      "type": "constructor"
    },
    {
      "inputs": [],
      "name": "AccessControlBadConfirmation",
      "type": "error"
    },
    {
      "inputs": [
        {
          "internalType": "address",
          "name": "account",
          "type": "address"
        },
        {
          "internalType": "bytes32",
          "name": "neededRole",
          "type": "bytes32"
        }
      ],
      "name": "AccessControlUnauthorizedAccount",
      "type": "error"
    },
    {
      "inputs": [],
      "name": "InvalidInitialization",
      "type": "error"
    },
    {
      "inputs": [],
      "name": "NotInitializing",
      "type": "error"
    },
    {
      "anonymous": false,
      "inputs": [],
      "name": "EIP712DomainChanged",
      "type": "event"
    },
    {
      "anonymous": false,
      "inputs": [
        {
          "indexed": false,
          "internalType": "uint64",
          "name": "version",
          "type": "uint64"
        }
      ],
      "name": "Initialized",
      "type": "event"
    },
    {
      "anonymous": false,
      "inputs": [
        {
          "indexed": false,
          "internalType": "address",
          "name": "recipient",
          "type": "address"
        },
        {
          "indexed": false,
          "internalType": "uint256",
          "name": "tokenId",
          "type": "uint256"
        },
        {
          "indexed": false,
          "internalType": "address",
          "name": "ipId",
          "type": "address"
        }
      ],
      "name": "NFTMinted",
      "type": "event"
    },
    {
      "anonymous": false,
      "inputs": [
        {
          "indexed": true,
          "internalType": "bytes32",
          "name": "role",
          "type": "bytes32"
        },
        {
          "indexed": true,
          "internalType": "bytes32",
          "name": "previousAdminRole",
          "type": "bytes32"
        },
        {
          "indexed": true,
          "internalType": "bytes32",
          "name": "newAdminRole",
          "type": "bytes32"
        }
      ],
      "name": "RoleAdminChanged",
      "type": "event"
    },
    {
      "anonymous": false,
      "inputs": [
        {
          "indexed": true,
          "internalType": "bytes32",
          "name": "role",
          "type": "bytes32"
        },
        {
          "indexed": true,
          "internalType": "address",
          "name": "account",
          "type": "address"
        },
        {
          "indexed": true,
          "internalType": "address",
          "name": "sender",
          "type": "address"
        }
      ],
      "name": "RoleGranted",
      "type": "event"
    },
    {
      "anonymous": false,
      "inputs": [
        {
          "indexed": true,
          "internalType": "bytes32",
          "name": "role",
          "type": "bytes32"
        },
        {
          "indexed": true,
          "internalType": "address",
          "name": "account",
          "type": "address"
        },
        {
          "indexed": true,
          "internalType": "address",
          "name": "sender",
          "type": "address"
        }
      ],
      "name": "RoleRevoked",
      "type": "event"
    },
    {
      "inputs": [],
      "name": "CORE_METADATA_MODULE",
      "outputs": [
        {
          "internalType": "address",
          "name": "",
          "type": "address"
        }
      ],
      "stateMutability": "view",
      "type": "function"
    },
    {
      "inputs": [],
      "name": "DEFAULT_ADMIN_ROLE",
      "outputs": [
        {
          "internalType": "bytes32",
          "name": "",
          "type": "bytes32"
        }
      ],
      "stateMutability": "view",
      "type": "function"
    },
    {
      "inputs": [],
      "name": "IP_ASSET_REGISTRY",
      "outputs": [
        {
          "internalType": "address",
          "name": "",
          "type": "address"
        }
      ],
      "stateMutability": "view",
      "type": "function"
    },
    {
      "inputs": [],
      "name": "LICENSING_MODULE",
      "outputs": [
        {
          "internalType": "address",
          "name": "",
          "type": "address"
        }
      ],
      "stateMutability": "view",
      "type": "function"
    },
    {
      "inputs": [],
      "name": "MULTIROUND_CONTRACT",
      "outputs": [
        {
          "internalType": "address",
          "name": "",
          "type": "address"
        }
      ],
      "stateMutability": "view",
      "type": "function"
    },
    {
      "inputs": [],
      "name": "NFT_CONTRACT",
      "outputs": [
        {
          "internalType": "address",
          "name": "",
          "type": "address"
        }
      ],
      "stateMutability": "view",
      "type": "function"
    },
    {
      "inputs": [],
      "name": "OWNER_ROLE",
      "outputs": [
        {
          "internalType": "bytes32",
          "name": "",
          "type": "bytes32"
        }
      ],
      "stateMutability": "view",
      "type": "function"
    },
    {
      "inputs": [],
      "name": "PIL_TEMPLATE",
      "outputs": [
        {
          "internalType": "address",
          "name": "",
          "type": "address"
        }
      ],
      "stateMutability": "view",
      "type": "function"
    },
    {
      "inputs": [],
      "name": "eip712Domain",
      "outputs": [
        {
          "internalType": "bytes1",
          "name": "fields",
          "type": "bytes1"
        },
        {
          "internalType": "string",
          "name": "name",
          "type": "string"
        },
        {
          "internalType": "string",
          "name": "version",
          "type": "string"
        },
        {
          "internalType": "uint256",
          "name": "chainId",
          "type": "uint256"
        },
        {
          "internalType": "address",
          "name": "verifyingContract",
          "type": "address"
        },
        {
          "internalType": "bytes32",
          "name": "salt",
          "type": "bytes32"
        },
        {
          "internalType": "uint256[]",
          "name": "extensions",
          "type": "uint256[]"
        }
      ],
      "stateMutability": "view",
      "type": "function"
    },
    {
      "inputs": [
        {
          "internalType": "bytes32",
          "name": "role",
          "type": "bytes32"
        }
      ],
      "name": "getRoleAdmin",
      "outputs": [
        {
          "internalType": "bytes32",
          "name": "",
          "type": "bytes32"
        }
      ],
      "stateMutability": "view",
      "type": "function"
    },
    {
      "inputs": [
        {
          "internalType": "bytes32",
          "name": "role",
          "type": "bytes32"
        },
        {
          "internalType": "address",
          "name": "account",
          "type": "address"
        }
      ],
      "name": "grantRole",
      "outputs": [],
      "stateMutability": "nonpayable",
      "type": "function"
    },
    {
      "inputs": [
        {
          "internalType": "bytes32",
          "name": "role",
          "type": "bytes32"
        },
        {
          "internalType": "address",
          "name": "account",
          "type": "address"
        }
      ],
      "name": "hasRole",
      "outputs": [
        {
          "internalType": "bool",
          "name": "",
          "type": "bool"
        }
      ],
      "stateMutability": "view",
      "type": "function"
    },
    {
      "inputs": [
        {
          "internalType": "address",
          "name": "defaultAdmin",
          "type": "address"
        },
        {
          "internalType": "address",
          "name": "owner",
          "type": "address"
        },
        {
          "internalType": "address",
          "name": "nftContract",
          "type": "address"
        },
        {
          "internalType": "address",
          "name": "multiRoundContract",
          "type": "address"
        },
        {
          "components": [
            {
              "components": [
                {
                  "internalType": "address",
                  "name": "contractAddress",
                  "type": "address"
                },
                {
                  "internalType": "uint256[]",
                  "name": "tokenIds",
                  "type": "uint256[]"
                },
                {
                  "internalType": "address[]",
                  "name": "ipIds",
                  "type": "address[]"
                },
                {
                  "internalType": "uint256[]",
                  "name": "licenseTermsIds",
                  "type": "uint256[]"
                }
              ],
              "internalType": "struct IMimbokuMultiround.RootNFT",
              "name": "rootNFT",
              "type": "tuple"
            },
            {
              "internalType": "address",
              "name": "pilTemplate",
              "type": "address"
            },
            {
              "internalType": "address",
              "name": "ipAssetRegistry",
              "type": "address"
            },
            {
              "internalType": "address",
              "name": "coreMetadataModule",
              "type": "address"
            },
            {
              "internalType": "address",
              "name": "licenseModule",
              "type": "address"
            },
            {
              "internalType": "string",
              "name": "ipMetadataURI",
              "type": "string"
            },
            {
              "internalType": "bytes32",
              "name": "ipMetadataHash",
              "type": "bytes32"
            }
          ],
          "internalType": "struct IMimbokuMultiround.IPMetadata",
          "name": "ipMetadata",
          "type": "tuple"
        }
      ],
      "name": "initialize",
      "outputs": [],
      "stateMutability": "nonpayable",
      "type": "function"
    },
    {
      "inputs": [],
      "name": "ipMetadataHash",
      "outputs": [
        {
          "internalType": "bytes32",
          "name": "",
          "type": "bytes32"
        }
      ],
      "stateMutability": "view",
      "type": "function"
    },
    {
      "inputs": [],
      "name": "ipMetadataURI",
      "outputs": [
        {
          "internalType": "string",
          "name": "",
          "type": "string"
        }
      ],
      "stateMutability": "view",
      "type": "function"
    },
    {
      "inputs": [],
      "name": "lastMintedTokenId",
      "outputs": [
        {
          "internalType": "uint256",
          "name": "",
          "type": "uint256"
        }
      ],
      "stateMutability": "view",
      "type": "function"
    },
    {
      "inputs": [],
      "name": "maxSupply",
      "outputs": [
        {
          "internalType": "uint256",
          "name": "",
          "type": "uint256"
        }
      ],
      "stateMutability": "view",
      "type": "function"
    },
    {
      "inputs": [
        {
          "internalType": "string",
          "name": "stage",
          "type": "string"
        },
        {
          "internalType": "bytes",
          "name": "signature",
          "type": "bytes"
        },
        {
          "internalType": "bytes32[]",
          "name": "proof",
          "type": "bytes32[]"
        },
        {
          "components": [
            {
              "internalType": "uint256",
              "name": "amount",
              "type": "uint256"
            },
            {
              "internalType": "uint256",
              "name": "tokenId",
              "type": "uint256"
            },
            {
              "internalType": "uint256",
              "name": "nonce",
              "type": "uint256"
            },
            {
              "internalType": "uint256",
              "name": "expiry",
              "type": "uint256"
            },
            {
              "internalType": "address",
              "name": "to",
              "type": "address"
            }
          ],
          "internalType": "struct IOKXMultiMint.MintParams",
          "name": "mintparams",
          "type": "tuple"
        }
      ],
      "name": "mint",
      "outputs": [
        {
          "internalType": "uint256",
          "name": "tokenId",
          "type": "uint256"
        },
        {
          "internalType": "address",
          "name": "ipId",
          "type": "address"
        }
      ],
      "stateMutability": "payable",
      "type": "function"
    },
    {
      "inputs": [
        {
          "internalType": "address",
          "name": "to",
          "type": "address"
        },
        {
          "internalType": "string",
          "name": "stage",
          "type": "string"
        }
      ],
      "name": "mintRecord",
      "outputs": [
        {
          "internalType": "uint256",
          "name": "",
          "type": "uint256"
        }
      ],
      "stateMutability": "view",
      "type": "function"
    },
    {
      "inputs": [
        {
          "internalType": "address",
          "name": "to",
          "type": "address"
        },
        {
          "internalType": "uint256",
          "name": "tokenId_",
          "type": "uint256"
        }
      ],
      "name": "preMint",
      "outputs": [
        {
          "internalType": "address",
          "name": "ipId",
          "type": "address"
        }
      ],
      "stateMutability": "nonpayable",
      "type": "function"
    },
    {
      "inputs": [],
      "name": "preMintedCount",
      "outputs": [
        {
          "internalType": "uint256",
          "name": "",
          "type": "uint256"
        }
      ],
      "stateMutability": "view",
      "type": "function"
    },
    {
      "inputs": [
        {
          "internalType": "bytes32",
          "name": "role",
          "type": "bytes32"
        },
        {
          "internalType": "address",
          "name": "callerConfirmation",
          "type": "address"
        }
      ],
      "name": "renounceRole",
      "outputs": [],
      "stateMutability": "nonpayable",
      "type": "function"
    },
    {
      "inputs": [
        {
          "internalType": "bytes32",
          "name": "role",
          "type": "bytes32"
        },
        {
          "internalType": "address",
          "name": "account",
          "type": "address"
        }
      ],
      "name": "revokeRole",
      "outputs": [],
      "stateMutability": "nonpayable",
      "type": "function"
    },
    {
      "inputs": [],
      "name": "rootNFT",
      "outputs": [
        {
          "internalType": "address",
          "name": "contractAddress",
          "type": "address"
        }
      ],
      "stateMutability": "view",
      "type": "function"
    },
    {
      "inputs": [
        {
          "internalType": "address",
          "name": "signer",
          "type": "address"
        },
        {
          "internalType": "bool",
          "name": "status",
          "type": "bool"
        }
      ],
      "name": "setActiveSigner",
      "outputs": [],
      "stateMutability": "nonpayable",
      "type": "function"
    },
    {
      "inputs": [
        {
          "internalType": "address",
          "name": "nftContract",
          "type": "address"
        },
        {
          "internalType": "address",
          "name": "multiRoundContract",
          "type": "address"
        }
      ],
      "name": "setContracts",
      "outputs": [],
      "stateMutability": "nonpayable",
      "type": "function"
    },
    {
      "inputs": [
        {
          "internalType": "uint256",
          "name": "newMaxSupply",
          "type": "uint256"
        }
      ],
      "name": "setMaxSupply",
      "outputs": [],
      "stateMutability": "nonpayable",
      "type": "function"
    },
    {
      "inputs": [
        {
          "internalType": "uint256",
          "name": "count",
          "type": "uint256"
        }
      ],
      "name": "setPreMintedCount",
      "outputs": [],
      "stateMutability": "nonpayable",
      "type": "function"
    },
    {
      "inputs": [
        {
          "internalType": "address",
          "name": "signer_",
          "type": "address"
        }
      ],
      "name": "setSigner",
      "outputs": [],
      "stateMutability": "nonpayable",
      "type": "function"
    },
    {
      "inputs": [
        {
          "internalType": "string",
          "name": "stage",
          "type": "string"
        },
        {
          "internalType": "bool",
          "name": "enableSig",
          "type": "bool"
        }
      ],
      "name": "setStageEnableSig",
      "outputs": [],
      "stateMutability": "nonpayable",
      "type": "function"
    },
    {
      "inputs": [
        {
          "internalType": "string",
          "name": "stage",
          "type": "string"
        },
        {
          "internalType": "uint32",
          "name": "maxSupply_",
          "type": "uint32"
        }
      ],
      "name": "setStageMaxSupply",
      "outputs": [],
      "stateMutability": "nonpayable",
      "type": "function"
    },
    {
      "inputs": [
        {
          "components": [
            {
              "internalType": "bool",
              "name": "enableSig",
              "type": "bool"
            },
            {
              "internalType": "uint8",
              "name": "limitationForAddress",
              "type": "uint8"
            },
            {
              "internalType": "uint32",
              "name": "maxSupplyForStage",
              "type": "uint32"
            },
            {
              "internalType": "uint64",
              "name": "startTime",
              "type": "uint64"
            },
            {
              "internalType": "uint64",
              "name": "endTime",
              "type": "uint64"
            },
            {
              "internalType": "uint256",
              "name": "price",
              "type": "uint256"
            },
            {
              "internalType": "address",
              "name": "paymentToken",
              "type": "address"
            },
            {
              "internalType": "address",
              "name": "payeeAddress",
              "type": "address"
            },
            {
              "internalType": "bytes32",
              "name": "allowListMerkleRoot",
              "type": "bytes32"
            },
            {
              "internalType": "string",
              "name": "stage",
              "type": "string"
            },
            {
              "internalType": "enum IOKXMultiMint.MintType",
              "name": "mintType",
              "type": "uint8"
            }
          ],
          "internalType": "struct IOKXMultiMint.StageMintInfo",
          "name": "stageMintInfo",
          "type": "tuple"
        }
      ],
      "name": "setStageMintInfo",
      "outputs": [],
      "stateMutability": "nonpayable",
      "type": "function"
    },
    {
      "inputs": [
        {
          "internalType": "string",
          "name": "stage",
          "type": "string"
        },
        {
          "internalType": "uint8",
          "name": "mintLimitationPerAddress",
          "type": "uint8"
        }
      ],
      "name": "setStageMintLimitationPerAddress",
      "outputs": [],
      "stateMutability": "nonpayable",
      "type": "function"
    },
    {
      "inputs": [
        {
          "internalType": "string",
          "name": "stage",
          "type": "string"
        },
        {
          "internalType": "uint64",
          "name": "startTime",
          "type": "uint64"
        },
        {
          "internalType": "uint64",
          "name": "endTime",
          "type": "uint64"
        }
      ],
      "name": "setStageMintTime",
      "outputs": [],
      "stateMutability": "nonpayable",
      "type": "function"
    },
    {
      "inputs": [
        {
          "internalType": "string",
          "name": "stage",
          "type": "string"
        },
        {
          "internalType": "address",
          "name": "payeeAddress",
          "type": "address"
        },
        {
          "internalType": "address",
          "name": "paymentToken",
          "type": "address"
        },
        {
          "internalType": "uint64",
          "name": "price",
          "type": "uint64"
        }
      ],
      "name": "setStagePayment",
      "outputs": [],
      "stateMutability": "nonpayable",
      "type": "function"
    },
    {
      "inputs": [
        {
          "internalType": "bool",
          "name": "isTransferRestricted_",
          "type": "bool"
        },
        {
          "internalType": "uint64",
          "name": "startTime",
          "type": "uint64"
        },
        {
          "internalType": "uint64",
          "name": "endTime",
          "type": "uint64"
        }
      ],
      "name": "setTransferRestricted",
      "outputs": [],
      "stateMutability": "nonpayable",
      "type": "function"
    },
    {
      "inputs": [
        {
          "internalType": "string",
          "name": "stage",
          "type": "string"
        }
      ],
      "name": "stageToMint",
      "outputs": [
        {
          "components": [
            {
              "internalType": "bool",
              "name": "enableSig",
              "type": "bool"
            },
            {
              "internalType": "uint8",
              "name": "limitationForAddress",
              "type": "uint8"
            },
            {
              "internalType": "uint32",
              "name": "maxSupplyForStage",
              "type": "uint32"
            },
            {
              "internalType": "uint64",
              "name": "startTime",
              "type": "uint64"
            },
            {
              "internalType": "uint64",
              "name": "endTime",
              "type": "uint64"
            },
            {
              "internalType": "uint256",
              "name": "price",
              "type": "uint256"
            },
            {
              "internalType": "address",
              "name": "paymentToken",
              "type": "address"
            },
            {
              "internalType": "address",
              "name": "payeeAddress",
              "type": "address"
            },
            {
              "internalType": "bytes32",
              "name": "allowListMerkleRoot",
              "type": "bytes32"
            },
            {
              "internalType": "string",
              "name": "stage",
              "type": "string"
            },
            {
              "internalType": "enum IOKXMultiMint.MintType",
              "name": "mintType",
              "type": "uint8"
            }
          ],
          "internalType": "struct IOKXMultiMint.StageMintInfo",
          "name": "",
          "type": "tuple"
        }
      ],
      "stateMutability": "view",
      "type": "function"
    },
    {
      "inputs": [
        {
          "internalType": "string",
          "name": "stage",
          "type": "string"
        }
      ],
      "name": "stageToTotalSupply",
      "outputs": [
        {
          "internalType": "uint256",
          "name": "",
          "type": "uint256"
        }
      ],
      "stateMutability": "view",
      "type": "function"
    },
    {
      "inputs": [
        {
          "internalType": "bytes4",
          "name": "interfaceId",
          "type": "bytes4"
        }
      ],
      "name": "supportsInterface",
      "outputs": [
        {
          "internalType": "bool",
          "name": "",
          "type": "bool"
        }
      ],
      "stateMutability": "view",
      "type": "function"
    },
    {
      "inputs": [],
      "name": "totalSupply",
      "outputs": [
        {
          "internalType": "uint256",
          "name": "",
          "type": "uint256"
        }
      ],
      "stateMutability": "view",
      "type": "function"
    }
  ],
  "transactionHash": "0xc2220d72952e8fc80803d8d9ef92dadc30dad0e94a1dbf07fdfad2f52e25b1d8",
  "args": [],
  "numDeployments": 1,
  "solcInputHash": "5b2b125c77a4e8b2ac3354b92d876d4b",
  "bytecode": "0x608060405234801561001057600080fd5b5061001f61002460201b60201c565b61018e565b600061003461012860201b60201c565b90508060000160089054906101000a900460ff161561007f576040517ff92ee8a900000000000000000000000000000000000000000000000000000000815260040160405180910390fd5b67ffffffffffffffff80168160000160009054906101000a900467ffffffffffffffff1667ffffffffffffffff16146101255767ffffffffffffffff8160000160006101000a81548167ffffffffffffffff021916908367ffffffffffffffff1602179055507fc7f505b2f371ae2175ee4913f4499e1f2633a7b5936321eed1cdaeb6115181d267ffffffffffffffff60405161011c9190610173565b60405180910390a15b50565b60007ff0c57e16840df040f15088dc2f81fe391c3923bec73e23a9662efc9c229c6a00905090565b600067ffffffffffffffff82169050919050565b61016d81610150565b82525050565b60006020820190506101886000830184610164565b92915050565b615f6e8061019d6000396000f3fe60806040526004361061023b5760003560e01c80636f8b44b01161012e578063aa4daf24116100ab578063d547741f1161006f578063d547741f14610891578063d5abeb01146108ba578063d8952a49146108e5578063e32e2bbc1461090e578063e58378bb146109375761023b565b8063aa4daf24146107bc578063b67f21be146107ed578063b921379914610816578063ce617ce51461083f578063d4aa8d6f146108685761023b565b806391d14854116100f257806391d14854146106c35780639fe78f7914610700578063a217fddf1461073d578063a5f5a4a814610768578063a95feefe146107915761023b565b80636f8b44b0146105e85780637f5866041461061157806384b0196e1461063c5780638e7d25a81461066d5780639035e5a6146106985761023b565b806336568abe116101bc5780635a9baebd116101805780635a9baebd1461051757806362f42822146105405780636508b10a1461056957806365165aa5146105945780636c19e783146105bf5761023b565b806336568abe1461043257806341c782c51461045b5780634899cf0b146104865780634b6d9411146104af5780634d73cbd5146104da5761023b565b80631fda9a02116102035780631fda9a021461033b578063248a9ca31461036657806328c1a4f5146103a3578063290c292d146103cc5780632f2ff15d146104095761023b565b806301ffc9a7146102405780630f9f6cbd1461027d5780630fbe291a146102a857806312c4ce88146102e557806318160ddd14610310575b600080fd5b34801561024c57600080fd5b50610267600480360381019061026291906134f4565b610962565b604051610274919061353c565b60405180910390f35b34801561028957600080fd5b506102926109dc565b60405161029f91906135e7565b60405180910390f35b3480156102b457600080fd5b506102cf60048036038101906102ca919061379c565b610a6a565b6040516102dc9190613811565b60405180910390f35b3480156102f157600080fd5b506102fa610b12565b604051610307919061383b565b60405180910390f35b34801561031c57600080fd5b50610325610b38565b6040516103329190613811565b60405180910390f35b34801561034757600080fd5b50610350610bd0565b60405161035d919061383b565b60405180910390f35b34801561037257600080fd5b5061038d6004803603810190610388919061388c565b610bf4565b60405161039a91906138c8565b60405180910390f35b3480156103af57600080fd5b506103ca60048036038101906103c5919061390f565b610c22565b005b3480156103d857600080fd5b506103f360048036038101906103ee919061397b565b610ce0565b604051610400919061383b565b60405180910390f35b34801561041557600080fd5b50610430600480360381019061042b91906139bb565b610ea8565b005b34801561043e57600080fd5b50610459600480360381019061045491906139bb565b610eca565b005b34801561046757600080fd5b50610470610f45565b60405161047d919061383b565b60405180910390f35b34801561049257600080fd5b506104ad60048036038101906104a89190613a3b565b610f6b565b005b3480156104bb57600080fd5b506104c461102c565b6040516104d19190613811565b60405180910390f35b3480156104e657600080fd5b5061050160048036038101906104fc9190613a8e565b611032565b60405161050e9190613d0d565b60405180910390f35b34801561052357600080fd5b5061053e60048036038101906105399190613d8f565b6110e2565b005b34801561054c57600080fd5b5061056760048036038101906105629190613e3c565b6111a9565b005b34801561057557600080fd5b5061057e611379565b60405161058b9190613811565b60405180910390f35b3480156105a057600080fd5b506105a961137f565b6040516105b6919061383b565b60405180910390f35b3480156105cb57600080fd5b506105e660048036038101906105e19190613e85565b6113a5565b005b3480156105f457600080fd5b5061060f600480360381019061060a9190613eb2565b611463565b005b34801561061d57600080fd5b50610626611519565b604051610633919061383b565b60405180910390f35b34801561064857600080fd5b5061065161153f565b6040516106649796959493929190613fc9565b60405180910390f35b34801561067957600080fd5b50610682611651565b60405161068f919061383b565b60405180910390f35b3480156106a457600080fd5b506106ad61167d565b6040516106ba919061383b565b60405180910390f35b3480156106cf57600080fd5b506106ea60048036038101906106e591906139bb565b6116a3565b6040516106f7919061353c565b60405180910390f35b34801561070c57600080fd5b5061072760048036038101906107229190613a8e565b61171c565b6040516107349190613811565b60405180910390f35b34801561074957600080fd5b506107526117c1565b60405161075f91906138c8565b60405180910390f35b34801561077457600080fd5b5061078f600480360381019061078a919061404d565b6117c8565b005b34801561079d57600080fd5b506107a6611889565b6040516107b391906138c8565b60405180910390f35b6107d660048036038101906107d19190614178565b61188f565b6040516107e4929190614242565b60405180910390f35b3480156107f957600080fd5b50610814600480360381019061080f9190614297565b611cd1565b005b34801561082257600080fd5b5061083d60048036038101906108389190614316565b611d92565b005b34801561084b57600080fd5b5061086660048036038101906108619190613eb2565b6121ea565b005b34801561087457600080fd5b5061088f600480360381019061088a91906143ad565b612375565b005b34801561089d57600080fd5b506108b860048036038101906108b391906139bb565b612439565b005b3480156108c657600080fd5b506108cf61245b565b6040516108dc9190613811565b60405180910390f35b3480156108f157600080fd5b5061090c60048036038101906109079190614421565b6124f3565b005b34801561091a57600080fd5b506109356004803603810190610930919061448d565b612586565b005b34801561094357600080fd5b5061094c61281d565b60405161095991906138c8565b60405180910390f35b60007f7965db0b000000000000000000000000000000000000000000000000000000007bffffffffffffffffffffffffffffffffffffffffffffffffffffffff1916827bffffffffffffffffffffffffffffffffffffffffffffffffffffffff191614806109d557506109d482612841565b5b9050919050565b600a80546109e99061451c565b80601f0160208091040260200160405190810160405280929190818152602001828054610a159061451c565b8015610a625780601f10610a3757610100808354040283529160200191610a62565b820191906000526020600020905b815481529060010190602001808311610a4557829003601f168201915b505050505081565b6000600160009054906101000a900473ffffffffffffffffffffffffffffffffffffffff1673ffffffffffffffffffffffffffffffffffffffff16630fbe291a84846040518363ffffffff1660e01b8152600401610ac992919061454d565b602060405180830381865afa158015610ae6573d6000803e3d6000fd5b505050506040513d601f19601f82011682018060405250810190610b0a9190614592565b905092915050565b600260009054906101000a900473ffffffffffffffffffffffffffffffffffffffff1681565b6000600160009054906101000a900473ffffffffffffffffffffffffffffffffffffffff1673ffffffffffffffffffffffffffffffffffffffff166318160ddd6040518163ffffffff1660e01b8152600401602060405180830381865afa158015610ba7573d6000803e3d6000fd5b505050506040513d601f19601f82011682018060405250810190610bcb9190614592565b905090565b60008054906101000a900473ffffffffffffffffffffffffffffffffffffffff1681565b600080610bff6128ab565b905080600001600084815260200190815260200160002060010154915050919050565b7fb19546dff01e856fb3f010c267a7b1c60363cf8a4664e21cc89c26224620214e610c4c816128d3565b600160009054906101000a900473ffffffffffffffffffffffffffffffffffffffff1673ffffffffffffffffffffffffffffffffffffffff166328c1a4f584846040518363ffffffff1660e01b8152600401610ca99291906145bf565b600060405180830381600087803b158015610cc357600080fd5b505af1158015610cd7573d6000803e3d6000fd5b50505050505050565b60008060001b610cef816128d3565b60008314158015610d025750600e548311155b610d41576040517f08c379a0000000000000000000000000000000000000000000000000000000008152600401610d3890614634565b60405180910390fd5b600160009054906101000a900473ffffffffffffffffffffffffffffffffffffffff1673ffffffffffffffffffffffffffffffffffffffff166317d13a2b6040518163ffffffff1660e01b8152600401600060405180830381600087803b158015610dab57600080fd5b505af1158015610dbf573d6000803e3d6000fd5b505050506000610dce846128e7565b809450819250505060008054906101000a900473ffffffffffffffffffffffffffffffffffffffff1673ffffffffffffffffffffffffffffffffffffffff166323b872dd3087876040518463ffffffff1660e01b8152600401610e3393929190614654565b600060405180830381600087803b158015610e4d57600080fd5b505af1158015610e61573d6000803e3d6000fd5b505050507f89a2c92e65780856b461f06435fffd0fb445240ba3cfee7e8f18e01dca40c073858585604051610e989392919061468b565b60405180910390a1505092915050565b610eb182610bf4565b610eba816128d3565b610ec48383612ad0565b50505050565b610ed2612bd1565b73ffffffffffffffffffffffffffffffffffffffff168173ffffffffffffffffffffffffffffffffffffffff1614610f36576040517f6697b23200000000000000000000000000000000000000000000000000000000815260040160405180910390fd5b610f408282612bd9565b505050565b600360009054906101000a900473ffffffffffffffffffffffffffffffffffffffff1681565b7fb19546dff01e856fb3f010c267a7b1c60363cf8a4664e21cc89c26224620214e610f95816128d3565b600160009054906101000a900473ffffffffffffffffffffffffffffffffffffffff1673ffffffffffffffffffffffffffffffffffffffff16634899cf0b8585856040518463ffffffff1660e01b8152600401610ff4939291906146d1565b600060405180830381600087803b15801561100e57600080fd5b505af1158015611022573d6000803e3d6000fd5b5050505050505050565b600e5481565b61103a613343565b600160009054906101000a900473ffffffffffffffffffffffffffffffffffffffff1673ffffffffffffffffffffffffffffffffffffffff16634d73cbd5836040518263ffffffff1660e01b815260040161109591906135e7565b600060405180830381865afa1580156110b2573d6000803e3d6000fd5b505050506040513d6000823e3d601f19601f820116820180604052508101906110db919061494d565b9050919050565b7fb19546dff01e856fb3f010c267a7b1c60363cf8a4664e21cc89c26224620214e61110c816128d3565b600160009054906101000a900473ffffffffffffffffffffffffffffffffffffffff1673ffffffffffffffffffffffffffffffffffffffff16634fb5656a87878787876040518663ffffffff1660e01b815260040161116f9594939291906149fe565b600060405180830381600087803b15801561118957600080fd5b505af115801561119d573d6000803e3d6000fd5b50505050505050505050565b7fb19546dff01e856fb3f010c267a7b1c60363cf8a4664e21cc89c26224620214e6111d3816128d3565b600160009054906101000a900473ffffffffffffffffffffffffffffffffffffffff1673ffffffffffffffffffffffffffffffffffffffff166362f42822836040518263ffffffff1660e01b815260040161122e9190614d01565b600060405180830381600087803b15801561124857600080fd5b505af115801561125c573d6000803e3d6000fd5b505050506000600160009054906101000a900473ffffffffffffffffffffffffffffffffffffffff1673ffffffffffffffffffffffffffffffffffffffff1663d5abeb016040518163ffffffff1660e01b8152600401602060405180830381865afa1580156112cf573d6000803e3d6000fd5b505050506040513d601f19601f820116820180604052508101906112f39190614592565b9050600c600061130391906133fd565b8067ffffffffffffffff81111561131d5761131c613671565b5b60405190808252806020026020018201604052801561134b5781602001602082028036833780820191505090505b50600c908051906020019061136192919061341e565b5080600d81905550611374600e54612cdb565b505050565b600f5481565b600560009054906101000a900473ffffffffffffffffffffffffffffffffffffffff1681565b7fb19546dff01e856fb3f010c267a7b1c60363cf8a4664e21cc89c26224620214e6113cf816128d3565b600160009054906101000a900473ffffffffffffffffffffffffffffffffffffffff1673ffffffffffffffffffffffffffffffffffffffff166328c1a4f58360016040518363ffffffff1660e01b815260040161142d9291906145bf565b600060405180830381600087803b15801561144757600080fd5b505af115801561145b573d6000803e3d6000fd5b505050505050565b7fb19546dff01e856fb3f010c267a7b1c60363cf8a4664e21cc89c26224620214e61148d816128d3565b61149682612d45565b600c60006114a491906133fd565b8167ffffffffffffffff8111156114be576114bd613671565b5b6040519080825280602002602001820160405280156114ec5781602001602082028036833780820191505090505b50600c908051906020019061150292919061341e565b5081600d81905550611515600e54612cdb565b5050565b600460009054906101000a900473ffffffffffffffffffffffffffffffffffffffff1681565b6000606080600080600060606000611555612dd5565b90506000801b816000015414801561157357506000801b8160010154145b6115b2576040517f08c379a00000000000000000000000000000000000000000000000000000000081526004016115a990614d6f565b60405180910390fd5b6115ba612dfd565b6115c2612e9e565b46306000801b600067ffffffffffffffff8111156115e3576115e2613671565b5b6040519080825280602002602001820160405280156116115781602001602082028036833780820191505090505b507f0f0000000000000000000000000000000000000000000000000000000000000095949392919097509750975097509750975097505090919293949596565b60068060000160009054906101000a900473ffffffffffffffffffffffffffffffffffffffff16905081565b600160009054906101000a900473ffffffffffffffffffffffffffffffffffffffff1681565b6000806116ae6128ab565b905080600001600085815260200190815260200160002060000160008473ffffffffffffffffffffffffffffffffffffffff1673ffffffffffffffffffffffffffffffffffffffff16815260200190815260200160002060009054906101000a900460ff1691505092915050565b6000600160009054906101000a900473ffffffffffffffffffffffffffffffffffffffff1673ffffffffffffffffffffffffffffffffffffffff16639fe78f79836040518263ffffffff1660e01b815260040161177991906135e7565b602060405180830381865afa158015611796573d6000803e3d6000fd5b505050506040513d601f19601f820116820180604052508101906117ba9190614592565b9050919050565b6000801b81565b7fb19546dff01e856fb3f010c267a7b1c60363cf8a4664e21cc89c26224620214e6117f2816128d3565b600160009054906101000a900473ffffffffffffffffffffffffffffffffffffffff1673ffffffffffffffffffffffffffffffffffffffff1663a5f5a4a88585856040518463ffffffff1660e01b815260040161185193929190614d8f565b600060405180830381600087803b15801561186b57600080fd5b505af115801561187f573d6000803e3d6000fd5b5050505050505050565b600b5481565b6000806000600160009054906101000a900473ffffffffffffffffffffffffffffffffffffffff1673ffffffffffffffffffffffffffffffffffffffff1663832f9f548b8b89898d8d8b6040518863ffffffff1660e01b81526004016118fb9796959493929190614f0a565b6020604051808303816000875af115801561191a573d6000803e3d6000fd5b505050506040513d601f19601f8201168201806040525081019061193e9190614592565b90506000600160009054906101000a900473ffffffffffffffffffffffffffffffffffffffff1673ffffffffffffffffffffffffffffffffffffffff16634d73cbd58c8c6040518363ffffffff1660e01b815260040161199f929190614f6b565b600060405180830381865afa1580156119bc573d6000803e3d6000fd5b505050506040513d6000823e3d601f19601f820116820180604052508101906119e5919061494d565b905060008160a0015114611ba557600073ffffffffffffffffffffffffffffffffffffffff168160c0015173ffffffffffffffffffffffffffffffffffffffff1614611b06578060c0015173ffffffffffffffffffffffffffffffffffffffff166323b872dd338360e00151858560a00151611a619190614fbe565b6040518463ffffffff1660e01b8152600401611a7f93929190614654565b6020604051808303816000875af1158015611a9e573d6000803e3d6000fd5b505050506040513d601f19601f82011682018060405250810190611ac29190615000565b611b01576040517f08c379a0000000000000000000000000000000000000000000000000000000008152600401611af890615079565b60405180910390fd5b611ba4565b818160a00151611b169190614fbe565b341015611b58576040517f08c379a0000000000000000000000000000000000000000000000000000000008152600401611b4f906150e5565b60405180910390fd5b8060e0015173ffffffffffffffffffffffffffffffffffffffff166108fc349081150290604051600060405180830381858888f19350505050158015611ba2573d6000803e3d6000fd5b505b5b60005b82811015611c7557611bba60006128e7565b809550819650505060008054906101000a900473ffffffffffffffffffffffffffffffffffffffff1673ffffffffffffffffffffffffffffffffffffffff166323b872dd30886080016020810190611c129190613e85565b886040518463ffffffff1660e01b8152600401611c3193929190614654565b600060405180830381600087803b158015611c4b57600080fd5b505af1158015611c5f573d6000803e3d6000fd5b5050505084600f81905550806001019050611ba8565b507f89a2c92e65780856b461f06435fffd0fb445240ba3cfee7e8f18e01dca40c073856080016020810190611caa9190613e85565b8585604051611cbb9392919061468b565b60405180910390a1505097509795505050505050565b7fb19546dff01e856fb3f010c267a7b1c60363cf8a4664e21cc89c26224620214e611cfb816128d3565b600160009054906101000a900473ffffffffffffffffffffffffffffffffffffffff1673ffffffffffffffffffffffffffffffffffffffff1663b67f21be8585856040518463ffffffff1660e01b8152600401611d5a93929190615114565b600060405180830381600087803b158015611d7457600080fd5b505af1158015611d88573d6000803e3d6000fd5b5050505050505050565b6000611d9c612f3f565b905060008160000160089054906101000a900460ff1615905060008260000160009054906101000a900467ffffffffffffffff1690506000808267ffffffffffffffff16148015611dea5750825b9050600060018367ffffffffffffffff16148015611e1f575060003073ffffffffffffffffffffffffffffffffffffffff163b145b905081158015611e2d575080155b15611e64576040517ff92ee8a900000000000000000000000000000000000000000000000000000000815260040160405180910390fd5b60018560000160006101000a81548167ffffffffffffffff021916908367ffffffffffffffff1602179055508315611eb45760018560000160086101000a81548160ff0219169083151502179055505b611f286040518060400160405280600781526020017f4f4b584d696e74000000000000000000000000000000000000000000000000008152506040518060400160405280600381526020017f312e300000000000000000000000000000000000000000000000000000000000815250612f67565b611f30612f7d565b611f3d6000801b8b612ad0565b50611f687fb19546dff01e856fb3f010c267a7b1c60363cf8a4664e21cc89c26224620214e8a612ad0565b50876000806101000a81548173ffffffffffffffffffffffffffffffffffffffff021916908373ffffffffffffffffffffffffffffffffffffffff16021790555086600160006101000a81548173ffffffffffffffffffffffffffffffffffffffff021916908373ffffffffffffffffffffffffffffffffffffffff160217905550858060000190611ffa9190615155565b600681816120089190615779565b90505085602001602081019061201e9190613e85565b600260006101000a81548173ffffffffffffffffffffffffffffffffffffffff021916908373ffffffffffffffffffffffffffffffffffffffff1602179055508560400160208101906120719190613e85565b600360006101000a81548173ffffffffffffffffffffffffffffffffffffffff021916908373ffffffffffffffffffffffffffffffffffffffff1602179055508560600160208101906120c49190613e85565b600460006101000a81548173ffffffffffffffffffffffffffffffffffffffff021916908373ffffffffffffffffffffffffffffffffffffffff1602179055508560800160208101906121179190613e85565b600560006101000a81548173ffffffffffffffffffffffffffffffffffffffff021916908373ffffffffffffffffffffffffffffffffffffffff160217905550858060a001906121679190615787565b600a91826121769291906158bd565b508560c00135600b8190555083156121de5760008560000160086101000a81548160ff0219169083151502179055507fc7f505b2f371ae2175ee4913f4499e1f2633a7b5936321eed1cdaeb6115181d260016040516121d591906159c8565b60405180910390a15b50505050505050505050565b7fb19546dff01e856fb3f010c267a7b1c60363cf8a4664e21cc89c26224620214e612214816128d3565b6000600160009054906101000a900473ffffffffffffffffffffffffffffffffffffffff1673ffffffffffffffffffffffffffffffffffffffff1663d5abeb016040518163ffffffff1660e01b8152600401602060405180830381865afa158015612283573d6000803e3d6000fd5b505050506040513d601f19601f820116820180604052508101906122a79190614592565b9050600e54816122b791906159e3565b905082816122c59190615a17565b90506122d081612d45565b600160009054906101000a900473ffffffffffffffffffffffffffffffffffffffff1673ffffffffffffffffffffffffffffffffffffffff1663d5abeb016040518163ffffffff1660e01b8152600401602060405180830381865afa15801561233d573d6000803e3d6000fd5b505050506040513d601f19601f820116820180604052508101906123619190614592565b600d8190555061237083612cdb565b505050565b7fb19546dff01e856fb3f010c267a7b1c60363cf8a4664e21cc89c26224620214e61239f816128d3565b600160009054906101000a900473ffffffffffffffffffffffffffffffffffffffff1673ffffffffffffffffffffffffffffffffffffffff1663d4aa8d6f868686866040518563ffffffff1660e01b81526004016124009493929190615a4b565b600060405180830381600087803b15801561241a57600080fd5b505af115801561242e573d6000803e3d6000fd5b505050505050505050565b61244282610bf4565b61244b816128d3565b6124558383612bd9565b50505050565b6000600160009054906101000a900473ffffffffffffffffffffffffffffffffffffffff1673ffffffffffffffffffffffffffffffffffffffff1663d5abeb016040518163ffffffff1660e01b8152600401602060405180830381865afa1580156124ca573d6000803e3d6000fd5b505050506040513d601f19601f820116820180604052508101906124ee9190614592565b905090565b6000801b612500816128d3565b826000806101000a81548173ffffffffffffffffffffffffffffffffffffffff021916908373ffffffffffffffffffffffffffffffffffffffff16021790555081600160006101000a81548173ffffffffffffffffffffffffffffffffffffffff021916908373ffffffffffffffffffffffffffffffffffffffff160217905550505050565b7fb19546dff01e856fb3f010c267a7b1c60363cf8a4664e21cc89c26224620214e6125b0816128d3565b6000600160009054906101000a900473ffffffffffffffffffffffffffffffffffffffff1673ffffffffffffffffffffffffffffffffffffffff1663d5abeb016040518163ffffffff1660e01b8152600401602060405180830381865afa15801561261f573d6000803e3d6000fd5b505050506040513d601f19601f820116820180604052508101906126439190614592565b9050600160009054906101000a900473ffffffffffffffffffffffffffffffffffffffff1673ffffffffffffffffffffffffffffffffffffffff1663e32e2bbc8686866040518463ffffffff1660e01b81526004016126a493929190615a9a565b600060405180830381600087803b1580156126be57600080fd5b505af11580156126d2573d6000803e3d6000fd5b505050506000600160009054906101000a900473ffffffffffffffffffffffffffffffffffffffff1673ffffffffffffffffffffffffffffffffffffffff1663d5abeb016040518163ffffffff1660e01b8152600401602060405180830381865afa158015612745573d6000803e3d6000fd5b505050506040513d601f19601f820116820180604052508101906127699190614592565b9050818161277791906159e3565b90508363ffffffff168161278b9190615a17565b905061279681612d45565b600c60006127a491906133fd565b8067ffffffffffffffff8111156127be576127bd613671565b5b6040519080825280602002602001820160405280156127ec5781602001602082028036833780820191505090505b50600c908051906020019061280292919061341e565b5080600d81905550612815600e54612cdb565b505050505050565b7fb19546dff01e856fb3f010c267a7b1c60363cf8a4664e21cc89c26224620214e81565b60007f01ffc9a7000000000000000000000000000000000000000000000000000000007bffffffffffffffffffffffffffffffffffffffffffffffffffffffff1916827bffffffffffffffffffffffffffffffffffffffffffffffffffffffff1916149050919050565b60007f02dd7bc7dec4dceedda775e58dd541e08a116c6c53815c0bd028192f7b626800905090565b6128e4816128df612bd1565b612f87565b50565b600080600083146128fa57829150612905565b612902612fd8565b91505b60008054906101000a900473ffffffffffffffffffffffffffffffffffffffff1673ffffffffffffffffffffffffffffffffffffffff1663a144819430846040518363ffffffff1660e01b8152600401612960929190615acc565b600060405180830381600087803b15801561297a57600080fd5b505af115801561298e573d6000803e3d6000fd5b5050505060006006600201805480602002602001604051908101604052809291908181526020018280548015612a1957602002820191906000526020600020905b8160009054906101000a900473ffffffffffffffffffffffffffffffffffffffff1673ffffffffffffffffffffffffffffffffffffffff16815260200190600101908083116129cf575b5050505050905060006006600301805480602002602001604051908101604052809291908181526020018280548015612a7157602002820191906000526020600020905b815481526020019060010190808311612a5d575b50505050509050612a8484600b5461311d565b9250612ac98383600260009054906101000a900473ffffffffffffffffffffffffffffffffffffffff16846040518060200160405280600081525060008060006131e9565b5050915091565b600080612adb6128ab565b9050612ae784846116a3565b612bc557600181600001600086815260200190815260200160002060000160008573ffffffffffffffffffffffffffffffffffffffff1673ffffffffffffffffffffffffffffffffffffffff16815260200190815260200160002060006101000a81548160ff021916908315150217905550612b61612bd1565b73ffffffffffffffffffffffffffffffffffffffff168373ffffffffffffffffffffffffffffffffffffffff16857f2f8788117e7eff1d82e926ec794901d17c78024a50270940304540a733656f0d60405160405180910390a46001915050612bcb565b60009150505b92915050565b600033905090565b600080612be46128ab565b9050612bf084846116a3565b15612ccf57600081600001600086815260200190815260200160002060000160008573ffffffffffffffffffffffffffffffffffffffff1673ffffffffffffffffffffffffffffffffffffffff16815260200190815260200160002060006101000a81548160ff021916908315150217905550612c6b612bd1565b73ffffffffffffffffffffffffffffffffffffffff168373ffffffffffffffffffffffffffffffffffffffff16857ff6391f5c32d9c69d2a47ea670b442974b53935d1edc7fd64eb21e047a839171b60405160405180910390a46001915050612cd5565b60009150505b92915050565b80600e8190555060005b81811015612d285780600d54612cfb91906159e3565b600c8281548110612d0f57612d0e615af5565b5b9060005260206000200181905550806001019050612ce5565b5080600d6000828254612d3b91906159e3565b9250508190555050565b600160009054906101000a900473ffffffffffffffffffffffffffffffffffffffff1673ffffffffffffffffffffffffffffffffffffffff16636f8b44b0826040518263ffffffff1660e01b8152600401612da09190613811565b600060405180830381600087803b158015612dba57600080fd5b505af1158015612dce573d6000803e3d6000fd5b5050505050565b60007fa16a46d94261c7517cc8ff89f61c0ce93598e3c849801011dee649a6a557d100905090565b60606000612e09612dd5565b9050806002018054612e1a9061451c565b80601f0160208091040260200160405190810160405280929190818152602001828054612e469061451c565b8015612e935780601f10612e6857610100808354040283529160200191612e93565b820191906000526020600020905b815481529060010190602001808311612e7657829003601f168201915b505050505091505090565b60606000612eaa612dd5565b9050806003018054612ebb9061451c565b80601f0160208091040260200160405190810160405280929190818152602001828054612ee79061451c565b8015612f345780601f10612f0957610100808354040283529160200191612f34565b820191906000526020600020905b815481529060010190602001808311612f1757829003601f168201915b505050505091505090565b60007ff0c57e16840df040f15088dc2f81fe391c3923bec73e23a9662efc9c229c6a00905090565b612f6f61328e565b612f7982826132ce565b5050565b612f8561328e565b565b612f9182826116a3565b612fd45780826040517fe2517d3f000000000000000000000000000000000000000000000000000000008152600401612fcb929190615b24565b60405180910390fd5b5050565b600080600d54424433604051602001612ff393929190615bb6565b6040516020818303038152906040528051906020012060001c6130169190615c22565b9050600080600c838154811061302f5761302e615af5565b5b90600052602060002001541461306357600c828154811061305357613052615af5565b5b9060005260206000200154613071565b6001826130709190615a17565b5b90506000600c6001600d5461308691906159e3565b8154811061309757613096615af5565b5b9060005260206000200154146130d957600c6001600d546130b891906159e3565b815481106130c9576130c8615af5565b5b90600052602060002001546130dd565b600d545b600c83815481106130f1576130f0615af5565b5b9060005260206000200181905550600d6000815461310e90615c53565b91905081905550809250505090565b6000600360009054906101000a900473ffffffffffffffffffffffffffffffffffffffff1673ffffffffffffffffffffffffffffffffffffffff1663fca247ac4660008054906101000a900473ffffffffffffffffffffffffffffffffffffffff16866040518463ffffffff1660e01b815260040161319e93929190615c7c565b6020604051808303816000875af11580156131bd573d6000803e3d6000fd5b505050506040513d601f19601f820116820180604052508101906131e19190615cb3565b905092915050565b600560009054906101000a900473ffffffffffffffffffffffffffffffffffffffff1673ffffffffffffffffffffffffffffffffffffffff16634a4d56c58989888a898989896040518963ffffffff1660e01b8152600401613252989796959493929190615dd3565b600060405180830381600087803b15801561326c57600080fd5b505af1158015613280573d6000803e3d6000fd5b505050505050505050505050565b613296613323565b6132cc576040517fd7e6bcf800000000000000000000000000000000000000000000000000000000815260040160405180910390fd5b565b6132d661328e565b60006132e0612dd5565b9050828160020190816132f39190615e66565b50818160030190816133059190615e66565b506000801b81600001819055506000801b8160010181905550505050565b600061332d612f3f565b60000160089054906101000a900460ff16905090565b604051806101600160405280600015158152602001600060ff168152602001600063ffffffff168152602001600067ffffffffffffffff168152602001600067ffffffffffffffff16815260200160008152602001600073ffffffffffffffffffffffffffffffffffffffff168152602001600073ffffffffffffffffffffffffffffffffffffffff1681526020016000801916815260200160608152602001600060018111156133f7576133f6613ba7565b5b81525090565b508054600082559060005260206000209081019061341b919061346b565b50565b82805482825590600052602060002090810192821561345a579160200282015b8281111561345957825182559160200191906001019061343e565b5b509050613467919061346b565b5090565b5b8082111561348457600081600090555060010161346c565b5090565b6000604051905090565b600080fd5b600080fd5b60007fffffffff0000000000000000000000000000000000000000000000000000000082169050919050565b6134d18161349c565b81146134dc57600080fd5b50565b6000813590506134ee816134c8565b92915050565b60006020828403121561350a57613509613492565b5b6000613518848285016134df565b91505092915050565b60008115159050919050565b61353681613521565b82525050565b6000602082019050613551600083018461352d565b92915050565b600081519050919050565b600082825260208201905092915050565b60005b83811015613591578082015181840152602081019050613576565b60008484015250505050565b6000601f19601f8301169050919050565b60006135b982613557565b6135c38185613562565b93506135d3818560208601613573565b6135dc8161359d565b840191505092915050565b6000602082019050818103600083015261360181846135ae565b905092915050565b600073ffffffffffffffffffffffffffffffffffffffff82169050919050565b600061363482613609565b9050919050565b61364481613629565b811461364f57600080fd5b50565b6000813590506136618161363b565b92915050565b600080fd5b600080fd5b7f4e487b7100000000000000000000000000000000000000000000000000000000600052604160045260246000fd5b6136a98261359d565b810181811067ffffffffffffffff821117156136c8576136c7613671565b5b80604052505050565b60006136db613488565b90506136e782826136a0565b919050565b600067ffffffffffffffff82111561370757613706613671565b5b6137108261359d565b9050602081019050919050565b82818337600083830152505050565b600061373f61373a846136ec565b6136d1565b90508281526020810184848401111561375b5761375a61366c565b5b61376684828561371d565b509392505050565b600082601f83011261378357613782613667565b5b813561379384826020860161372c565b91505092915050565b600080604083850312156137b3576137b2613492565b5b60006137c185828601613652565b925050602083013567ffffffffffffffff8111156137e2576137e1613497565b5b6137ee8582860161376e565b9150509250929050565b6000819050919050565b61380b816137f8565b82525050565b60006020820190506138266000830184613802565b92915050565b61383581613629565b82525050565b6000602082019050613850600083018461382c565b92915050565b6000819050919050565b61386981613856565b811461387457600080fd5b50565b60008135905061388681613860565b92915050565b6000602082840312156138a2576138a1613492565b5b60006138b084828501613877565b91505092915050565b6138c281613856565b82525050565b60006020820190506138dd60008301846138b9565b92915050565b6138ec81613521565b81146138f757600080fd5b50565b600081359050613909816138e3565b92915050565b6000806040838503121561392657613925613492565b5b600061393485828601613652565b9250506020613945858286016138fa565b9150509250929050565b613958816137f8565b811461396357600080fd5b50565b6000813590506139758161394f565b92915050565b6000806040838503121561399257613991613492565b5b60006139a085828601613652565b92505060206139b185828601613966565b9150509250929050565b600080604083850312156139d2576139d1613492565b5b60006139e085828601613877565b92505060206139f185828601613652565b9150509250929050565b600067ffffffffffffffff82169050919050565b613a18816139fb565b8114613a2357600080fd5b50565b600081359050613a3581613a0f565b92915050565b600080600060608486031215613a5457613a53613492565b5b6000613a62868287016138fa565b9350506020613a7386828701613a26565b9250506040613a8486828701613a26565b9150509250925092565b600060208284031215613aa457613aa3613492565b5b600082013567ffffffffffffffff811115613ac257613ac1613497565b5b613ace8482850161376e565b91505092915050565b613ae081613521565b82525050565b600060ff82169050919050565b613afc81613ae6565b82525050565b600063ffffffff82169050919050565b613b1b81613b02565b82525050565b613b2a816139fb565b82525050565b613b39816137f8565b82525050565b613b4881613629565b82525050565b613b5781613856565b82525050565b600082825260208201905092915050565b6000613b7982613557565b613b838185613b5d565b9350613b93818560208601613573565b613b9c8161359d565b840191505092915050565b7f4e487b7100000000000000000000000000000000000000000000000000000000600052602160045260246000fd5b60028110613be757613be6613ba7565b5b50565b6000819050613bf882613bd6565b919050565b6000613c0882613bea565b9050919050565b613c1881613bfd565b82525050565b600061016083016000830151613c376000860182613ad7565b506020830151613c4a6020860182613af3565b506040830151613c5d6040860182613b12565b506060830151613c706060860182613b21565b506080830151613c836080860182613b21565b5060a0830151613c9660a0860182613b30565b5060c0830151613ca960c0860182613b3f565b5060e0830151613cbc60e0860182613b3f565b50610100830151613cd1610100860182613b4e565b50610120830151848203610120860152613ceb8282613b6e565b915050610140830151613d02610140860182613c0f565b508091505092915050565b60006020820190508181036000830152613d278184613c1e565b905092915050565b600080fd5b600080fd5b60008083601f840112613d4f57613d4e613667565b5b8235905067ffffffffffffffff811115613d6c57613d6b613d2f565b5b602083019150836001820283011115613d8857613d87613d34565b5b9250929050565b600080600080600060808688031215613dab57613daa613492565b5b600086013567ffffffffffffffff811115613dc957613dc8613497565b5b613dd588828901613d39565b95509550506020613de888828901613652565b9350506040613df988828901613652565b9250506060613e0a88828901613a26565b9150509295509295909350565b600080fd5b60006101608284031215613e3357613e32613e17565b5b81905092915050565b600060208284031215613e5257613e51613492565b5b600082013567ffffffffffffffff811115613e7057613e6f613497565b5b613e7c84828501613e1c565b91505092915050565b600060208284031215613e9b57613e9a613492565b5b6000613ea984828501613652565b91505092915050565b600060208284031215613ec857613ec7613492565b5b6000613ed684828501613966565b91505092915050565b60007fff0000000000000000000000000000000000000000000000000000000000000082169050919050565b613f1481613edf565b82525050565b600081519050919050565b600082825260208201905092915050565b6000819050602082019050919050565b6000613f528383613b30565b60208301905092915050565b6000602082019050919050565b6000613f7682613f1a565b613f808185613f25565b9350613f8b83613f36565b8060005b83811015613fbc578151613fa38882613f46565b9750613fae83613f5e565b925050600181019050613f8f565b5085935050505092915050565b600060e082019050613fde600083018a613f0b565b8181036020830152613ff081896135ae565b9050818103604083015261400481886135ae565b90506140136060830187613802565b614020608083018661382c565b61402d60a08301856138b9565b81810360c083015261403f8184613f6b565b905098975050505050505050565b60008060006040848603121561406657614065613492565b5b600084013567ffffffffffffffff81111561408457614083613497565b5b61409086828701613d39565b935093505060206140a3868287016138fa565b9150509250925092565b60008083601f8401126140c3576140c2613667565b5b8235905067ffffffffffffffff8111156140e0576140df613d2f565b5b6020830191508360018202830111156140fc576140fb613d34565b5b9250929050565b60008083601f84011261411957614118613667565b5b8235905067ffffffffffffffff81111561413657614135613d2f565b5b60208301915083602082028301111561415257614151613d34565b5b9250929050565b600060a0828403121561416f5761416e613e17565b5b81905092915050565b6000806000806000806000610100888a03121561419857614197613492565b5b600088013567ffffffffffffffff8111156141b6576141b5613497565b5b6141c28a828b01613d39565b9750975050602088013567ffffffffffffffff8111156141e5576141e4613497565b5b6141f18a828b016140ad565b9550955050604088013567ffffffffffffffff81111561421457614213613497565b5b6142208a828b01614103565b935093505060606142338a828b01614159565b91505092959891949750929550565b60006040820190506142576000830185613802565b614264602083018461382c565b9392505050565b61427481613ae6565b811461427f57600080fd5b50565b6000813590506142918161426b565b92915050565b6000806000604084860312156142b0576142af613492565b5b600084013567ffffffffffffffff8111156142ce576142cd613497565b5b6142da86828701613d39565b935093505060206142ed86828701614282565b9150509250925092565b600060e0828403121561430d5761430c613e17565b5b81905092915050565b600080600080600060a0868803121561433257614331613492565b5b600061434088828901613652565b955050602061435188828901613652565b945050604061436288828901613652565b935050606061437388828901613652565b925050608086013567ffffffffffffffff81111561439457614393613497565b5b6143a0888289016142f7565b9150509295509295909350565b600080600080606085870312156143c7576143c6613492565b5b600085013567ffffffffffffffff8111156143e5576143e4613497565b5b6143f187828801613d39565b9450945050602061440487828801613a26565b925050604061441587828801613a26565b91505092959194509250565b6000806040838503121561443857614437613492565b5b600061444685828601613652565b925050602061445785828601613652565b9150509250929050565b61446a81613b02565b811461447557600080fd5b50565b60008135905061448781614461565b92915050565b6000806000604084860312156144a6576144a5613492565b5b600084013567ffffffffffffffff8111156144c4576144c3613497565b5b6144d086828701613d39565b935093505060206144e386828701614478565b9150509250925092565b7f4e487b7100000000000000000000000000000000000000000000000000000000600052602260045260246000fd5b6000600282049050600182168061453457607f821691505b602082108103614547576145466144ed565b5b50919050565b6000604082019050614562600083018561382c565b818103602083015261457481846135ae565b90509392505050565b60008151905061458c8161394f565b92915050565b6000602082840312156145a8576145a7613492565b5b60006145b68482850161457d565b91505092915050565b60006040820190506145d4600083018561382c565b6145e1602083018461352d565b9392505050565b7f496e76616c696420746f6b656e20494400000000000000000000000000000000600082015250565b600061461e601083613562565b9150614629826145e8565b602082019050919050565b6000602082019050818103600083015261464d81614611565b9050919050565b6000606082019050614669600083018661382c565b614676602083018561382c565b6146836040830184613802565b949350505050565b60006060820190506146a0600083018661382c565b6146ad6020830185613802565b6146ba604083018461382c565b949350505050565b6146cb816139fb565b82525050565b60006060820190506146e6600083018661352d565b6146f360208301856146c2565b61470060408301846146c2565b949350505050565b600080fd5b600080fd5b600081519050614721816138e3565b92915050565b6000815190506147368161426b565b92915050565b60008151905061474b81614461565b92915050565b60008151905061476081613a0f565b92915050565b6000815190506147758161363b565b92915050565b60008151905061478a81613860565b92915050565b60006147a361479e846136ec565b6136d1565b9050828152602081018484840111156147bf576147be61366c565b5b6147ca848285613573565b509392505050565b600082601f8301126147e7576147e6613667565b5b81516147f7848260208601614790565b91505092915050565b6002811061480d57600080fd5b50565b60008151905061481f81614800565b92915050565b6000610160828403121561483c5761483b614708565b5b6148476101606136d1565b9050600061485784828501614712565b600083015250602061486b84828501614727565b602083015250604061487f8482850161473c565b604083015250606061489384828501614751565b60608301525060806148a784828501614751565b60808301525060a06148bb8482850161457d565b60a08301525060c06148cf84828501614766565b60c08301525060e06148e384828501614766565b60e0830152506101006148f88482850161477b565b6101008301525061012082015167ffffffffffffffff81111561491e5761491d61470d565b5b61492a848285016147d2565b6101208301525061014061494084828501614810565b6101408301525092915050565b60006020828403121561496357614962613492565b5b600082015167ffffffffffffffff81111561498157614980613497565b5b61498d84828501614825565b91505092915050565b60006149a28385613562565b93506149af83858461371d565b6149b88361359d565b840190509392505050565b6000819050919050565b60006149e86149e36149de846139fb565b6149c3565b6137f8565b9050919050565b6149f8816149cd565b82525050565b60006080820190508181036000830152614a19818789614996565b9050614a28602083018661382c565b614a35604083018561382c565b614a4260608301846149ef565b9695505050505050565b6000614a5b60208401846138fa565b905092915050565b6000614a726020840184614282565b905092915050565b6000614a896020840184614478565b905092915050565b6000614aa06020840184613a26565b905092915050565b6000614ab76020840184613966565b905092915050565b6000614ace6020840184613652565b905092915050565b6000614ae56020840184613877565b905092915050565b600080fd5b600080fd5b600080fd5b60008083356001602003843603038112614b1957614b18614af7565b5b83810192508235915060208301925067ffffffffffffffff821115614b4157614b40614aed565b5b600182023603831315614b5757614b56614af2565b5b509250929050565b6000614b6b8385613b5d565b9350614b7883858461371d565b614b818361359d565b840190509392505050565b600081359050614b9b81614800565b92915050565b6000614bb06020840184614b8c565b905092915050565b60006101608301614bcc6000840184614a4c565b614bd96000860182613ad7565b50614be76020840184614a63565b614bf46020860182613af3565b50614c026040840184614a7a565b614c0f6040860182613b12565b50614c1d6060840184614a91565b614c2a6060860182613b21565b50614c386080840184614a91565b614c456080860182613b21565b50614c5360a0840184614aa8565b614c6060a0860182613b30565b50614c6e60c0840184614abf565b614c7b60c0860182613b3f565b50614c8960e0840184614abf565b614c9660e0860182613b3f565b50614ca5610100840184614ad6565b614cb3610100860182613b4e565b50614cc2610120840184614afc565b858303610120870152614cd6838284614b5f565b92505050614ce8610140840184614ba1565b614cf6610140860182613c0f565b508091505092915050565b60006020820190508181036000830152614d1b8184614bb8565b905092915050565b7f4549503731323a20556e696e697469616c697a65640000000000000000000000600082015250565b6000614d59601583613562565b9150614d6482614d23565b602082019050919050565b60006020820190508181036000830152614d8881614d4c565b9050919050565b60006040820190508181036000830152614daa818587614996565b9050614db9602083018461352d565b949350505050565b600082825260208201905092915050565b600080fd5b82818337505050565b6000614dec8385614dc1565b93507f07ffffffffffffffffffffffffffffffffffffffffffffffffffffffffffffff831115614e1f57614e1e614dd2565b5b602083029250614e30838584614dd7565b82840190509392505050565b600082825260208201905092915050565b6000614e598385614e3c565b9350614e6683858461371d565b614e6f8361359d565b840190509392505050565b60a08201614e8b6000830183614aa8565b614e986000850182613b30565b50614ea66020830183614aa8565b614eb36020850182613b30565b50614ec16040830183614aa8565b614ece6040850182613b30565b50614edc6060830183614aa8565b614ee96060850182613b30565b50614ef76080830183614abf565b614f046080850182613b3f565b50505050565b6000610100820190508181036000830152614f2681898b614996565b90508181036020830152614f3b818789614de0565b90508181036040830152614f50818587614e4d565b9050614f5f6060830184614e7a565b98975050505050505050565b60006020820190508181036000830152614f86818486614996565b90509392505050565b7f4e487b7100000000000000000000000000000000000000000000000000000000600052601160045260246000fd5b6000614fc9826137f8565b9150614fd4836137f8565b9250828202614fe2816137f8565b91508282048414831517614ff957614ff8614f8f565b5b5092915050565b60006020828403121561501657615015613492565b5b600061502484828501614712565b91505092915050565b7f5472616e73666572204552433230206661696c65640000000000000000000000600082015250565b6000615063601583613562565b915061506e8261502d565b602082019050919050565b6000602082019050818103600083015261509281615056565b9050919050565b7f496e636f7272656374206e6174697665207061796d656e7420616d6f756e7400600082015250565b60006150cf601f83613562565b91506150da82615099565b602082019050919050565b600060208201905081810360008301526150fe816150c2565b9050919050565b61510e81613ae6565b82525050565b6000604082019050818103600083015261512f818587614996565b905061513e6020830184615105565b949350505050565b600080fd5b600080fd5b600080fd5b60008235600160800383360303811261517157615170615146565b5b80830191505092915050565b6000813561518a8161363b565b80915050919050565b60008160001b9050919050565b600073ffffffffffffffffffffffffffffffffffffffff6151c084615193565b9350801983169250808416831791505092915050565b60006151f16151ec6151e784613609565b6149c3565b613609565b9050919050565b6000615203826151d6565b9050919050565b6000615215826151f8565b9050919050565b6000819050919050565b61522f8261520a565b61524261523b8261521c565b83546151a0565b8255505050565b6000808335600160200384360303811261526657615265615146565b5b80840192508235915067ffffffffffffffff8211156152885761528761514b565b5b6020830192506020820236038313156152a4576152a3615150565b5b509250929050565b600081549050919050565b60008190506001806001038301049050919050565b60008190508160005260206000209050919050565b600082821b905092915050565b60006008830261531e7fffffffffffffffffffffffffffffffffffffffffffffffffffffffffffffffff826152e1565b61532886836152e1565b95508019841693508086168417925050509392505050565b600061535b615356615351846137f8565b6149c3565b6137f8565b9050919050565b6000819050919050565b61537583615340565b61538961538182615362565b8484546152ee565b825550505050565b600090565b61539e615391565b6153a981848461536c565b505050565b5b818110156153cd576153c2600082615396565b6001810190506153af565b5050565b600082821c905092915050565b81831015615417576153ef826152b7565b6153f8846152b7565b615401836152cc565b81810183820161541181836153ae565b50505050505b505050565b6801000000000000000082111561543657615435613671565b5b61543f816152ac565b82825561544d8382846153de565b505050565b600082905092915050565b6000813561546a8161394f565b80915050919050565b6000819050919050565b6154878383615452565b67ffffffffffffffff8111156154a05761549f613671565b5b6154aa818361541c565b6154b383615473565b6154bc836152cc565b6001830460005b818110156154fb5760006154d68561545d565b6154df81615362565b80925060208701965050508082850155506001810190506154c3565b5050505050505050565b61551083838361547d565b505050565b6000808335600160200384360303811261553257615531615146565b5b80840192508235915067ffffffffffffffff8211156155545761555361514b565b5b6020830192506020820236038313156155705761556f615150565b5b509250929050565b600081549050919050565b60008190506001806001038301049050919050565b60008190508160005260206000209050919050565b5b818110156155cc576155c1600082615396565b6001810190506155ae565b5050565b81831015615609576155e182615583565b6155ea84615583565b6155f383615598565b81810183820161560381836155ad565b50505050505b505050565b6801000000000000000082111561562857615627613671565b5b61563181615578565b82825561563f8382846155d0565b505050565b600082905092915050565b6000819050919050565b6156638383615644565b67ffffffffffffffff81111561567c5761567b613671565b5b615686818361560e565b61568f8361564f565b61569883615598565b6001830460005b818110156156d75760006156b28561517d565b6156bb8161521c565b809250602087019650505080828501555060018101905061569f565b5050505050505050565b6156ec838383615659565b505050565b6000810160008301806157038161517d565b905061570f8184615226565b50505060018101602083016157248185615249565b61572f818386615505565b5050505060028101604083016157458185615515565b6157508183866156e1565b5050505060038101606083016157668185615249565b615771818386615505565b505050505050565b61578382826156f1565b5050565b600080833560016020038436030381126157a4576157a3615146565b5b80840192508235915067ffffffffffffffff8211156157c6576157c561514b565b5b6020830192506001820236038313156157e2576157e1615150565b5b509250929050565b600082905092915050565b60008190508160005260206000209050919050565b60006020601f8301049050919050565b5b818110156158395761582e600082615396565b60018101905061581b565b5050565b601f82111561587e5761584f816157f5565b6158588461580a565b81016020851015615867578190505b61587b6158738561580a565b83018261581a565b50505b505050565b6000615894600019846008026153d1565b1980831691505092915050565b60006158ad8383615883565b9150826002028217905092915050565b6158c783836157ea565b67ffffffffffffffff8111156158e0576158df613671565b5b6158ea825461451c565b6158f582828561583d565b6000601f8311600181146159245760008415615912578287013590505b61591c85826158a1565b865550615984565b601f198416615932866157f5565b60005b8281101561595a57848901358255600182019150602085019450602081019050615935565b868310156159775784890135615973601f891682615883565b8355505b6001600288020188555050505b50505050505050565b6000819050919050565b60006159b26159ad6159a88461598d565b6149c3565b6139fb565b9050919050565b6159c281615997565b82525050565b60006020820190506159dd60008301846159b9565b92915050565b60006159ee826137f8565b91506159f9836137f8565b9250828203905081811115615a1157615a10614f8f565b5b92915050565b6000615a22826137f8565b9150615a2d836137f8565b9250828201905080821115615a4557615a44614f8f565b5b92915050565b60006060820190508181036000830152615a66818688614996565b9050615a7560208301856146c2565b615a8260408301846146c2565b95945050505050565b615a9481613b02565b82525050565b60006040820190508181036000830152615ab5818587614996565b9050615ac46020830184615a8b565b949350505050565b6000604082019050615ae1600083018561382c565b615aee6020830184613802565b9392505050565b7f4e487b7100000000000000000000000000000000000000000000000000000000600052603260045260246000fd5b6000604082019050615b39600083018561382c565b615b4660208301846138b9565b9392505050565b6000819050919050565b615b68615b63826137f8565b615b4d565b82525050565b60008160601b9050919050565b6000615b8682615b6e565b9050919050565b6000615b9882615b7b565b9050919050565b615bb0615bab82613629565b615b8d565b82525050565b6000615bc28286615b57565b602082019150615bd28285615b57565b602082019150615be28284615b9f565b601482019150819050949350505050565b7f4e487b7100000000000000000000000000000000000000000000000000000000600052601260045260246000fd5b6000615c2d826137f8565b9150615c38836137f8565b925082615c4857615c47615bf3565b5b828206905092915050565b6000615c5e826137f8565b915060008203615c7157615c70614f8f565b5b600182039050919050565b6000606082019050615c916000830186613802565b615c9e602083018561382c565b615cab6040830184613802565b949350505050565b600060208284031215615cc957615cc8613492565b5b6000615cd784828501614766565b91505092915050565b600081519050919050565b600082825260208201905092915050565b6000819050602082019050919050565b6000615d188383613b3f565b60208301905092915050565b6000602082019050919050565b6000615d3c82615ce0565b615d468185615ceb565b9350615d5183615cfc565b8060005b83811015615d82578151615d698882615d0c565b9750615d7483615d24565b925050600181019050615d55565b5085935050505092915050565b600081519050919050565b6000615da582615d8f565b615daf8185614e3c565b9350615dbf818560208601613573565b615dc88161359d565b840191505092915050565b600061010082019050615de9600083018b61382c565b8181036020830152615dfb818a615d31565b90508181036040830152615e0f8189613f6b565b9050615e1e606083018861382c565b8181036080830152615e308187615d9a565b9050615e3f60a0830186613802565b615e4c60c0830185615a8b565b615e5960e0830184615a8b565b9998505050505050505050565b615e6f82613557565b67ffffffffffffffff811115615e8857615e87613671565b5b615e92825461451c565b615e9d82828561583d565b600060209050601f831160018114615ed05760008415615ebe578287015190505b615ec885826158a1565b865550615f30565b601f198416615ede866157f5565b60005b82811015615f0657848901518255600182019150602085019450602081019050615ee1565b86831015615f235784890151615f1f601f891682615883565b8355505b6001600288020188555050505b50505050505056fea26469706673582212201316dfe0e81987e3fdbd4f70a340f650890b034be886554b8a327e700f63e34464736f6c634300081a0033",
  "devdoc": {
    "errors": {
      "AccessControlBadConfirmation()": [
        {
          "details": "The caller of a function is not the expected one. NOTE: Don't confuse with {AccessControlUnauthorizedAccount}."
        }
      ],
      "AccessControlUnauthorizedAccount(address,bytes32)": [
        {
          "details": "The `account` is missing a role."
        }
      ],
      "InvalidInitialization()": [
        {
          "details": "The contract is already initialized."
        }
      ],
      "NotInitializing()": [
        {
          "details": "The contract is not initializing."
        }
      ]
    },
    "events": {
      "EIP712DomainChanged()": {
        "details": "MAY be emitted to signal that the domain could have changed."
      },
      "Initialized(uint64)": {
        "details": "Triggered when the contract has been initialized or reinitialized."
      },
      "NFTMinted(address,uint256,address)": {
        "params": {
          "ipId": "The ID of the NFT IP.",
          "recipient": "The address of the recipient of the NFT.",
          "tokenId": "The token ID of the minted NFT."
        }
      },
      "RoleAdminChanged(bytes32,bytes32,bytes32)": {
        "details": "Emitted when `newAdminRole` is set as ``role``'s admin role, replacing `previousAdminRole` `DEFAULT_ADMIN_ROLE` is the starting admin for all roles, despite {RoleAdminChanged} not being emitted signaling this."
      },
      "RoleGranted(bytes32,address,address)": {
        "details": "Emitted when `account` is granted `role`. `sender` is the account that originated the contract call. This account bears the admin role (for the granted role). Expected in cases where the role was granted using the internal {AccessControl-_grantRole}."
      },
      "RoleRevoked(bytes32,address,address)": {
        "details": "Emitted when `account` is revoked `role`. `sender` is the account that originated the contract call:   - if using `revokeRole`, it is the admin role bearer   - if using `renounceRole`, it is the role bearer (i.e. `account`)"
      }
    },
    "kind": "dev",
    "methods": {
      "constructor": {
        "custom:oz-upgrades-unsafe-allow": "constructor"
      },
      "eip712Domain()": {
        "details": "See {IERC-5267}."
      },
      "getRoleAdmin(bytes32)": {
        "details": "Returns the admin role that controls `role`. See {grantRole} and {revokeRole}. To change a role's admin, use {_setRoleAdmin}."
      },
      "grantRole(bytes32,address)": {
        "details": "Grants `role` to `account`. If `account` had not been already granted `role`, emits a {RoleGranted} event. Requirements: - the caller must have ``role``'s admin role. May emit a {RoleGranted} event."
      },
      "hasRole(bytes32,address)": {
        "details": "Returns `true` if `account` has been granted `role`."
      },
      "mint(string,bytes,bytes32[],(uint256,uint256,uint256,uint256,address))": {
        "params": {
          "mintparams": "The mint parameter signer sign the caller's address (msg.sender) for this `mint` function.",
          "proof": "The proof for the leaf of the allowlist in a stage if mint type is Allowlist.",
          "signature": "The signature from the whitelist signer. This signautre is genreated by having the whitelist",
          "stage": "Identification of the stage"
        },
        "returns": {
          "ipId": "The ID of the NFT IP.",
          "tokenId": "The token ID of the minted NFT."
        }
      },
      "mintRecord(address,string)": {
        "params": {
          "stage": "The stage name",
          "to": "Inquiry address"
        }
      },
      "preMint(address,uint256)": {
        "params": {
          "to": "The recipient of the minted NFT.",
          "tokenId_": "The token ID of the minted NFT."
        }
      },
      "renounceRole(bytes32,address)": {
        "details": "Revokes `role` from the calling account. Roles are often managed via {grantRole} and {revokeRole}: this function's purpose is to provide a mechanism for accounts to lose their privileges if they are compromised (such as when a trusted device is misplaced). If the calling account had been revoked `role`, emits a {RoleRevoked} event. Requirements: - the caller must be `callerConfirmation`. May emit a {RoleRevoked} event."
      },
      "revokeRole(bytes32,address)": {
        "details": "Revokes `role` from `account`. If `account` had been granted `role`, emits a {RoleRevoked} event. Requirements: - the caller must have ``role``'s admin role. May emit a {RoleRevoked} event."
      },
      "setActiveSigner(address,bool)": {
        "params": {
          "signer": "Signer address.",
          "status": "Effective status."
        }
      },
      "setContracts(address,address)": {
        "params": {
          "multiRoundContract": "The new MultiRound contract address.",
          "nftContract": "The new NFT contract address."
        }
      },
      "setMaxSupply(uint256)": {
        "params": {
          "newMaxSupply": "The new maximum number of nfts that can be minted."
        }
      },
      "setPreMintedCount(uint256)": {
        "params": {
          "count": "The number of pre-minted NFTs"
        }
      },
      "setSigner(address)": {
        "params": {
          "signer_": "The new whitelist signer address."
        }
      },
      "setStageEnableSig(string,bool)": {
        "params": {
          "enableSig": "Whether to enable (true, false).",
          "stage": "Round identification."
        }
      },
      "setStageMaxSupply(string,uint32)": {
        "params": {
          "maxSupply_": "nft maximum supply.",
          "stage": "Round identification."
        }
      },
      "setStageMintInfo((bool,uint8,uint32,uint64,uint64,uint256,address,address,bytes32,string,uint8))": {
        "params": {
          "stageMintInfo": "The mint information for the stage."
        }
      },
      "setStageMintLimitationPerAddress(string,uint8)": {
        "params": {
          "mintLimitationPerAddress": "Single address mint limit.",
          "stage": "Round identification."
        }
      },
      "setStageMintTime(string,uint64,uint64)": {
        "params": {
          "endTime": "The end time of the stage.",
          "stage": "Round identification.",
          "startTime": "The start time of the stage."
        }
      },
      "setStagePayment(string,address,address,uint64)": {
        "params": {
          "payeeAddress": "Payment address.",
          "paymentToken": "Token contract address for payment (if 0, it is a native token).",
          "price": "Single nft price.",
          "stage": "Round identification."
        }
      },
      "setTransferRestricted(bool,uint64,uint64)": {
        "params": {
          "endTime": "End time.",
          "isTransferRestricted_": "Whether to restrict transfer.",
          "startTime": "Start time."
        }
      },
      "stageToMint(string)": {
        "params": {
          "stage": "The stage name"
        }
      },
      "stageToTotalSupply(string)": {
        "params": {
          "stage": "The stage name"
        }
      },
      "supportsInterface(bytes4)": {
        "details": "See {IERC165-supportsInterface}."
      }
    },
    "version": 1
  },
  "userdoc": {
    "events": {
      "NFTMinted(address,uint256,address)": {
        "notice": "Emitted when a NFT is minted."
      }
    },
    "kind": "user",
    "methods": {
      "CORE_METADATA_MODULE()": {
        "notice": "The Core Metadata Module contract address."
      },
      "IP_ASSET_REGISTRY()": {
        "notice": "The IP Asset Registry contract address."
      },
      "LICENSING_MODULE()": {
        "notice": "The Licensing Module contract address."
      },
      "MULTIROUND_CONTRACT()": {
        "notice": "We need a MultiRound contract to manage rounds"
      },
      "NFT_CONTRACT()": {
        "notice": "We need a NFT contract to mint NFTs"
      },
      "PIL_TEMPLATE()": {
        "notice": "Story Proof-of-Creativity PILicense Template address."
      },
      "ipMetadataURI()": {
        "notice": "IP information"
      },
      "lastMintedTokenId()": {
        "notice": "Last minted token ID"
      },
      "maxSupply()": {
        "notice": "Query the maximum number of nfts that can be minted"
      },
      "mint(string,bytes,bytes32[],(uint256,uint256,uint256,uint256,address))": {
        "notice": "Mints a NFT for the given recipient, registers it as an IP,         and makes it a derivative of the organization IP."
      },
      "mintRecord(address,string)": {
        "notice": "Query the quantity that has been minted at a certain stage at a certain address"
      },
      "preMint(address,uint256)": {
        "notice": "Pre-Mints a NFT with specified tokenID for the given recipient, registers it as an IP,         and makes it a derivative of the organization IP."
      },
      "preMintedCount()": {
        "notice": "Number of pre-minted NFTs"
      },
      "rootNFT()": {
        "notice": "Root NFT"
      },
      "setActiveSigner(address,bool)": {
        "notice": "Set a valid signer address.     If the address has been configured, it is a modify function.abi     If the address has not been configured, then it is and add function to configure the address."
      },
      "setContracts(address,address)": {
        "notice": "Updates the MULTIROUND_CONTRACT and the NFT_CONTRACT addresses."
      },
      "setMaxSupply(uint256)": {
        "notice": "Configure or update the maximum number of nfts that can be minted."
      },
      "setPreMintedCount(uint256)": {
        "notice": "Set number of pre-minted NFTs"
      },
      "setSigner(address)": {
        "notice": "Updates the whitelist signer."
      },
      "setStageEnableSig(string,bool)": {
        "notice": "Set whether server level signing is enabled for a specific round according to the stage"
      },
      "setStageMaxSupply(string,uint32)": {
        "notice": "According to the stage, set the maximum nft supply for a specific round."
      },
      "setStageMintInfo((bool,uint8,uint32,uint64,uint64,uint256,address,address,bytes32,string,uint8))": {
        "notice": "Configure or update the information of a certain round according to the stage"
      },
      "setStageMintLimitationPerAddress(string,uint8)": {
        "notice": "Set the upper limit of the number of mints per address for a specific round according to the stage"
      },
      "setStageMintTime(string,uint64,uint64)": {
        "notice": "Configure or update the mint time for a specific stage."
      },
      "setStagePayment(string,address,address,uint64)": {
        "notice": "Set payment information for a specific round based on the stage"
      },
      "setTransferRestricted(bool,uint64,uint64)": {
        "notice": "Set whether to restrict transfer, if configured to true, transfer is not allowed.     Otherwise, transfer is allowed."
      },
      "stageToMint(string)": {
        "notice": "Query configuration information for a specific stage"
      },
      "stageToTotalSupply(string)": {
        "notice": "Query the total number of minted under the current stage"
      },
      "totalSupply()": {
        "notice": "Query the total mint quantity"
      }
    },
    "version": 1
  },
  "storageLayout": {
    "storage": [
      {
        "astId": 6548,
        "contract": "contracts/MimbokuMultiround.sol:MimbokuMultiround",
        "label": "NFT_CONTRACT",
        "offset": 0,
        "slot": "0",
        "type": "t_address"
      },
      {
        "astId": 6551,
        "contract": "contracts/MimbokuMultiround.sol:MimbokuMultiround",
        "label": "MULTIROUND_CONTRACT",
        "offset": 0,
        "slot": "1",
        "type": "t_address"
      },
      {
        "astId": 6554,
        "contract": "contracts/MimbokuMultiround.sol:MimbokuMultiround",
        "label": "PIL_TEMPLATE",
        "offset": 0,
        "slot": "2",
        "type": "t_address"
      },
      {
        "astId": 6557,
        "contract": "contracts/MimbokuMultiround.sol:MimbokuMultiround",
        "label": "IP_ASSET_REGISTRY",
        "offset": 0,
        "slot": "3",
        "type": "t_address"
      },
      {
        "astId": 6560,
        "contract": "contracts/MimbokuMultiround.sol:MimbokuMultiround",
        "label": "CORE_METADATA_MODULE",
        "offset": 0,
        "slot": "4",
        "type": "t_address"
      },
      {
        "astId": 6563,
        "contract": "contracts/MimbokuMultiround.sol:MimbokuMultiround",
        "label": "LICENSING_MODULE",
        "offset": 0,
        "slot": "5",
        "type": "t_address"
      },
      {
        "astId": 6567,
        "contract": "contracts/MimbokuMultiround.sol:MimbokuMultiround",
        "label": "rootNFT",
        "offset": 0,
        "slot": "6",
        "type": "t_struct(RootNFT)7573_storage"
      },
      {
        "astId": 6570,
        "contract": "contracts/MimbokuMultiround.sol:MimbokuMultiround",
        "label": "ipMetadataURI",
        "offset": 0,
        "slot": "10",
        "type": "t_string_storage"
      },
      {
        "astId": 6572,
        "contract": "contracts/MimbokuMultiround.sol:MimbokuMultiround",
        "label": "ipMetadataHash",
        "offset": 0,
        "slot": "11",
        "type": "t_bytes32"
      },
      {
        "astId": 6576,
        "contract": "contracts/MimbokuMultiround.sol:MimbokuMultiround",
        "label": "remainingTokenIds",
        "offset": 0,
        "slot": "12",
        "type": "t_array(t_uint256)dyn_storage"
      },
      {
        "astId": 6579,
        "contract": "contracts/MimbokuMultiround.sol:MimbokuMultiround",
        "label": "remainingTokenIdCount",
        "offset": 0,
        "slot": "13",
        "type": "t_uint256"
      },
      {
        "astId": 6582,
        "contract": "contracts/MimbokuMultiround.sol:MimbokuMultiround",
        "label": "preMintedCount",
        "offset": 0,
        "slot": "14",
        "type": "t_uint256"
      },
      {
        "astId": 6585,
        "contract": "contracts/MimbokuMultiround.sol:MimbokuMultiround",
        "label": "lastMintedTokenId",
        "offset": 0,
        "slot": "15",
        "type": "t_uint256"
      }
    ],
    "types": {
      "t_address": {
        "encoding": "inplace",
        "label": "address",
        "numberOfBytes": "20"
      },
      "t_array(t_address)dyn_storage": {
        "base": "t_address",
        "encoding": "dynamic_array",
        "label": "address[]",
        "numberOfBytes": "32"
      },
      "t_array(t_uint256)dyn_storage": {
        "base": "t_uint256",
        "encoding": "dynamic_array",
        "label": "uint256[]",
        "numberOfBytes": "32"
      },
      "t_bytes32": {
        "encoding": "inplace",
        "label": "bytes32",
        "numberOfBytes": "32"
      },
      "t_string_storage": {
        "encoding": "bytes",
        "label": "string",
        "numberOfBytes": "32"
      },
      "t_struct(RootNFT)7573_storage": {
        "encoding": "inplace",
        "label": "struct IMimbokuMultiround.RootNFT",
        "members": [
          {
            "astId": 7563,
            "contract": "contracts/MimbokuMultiround.sol:MimbokuMultiround",
            "label": "contractAddress",
            "offset": 0,
            "slot": "0",
            "type": "t_address"
          },
          {
            "astId": 7566,
            "contract": "contracts/MimbokuMultiround.sol:MimbokuMultiround",
            "label": "tokenIds",
            "offset": 0,
            "slot": "1",
            "type": "t_array(t_uint256)dyn_storage"
          },
          {
            "astId": 7569,
            "contract": "contracts/MimbokuMultiround.sol:MimbokuMultiround",
            "label": "ipIds",
            "offset": 0,
            "slot": "2",
            "type": "t_array(t_address)dyn_storage"
          },
          {
            "astId": 7572,
            "contract": "contracts/MimbokuMultiround.sol:MimbokuMultiround",
            "label": "licenseTermsIds",
            "offset": 0,
            "slot": "3",
            "type": "t_array(t_uint256)dyn_storage"
          }
        ],
        "numberOfBytes": "128"
      },
      "t_uint256": {
        "encoding": "inplace",
        "label": "uint256",
        "numberOfBytes": "32"
      }
    }
  }
}